:0400000007EF00F016
:100008007E82EFED06F0D3EF0CF0ACC0B0F000014B
:10001800B16BB26B0001AB350001B03701E3B181C0
:100028000001B0510001B56FAFC0B0F00001B16B75
:10003800B26B0001AE350001B03701E3B1810001B8
:10004800B0510001B46F0001B5510001D8B411D00E
:100058000001B4510001B55DD8B012D00001B5510E
:1000680000080001B4250001B06F180E0001B0654A
:1000780007D0ADC0AAF0AEC0ABF0AFC0ACF0120074
:100088000001B4510001D8B411D00001B5510001EC
:10009800B45DD8B012D00001B45100080001B525F4
:1000A8000001B06F180E0001B06507D0AAC0AAF011
:1000B800ABC0ABF0ACC0ACF01200060E0001B36FE1
:1000C8000001ACAF02D00001B38F0001AFAF02D086
:1000D8000001B38D0001AB8FFF0E0001AA17FF0EC0
:1000E8000001AB17000E0001AC170001AE8FFF0E28
:1000F8000001AD17FF0E0001AE17000E0001AF178B
:100108000001B4510001B55DD8B025D00001D890E8
:10011800AD37AE37AF370001B4070001B551000164
:10012800B419D8B411D00001B307B3C0B0F0070EAA
:100138000001B017D8B408D0E9D70001D890AC3383
:10014800AB33AA330001B52B0001B4510001B51936
:10015800D8B42BD0F2D70001B5510001B45DD8B0A6
:1001680024D00001D890AA37AB37AC370001B507C7
:100178000001B5510001B419D8B411D00001B3077A
:10018800B3C0B0F0070E0001B017D8B408D0E9D753
:100198000001D890AF33AE33AD330001B42B00016A
:1001A800B4510001B519D8A4F3D70001B3AF12D0E8
:1001B800FF0E0001AA1BFF0E0001AB1BFF0E000182
:1001C800AC1B010E0001AA27000E0001AB23000E94
:1001D8000001AC230001B3AD12D0FF0E0001AD1B2E
:1001E800FF0E0001AE1BFF0E0001AF1B010E000148
:1001F800AD27000E0001AE23000E0001AF23000E54
:100208000001B36F0001AA510001AD270001AB51F5
:100218000001AE230001AC510001AF230001AFAFD4
:1002280015D0FF0E0001AD1BFF0E0001AE1BFF0E27
:100238000001AF1B010E0001AD27000E0001AE2327
:10024800000E0001AF23010E0001B36FADC080F0B6
:10025800AEC081F0AFC082F0B5C083F0B3C084F007
:100268008DEC07F080C0AAF081C0ABF082C0ACF082
:100278001200F2A402D0010E01D0000E0C6E0D6A1D
:100288009EA002D0010E01D0000E0E6E0F6A9EA233
:1002980002D0010E01D0000E106E116AA1A202D088
:1002A800010E01D0000E126E136A000E156E000EBC
:1002B800146E15BE08D0155005E1040E145CD8B0B4
:1002C800120001D01200D8901434D96E1534DA6EA9
:1002D8000C0ED926000EDA22DE50DE10D8B4ABD0D0
:1002E800D8901434D96E1534DA6E180ED926010E4A
:1002F800DA22DECF01F0DDCF02F0D8901434D96EC7
:100308001534DA6E100ED926010EDA22DECF03F08C
:10031800DDCF04F034EC0BF001500210D8B42FD02C
:1003280014C001F015C002F0AF0E036E3C0E046E4F
:10033800000E056E000E066E61EC0EF0D8901434B7
:10034800D96E1534DA6E180ED926010EDA22DECFF0
:1003580001F0DDCF02F0D8901434D96E1534DA6E7E
:10036800100ED926010EDA22DECF03F0DDCF04F01D
:10037800000E066E000E056EE4EC0BF047D014C0BC
:1003880001F015C002F0000E0A6E010E0B6ED89037
:100398001434D96E1534DA6ED890D936DA360A5054
:1003A800D9260B50DA22DECF03F0DECF04F0DECF01
:1003B80005F0DECF06F061EC0EF0D8901434D96E5B
:1003C8001534DA6E180ED926010EDA22DECF01F0C6
:1003D800DDCF02F0D8901434D96E1534DA6E100ED1
:1003E800D926010EDA22DECF03F0DDCF04F0000EAD
:1003F800066E010E056EE4EC0BF008D0F2941BD0EB
:100408009E9019D09E9217D0A19215D014C00AF0D0
:1004180015C00BF00B50000AD8A40DD00A50000AE2
:10042800D8B4ECD7010AD8B4EBD7030AD8B4EAD7C2
:10043800010AD8B4E9D7144A152A15BE44D715506D
:1004480001E13BD712002DC031F0326A336A2C34F7
:10045800313601E332803150366E30C031F0326AC5
:10046800336A2F34313601E332803150356E3650DD
:10047800D8B40BD03550365CD8B00ED03650000802
:100488003524316E180E316407D02EC02BF02FC0E2
:100498002CF030C02DF012003550D8B40BD03650A7
:1004A800355CD8B00ED0355000083624316E180EA1
:1004B800316407D02BC02BF02CC02CF02DC02DF0B0
:1004C8001200060E346E2DBE348E30BE348C2C8E47
:1004D800FF0E2B16FF0E2C16000E2D162F8EFF0E5C
:1004E8002E16FF0E2F16000E30163550365CD8B07B
:1004F8001BD0D8902E362F36303635063650351864
:10050800D8B40DD0340634C031F0070E3116D8B443
:1005180006D0EFD7D8902D322C322B32362A3550D0
:100528003618D8B41FD0F6D73650355CD8B01AD0A4
:10053800D8902B362C362D36360636503518D8B48A
:100548000DD0340634C031F0070E3116D8B406D0B9
:10055800EFD7D89030322F322E32352A3550361810
:10056800D8A4F7D734AE0CD0FF0E2B1AFF0E2C1AD6
:10057800FF0E2D1A010E2B26000E2C22000E2D2206
:1005880034AC0CD0FF0E2E1AFF0E2F1AFF0E301AA5
:10059800010E2E26000E2F22000E3022000E346E81
:1005A8002B502E262C502F222D50302230AE0ED01C
:1005B800FF0E2E1AFF0E2F1AFF0E301A010E2E26CE
:1005C800000E2F22000E3022010E346E2EC001F0D4
:1005D8002FC002F030C003F036C004F034C005F07C
:1005E8008DEC0BF001C02BF002C02CF003C02DF0F5
:1005F8001200000E0001CD6F000ECE6F000ECF6FFF
:10060800000ED06FE20E0001D86F040ED96F000EF5
:10061800DA6F000EDB6F6A0E0001D16F180ED26F11
:10062800000ED36F000ED46FD8C0C9F0D9C0CAF07D
:10063800DAC0CBF0DBC0CCF00001C91FCA1FCB1F4A
:10064800CC1FC92B000ECA23CB23CC230001D151C8
:100658000001C9250001886F0001D2510001CA219B
:100668000001896F0001D3510001CB2100018A6F7D
:100678000001D4510001CC2100018B6F3AEC0CF041
:1006880088C09EF089C09FF08AC0A0F0000E0001CB
:100698008F6F340E0001906F430E0001916FC5C03B
:1006A80088F0C6C089F0F6EC0EF088C08CF089C0DE
:1006B8008DF08AC08EF007EC05F08CC09BF08DC0E1
:1006C8009CF08EC09DF0B0EC03F09BC0ADF09CC0D8
:1006D800AEF09DC0AFF0D8C088F0D9C089F0DAC0BC
:1006E8008AF0DBC08BF03AEC0CF088C0AAF089C025
:1006F800ABF08AC0ACF009EC00F0AAC0D5F0ABC0F2
:10070800D6F0ACC0D7F0CDC088F0CEC089F0CFC04D
:100718008AF0D0C08BF03AEC0CF088C0ADF089C0FC
:10072800AEF08AC0AFF0D5C0AAF0D6C0ABF0D7C043
:10073800ACF009EC00F0AAC0B6F0ABC0B7F0ACC0A2
:10074800B8F0ADEC05F0B6C0C5F0B7C0C6F0B8C09B
:10075800C7F0B9C0C8F012009DC0A1F00001A26B9B
:10076800A36B00019C350001A13701E3A2810001C0
:10077800A1510001A46F0001A451D8A40AD0000E11
:1007880000019B6F000E00019C6F000E00019D6F21
:100798001200A0C0A1F00001A26BA36B00019F355D
:1007A8000001A13701E3A2810001A1510001A96F55
:1007B8000001A951D8A40AD0000E00019B6F000EB9
:1007C80000019C6F000E00019D6F12000001A951ED
:1007D8007B0F0001A4279DC0A9F00001A0510001D2
:1007E800A91B800E0001A91700019C8F00019F8F93
:1007F800FF0E00019E17FF0E00019F17000E00015B
:10080800A017000E0001A56F000E0001A66F000ED4
:100818000001A76F070E0001A86F00019BA10CD073
:1008280000019E510001A52700019F510001A62348
:100838000001A0510001A7230001D8909D339C33EB
:100848009B330001D8909E379F37A0370001A82F0F
:10085800E4D7090E0001A86F00019BA10CD000018C
:100868009E510001A52700019F510001A623000108
:10087800A0510001A7230001D8909D339C339B33DE
:100888000001D890A733A633A5330001A82FE4D7D9
:10089800A5C080F0A6C081F0A7C082F0A4C083F0F4
:1008A800A9C084F08DEC07F080C09BF081C09CF05B
:1008B80082C09DF01200890E0001926F000E0001A7
:1008C800936F92D0250E00019419D8B405D0000179
:1008D800945196EC0FF088D0000E00018D6F11D066
:1008E80092C0D9FF93C0DAFFDF500001946F020E67
:1008F80000019227000E93230001945196EC0FF00B
:1009080073D087C0F6FF88C0F7FF0001874B882B9C
:100918000800F5CF94F000019451000AD8B41200F1
:10092800630AD8B4DDD71B0AD8A4E6D792C0D9FF8A
:1009380093C0DAFFDECF8FF0DDCF90F0020E00011A
:100948009227000E9323010E0001946F040E0001FC
:100958009419D8B416D000019451020D9A0EF324BC
:10096800F66EFE0EF420F76E0900F55000018F5D5B
:100978000900F55000019059D8A003D00001942B2C
:10098800E5D794C091F02AD08FC080F090C081F054
:1009980000019151020D9A0EF324F66EFE0EF4201A
:1009A800F76E0900F5CF82F00A00F5CF83F051EC1D
:1009B8000DF0000180510F0B00018E6F00018E5168
:1009C800010D2E0EF324F66EFF0EF420F76E0800CC
:1009D800F5CF94F00001945196EC0FF000019107C7
:1009E80000019129D8A4D0D787C0F6FF88C0F7FFA7
:1009F8000001874B882B0800F5CF94F00001945133
:100A0800D8B412005FD78EC092F00001936B946B3C
:100A180000018D350001923701E393810001925165
:100A28000001996F00019951D8A40AD0000E000165
:100A38008C6F000E00018D6F000E00018E6F12008A
:100A480091C092F00001936B946B00019035000106
:100A5800923701E393810001925100019A6F0001DE
:100A68009A51D8A40AD0000E00018C6F000E000124
:100A78008D6F000E00018E6F1200000E0001966F40
:100A8800000E0001976F000E0001986F00019A5147
:100A9800890F0001995F8EC09AF000019151000101
:100AA8009A1B800E00019A1700018D8FFF0E00011E
:100AB8008C17FF0E00018D17000E00018E17000124
:100AC800908FFF0E00018F17FF0E00019017000E88
:100AD80000019117180E0001956F0001D890963704
:100AE8009737983700018F5100018C5D00019051B4
:100AF80000018D590001915100018E59D8A00ED0E6
:100B080000018F5100018C5F0001905100018D5B45
:100B18000001915100018E5B000196810001D8907F
:100B28008C378D378E370001952FD7D796C080F038
:100B380097C081F098C082F099C083F09AC084F081
:100B48008DEC07F080C08CF081C08DF082C08EF0F3
:100B58001200B8C0BAF00001BB6BBC6B0001B7351E
:100B68000001BA3701E3BB810001BA510001C46F2B
:100B78000001C451D8A40AD0000E0001B66F000EBF
:100B8800B76F000EB86F000EB96F1200170E000194
:100B9800BA6FB6C0BBF0B7C0BCF0B8C0BDF00001BA
:100BA800BA290001BE6F05D00001D890BD33BC330F
:100BB800BB330001BE2FF8D70001BB510001BF6F46
:100BC8000001B78FFF0E0001B617FF0E0001B7171F
:100BD800000E0001B8170001B6510001C06F0001F6
:100BE800B7510001C16F0001B8510001C26F000187
:100BF800C36B8E0E0001C45F0001C4AF1AD00001A0
:100C0800C451800A8F0FD8B00AD0000E0001B66F09
:100C1800000EB76F000EB86F000EB96F120000011A
:100C2800D890C333C233C133C0330001C43FF7D7B0
:100C38001BD0170E0001C46512D0000E0001B66F5C
:100C4800000EB76F000EB86F000EB96F12000001EA
:100C5800D890C037C137C237C3370001C407000175
:100C6800C4510001D8A4F3D70001BF510001D8B482
:100C780009D00001C31FC21FC11FC06D000EC123D0
:100C8800C223C323C0C0B6F0C1C0B7F0C2C0B8F019
:100C9800C3C0B9F01200000E4E6E000E4F6E000E6B
:100CA800506E000E516EE20E596E040E5A6E000E12
:100CB8005B6E000E5C6E6A0E526E180E536E000E5E
:100CC800546E000E556E59C04AF05AC04BF05BC0C6
:100CD8004CF05CC04DF04A1E4B1E4C1E4D1E4A2A5D
:100CE800000E4B224C224D2252504A24096E53507A
:100CF8004B200A6E54504C200B6E55504D200C6EF4
:100D0800C9EC0DF009C01FF00AC020F00BC021F09B
:100D1800000E106E340E116E430E126E46C009F0AE
:100D280047C00AF037EC0FF009C00DF00AC00EF00A
:100D38000BC00FF089EC09F00DC01CF00EC01DF0BF
:100D48000FC01EF00FEC09F01CC02EF01DC02FF0D4
:100D58001EC030F059C009F05AC00AF05BC00BF051
:100D68005CC00CF0C9EC0DF009C02BF00AC02CF0E7
:100D78000BC02DF027EC02F02BC056F02CC057F01A
:100D88002DC058F04EC009F04FC00AF050C00BF00B
:100D980051C00CF0C9EC0DF009C02EF00AC02FF0BC
:100DA8000BC030F056C02BF057C02CF058C02DF0B7
:100DB80027EC02F02BC037F02CC038F02DC039F0EA
:100DC80095EC08F037C046F038C047F039C048F015
:100DD8003AC049F012000600FACF67F0FBCF68F07E
:100DE800E9CF69F0EACF6AF0E1CF6BF0E2CF6CF0BF
:100DF800D9CF6DF0DACF6EF0F3CF6FF0F4CF70F09B
:100E0800F6CF71F0F7CF72F0F8CF73F0F5CF74F03A
:100E18003DEC01F0F2A206D0F292000E0001FF6F45
:100E2800010EFE6FF0A057D0F09081380F0B0F0B1A
:100E3800756E7550D8A40AD0000E5E6E000E5D6EF9
:100E4800000E606E1E0E5F6E05EC0EF07504D8A4E1
:100E58000AD0000E5E6E000E5D6E000E606E5A0EB9
:100E68005F6E05EC0EF0020E7518D8A40AD0000EBD
:100E78005E6E000E5D6E000E606E870E5F6E05EC96
:100E88000EF0040E7518D8A40AD0000E5E6E030E7C
:100E98005D6E000E606E500E5F6E05EC0EF0050E76
:100EA8007518D8A40AD0000E5E6E030E5D6E000E93
:100EB800606E5A0E5F6E05EC0EF0060E7518D8A41B
:100EC8000AD0000E5E6E030E5D6E000E606E640E3C
:100ED8005F6E05EC0EF074C0F5FF73C0F8FF72C0CA
:100EE800F7FF71C0F6FF70C0F4FF6FC0F3FF6EC06C
:100EF800DAFF6DC0D9FF6CC0E2FF6BC0E1FF6AC0CA
:100F0800EAFF69C0E9FF68C0FBFF67C0FAFF7E928D
:100F18001100000183510001D8B408D000018051AC
:100F28000001811100018211D8A411D0000E000126
:100F3800806F000E0001816F000E0001826F1200A9
:100F48000001832B0001D890823381338033000E57
:100F5800000180150001856F000E00018115000158
:100F6800866FFE0E000182150001876F0001855112
:100F78000001861100018711D8B411D0E1D7000112
:100F8800832B010E00018027000E00018123000E33
:100F9800000182230001D890823381338033000E10
:100FA800000180150001856F000E00018115000108
:100FB800866FFF0E000182150001876F00018551C1
:100FC8000001861100018711D8B408D0D8D70001D4
:100FD80083070001D890803781378237000181BFAD
:100FE80004D0020E00018361F2D7000183B102D060
:100FF8000001819F0001D8908333000183510001D3
:101008008213000184510001D8B402D00001828FFC
:1010180080C080F081C081F082C082F01200F6ECBE
:101028000FF06CEC0FF0410AD8A4FBD7E3EC0FF0FB
:101038006CEC0FF00001966F420E00019619D8B4BF
:101048000AD0430E00019619D8B405D02A0E000123
:101058009619D8A4EDD7430E00019619D8A456D0F6
:10106800D0EC0FF06CEC0FF00001966F310E000120
:101078009619D8B414D0320E00019619D8B40FD0EE
:10108800330E00019619D8B40AD0340E000196190F
:10109800D8B405D02A0E00019619D8A4E3D72A0E91
:1010A80000019619D8B4C2D70001965153EC0FF03D
:1010B8006CEC0FF00001966F410E00019619D8B440
:1010C8000AD0420E00019619D8B405D02A0E0001A4
:1010D8009619D8A4EDD7410E00019619D8A403D0CB
:1010E800AAEC0FF00DD0420E00019619D8A403D037
:1010F800BDEC0FF005D02A0E00019619D8B496D78A
:101108006CEC0FF02A0AD8B4CFD7FAD7420E0001F8
:101118009619D8B412002A0E00019619D8B47FD7B0
:1011280085D739C03BF03C6A3D6A38343B3601E329
:101138003C803B50456E4550D8A409D0000E376E10
:10114800000E386E000E396E000E3A6E1200170E41
:101158003B6E37C03CF038C03DF039C03EF03B280C
:101168003F6E04D0D8903E323D323C323F2EFAD703
:101178003C50406E388EFF0E3716FF0E3816000EA4
:1011880039163750416E3850426E3950436E446AB2
:101198008E0E455E45AE16D04550800A8F0FD8B0EA
:1011A80009D0000E376E000E386E000E396E000E34
:1011B8003A6E1200D8904432433242324132453EB0
:1011C800F9D715D0170E45640FD0000E376E000EF4
:1011D800386E000E396E000E3A6E1200D890413605
:1011E80042364336443645064550D8A4F7D74050D2
:1011F800D8B408D0441E431E421E416C000E422241
:101208004322442241C037F042C038F043C039F08D
:1012180044C03AF012001EC022F0236A246A1D342A
:10122800223601E323802250256E2550D8A407D00A
:10123800000E1C6E000E1D6E000E1E6E120021C0E8
:1012480022F0236A246A2034223601E323802250C4
:101258002A6E2A50D8A407D0000E1C6E000E1D6EF0
:10126800000E1E6E12002A507B0F25261EC02AF083
:1012780021502A1A800E2A161D8E208EFF0E1F1648
:10128800FF0E2016000E2116000E266E000E276E89
:10129800000E286E070E296E1CA006D01F502626A9
:1012A8002050272221502822D8901E321D321C326D
:1012B800D8901F3620362136292EEED7090E296EF2
:1012C8001CA006D01F502626205027222150282255
:1012D800D8901E321D321C32D8902832273226323E
:1012E800292EEED726C001F027C002F028C003F04F
:1012F80025C004F02AC005F08DEC0BF001C01CF0ED
:1013080002C01DF003C01EF012000FC013F0146AD3
:10131800156A0E34133601E3148013501A6E1A50EE
:10132800D8A407D0000E0D6E000E0E6E000E0F6EC4
:10133800120012C013F0146A156A1134133601E34F
:10134800148013501B6E1B50D8A407D0000E0D6ECE
:10135800000E0E6E000E0F6E1200000E176E000EBD
:10136800186E000E196E1B50890F1A5E0FC01BF005
:1013780012501B1A800E1B160E8EFF0E0D16FF0E36
:101388000E16000E0F16118EFF0E1016FF0E1116F8
:10139800000E1216180E166ED89017361836193613
:1013A80010500D5C11500E5812500F58D8A007D08D
:1013B80010500D5E11500E5A12500F5A1780D890C7
:1013C8000D360E360F36162EE7D717C001F018C0A7
:1013D80002F019C003F01AC004F01BC005F08DEC30
:1013E8000BF001C00DF002C00EF003C00FF01200A8
:1013F80082C086F0010E0001876F000E0001886F21
:101408000001862B04D0D890000187378837000167
:10141800862FF9D787C082F088C083F000018451F5
:1014280000018511D8A43CD0FF0E0001821B38D0E2
:101438000001840500018511D8A404D0000182515F
:1014480089121200000182518916120000018405D8
:1014580000018511D8A404D0000182518A1212001B
:10146800000182518A1612000001840500018511CD
:10147800D8A404D0000182518B12120000018251BD
:101488008B1612000001840500018511D8A404D030
:10149800000182518C121200000182518C16120038
:1014A80080C086F081C087F000018751000AD8A467
:1014B800120000018651000AD8B4BAD7010AD8B47C
:1014C800C5D7030AD8B4D0D7010AD8A41200DAD7EE
:1014D8002AEC10F0D30E0001876FFF0E0001886F11
:1014E8005FEC04F0EEC080F0EFC081F087EC0EF006
:1014F800F4C080F0F5C081F0F6C082F0F7C083F048
:10150800000E0001856F000E846FFCEC09F0F70EE9
:101518000001956FFF0E0001966F09EC10F020C1D5
:10152800DCF021C1DDF0FAC0DEF0FBC0DFF089ECB1
:101538000CF0C50E0001956FFF0E0001966F09ECC7
:1015480010F0A50E0001956FFF0E0001966F09ECD3
:1015580010F020C1DCF021C1DDF0FCC0DEF0FDC0E0
:10156800DFF089EC0CF0B60E0001956FFF0E00015C
:10157800966F09EC10F0A90E0001956FFE0E0001A0
:10158800966F09EC10F0EEC0E6F0EFC0E7F0F0C09F
:10159800E8F0F1C0E9F0F2C0EAF0F3C0EBF0000EB9
:1015A8000001ED6F5A0EEC6F13EC0DF0FFD718EC3D
:1015B8000FF0D1EC0EF0F29E13EC08F0F28EEEC0B4
:1015C800E6F0EFC0E7F0F0C0E8F0F1C0E9F0F2C0F3
:1015D800EAF0F3C0EBF0000E0001ED6F5A0EEC6F6D
:1015E80013EC0DF020C1E6F021C1E7F022C1E8F0CC
:1015F80023C1E9F024C1EAF025C1EBF0F8C0ECF012
:10160800F9C0EDF013EC0DF026C1E6F027C1E7F0C4
:1016180028C1E8F029C1E9F02AC1EAF02BC1EBF0B2
:10162800000E0001ED6F5A0EEC6F13EC0DF02AEC72
:1016380010F0EF0E0001876FFF0E0001886F5FEC5E
:1016480004F00001FE510001FF11D8B4FAD7000ED2
:101658000001FF6F000EFE6F6CEC0AF0F2D7FFD7A7
:1016680040D003C005F080CF06F0052A02D0D890FC
:101678000632052EFCD7010E06160650016E026AC8
:10168800120003C005F081CF06F0052A02D0D890D9
:101698000632052EFCD7010E06160650016E026AA8
:1016A800120003C005F082CF06F0052A02D0D890B8
:1016B8000632052EFCD7010E06160650016E026A88
:1016C800120003C005F083CF06F0052A02D0D89097
:1016D8000632052EFCD7010E06160650016E026A68
:1016E800120001C005F002C006F00650000AD8A496
:1016F8000DD00550000AD8B4B4D7010AD8B4C1D760
:10170800030AD8B4CED7010AD8B4DBD70168026877
:1017180012000450D8B405D0015002100310D8A408
:101728000CD0000E016E000E026E000E036E120049
:10173800042AD890033202320132000E0114066ED8
:10174800000E0214076EFE0E0314086E06500710F2
:101758000810D8B40CD0ECD7042A010E0126000ECC
:101768000222000E0322D890033202320132000E08
:101778000114066E000E0214076EFF0E0314086EA5
:10178800065007100810D8B406D0E6D70406D8903B
:1017980001360236033602BE03D0020E0460F6D7C5
:1017A80004A0029ED8900432045003120550D8A415
:1017B800038E01C001F002C002F003C003F0120062
:1017C80003C007F0010E086E000E096E072A03D049
:1017D800D89008360936072EFBD708C003F009C091
:1017E80004F005500610D8A42BD0FF0E031A28D0F9
:1017F80005040610D8A403D0035089121200035020
:101808008916120005040610D8A403D003508A12C2
:10181800120003508A16120005040610D8A403D03B
:1018280003508B12120003508B1612000504061089
:10183800D8A403D003508C12120003508C16120047
:1018480001C007F002C008F00850000AD8A412002E
:101858000750000AD8B4CCD7010AD8B4D3D7030AA2
:10186800D8B4DAD7010AD8A41200E0D7000E0001D4
:10187800916F8E0E0001906F00018BAF15D00001A3
:101888008B1F8A1F891F886D000E89238A238B234B
:10189800010E0001916F08D00001D8908B338A3374
:1018A800893388330001902B000E00018815000150
:1018B8008C6F000E0001891500018D6F000E00016C
:1018C8008A1500018E6FFF0E00018B1500018F6FC6
:1018D80000018C5100018D1100018E1100018F1142
:1018E800D8A4DAD788C080F089C081F08AC082F095
:1018F80090C083F091C084F08DEC07F080C088F030
:1019080081C089F082C08AF01200DEC0C5F0DFC055
:10191800C6F0FDEC02F00001C51F0001C61F000162
:10192800C71F0001C81F0001C52B000E0001C623F8
:101938000001C7230001C823FF0E0001C5250001CF
:10194800E06FFF0E0001C6210001E16F000E0001EB
:10195800C7210001E26F000E0001C8210001E36FFA
:10196800000E0001E46F010E0001E56FD890000140
:10197800DC35D96E0001DD35DA6ED890D936DA3625
:101988000001E451D9260001E551DA22E0C0DEFF6A
:10199800E1C0DEFFE2C0DEFFE3C0DEFF1200380E6A
:1019A800F66E200EF76E000EF86E01EE20F010EEC7
:1019B8000CF00900F5CFEEFFE550E150FAE1280EF2
:1019C800F66E200EF76E000EF86E00EEEEF010EEDA
:1019D80010F00900F5CFEEFFE550E150FAE1440EB2
:1019E800F66E200EF76E000EF86E00EE76F010EE32
:1019F80008F00900F5CFEEFFE550E150FAE101EEFD
:101A080000F0200EEE6AE806FDE10001FF6BFE6BB8
:101A18007E907E92000EF86E0001DBEF0AF0D890FF
:101A28000001E635D96E0001E735DA6E180ED926C1
:101A3800010EDA22E8C0DEFFE9C0DDFFD890000120
:101A4800E635D96E0001E735DA6E100ED926010E9B
:101A5800DA22EAC0DEFFEBC0DDFFE6C0DCF0E7C05B
:101A6800DDF0ECC0DEF0EDC0DFF089EC0CF0E6C094
:101A780080F0E7C081F0ACEC0EF0E6C080F0E7C083
:101A880081F0000E0001826F000E836F000E846FDC
:101A9800000E856F39EC0EF01200000E0001856F04
:101AA800000E846F0001825100018311D8B42CD03C
:101AB800010E0001866F06D00001D8908237833767
:101AC8000001862B000183AFF7D70001D890843737
:101AD8008537000182510001805D000183510001BA
:101AE8008159D8A00AD0000182510001805F00010D
:101AF80083510001815B000184810001D890833308
:101B080082330001862FE1D784C080F085C081F040
:101B180012000001816F00018151F00B0001806FFC
:101B28008C500F0B8C6E000180518C108C6E8C9633
:101B3800D60E00D000D0E82EFCD700D08C86D60E6A
:101B480000D000D0E82EFCD700D000018139F00B7E
:101B58000001816F00018151F00B0001806F8C50F2
:101B68000F0B8C6E000180518C108C6E8C96D60EEB
:101B780000D000D0E82EFCD700D08C86D60E00D03E
:101B880000D0E82EFCD700D01200000E126E8E0E88
:101B9800116E0CAE11D00C1E0B1E0A1E096C000E25
:101BA8000A220B220C22010E126E06D0D8900C329B
:101BB8000B320A320932112A000E09140D6E000E7A
:101BC8000A140E6E000E0B140F6EFF0E0C14106E1E
:101BD8000D500E100F101010D8A4E8D709C001F04E
:101BE8000AC002F00BC003F011C004F012C005F0E7
:101BF8008DEC0BF001C009F002C00AF003C00BF035
:101C080012005FC046F060C047F04FEC06F0461E79
:101C1800471E481E491E462A000E472248224922CE
:101C2800FF0E4624616EFF0E4720626E000E4820AC
:101C3800636E000E4920646E000E656E010E666EBE
:101C4800D8905D34D96E5E34DA6ED890D936DA36EB
:101C58006550D9266650DA2261C0DEFF62C0DEFF19
:101C680063C0DEFF64C0DEFF120012D083C0D7FF5E
:101C780082C0D6FFD58E120083C0CFFF82C0CEFFB0
:101C8800CD80120083C0B3FF82C0B2FFB1801200C2
:101C980080C086F081C087F000018751000AD8A46F
:101CA800120000018651000AD8B4E0D7010AD8B45E
:101CB800E3D7020AD8A41200E5D712D004C0D7FF90
:101CC80003C0D6FFD58E120004C0CFFF03C0CEFFDD
:101CD800CD80120004C0B3FF03C0B2FFB180120070
:101CE80001C007F002C008F00850000AD8A412008A
:101CF8000750000AD8B4E2D7010AD8B4E5D7020AD7
:101D0800D8A41200E7D70CD0000ED56E1200000E32
:101D1800CD6E1200000ECA6E1200000EB16E1200D7
:101D280080C082F081C083F000018351000AD8A4EA
:101D3800120000018251000AD8B4E6D7010AD8B4CB
:101D4800E6D7030AD8B4E6D7010AD8A41200E5D723
:101D58000DD0000ED56ED586F28A1CD0000ECD6E41
:101D68009D8018D0000EB16EA08214D080C082F081
:101D780081C083F000018351000AD8A40BD0000170
:101D88008251000AD8B4E5D7010AD8B4E7D7020AC5
:101D9800D8B4E8D7F28CF28E1200310E0001846FAD
:101DA800B20EE82EFED7842FFCD700F0330E81EC5C
:101DB8000FF0320E81EC0FF0280E81EC0FF00F0EB1
:101DC80081EC0FF0060E81EC0FF0010E81EC0FF0A4
:101DD800310E0001846FB20EE82EFED7842FFCD797
:101DE80000F01200000E00018B6F000189AF08D0CF
:101DF8000001886D891FD8B0892B010E00018B6FF7
:101E080088C080F089C081F00001826B8E0E0001CD
:101E1800836F8BC084F08DEC07F080C088F081C0A0
:101E280089F082C08AF0120092689368000E946E5E
:101E3800000E956E000E966E000E896E000E8A6E6C
:101E4800000E8B6E000E8C6E000E8D6E000EC26E34
:101E58000A0EC112000EC06EC082300EC012C08EB3
:101E6800F288F28E1200000E0C6E0AAE06D0096CD3
:101E78000A1ED8B00A2A010E0C6E09C001F00AC069
:101E880002F0036A8E0E046E0CC005F08DEC0BF0A8
:101E980001C009F002C00AF003C00BF012000001F3
:101EA800956F2AEC10F0C10E0001876FFE0E00013D
:101EB800886F95C089F000018A6B5FEC04F0720EA0
:101EC8000001876FFF0E0001886F5FEC04F01200BD
:101ED80081A2FED781380F0B0F0B0001806F81B2F2
:101EE800FED700018051010D890EF324F66EFE0E17
:101EF800F420F76E0800F55012000001836F8C94EF
:101F0800740EE82EFED700D0000183518DEC0DF041
:101F1800040E0001826F3D0EE82EFED7822FFCD7FB
:101F280000D012000001846F0A0E00018419D8A4A1
:101F380003D026EC10F012008C84740EE82EFED725
:101F480000D0000184518DEC0DF012002AEC10F045
:101F58000A0E0001876FFF0E0001886F5FEC04F026
:101F68003F0E0001876FFF0E0001886F5FEC04F0E1
:101F780012002AEC10F01C0E0001876FFF0E000102
:101F8800886F5FEC04F0830E0001876FFF0E00017D
:101F9800886F5FEC04F012002AEC10F0F80E0001D4
:101FA800876FFE0E0001886F5FEC04F0500E000191
:101FB800876FFF0E0001886F5FEC04F012002AECB7
:101FC80010F0D40E0001876FFE0E0001886F5FECE1
:101FD80004F0610E0001876FFF0E0001886F5FEC4F
:101FE80004F012002AEC10F0E60E0001876FFE0ED6
:101FF8000001886F5FEC04F0940E0001876FFF0EFC
:102008000001886F5FEC04F012002AEC10F095C014
:1020180087F096C088F05FEC04F06CEC0FF01200CB
:10202800000002000100020000005A004600B4004F
:1020380001000200020003000200030064003C00EB
:1020480050007800C00E81EC0FF01200010E81ECF8
:042058000FF0120073
:10FE8800003132334134353642373839432A30234A
:10FE980044000100100000010010455923073112E9
:10FEA80016636F6E7665796F7220262063796C69A8
:10FEB8006E646572206F6E3F002563292074696D3A
:10FEC8006520203C4120202020200A0073746172A4
:10FED800742020203C422020202020200A002020BE
:10FEE80068683A6D6D3A73732020202020200A003C
:10FEF80073656C6563742072756E3A20202020202B
:10FF08000A0074696D653A206E6E6E207365632011
:10FF180020200A005B41412C39562C432C6F746811
:10FF280065725D200A00303132333435363738395E
:10FF38006162636465660020202020202020202044
:10FF480020202020202A3E005B312C322C332C34F8
:10FF58005D20202020202A3E00686973746F727922
:10FF6800203C43202020202A3E002020207374615A
:10FF78007473203C422020202A3E005B6E6E2C6E5B
:10FF88002C6E2C6E6E5D2020202A3E0020206D6D88
:10FF98003A64643A797920202020413E0072656CE9
:10FFA8006561736520626174746572793F0072657A
:10FFB80073657420746865207061643F00726561C0
:10FFC8006420766F6C746167653F00696E74657252
:10FFD8007275707421005B25782025785D0A00749D
:10FFE800313A202578200072756E6E696E6700635D
:07FFF8006C6F73653F000010
:020000040020DA
:08000000FFFFFFFFFFFFFFFF00
:020000040030CA
:0E000000FF021F1EFF8381FF0FC00FE00F40A5
:00000001FF
