:04000000C6EF08F04F
:10100000003132334134353642373839432A3023C0
:1010100044003131310A003232330000000E946E48
:10102000000E956E9368000E8A6E000E8B6E000E99
:10103000C26EC16881EC08F0120E056E100E066ECD
:10104000A4EC08F0D3EC08F0D3EC08F0170E056E12
:10105000100E066EA4EC08F081A2FED781380F0BAB
:101060000F0B0B6E81B2FED781EC08F000F000F0A0
:101070000B50010D010EF324F66E100EF420F76EE6
:101080000800F5CF0CF00C50B9EC08F0000E0D6E16
:10109000630E0D6401D0CED71A0E0A6EF80EE82E3C
:1010A000FED70A2EFCD700D00D2AF2D7026E0250CE
:1010B000F00B016E8C500F0B8C6E01508C108C6EEF
:1010C0008C96100EE82EFED700D08C86100EE82EDF
:1010D000FED700D00238F00B026E0250F00B016E0A
:1010E0008C500F0B8C6E01508C108C6E8C96100EE9
:1010F000E82EFED700D08C86100EE82EFED700D04A
:101100001200270E046EF50EE82EFED7042EFCD733
:1011100000F0330ECDEC08F0320ECDEC08F0280EC6
:10112000CDEC08F00F0ECDEC08F0060ECDEC08F07B
:10113000010ECDEC08F0270E046EF50EE82EFED75A
:10114000042EFCD700F01200070E076E000E086E8A
:1011500003D00950B9EC08F005C0F6FF06C0F7FF50
:10116000054A062A0800F5CF09F00950D8B4120044
:10117000F0D7046E0A0E0418D8A403D0D3EC08F0FC
:1011800012008C84045056EC08F01200000EF86E29
:10119000100EF76E00010EEF08F0036E8C940350F2
:0E11A00056EC08F01200C00ECDEC08F0120064
:020000040020DA
:08000000FFFFFFFFFFFFFFFF00
:020000040030CA
:0E000000FF021F1EFF8381FF0FC00FE00F40A5
:00000001FF
