:0400000007EF00F016
:100008007882C5ED11F095EF1AF0D70E0001E66F72
:10001800000E0001E76FA2EF04F0250E0001F919A8
:10002800D8B406D00001F951ACEC1CF0A2EF04F0F2
:10003800000E0001E96F000EE86F18D00001E98595
:1000480034D00001E88F31D0E6C0D9FFE7C0DAFF2D
:10005800DF500001F96F020E0001E627000EE723CA
:100068000001F951ACEC1CF0A2EF04F0D5C0F6FF8A
:10007800D6C0F7FF0001D54BD62B0800F5CFF9F015
:100088000001F951000AD8B41200630AD8B4DCD7C9
:10009800070AD8B40AD0020AD8B4D0D70F0AD8B4FD
:1000A80004D0110AD8B4CDD7DBD7070E0001E91563
:1000B800D8B404D3000E0001EB6F060EEA6FE6C059
:1000C800D9FFE7C0DAFFDECFF6F0DECFF7F0DDCFFD
:1000D800F8F0030E0001E627000EE7230001F8AF51
:1000E80011D0F6C080F0F7C081F0F8C082F053EC70
:1000F8001CF080C0F6F081C0F7F082C0F8F0030E63
:100108000001E813000E0001ED6F000EEC6F000116
:10011800F6510001F7110001F811D8B49BD0820EF6
:100128000001DC6FFF0E0001DD6FF6C0DEF0F7C0E6
:10013800DFF0F8C0E0F0F9C0E1F0100E06D00001E1
:10014800D890E133E033DF33DE33E82EF8D700010F
:10015800DE510001DC250001EC6F000E0001DD21FD
:100168000001ED6F0001EC07D8A0ED07ECC08EF0A0
:10017800EDC08FF0000E0001916F030E906F1FEC21
:100188001CF08EC0ECF08FC0EDF0ECC086F0EDC036
:1001980087F0000E0001896F0A0E886F1AEC16F0BE
:1001A80086C0ECF087C0EDF00001EDAF04D000018F
:1001B800EC07D8A0ED070001EC510008B2EC04F000
:1001C800B0C0EEF0B1C0EFF0B2C0F0F0EEC0A1F0F8
:1001D800EFC0A2F0F0C0A3F0F6C0A4F0F7C0A5F0FD
:1001E800F8C0A6F02EEC0FF0A1C0EEF0A2C0EFF020
:1001F800A3C0F0F0EEC080F0EFC081F0F0C082F054
:10020800000E0001836F800E0001846F3F0E000115
:10021800856FB6EC15F00001D8B005D00001EC07E9
:10022800D8A0ED0717D0EEC080F0EFC081F0F0C085
:1002380082F0000E0001836F200E0001846F410ED2
:100248000001856FB6EC15F00001D8A003D00001BD
:10025800EC4BED2B0001EBBF08D00001EB511DE189
:100268000D0E0001EA5DD8B018D0F6C0BAF0F7C09C
:10027800BBF0F8C0BCF00001EA519EEC08F0B0C039
:10028800BDF0B1C0BEF0B2C0BFF0F4EC09F0BAC026
:10029800F6F0BBC0F7F0BCC0F8F00001EDBF08D025
:1002A8000001ED512AE10A0E0001EC5DD8B025D01D
:1002B8000001F6510001F7110001F811D8B463D01C
:1002C800F6C0C6F0F7C0C7F0F8C0C8F083EC10F06D
:1002D8000001C6510001C7110001C8110001C91170
:1002E800D8A451D00001EDBF4ED00001ED5105E179
:1002F800020E0001EC5DD8A046D0EEC080F0EFC041
:1003080081F0F0C082F0700E0001836F890E000149
:10031800846F400E0001856FB6EC15F00001D8B06F
:1003280003D00001F70E02D00001F80EEC27FF0EF3
:10033800ED230001EC51B2EC04F0B0C0EEF0B1C016
:10034800EFF0B2C0F0F0F6C080F0F7C081F0F8C06E
:1003580082F0EEC083F0EFC084F0F0C085F0E8ECE6
:100368000CF080C0F2F081C0F3F082C0F4F083C0DA
:10037800F5F0000E0001F66F000E0001F76F000E99
:100388000001F86F33D0F6C0C6F0F7C0C7F0F8C068
:10039800C8F083EC10F0C6C0F2F0C7C0F3F0C8C0D4
:1003A800F4F0C9C0F5F0F6C0C6F0F7C0C7F0F8C061
:1003B800C8F0F2C088F0F3C089F0F4C08AF0F5C044
:1003C8008BF0ABEC19F088C0C9F089C0CAF08AC0BC
:1003D800CBF0E6EC1AF0C6C0F6F0C7C0F7F0C8C01C
:1003E800F8F0000E0001ED6F000EEC6F010E000139
:1003F800F96F0A0E0001F919D8B41ED00001F9519D
:10040800040DD30EF324F66EFD0EF420F76E0900EA
:10041800F5500001F25D0900F5500001F35909009B
:10042800F5500001F4590900F5500001F559D8A01C
:1004380003D00001F92BDDD7030E0001E8150001F8
:10044800DC6F000E0001E9150001DD6F0001DC51D1
:100458000001DD11D8B44BD02D0EACEC1CF047D008
:10046800F2C080F0F3C081F0F4C082F0F5C083F0F0
:100478000001F951040DD30EF324F66EFD0EF4209D
:10048800F76E0900F5CF84F00900F5CF85F0090073
:10049800F5CF86F00A00F5CF87F079EC16F080C02A
:1004A800EEF081C0EFF082C0F0F083C0F1F0EEC052
:1004B8008DF0EFC08EF0F0C08FF0F1C090F00A0E12
:1004C8000001916F000E926F000E936F000E946FF3
:1004D800D6EC18F08DC0EEF08EC0EFF08FC0F0F0C3
:1004E80090C0F1F00001EE51300FACEC1CF00001AF
:1004F800F9070001F929D8B408D0B2D7300EACEC0E
:100508001CF00001EC07D8A0ED070001EDBF07D0F3
:100518000001ED51F3E10001EC05D8B0EFD700017F
:10052800EBBF0CD00001EB5105E1090E0001EA5DBB
:10053800D8A004D0080E0001F96F02D0EAC0F9F083
:100548000001F9510001EA5F000E0001F9BFFF0E3A
:100558000001EB5B0001F9510001D8B403D02E0E65
:10056800ACEC1CF00001F951B2EC04F0B0C0E2F0C0
:10057800B1C0E3F0B2C0E4F0F6C0A4F0F7C0A5F053
:10058800F8C0A6F0E2C0A1F0E3C0A2F0E4C0A3F076
:100598002EEC0FF0A1C0C6F0A2C0C7F0A3C0C8F0EF
:1005A80083EC10F0C6C0F2F0C7C0F3F0C8C0F4F096
:1005B800C9C0F5F06ED0F2C080F0F3C081F0F4C08D
:1005C80082F0F5C083F00001F951040DD30EF32435
:1005D800F66EFD0EF420F76E0900F5CF84F00900E1
:1005E800F5CF85F00900F5CF86F00A00F5CF87F042
:1005F80079EC16F080C0EEF081C0EFF082C0F0F028
:1006080083C0F1F0EEC08DF0EFC08EF0F0C08FF037
:10061800F1C090F00A0E0001916F000E926F000E6B
:10062800936F000E946FD6EC18F08DC0EEF08EC06C
:10063800EFF08FC0F0F090C0F1F00001EE51300FF4
:10064800ACEC1CF0F2C08DF0F3C08EF0F4C08FF06B
:10065800F5C090F00001F951040DD30EF324F66EA5
:10066800FD0EF420F76E0900F5CF91F00900F5CFE3
:1006780092F00900F5CF93F00A00F5CF94F0D6EC8C
:1006880018F08DC0F2F08EC0F3F08FC0F4F090C077
:10069800F5F00001F9070001F929D8B408D08BD783
:1006A800300EACEC1CF00001EA07D8A0EB07000103
:1006B800EA510001EB11D8B441D1F2D70001E8BFEB
:1006C80023D0E6C0D9FFE7C0DAFFDECFF2F0DDCFF6
:1006D800F3F00001000EF3BFFF0EF46FF56F020E8A
:1006E8000001E627000EE7230001F5AF6ED0030EE8
:1006F8000001E8130001F51FF41FF31FF26D000E4F
:10070800F323F423F52361D0E6C0D9FFE7C0DAFF6D
:10071800DECFDCF0DDCFDDF0DCC0F2F0DDC0F3F0E1
:100728000001F46BF56B020E0001E627000EE723CB
:100738004CD0010E0001F96F0A0E0001F919D8B466
:100748004DD00001F951040DD30EF324F66EFD0EC1
:10075800F420F76E0900F5500001F25D0900F5502C
:100768000001F3590900F5500001F4590900F5504A
:100778000001F559D8A032D00001F92BDDD7010EC0
:100788000001F96F080E0001F919D8B427D000014B
:10079800F951040D490EF324F66EFE0EF420F76E9F
:1007A8000900F5500001F25D0900F5500001F35908
:1007B8000900F5500001F4590900F5500001F559F8
:1007C800D8A00CD00001F92BDDD70001E851800B2F
:1007D800000AD8B4AED7800AD8B4D1D7030E000126
:1007E800E8150001DC6F000E0001E9150001DD6F5E
:1007F8000001DC510001DD11D8B403D02D0EACECA2
:100808001CF00001F9510001EA6FEB6BEABFEB073E
:100818008AD0EAC0DCF0EBC0DDF00001D890DC370C
:10082800DD370001D890DC37DD37D30E0001DC2539
:10083800F66EFD0EDD21F76E0900F5CF84F0090094
:10084800F5CF85F00900F5CF86F00A00F5CF87F0DF
:10085800F2C080F0F3C081F0F4C082F0F5C083F0FC
:1008680079EC16F080C08DF081C08EF082C08FF0D8
:1008780083C090F00A0E0001916F000E926F000E77
:10088800936F000E946FD6EC18F000018D51300F65
:100898000001F96F44D0F2C080F0F3C081F0F4C0D9
:1008A80082F0F5C083F0EAC0DCF0EBC0DDF00001B7
:1008B800D890DC37DD370001D890DC37DD37490EBA
:1008C8000001DC25F66EFE0EDD21F76E0900F5CF7E
:1008D80084F00900F5CF85F00900F5CF86F00A000D
:1008E800F5CF87F079EC16F0000180510F0B00016D
:1008F800E56F0001E551010D400EF324F66EFF0E81
:10090800F420F76E0800F5CFF9F009D00001E8519E
:10091800800B000AD8B47DD7800AD8B4BCD70001B0
:10092800F951ACEC1CF00001EA07D8A0EB07000174
:10093800EA29ECE10001EB29D8A4E8D7D5C0F6FFF5
:10094800D6C0F7FF0001D54BD62B0800F5CFF9F03C
:100958000001F951D8B4120011EF00F00001B66F90
:100968000001B6AF2AD10001B66D0001B651800A68
:10097800120FD8A0ACD0000E0001916F030E906F3B
:10098800000E0001896F0A0E886F000E0001836F48
:10099800640E826F0001B6510001806F816B80BFC9
:1009A800810736EC18F080C086F081C087F01AEC19
:1009B80016F0090E0001862500018E6F000E000159
:1009C800872100018F6F1FEC1CF0FB0E00018E25A4
:1009D800F66EFD0E00018F21F76E0900F5CFA4F029
:1009E8000900F5CFA5F00A00F5CFA6F0000E00012A
:1009F800896F640E886F0001B6510001866F876B9E
:100A080086BF87071AEC16F0120E00018625000132
:100A18008E6F000E0001872100018F6F000E00010C
:100A2800916F030E906F1FEC1CF0FB0E00018E25DA
:100A3800F66EFD0E00018F21F76E0900F5CFA1F0CB
:100A48000900F5CFA2F00A00F5CFA3F02EEC0FF0C5
:100A5800A1C0B3F0A2C0B4F0A3C0B5F0B3C0A1F078
:100A6800B4C0A2F0B5C0A3F0000E0001916F030E50
:100A7800906F000E0001836F0A0E826F0001B6515D
:100A88000001806F816B80BF810736EC18F080C051
:100A98008EF081C08FF01FEC1CF0FB0E00018E253C
:100AA800F66EFD0E00018F21F76E0900F5CFA4F058
:100AB8000900F5CFA5F00A00F5CFA6F02EEC0FF04F
:100AC800A1C0B0F0A2C0B1F0A3C0B2F01200000102
:100AD800B651800A750FD8A05DD0000E0001896F4D
:100AE8000A0E886F0001B6510001866F876B86BFBA
:100AF80087071AEC16F0090E0001862500018E6F93
:100B0800000E0001872100018F6F000E0001916F18
:100B1800030E906F1FEC1CF0FB0E00018E25F66E85
:100B2800FD0E00018F21F76E0900F5CFA1F0090035
:100B3800F5CFA2F00A00F5CFA3F0000E0001916FE7
:100B4800030E906F000E0001836F0A0E826F000182
:100B5800B6510001806F816B80BF810736EC18F0B9
:100B680080C08EF081C08FF01FEC1CF0FB0E0001DE
:100B78008E25F66EFD0E00018F21F76E0900F5CF68
:100B8800A4F00900F5CFA5F00A00F5CFA6F02EECE9
:100B98000FF096D70001B651030DFB0EF324F66E45
:100BA800FD0EF420F76E0900F5CFB0F00900F5CF7F
:100BB800B1F00A00F5CFB2F012000001B651800A78
:100BC800120FD8A0ACD0000E0001916F030E906FE9
:100BD800000E0001896F0A0E886F000E0001836FF6
:100BE800640E826F0001B6510001806F816B80BF77
:100BF800810736EC18F080C086F081C087F01AECC7
:100C080016F0090E0001862500018E6F000E000106
:100C1800872100018F6F1FEC1CF0220E00018E252A
:100C2800F66EFE0E00018F21F76E0900F5CFA4F0D5
:100C38000900F5CFA5F00A00F5CFA6F0000E0001D7
:100C4800896F640E886F0001B6510001866F876B4B
:100C580086BF87071AEC16F0120E000186250001E0
:100C68008E6F000E0001872100018F6F000E0001BA
:100C7800916F030E906F1FEC1CF0220E00018E2561
:100C8800F66EFE0E00018F21F76E0900F5CFA1F078
:100C98000900F5CFA2F00A00F5CFA3F02EEC0FF073
:100CA800A1C0B3F0A2C0B4F0A3C0B5F0B3C0A1F026
:100CB800B4C0A2F0B5C0A3F0000E0001916F030EFE
:100CC800906F000E0001836F0A0E826F0001B6510B
:100CD8000001806F816B80BF810736EC18F080C0FF
:100CE8008EF081C08FF01FEC1CF0220E00018E25C3
:100CF800F66EFE0E00018F21F76E0900F5CFA4F005
:100D08000900F5CFA5F00A00F5CFA6F02EEC0FF0FC
:100D1800A1C0B0F0A2C0B1F0A3C0B2F012000001AF
:100D2800B651800A750FD8A05DD0000E0001896FFA
:100D38000A0E886F0001B6510001866F876B86BF67
:100D480087071AEC16F0090E0001862500018E6F40
:100D5800000E0001872100018F6F000E0001916FC6
:100D6800030E906F1FEC1CF0220E00018E25F66E0C
:100D7800FE0E00018F21F76E0900F5CFA1F00900E2
:100D8800F5CFA2F00A00F5CFA3F0000E0001916F95
:100D9800030E906F000E0001836F0A0E826F000130
:100DA800B6510001806F816B80BF810736EC18F067
:100DB80080C08EF081C08FF01FEC1CF0220E000165
:100DC8008E25F66EFE0E00018F21F76E0900F5CF15
:100DD800A4F00900F5CFA5F00A00F5CFA6F02EEC97
:100DE8000FF096D70001B651030D220EF324F66ECC
:100DF800FE0EF420F76E0900F5CFB0F00900F5CF2C
:100E0800B1F00A00F5CFB2F012002FC180F030C166
:100E180081F032EC1BF045C180F046C181F047C13A
:100E280082F048C183F0000E0001856F000E846FC8
:100E380046EC15F0AD0E0001FA6FFE0E0001FB6FD7
:100E48001FEC1DF035C1ECF036C1EDF051C1EEF0EC
:100E580052C1EFF023EC19F0D70E0001FA6FFF0E24
:100E68000001FB6F1FEC1DF09A0E0101606F990ED7
:100E78000101616F400E0101626FC00E0101636FD5
:100E88007F0E0101646F440E0101656F49C180F056
:100E98004AC181F04BC182F04CC183F05FEC14F081
:100EA800D890000180350101686F0001813501018A
:100EB800696F4DC180F04EC181F04FC182F050C1C1
:100EC80083F05FEC14F00001805101016813000108
:100ED80081510101691341C180F042C181F043C1D0
:100EE80082F044C183F0000E0001856F010E846F0B
:100EF80046EC15F063C195F064C196F065C197F0B2
:100F080022C180F023C181F0C3EC1BF080C088F0BF
:100F180081C089F082C08AF083C08BF087EC18F01A
:100F280088C092F089C093F08AC094F0DDEC0FF08D
:100F380092C0A1F093C0A2F094C0A3F060C1A4F045
:100F480061C1A5F062C1A6F02EEC0FF0A1C06AF154
:100F5800A2C06BF1A3C06CF12EEC1DF02E0E0001A7
:100F6800D56FFF0E0001D66F68C1D7F069C1D8F000
:100F78006AC1D9F06BC1DAF06CC1DBF009EC00F0A2
:100F8800FFD7040E0001FE6F3D0EE82EFED7FE2FA0
:100F9800FCD700D063C195F064C196F065C197F0A5
:100FA80022C180F023C181F0C3EC1BF080C088F01F
:100FB80081C089F082C08AF083C08BF087EC18F07A
:100FC80088C092F089C093F08AC094F0DDEC0FF0ED
:100FD80092C0A1F093C0A2F094C0A3F060C1A4F0A5
:100FE80061C1A5F062C1A6F02EEC0FF0A1C05DF1C1
:100FF800A2C05EF1A3C05FF15DC180F05EC181F067
:101008005FC182F0000E0001836F000E0001846F43
:101018003F0E0001856FB6EC15F00001D8B00FD077
:1010280027C180F028C181F029C182F06AC183F00C
:101038006BC184F06CC185F0B6EC15F016D024C1F4
:1010480080F025C181F026C182F06AC183F06BC1AE
:1010580084F06CC185F0B6EC15F00001D8B00DD065
:1010680057C166F158C167F10CD00001D8B005D05E
:1010780059C166F15AC167F104D05BC166F15CC120
:1010880067F13BC1ECF03CC1EDF066C1EEF067C121
:10109800EFF023EC19F0B70E0001FA6FFF0E000114
:1010A800FB6F1FEC1DF035C1ECF036C1EDF055C1FA
:1010B800EEF056C1EFF023EC19F0C80E0001FA6FFC
:1010C800FF0E0001FB6F1FEC1DF035C1ECF036C1BF
:1010D800EDF053C1EEF054C1EFF023EC19F0810E9E
:1010E8000001FA6FFE0E0001FB6F1FEC1DF02FC10F
:1010F800F6F030C1F7F031C1F8F032C1F9F033C180
:10110800FAF034C1FBF0000E0001FD6F5A0EFC6FBF
:101118006DEC19F045C180F046C181F047C182F0FD
:1011280048C183F0000E0001856F010E846F46EC04
:1011380015F0FFD70001B96F6D0E0001B965BAD07F
:10114800000E0001916F030E906F000E0001896F71
:101158000A0E886F000E0001836F640E826FB9C09B
:1011680080F00001816B36EC18F080C086F081C0F9
:1011780087F01AEC16F0090E0001862500018E6F23
:10118800000E0001872100018F6F1FEC1CF0FB0E81
:1011980000018E25F66EFD0E00018F21F76E090005
:1011A800F5CFA4F00900F5CFA5F00A00F5CFA6F019
:1011B800000E0001896F640E886FB9C086F00001C7
:1011C800876B1AEC16F0120E0001862500018E6F4F
:1011D800000E0001872100018F6F000E0001916F42
:1011E800030E906F1FEC1CF0FB0E00018E25F66EAF
:1011F800FD0E00018F21F76E0900F5CFA1F009005F
:10120800F5CFA2F00A00F5CFA3F02EEC0FF0A1C0A5
:10121800B6F0A2C0B7F0A3C0B8F0000E0001916FFD
:10122800030E906F000E0001836F0A0E826FB9C023
:1012380080F00001816B36EC18F080C08EF081C020
:101248008FF01FEC1CF0FB0E00018E25F66EFD0ED4
:1012580000018F21F76E0900F5CFA4F00900F5CF42
:10126800A5F00A00F5CFA6F0B6C0A1F0B7C0A2F06D
:10127800B8C0A3F02EEC0FF0A1C0B3F0A2C0B4F038
:10128800A3C0B5F0B3C0A1F0B4C0A2F0B5C0A3F03C
:10129800000E0001A46F000E0001A56F3F0E0001B3
:1012A800A66F2EEC0FF0A1C0B0F0A2C0B1F0A3C0A1
:1012B800B2F012000A0E0001B9656ED0000E0001EE
:1012C800916F030E906F000E0001836F0A0E826FFC
:1012D800B9C080F00001816B36EC18F080C08EF048
:1012E80081C08FF01FEC1CF0FB0E00018E25F66EFE
:1012F800FD0E00018F21F76E0900F5CFA4F009005B
:10130800F5CFA5F00A00F5CFA6F0000E0001896F11
:101318000A0E886FB9C086F00001876B1AEC16F0C8
:10132800090E0001862500018E6F000E000187213D
:1013380000018F6F000E0001916F030E906F1FEC7C
:101348001CF0FB0E00018E25F66EFD0E00018F21AC
:10135800F76E0900F5CFA1F00900F5CFA2F00A0059
:10136800F5CFA3F02EEC0FF0A1C0B6F0A2C0B7F0F5
:10137800A3C0B8F0B6C0A1F0B7C0A2F0B8C0A3F03F
:10138800000E0001A46F000E0001A56F3F0E0001C2
:10139800A66F2EEC0FF087D70001B951030DFB0E95
:1013A800F324F66EFD0EF420F76E0900F5CFA1F0D8
:1013B8000900F5CFA2F00A00F5CFA3F0000E000156
:1013C800A46F000E0001A56F3F0E0001A66F2EEC62
:1013D8000FF0A1C0B0F0A2C0B1F0A3C0B2F01200EB
:1013E800BCC0C0F00001C16BC26B0001BB3500017D
:1013F800C03701E3C1810001C0510001C56FBFC002
:10140800C0F00001C16BC26B0001BE350001C037DE
:1014180001E3C1810001C0510001C46F0001C55141
:101428000001D8B411D00001C4510001C55DD8B085
:1014380012D00001C55100080001C4250001C06F89
:10144800180E0001C06507D0BDC0BAF0BEC0BBF021
:10145800BFC0BCF012000001C4510001D8B411D0C3
:101468000001C5510001C45DD8B012D00001C451BB
:1014780000080001C5250001C06F180E0001C065F5
:1014880007D0BAC0BAF0BBC0BBF0BCC0BCF01200F9
:10149800060E0001C36F0001BCAF02D00001C38F6C
:1014A8000001BFAF02D00001C38D0001BB8FFF0E4A
:1014B8000001BA17FF0E0001BB17000E0001BC1790
:1014C8000001BE8FFF0E0001BD17FF0E0001BE1701
:1014D800000E0001BF170001C4510001C55DD8B05E
:1014E80025D00001D890BD37BE37BF370001C407EB
:1014F8000001C5510001C419D8B411D00001C307B7
:10150800C3C0C0F0070E0001C017D8B408D0E9D78F
:101518000001D890BC33BB33BA330001C52B00019E
:10152800C4510001C519D8B42BD0F2D70001C55158
:101538000001C45DD8B024D00001D890BA37BB37B9
:10154800BC370001C5070001C5510001C419D8B452
:1015580011D00001C307C3C0C0F0070E0001C017B7
:10156800D8B408D0E9D70001D890BF33BE33BD3313
:101578000001C42B0001C4510001C519D8A4F3D738
:101588000001C3AF12D0FF0E0001BA1BFF0E00010D
:10159800BB1BFF0E0001BC1B010E0001BA27000E89
:1015A8000001BB23000E0001BC230001C3AD12D013
:1015B800FF0E0001BD1BFF0E0001BE1BFF0E000148
:1015C800BF1B010E0001BD27000E0001BE23000E47
:1015D8000001BF23000E0001C36F0001BA510001D2
:1015E800BD270001BB510001BE230001BC51000111
:1015F800BF230001BFAF15D0FF0E0001BD1BFF0EBA
:101608000001BE1BFF0E0001BF1B010E0001BD271C
:10161800000E0001BE23000E0001BF23010E0001D1
:10162800C36FBDC080F0BEC081F0BFC082F0C5C02E
:1016380083F0C3C084F063EC12F080C0BAF081C0BC
:10164800BBF082C0BCF01200F2A402D0010E01D09F
:10165800000E0C6E0D6A9EA002D0010E01D0000E85
:101668000E6E0F6A9EA202D0010E01D0000E106EFF
:10167800116AA1A202D0010E01D0000E126E136AE7
:10168800000E156E000E146E15BE08D0155005E13B
:10169800040E145CD8B0120001D01200D890143493
:1016A800D96E1534DA6E0C0ED926000EDA22DE5009
:1016B800DE10D8B4ABD0D8901434D96E1534DA6EA5
:1016C800180ED926010EDA22DECF01F0DDCF02F0A6
:1016D800D8901434D96E1534DA6E100ED926010E4E
:1016E800DA22DECF03F0DDCF04F030EC17F0015042
:1016F8000210D8B42FD014C001F015C002F0AF0EFC
:10170800036E3C0E046E000E056E000E066E0CECA9
:101718001BF0D8901434D96E1534DA6E180ED92609
:10172800010EDA22DECF01F0DDCF02F0D8901434BA
:10173800D96E1534DA6E100ED926010EDA22DECFF4
:1017480003F0DDCF04F0000E066E000E056EE0EC2F
:1017580017F047D014C001F015C002F0000E0A6E51
:10176800010E0B6ED8901434D96E1534DA6ED890F9
:10177800D936DA360A50D9260B50DA22DECF03F0F2
:10178800DECF04F0DECF05F0DECF06F00CEC1BF068
:10179800D8901434D96E1534DA6E180ED926010E85
:1017A800DA22DECF01F0DDCF02F0D8901434D96E02
:1017B8001534DA6E100ED926010EDA22DECF03F0C8
:1017C800DDCF04F0000E066E010E056EE0EC17F09A
:1017D80008D0F2941BD09E9019D09E9217D0A19257
:1017E80015D014C00AF015C00BF00B50000AD8A48D
:1017F8000DD00A50000AD8B4ECD7010AD8B4EBD7F8
:10180800030AD8B4EAD7010AD8B4E9D7144A152A82
:1018180015BE44D7155001E13BD712002DC031F059
:10182800326A336A2C34313601E332803150366EF5
:1018380030C031F0326A336A2F34313601E33280F6
:101848003150356E3650D8B40BD03550365CD8B0E0
:101858000ED0365000083524316E180E316407D08A
:101868002EC02BF02FC02CF030C02DF012003550B8
:10187800D8B40BD03650355CD8B00ED035500008EF
:101888003624316E180E316407D02BC02BF02CC0D3
:101898002CF02DC02DF01200060E346E2DBE348EA5
:1018A80030BE348C2C8EFF0E2B16FF0E2C16000E1D
:1018B8002D162F8EFF0E2E16FF0E2F16000E301629
:1018C8003550365CD8B01BD0D8902E362F363036EF
:1018D800350636503518D8B40DD0340634C031F03A
:1018E800070E3116D8B406D0EFD7D8902D322C3247
:1018F8002B32362A35503618D8B41FD0F6D7365082
:10190800355CD8B01AD0D8902B362C362D36360602
:1019180036503518D8B40DD0340634C031F0070E1F
:101928003116D8B406D0EFD7D89030322F322E32B5
:10193800352A35503618D8A4F7D734AE0CD0FF0E58
:101948002B1AFF0E2C1AFF0E2D1A010E2B26000E35
:101958002C22000E2D2234AC0CD0FF0E2E1AFF0EB6
:101968002F1AFF0E301A010E2E26000E2F22000EFF
:101978003022000E346E2B502E262C502F222D5044
:10198800302230AE0ED0FF0E2E1AFF0E2F1AFF0E89
:10199800301A010E2E26000E2F22000E3022010EC4
:1019A800346E2EC001F02FC002F030C003F036C0F4
:1019B80004F034C005F089EC17F001C02BF002C028
:1019C8002CF003C02DF0120082C086F00001876B56
:1019D800886B000181350001863701E387810001AA
:1019E800865100018E6F00018E51D8A40AD0000ED6
:1019F8000001806F000E816F000E826F000E836FF2
:101A0800120085C086F00001876B886B0001843561
:101A18000001863701E387810001865100018D6F3F
:101A280000018D51D8A40AD0000E0001806F000E6D
:101A3800816F000E826F000E836F12000001818F8C
:101A4800FF0E00018017FF0E00018117000E000134
:101A580082170001848FFF0E00018317FF0E00011B
:101A68008417000E00018517000E0001896F000E13
:101A78008A6F000E8B6F000E8C6F7F0E00018E5FD9
:101A880000018D51980F00018E5F180E00018D6FB7
:101A98000001D89089378A378B378C3700018351FA
:101AA8000001805D000184510001815900018551C8
:101AB80000018259D8A00ED0000183510001805F37
:101AC800000184510001815B000185510001825BA6
:101AD800000189810001D890803781378237000161
:101AE8008D2FD6D700018EAF1AD000018E51800AF3
:101AF800970FD8B00AD0000E0001806F000E816FDA
:101B0800000E826F000E836F12000001D8908C3394
:101B18008B338A33893300018E3FF7D71BD0170EDA
:101B280000018E6512D0000E0001806F000E816FDB
:101B3800000E826F000E836F12000001D890893763
:101B48008A378B378C3700018E0700018E510001D0
:101B5800D8A4F3D789C080F08AC081F08BC082F006
:101B68008CC083F0120000018235833500018B6F31
:101B780000018B51D8A40AD0000E0001806F000E1E
:101B8800816F000E826F000E836F12000001853591
:101B9800863500018A6F00018A51D8A40AD0000E48
:101BA8000001806F000E816F000E826F000E836F40
:101BB80012000001828FFF0E00018017FF0E8117AF
:101BC800FF0E8217000E83170001858FFF0E00019C
:101BD8008317FF0E8417FF0E8517000E8617000E59
:101BE8000001866F000E876F000E886F000E896FE8
:101BF8007F0E00018B5F00018A51A00F00018B5FEF
:101C0800200E00018A6F0001D89086378737883701
:101C18008937000183510001805D00018451000172
:101C28008159000185510001825900018651000146
:101C38008359D8A012D0000183510001805F0001B0
:101C480084510001815B000185510001825B000124
:101C580086510001835B000186810001D89080379E
:101C680081378237833700018A2FCDD700018BAFA8
:101C78001AD000018B51800A9F0FD8B00AD0000EED
:101C88000001806F000E816F000E826F000E836F5F
:101C980012000001D89089338833873386330001D6
:101CA8008B3FF7D71BD01F0E00018B6512D0000E9B
:101CB8000001806F000E816F000E826F000E836F2F
:101CC80012000001D8908637873788378937000196
:101CD8008B0700018B510001D8A4F3D786C080F090
:101CE80087C081F088C082F089C083F01200000E9E
:101CF8000001DD6F000EDE6F000EDF6F000EE06F7B
:101D0800E20E0001E86F040EE96F000EEA6F000EA4
:101D1800EB6F6A0E0001E16F180EE26F000EE36FC1
:101D2800000EE46FE8C0D9F0E9C0DAF0EAC0DBF0F1
:101D3800EBC0DCF00001D91FDA1FDB1FDC1FD92B39
:101D4800000EDA23DB23DC230001E1510001D92551
:101D58000001886F0001E2510001DA210001896F5A
:101D68000001E3510001DB2100018A6F0001E45109
:101D78000001DC2100018B6F87EC18F088C0A4F00B
:101D880089C0A5F08AC0A6F0000E0001956F340E38
:101D98000001966F430E0001976FD5C088F0D6C03A
:101DA80089F0A1EC1BF088C092F089C093F08AC03A
:101DB80094F0DDEC0FF092C0A1F093C0A2F094C0B3
:101DC800A3F02EEC0FF0A1C0BDF0A2C0BEF0A3C0DE
:101DD800BFF0E8C088F0E9C089F0EAC08AF0EBC03B
:101DE8008BF087EC18F088C0BAF089C0BBF08AC0C5
:101DF800BCF0F4EC09F0BAC0E5F0BBC0E6F0BCC03A
:101E0800E7F0DDC088F0DEC089F0DFC08AF0E0C00E
:101E18008BF087EC18F088C0BDF089C0BEF08AC08E
:101E2800BFF0E5C0BAF0E6C0BBF0E7C0BCF0F4EC28
:101E380009F0BAC0C6F0BBC0C7F0BCC0C8F083EC9C
:101E480010F0C6C0D5F0C7C0D6F0C8C0D7F0C9C01A
:101E5800D8F01200A3C0A7F00001A86BA96B00017D
:101E6800A2350001A73701E3A8810001A7510001AD
:101E7800AA6F0001AA51D8A40AD0000E0001A16FD0
:101E8800000E0001A26F000E0001A36F1200A6C091
:101E9800A7F00001A86BA96B0001A5350001A737C1
:101EA80001E3A8810001A7510001AF6F0001AF5104
:101EB800D8A40AD0000E0001A16F000E0001A26F85
:101EC800000E0001A36F12000001AF517B0F00014B
:101ED800AA27A3C0AFF00001A6510001AF1B800ED6
:101EE8000001AF170001A28F0001A58FFF0E0001AE
:101EF800A417FF0E0001A517000E0001A617000E7B
:101F08000001AB6F000E0001AC6F000E0001AD6F59
:101F1800070E0001AE6F0001A1A10CD00001A45171
:101F28000001AB270001A5510001AC230001A65117
:101F38000001AD230001D890A333A233A1330001DF
:101F4800D890A437A537A6370001AE2FE4D7090EDD
:101F58000001AE6F0001A1A10CD00001A451000145
:101F6800AB270001A5510001AC230001A6510001D7
:101F7800AD230001D890A333A233A1330001D89038
:101F8800AD33AC33AB330001AE2FE4D7ABC080F038
:101F9800ACC081F0ADC082F0AAC083F0AFC084F0BD
:101FA80063EC12F080C0A1F081C0A2F082C0A3F05F
:101FB800120094C098F00001996B9A6B0001933558
:101FC8000001983701E399810001985100019F6F42
:101FD80000019F51D8A40AD0000E0001926F000E94
:101FE8000001936F000E0001946F120097C098F0E3
:101FF8000001996B9A6B000196350001983701E34F
:102008009981000198510001A06F0001A051D8A446
:102018000AD0000E0001926F000E0001936F000EAF
:102028000001946F1200000E00019C6F000E000169
:102038009D6F000E00019E6F0001A051890F0001E5
:102048009F5F94C0A0F0000197510001A01B800E73
:102058000001A0170001938FFF0E00019217FF0ED9
:1020680000019317000E000194170001968FFF0ED0
:1020780000019517FF0E00019617000E0001971733
:10208800180E00019B6F0001D8909C379D379E3732
:10209800000195510001925D00019651000193598C
:1020A8000001975100019459D8A00ED00001955114
:1020B8000001925F000196510001935B0001975166
:1020C8000001945B00019C810001D89092379337FE
:1020D800943700019B2FD7D79CC080F09DC081F01A
:1020E8009EC082F09FC083F0A0C084F063EC12F021
:1020F80080C092F081C093F082C094F01200C8C0F2
:10210800CAF00001CB6BCC6B0001C7350001CA37A0
:1021180001E3CB810001CA510001D46F0001D45101
:10212800D8A40AD0000E0001C66F000EC76F000EBB
:10213800C86F000EC96F1200170E0001CA6FC6C023
:10214800CBF0C7C0CCF0C8C0CDF00001CA2900014F
:10215800CE6F05D00001D890CD33CC33CB330001FE
:10216800CE2FF8D70001CB510001CF6F0001C78FE8
:10217800FF0E0001C617FF0E0001C717000E000171
:10218800C8170001C6510001D06F0001C7510001F6
:10219800D16F0001C8510001D26F0001D36B8E0EC0
:1021A8000001D45F0001D4AF1AD00001D451800AD5
:1021B8008F0FD8B00AD0000E0001C66F000EC76F8F
:1021C800000EC86F000EC96F12000001D890D333FB
:1021D800D233D133D0330001D43FF7D71BD0170EF9
:1021E8000001D46512D0000E0001C66F000EC76F43
:1021F800000EC86F000EC96F12000001D890D037CA
:10220800D137D237D3370001D4070001D4510001A8
:10221800D8A4F3D70001CF510001D8B409D00001E8
:10222800D31FD21FD11FD06D000ED123D223D323A9
:10223800D0C0C6F0D1C0C7F0D2C0C8F0D3C0C9F072
:102248001200000E4E6E000E4F6E000E506E000E05
:10225800516EE20E596E040E5A6E000E5B6E000E41
:102268005C6E6A0E526E180E536E000E546E000E9F
:10227800556E59C04AF05AC04BF05BC04CF05CC078
:102288004DF04A1E4B1E4C1E4D1E4A2A000E4B2274
:102298004C224D2252504A24096E53504B200A6E4C
:1022A80054504C200B6E55504D200C6E25EC1AF0F6
:1022B80009C01FF00AC020F00BC021F0000E106EFC
:1022C800340E116E430E126E46C009F047C00AF074
:1022D80003EC1CF009C00DF00AC00EF00BC00FF0A3
:1022E800D3EC14F00DC01CF00EC01DF00FC01EF092
:1022F800E5EC13F01CC02EF01DC02FF01EC030F00E
:1023080059C009F05AC00AF05BC00BF05CC00CF071
:1023180025EC1AF009C02BF00AC02CF00BC02DF0E8
:1023280012EC0CF02BC056F02CC057F02DC058F012
:102338004EC009F04FC00AF050C00BF051C00CF06D
:1023480025EC1AF009C02EF00AC02FF00BC030F0AF
:1023580056C02BF057C02CF058C02DF012EC0CF0E2
:102368002BC037F02CC038F02DC039F06BEC13F0CF
:1023780037C046F038C047F039C048F03AC049F095
:1023880012000600FACF67F0FBCF68F0E9CF69F0DA
:10239800EACF6AF0E1CF6BF0E2CF6CF0D9CF6DF005
:1023A800DACF6EF0F3CF6FF0F4CF70F0F6CF71F0B4
:1023B800F7CF72F0F8CF73F0F5CF74F028EC0BF08C
:1023C800F2A206D0F292000E01012E6F010E2D6FBF
:1023D800F0A057D0F09081380F0B0F0B756E755029
:1023E800D8A40AD0000E5E6E000E5D6E000E606E00
:1023F8001E0E5F6E61EC1AF07504D8A40AD0000EA8
:102408005E6E000E5D6E000E606E5A0E5F6E61ECC1
:102418001AF0020E7518D8A40AD0000E5E6E000ECF
:102428005D6E000E606E870E5F6E61EC1AF0040E32
:102438007518D8A40AD0000E5E6E030E5D6E000EED
:10244800606E500E5F6E61EC1AF0050E7518D8A418
:102458000AD0000E5E6E030E5D6E000E606E5A0EA0
:102468005F6E61EC1AF0060E7518D8A40AD0000E3B
:102478005E6E030E5D6E000E606E640E5F6E61EC44
:102488001AF074C0F5FF73C0F8FF72C0F7FF71C08F
:10249800F6FF70C0F4FF6FC0F3FF6EC0DAFF6DC0C7
:1024A800D9FF6CC0E2FF6BC0E1FF6AC0EAFF69C0F8
:1024B800E9FF68C0FBFF67C0FAFF789211000001CE
:1024C80083510001D8B408D0000180510001811166
:1024D80000018211D8A411D0000E0001806F000EF7
:1024E8000001816F000E0001826F12000001832B32
:1024F8000001D890823381338033000E00018015AB
:102508000001856F000E000181150001866FFE0E27
:10251800000182150001876F0001855100018611B5
:1025280000018711D8B411D0E1D70001832B010E27
:1025380000018027000E00018123000E0001822384
:102548000001D890823381338033000E000180155A
:102558000001856F000E000181150001866FFF0ED6
:10256800000182150001876F000185510001861165
:1025780000018711D8B408D0D8D70001830700011B
:10258800D890803781378237000181BF04D0020E8E
:1025980000018361F2D7000183B102D00001819F5D
:1025A8000001D89083330001835100018213000198
:1025B80084510001D8B402D00001828F80C080F01D
:1025C80081C081F082C082F012000CEC1DF082EC18
:1025D8001CF0410AD8A4FBD7F9EC1CF082EC1CF0E3
:1025E8000001FB6F420E0001FB19D8B40AD0430E5C
:1025F8000001FB19D8B405D02A0E0001FB19D8A494
:10260800EDD7430E0001FB19D8A456D0E6EC1CF018
:1026180082EC1CF00001FB6F310E0001FB19D8B4ED
:1026280014D0320E0001FB19D8B40FD0330E0001BC
:10263800FB19D8B40AD0340E0001FB19D8B405D060
:102648002A0E0001FB19D8A4E3D72A0E0001FB19B2
:10265800D8B4C2D70001FB513AEC1CF082EC1CF054
:102668000001FB6F410E0001FB19D8B40AD0420EDD
:102678000001FB19D8B405D02A0E0001FB19D8A413
:10268800EDD7410E0001FB19D8A403D0C0EC1CF013
:102698000DD0420E0001FB19D8A403D0D3EC1CF0D6
:1026A80005D02A0E0001FB19D8B496D782EC1CF08D
:1026B8002A0AD8B4CFD7FAD7420E0001FB19D8B4EA
:1026C80012002A0E0001FB19D8B47FD785D739C06C
:1026D8003BF03C6A3D6A38343B3601E33C803B5072
:1026E800456E4550D8A409D0000E376E000E386EDE
:1026F800000E396E000E3A6E1200170E3B6E37C090
:102708003CF038C03DF039C03EF03B283F6E04D065
:10271800D8903E323D323C323F2EFAD73C50406E84
:10272800388EFF0E3716FF0E3816000E3916375042
:10273800416E3850426E3950436E446A8E0E455E83
:1027480045AE16D04550800A8F0FD8B009D0000E7C
:10275800376E000E386E000E396E000E3A6E12009B
:10276800D8904432433242324132453EF9D715D0EF
:10277800170E45640FD0000E376E000E386E000E2F
:10278800396E000E3A6E1200D89041364236433602
:10279800443645064550D8A4F7D74050D8B408D099
:1027A800441E431E421E416C000E42224322442214
:1027B80041C037F042C038F043C039F044C03AF065
:1027C80012001EC022F0236A246A1D34223601E357
:1027D80023802250256E2550D8A407D0000E1C6EE9
:1027E800000E1D6E000E1E6E120021C022F0236A1C
:1027F800246A2034223601E3238022502A6E2A508C
:10280800D8A407D0000E1C6E000E1D6E000E1E6EA2
:1028180012002A507B0F25261EC02AF021502A1AA2
:10282800800E2A161D8E208EFF0E1F16FF0E2016F4
:10283800000E2116000E266E000E276E000E286E62
:10284800070E296E1CA006D01F50262620502722CE
:1028580021502822D8901E321D321C32D8901F36A3
:1028680020362136292EEED7090E296E1CA006D057
:102878001F5026262050272221502822D8901E3269
:102888001D321C32D890283227322632292EEED714
:1028980026C001F027C002F028C003F025C004F0CC
:1028A8002AC005F089EC17F001C01CF002C01DF029
:1028B80003C01EF0120058D082C084F080CF85F08B
:1028C8000001842B03D00001D89085330001842FA8
:1028D800FAD7010E00018517000185510001806FAC
:1028E800816B120082C084F081CF85F00001842BB7
:1028F80003D00001D89085330001842FFAD7010E48
:1029080000018517000185510001806F816B12005D
:1029180082C084F082CF85F00001842B03D00001AF
:10292800D89085330001842FFAD7010E000185174E
:10293800000185510001806F816B120082C084F014
:1029480083CF85F00001842B03D00001D890853314
:102958000001842FFAD7010E000185170001855167
:102968000001806F816B120080C084F081C085F007
:1029780000018551000AD8A40ED000018451000A34
:10298800D8B49AD7010AD8B4ADD7030AD8B4C0D7F7
:10299800010AD8B4D3D700018069816912000FC039
:1029A80013F0146A156A0E34133601E314801350B9
:1029B8001A6E1A50D8A407D0000E0D6E000E0E6EB7
:1029C800000E0F6E120012C013F0146A156A11344B
:1029D800133601E3148013501B6E1B50D8A407D084
:1029E800000E0D6E000E0E6E000E0F6E1200000E21
:1029F800176E000E186E000E196E1B50890F1A5EA6
:102A08000FC01BF012501B1A800E1B160E8EFF0EE5
:102A18000D16FF0E0E16000E0F16118EFF0E101655
:102A2800FF0E1116000E1216180E166ED8901736D5
:102A38001836193610500D5C11500E5812500F5898
:102A4800D8A007D010500D5E11500E5A12500F5AD0
:102A58001780D8900D360E360F36162EE7D717C0CA
:102A680001F018C002F019C003F01AC004F01BC02E
:102A780005F089EC17F001C00DF002C00EF003C09C
:102A88000FF0120082C086F0010E0001876F000E61
:102A98000001886F0001862B04D0D8900001873789
:102AA80088370001862FF9D787C082F088C083F065
:102AB8000001845100018511D8A43CD0FF0E00010B
:102AC800821B38D00001840500018511D8A404D0E8
:102AD80000018251891212000001825189161200E8
:102AE8000001840500018511D8A404D00001825199
:102AF8008A121200000182518A1612000001840510
:102B080000018511D8A404D0000182518B12120053
:102B1800000182518B161200000184050001851105
:102B2800D8A404D0000182518C12120000018251F5
:102B38008C16120080C086F081C087F00001875192
:102B4800000AD8A4120000018651000AD8B4BAD7E6
:102B5800010AD8B4C5D7030AD8B4D0D7010AD8A473
:102B68001200DAD7000182AF1DD080C086F081C084
:102B780087F082C088F00001861F871F881F862B78
:102B8800000E87238823000E000186250001806F30
:102B9800000E000187210001816F800E000188214D
:102BA8000001826F000185AF1DD083C086F084C00C
:102BB80087F085C088F00001861F871F881F862B35
:102BC800000E87238823000E000186250001836FED
:102BD800000E000187210001846F800E000188210A
:102BE8000001856F000E0001801B000E0001811B93
:102BF800800E0001821B000E0001831B000E0001E5
:102C0800841B800E0001851B000183510001805D3B
:102C18000001845100018159000185510001825948
:102C2800D8B002D0D8901200D8801200000E00014F
:102C38008B6F000189AF08D00001886D891FD8B05B
:102C4800892B010E00018B6F000187AF08D00001AE
:102C5800866D871FD8B0872B010E00018B1B000ED5
:102C680000018D6F000E8C6F0001885100018911E1
:102C7800D8B42CD0010E00018A6F06D00001D8907C
:102C88008837893700018A2B000189AFF7D70001FF
:102C9800D8908C378D37000188510001865D00017E
:102CA800895100018759D8A00AD000018851000134
:102CB800865F000189510001875B00018C8100015A
:102CC800D8908933883300018A2FE1D700018B51CE
:102CD8000001D8B405D000018C6D8D1FD8B08D2BA4
:102CE8008CC086F08DC087F01200000E0001886F3E
:102CF800000E896F000E8A6F000E8B6F00018451E1
:102D0800000185110001861100018711D8B442D055
:102D1800010E00018C6F08D00001D89084378537E8
:102D28008637873700018C2B000187AFF5D7000164
:102D3800D890883789378A378B370001845100014A
:102D4800805D000185510001815900018651000113
:102D580082590001875100018359D8A012D000017F
:102D680084510001805F000185510001815B0001F1
:102D780086510001825B000187510001835B0001DD
:102D880088810001D89087338633853384330001E6
:102D98008C2FCDD788C080F089C081F08AC082F09E
:102DA8008BC083F01200E4EC1BF07CEC1BF0F29E6D
:102DB800E9EC12F0F28E2FC1F6F030C1F7F031C114
:102DC800F8F032C1F9F033C1FAF034C1FBF0000E6B
:102DD8000001FD6F5A0EFC6F6DEC19F035C1F6F06D
:102DE80036C1F7F037C1F8F038C1F9F039C1FAF057
:102DF8003AC1FBF053C1FCF054C1FDF06DEC19F081
:102E08003BC1F6F03CC1F7F03DC1F8F03EC1F9F026
:102E18003FC1FAF040C1FBF0000E0001FD6F5A0EF1
:102E2800FC6F6DEC19F02EEC1DF0F60E0001D56F5D
:102E3800FF0E0001D66F09EC00F001012D510101D0
:102E48002E11D8B4FAD709EC07F0000E01012E6F45
:102E5800000E2D6FF2D7FFD740D003C005F080CF0A
:102E680006F0052A02D0D8900632052EFCD7010EAE
:102E780006160650016E026A120003C005F081CFE3
:102E880006F0052A02D0D8900632052EFCD7010E8E
:102E980006160650016E026A120003C005F082CFC2
:102EA80006F0052A02D0D8900632052EFCD7010E6E
:102EB80006160650016E026A120003C005F083CFA1
:102EC80006F0052A02D0D8900632052EFCD7010E4E
:102ED80006160650016E026A120001C005F002C013
:102EE80006F00650000AD8A40DD00550000AD8B440
:102EF800B4D7010AD8B4C1D7030AD8B4CED7010AC7
:102F0800D8B4DBD70168026812000450D8B405D0E1
:102F1800015002100310D8A40CD0000E016E000E50
:102F2800026E000E036E1200042AD8900332023299
:102F38000132000E0114066E000E0214076EFE0E1A
:102F48000314086E065007100810D8B40CD0ECD73C
:102F5800042A010E0126000E0222000E0322D89038
:102F6800033202320132000E0114066E000E021402
:102F7800076EFF0E0314086E065007100810D8B429
:102F880006D0E6D70406D89001360236033602BECC
:102F980003D0020E0460F6D704A0029ED890043233
:102FA800045003120550D8A4038E01C001F002C0DA
:102FB80002F003C003F0120003C007F0010E086E10
:102FC800000E096E072A03D0D89008360936072E56
:102FD800FBD708C003F009C004F005500610D8A4B8
:102FE8002BD0FF0E031A28D005040610D8A403D04E
:102FF80003508912120003508916120005040610A6
:10300800D8A403D003508A12120003508A16120063
:1030180005040610D8A403D003508B1212000350E5
:103028008B16120005040610D8A403D003508C1286
:10303800120003508C16120001C007F002C008F0FD
:103048000850000AD8A412000750000AD8B4CCD7F8
:10305800010AD8B4D3D7030AD8B4DAD7010AD8A456
:103068001200E0D7000E0001856F000181AF08D083
:103078000001806D811FD8B0812B010E0001856F82
:10308800000183AF05D00001826D831FD8B0832B68
:103098000001825100018311D8B426D0010E00012D
:1030A800846F06D00001D890823783370001842BC3
:1030B800000183AFF7D7000182510001805D000154
:1030C800835100018159D8A008D000018251000124
:1030D800805F000183510001815B0001D890833338
:1030E80082330001842FE7D7000185510001D8B44D
:1030F80005D00001806D811FD8B0812B80C080F081
:1031080081C081F01200000E0001916F8E0E000147
:10311800906F00018BAF15D000018B1F8A1F891F8C
:10312800886D000E89238A238B23010E0001916F7D
:1031380008D00001D8908B338A3389338833000153
:10314800902B000E0001881500018C6F000E000105
:10315800891500018D6F000E00018A1500018E6F20
:10316800FF0E00018B1500018F6F00018C510001CB
:103178008D1100018E1100018F11D8A4DAD788C0F3
:1031880080F089C081F08AC082F090C083F091C03D
:1031980084F063EC12F080C088F081C089F082C0AE
:1031A8008AF012000001915100019211000193115F
:1031B80000019411D8B43AD0010E0001956F08D0DF
:1031C8000001D89091379237933794370001952BA7
:1031D800000194AFF5D70001915100018D5D000108
:1031E800925100018E590001935100018F5900013D
:1031F800945100019059D8A010D0000191510001BC
:103208008D5F0001925100018E5B00019351000116
:103218008F5B000194510001905B0001D8909433BA
:103228009333923391330001952FD5D78DC08DF00C
:103238008EC08EF08FC08FF090C090F01200EEC05C
:10324800D5F0EFC0D6F07BEC0EF00001D51F0001E1
:10325800D61F0001D71F0001D81F0001D52B000E73
:103268000001D6230001D7230001D823FF0E000157
:10327800D5250001F06FFF0E0001D6210001F16F86
:10328800000E0001D7210001F26F000E0001D821C5
:103298000001F36F000E0001F46F010E0001F56FDD
:1032A800D8900001EC35D96E0001ED35DA6ED89072
:1032B800D936DA360001F451D9260001F551DA225F
:1032C800F0C0DEFFF1C0DEFFF2C0DEFFF3C0DEFFBC
:1032D8001200D8900001F635D96E0001F735DA6E84
:1032E800180ED926010EDA22F8C0DEFFF9C0DDFF7C
:1032F800D8900001F635D96E0001F735DA6E100E58
:10330800D926010EDA22FAC0DEFFFBC0DDFFF6C0C7
:10331800ECF0F7C0EDF0FCC0EEF0FDC0EFF023ECF0
:1033280019F0F6C080F0F7C081F057EC1BF0F6C03A
:1033380080F0F7C081F0000E0001826F000E836FED
:10334800000E846F000E856FBEEC1AF012008E0E10
:103358000001906F08D00001D8908B338A338933ED
:1033680088330001902B000E0001881500018C6F36
:10337800000E0001891500018D6F000E00018A15ED
:1033880000018E6FFF0E00018B1500018F6F000189
:103398008C5100018D1100018E1100018F11D8A4EC
:1033A800DAD788C080F089C081F08AC082F090C0E6
:1033B80083F0000E0001846F63EC12F080C088F087
:1033C80081C089F082C08AF012000001816F00017B
:1033D8008151F00B0001806F8C500F0B8C6E000137
:1033E80080518C108C6E8C96D60E00D000D0E82EB2
:1033F800FCD700D08C86D60E00D000D0E82EFCD7A3
:1034080000D000018139F00B0001816F000181516A
:10341800F00B0001806F8C500F0B8C6E00018051F7
:103428008C108C6E8C96D60E00D000D0E82EFCD76F
:1034380000D08C86D60E00D000D0E82EFCD700D065
:103448001200000E126E8E0E116E0CAE11D00C1EF4
:103458000B1E0A1E096C000E0A220B220C22010EFA
:10346800126E06D0D8900C320B320A320932112A69
:10347800000E09140D6E000E0A140E6E000E0B14C9
:103488000F6EFF0E0C14106E0D500E100F10101052
:10349800D8A4E8D709C001F00AC002F00BC003F0B5
:1034A80011C004F012C005F089EC17F001C009F052
:1034B80002C00AF003C00BF012005FC046F060C003
:1034C80047F025EC11F0461E471E481E491E462AA5
:1034D800000E472248224922FF0E4624616EFF0E45
:1034E8004720626E000E4820636E000E4920646E0D
:1034F800000E656E010E666ED8905D34D96E5E342E
:10350800DA6ED890D936DA366550D9266650DA227E
:1035180061C0DEFF62C0DEFF63C0DEFF64C0DEFFA5
:103528001200D60EF66E380EF76E000EF86E01EE2B
:103538002FF010EE2EF00900F5CFEEFFE550E15028
:10354800FAE1640EF66E3A0EF76E000EF86E090098
:10355800F5CF76F00900F5CF77F001EE00F02F0EE9
:10356800EE6AE806FDE178907892000EF86E0001A8
:10357800D7EF16F012D083C0D7FF82C0D6FFD58E02
:10358800120083C0CFFF82C0CEFFCD80120083C05F
:10359800B3FF82C0B2FFB180120080C086F081C044
:1035A80087F000018751000AD8A412000001865153
:1035B800000AD8B4E0D7010AD8B4E3D7020AD8A4DD
:1035C8001200E5D70001C9510001CA110001CB1151
:1035D800D8B409D0000E0001C91B000E0001CA1B97
:1035E800800E0001CB1BC6C0BAF0C7C0BBF0C8C074
:1035F800BCF0C9C0BDF0CAC0BEF0CBC0BFF0F4EC8F
:1036080009F0BAC0C6F0BBC0C7F0BCC0C8F0120011
:1036180012D004C0D7FF03C0D6FFD58E120004C055
:10362800CFFF03C0CEFFCD80120004C0B3FF03C09C
:10363800B2FFB180120001C007F002C008F00850C4
:10364800000AD8A412000750000AD8B4E2D7010A29
:10365800D8B4E5D7020AD8A41200E7D70CD0000ED8
:10366800D56E1200000ECD6E1200000ECA6E12004A
:10367800000EB16E120080C082F081C083F000019C
:103688008351000AD8A4120000018251000AD8B45C
:10369800E6D7010AD8B4E6D7030AD8B4E6D7010AB0
:1036A800D8A41200E5D70DD0000ED56ED586F28AC3
:1036B8001CD0000ECD6E9D8018D0000EB16EA08279
:1036C80014D080C082F081C083F000018351000AC9
:1036D800D8A40BD000018251000AD8B4E5D7010A5A
:1036E800D8B4E7D7020AD8B4E8D7F28CF28E120021
:1036F800310E0001846FB20EE82EFED7842FFCD75E
:1037080000F0330E97EC1CF0320E97EC1CF0280EEC
:1037180097EC1CF00F0E97EC1CF0060E97EC1CF0C3
:10372800010E97EC1CF0310E0001846FB20EE82EEA
:10373800FED7842FFCD700F01200000E00018B6F1B
:10374800000189AF08D00001886D891FD8B0892B86
:10375800010E00018B6F88C080F089C081F00001E4
:10376800826B8E0E0001836F8BC084F063EC12F0C5
:1037780080C088F081C089F082C08AF01200000100
:103788008045E846FC0BC26EC280C282C2B2FED738
:10379800C350C4CF84F00001856B84C085F000015C
:1037A800846B00018427000E852384C080F085C0C7
:1037B80081F00001000E81BFFF0E826F836F12003F
:1037C80092689368000E946E000E956E000E966EC9
:1037D800000E896E000E8A6E000E8B6E000E8C6EC7
:1037E800000E8D6E000EC26E0E0EC112000EC06E5F
:1037F800C082300EC012C08EF288F28E1200000E07
:103808000C6E0AAE06D0096C0A1ED8B00A2A010E40
:103818000C6E09C001F00AC002F0036A8E0E046E35
:103828000CC005F089EC17F001C009F002C00AF0DD
:1038380003C00BF0120000018E5100019003F3CF7A
:1038480092F0F4CF93F000018E5100019103F350F0
:103858000001932700018F5100019003F3500001EC
:10386800932792C08EF093C08FF012000001FA6F78
:103878002EEC1DF0C10E0001D56FFE0E0001D66FB3
:10388800FAC0D7F00001D86B09EC00F0840E0001F3
:10389800D56FFF0E0001D66F09EC00F01200000191
:1038A80080510001811100018211D8B409D0000EA5
:1038B8000001801B000E0001811B800E0001821B8D
:1038C80080C080F081C081F082C082F012000000C8
:1038D80002000100010002000200030002000300D0
:1038E80000000300020000000000010000000200C8
:1038F80046005A00B40064003C00780081A2FED75C
:1039080081380F0B0F0B0001806F81B2FED70001C9
:103918008051010D690EF324F66EFE0EF420F76E49
:103928000800F55012000001836F8C94740EE82E85
:10393800FED700D000018351E9EC19F0040E000114
:10394800826F3D0EE82EFED7822FFCD700D01200E2
:103958000001846F0A0E00018419D8A403D02AEC50
:103968001DF012008C84740EE82EFED700D00001E2
:103978008451E9EC19F012002EEC1DF00A0E00013A
:10398800D56FFF0E0001D66F09EC00F0510E000153
:10399800D56FFF0E0001D66F09EC00F012002EEC77
:1039A8001DF01C0E0001D56FFF0E0001D66F09EC4B
:1039B80000F0950E0001D56FFF0E0001D66F09ECDF
:1039C80000F012002EEC1DF0F80E0001D56FFE0E6F
:1039D8000001D66F09EC00F0620E0001D56FFF0EF2
:1039E8000001D66F09EC00F012002EEC1DF0D40E89
:1039F8000001D56FFE0E0001D66F09EC00F0730EC2
:103A08000001D56FFF0E0001D66F09EC00F012001F
:103A18002EEC1DF0E60E0001D56FFE0E0001D66FEC
:103A280009EC00F0A60E0001D56FFF0E0001D66F5D
:103A380009EC00F012002EEC1DF0FAC0D5F0FBC026
:103A4800D6F009EC00F082EC1CF01200C00E97ECE6
:0E3A58001CF01200010E97EC1CF01200500042
:10FDD20000010000000A00000064000000E80300C7
:10FDE2000010270000A086010040420F0080969874
:10FDF2000000E1F50500CA9A3B00803FCDCC3DD71B
:10FE0200233C12833AB7D138C62737388635C0D655
:10FE120033CC2B32708930E7DB2EE53C1E42A20D3B
:10FE220000803F00204100C842007A44401C4650F6
:10FE3200C34724744997184BBCBE4C6B6E4E0315D6
:10FE42005079AD60F349710100000010000000001C
:10FE5200010000001000000000010000001000007E
:10FE62000000010000001031323341343536423790
:10FE72003839432A30234400455923073112166387
:10FE82006F6E7665796F7220262063796C696E6475
:10FE92006572206F6E3F00736574207265646972CB
:10FEA20065637420616E676C653F00696E7465728C
:10FEB200727570742121210A636C6F73653F00258E
:10FEC20063292074696D6520203C41202020202078
:10FED2000A0073746172742020203C42202020208A
:10FEE20020200A00202068683A6D6D3A7373202042
:10FEF200202020200A0073656C6563742072756E81
:10FF02003A20202020200A0074696D653A206E6E26
:10FF12006E207365632020200A005B41412C395614
:10FF22002C432C6F746865725D200A0074617267DD
:10FF320065743A2025642C20563A2025660030311B
:10FF4200323334353637383961626364656600208E
:10FF5200202020202020202020202020202A3E0097
:10FF62005B312C322C332C345D20202020202A3E81
:10FF720000686973746F7279203C43202020202A24
:10FF82003E002020207374617473203C42202020A4
:10FF92002A3E005B6E6E2C6E2C6E2C6E6E5D2020E7
:10FFA200202A3E0020206D6D3A64643A797920203F
:10FFB2002020413E0072656C656173652062617448
:10FFC200746572793F007265736574207468652088
:10FFD2007061643F007265616420766F6C74616762
:10FFE200653F005B25782025785D0A0074313A2050
:0DFFF2002578200072756E6E696E67000044
:020000040020DA
:08000000FFFFFFFFFFFFFFFF00
:020000040030CA
:0E000000FF021F1EFF8381FF0FC00FE00F40A5
:00000001FF
