:0400000007EF00F016
:100008005C82F0ED11F082EF12F0C20E0101046F74
:10001800000E0101056F8FEF04F0250E010117197D
:10002800D8B406D001011751C8EC16F08FEF04F0D0
:10003800000E0101076F000E066F18D00101078539
:1000480034D00101068F31D004C1D9FF05C1DAFFD0
:10005800DF500101176F020E01010427000E05236E
:1000680001011751C8EC16F08FEF04F0C0C0F6FF7D
:10007800C1C0F7FF0001C04BC12B0800F5CF17F135
:1000880001011751000AD8B41200630AD8B4DCD7AA
:10009800070AD8B40AD0020AD8B4D0D70F0AD8B4FD
:1000A80004D0110AD8B4CDD7DBD7070E0101071544
:1000B800D8B4F4D2000E0101096F060E086F04C10E
:1000C800D9FF05C1DAFFDECF14F1DECF15F1DDCFA0
:1000D80016F1030E01010427000E0523010116AFD6
:1000E80011D014C124F015C125F016C126F0B6ECC4
:1000F80016F024C014F125C015F126C016F1030E20
:1001080001010613000E01010B6F000E0A6F0101B9
:1001180014510101151101011611D8B491D0820EA4
:100128000001C76FFF0E0001C86F14C1C9F015C1E7
:10013800CAF016C1CBF017C1CCF0100E06D00001E2
:10014800D890CC33CB33CA33C933E82EF8D7000163
:10015800C9510001C72501010A6F000E0001C8211D
:1001680001010B6F01010A07D8A00B070AC132F081
:100178000BC133F0000E356E030E346EA3EC16F08F
:1001880032C00AF133C00BF10AC12AF00BC12BF0BF
:10019800000E2D6E0A0E2C6EC8EC12F02AC00AF161
:1001A8002BC00BF101010BAF04D001010A07D8A045
:1001B8000B0701010A5100089FEC04F09BC00CF1E9
:1001C8009CC00DF19DC00EF10CC18CF00DC18DF0DD
:1001D8000EC18EF014C18FF015C190F016C191F0C8
:1001E800E8EC0BF08CC00CF18DC00DF18EC00EF157
:1001F8000CC124F00DC125F00EC126F0000E276EAB
:10020800800E286E3F0E296E3AEC12F0D8B005D059
:1002180001010A07D8A00B0713D00CC124F00DC1A7
:1002280025F00EC126F0000E276E200E286E410E16
:10023800296E3AEC12F0D8A003D001010A4B0B2B1F
:10024800010109BF08D0010109511DE10D0E01018D
:10025800085DD8B018D014C1A5F015C1A6F016C114
:10026800A7F0010108511FEC09F09BC0A8F09CC041
:10027800A9F09DC0AAF0EBEC07F0A5C014F1A6C048
:1002880015F1A7C016F101010BBF08D001010B51F0
:100298002AE10A0E01010A5DD8B025D001011451E6
:1002A8000101151101011611D8B45FD014C1B1F0C4
:1002B80015C1B2F016C1B3F097EC0CF00001B151C2
:1002C8000001B2110001B3110001B411D8A44DD03E
:1002D80001010BBF4AD001010B5105E1020E0101DA
:1002E8000A5DD8A042D00CC124F00DC125F00EC182
:1002F80026F0700E276E890E286E400E296E3AEC95
:1003080012F0D8B003D00101F70E02D00101F80EA7
:100318000A27FF0E0B2301010A519FEC04F09BC032
:100328000CF19CC00DF19DC00EF114C124F015C153
:1003380025F016C126F00CC127F00DC128F00EC11A
:1003480029F0D9EC0DF024C010F125C011F126C018
:1003580012F127C013F1000E0101146F000E010104
:10036800156F000E0101166F33D014C1B1F015C11D
:10037800B2F016C1B3F097EC0CF0B1C010F1B2C0F6
:1003880011F1B3C012F1B4C013F114C1B1F015C129
:10039800B2F016C1B3F010C12CF011C12DF012C18A
:1003A8002EF013C12FF062EC14F02CC0B4F02DC065
:1003B800B5F02EC0B6F00CEC15F0B1C014F1B2C017
:1003C80015F1B3C016F1000E01010B6F000E0A6F94
:1003D800010E0101176F0A0E01011719D8B41ED0BA
:1003E80001011751040DD30EF324F66EFD0EF4200F
:1003F800F76E0900F5500101105D0900F550010183
:1004080011590900F550010112590900F55001016F
:100418001359D8A003D00101172BDDD7030E010112
:1004280006150001C76F000E010107150001C86F0E
:100438000001C7510001C811D8B44AD02D0EC8EC2C
:1004480016F046D010C124F011C125F012C126F0D3
:1004580013C127F001011751040DD30EF324F66ED2
:10046800FD0EF420F76E0900F5CF28F00900F5CF4E
:1004780029F00900F5CF2AF00A00F5CF2BF00AEC95
:1004880013F024C00CF125C00DF126C00EF127C0D1
:100498000FF10CC131F00DC132F00EC133F00FC1B4
:1004A80034F00A0E356E000E366E000E376E000EF2
:1004B800386EFCEC13F031C00CF132C00DF133C0D2
:1004C8000EF134C00FF101010C51300FC8EC16F0D9
:1004D8000101170701011729D8B408D0B3D7300E86
:1004E800C8EC16F001010A07D8A00B0701010BBFE1
:1004F80007D001010B51F3E101010A05D8B0EFD78C
:10050800010109BF0CD00101095105E1090E0101E2
:10051800085DD8A004D0080E0101176F02D008C1E9
:1005280017F1010117510101085F000E010117BF02
:10053800FF0E0101095B010117510101D8B403D075
:100548002E0EC8EC16F0010117519FEC04F09BC069
:1005580000F19CC001F19DC002F114C18FF015C1DA
:1005680090F016C191F000C18CF001C18DF002C16C
:100578008EF0E8EC0BF08CC0B1F08DC0B2F08EC0FC
:10058800B3F097EC0CF0B1C010F1B2C011F1B3C0E8
:1005980012F1B4C013F16DD010C124F011C125F0CF
:1005A80012C126F013C127F001011751040DD30E13
:1005B800F324F66EFD0EF420F76E0900F5CF28F04F
:1005C8000900F5CF29F00900F5CF2AF00A00F5CF88
:1005D8002BF00AEC13F024C00CF125C00DF126C055
:1005E8000EF127C00FF10CC131F00DC132F00EC170
:1005F80033F00FC134F00A0E356E000E366E000E61
:10060800376E000E386EFCEC13F031C00CF132C0BE
:100618000DF133C00EF134C00FF101010C51300F50
:10062800C8EC16F010C131F011C132F012C133F02C
:1006380013C134F001011751040DD30EF324F66EE3
:10064800FD0EF420F76E0900F5CF35F00900F5CF5F
:1006580036F00900F5CF37F00A00F5CF38F0FCEC9A
:1006680013F031C010F132C011F133C012F134C0AF
:1006780013F10101170701011729D8B408D08CD745
:10068800300EC8EC16F001010807D8A009070101CF
:10069800085101010911D8B43ED1F2D7010106BFB2
:1006A80023D004C1D9FF05C1DAFFDECF10F1DDCFB9
:1006B80011F10101000E11BFFF0E126F136F020E30
:1006C80001010427000E0523010113AF6ED0030EAC
:1006D800010106130101131F121F111F106D000ED7
:1006E80011231223132361D004C1D9FF05C1DAFFF6
:1006F800DECFC7F0DDCFC8F0C7C010F1C8C011F118
:100708000101126B136B020E01010427000E052371
:100718004CD0010E0101176F0A0E01011719D8B448
:100728004DD001011751040DD30EF324F66EFD0EC2
:10073800F420F76E0900F5500101105D0900F5502D
:10074800010111590900F550010112590900F5502C
:1007580001011359D8A032D00101172BDDD7010EA2
:100768000101176F080E01011719D8B427D001012C
:100778001751040D490EF324F66EFE0EF420F76EA1
:100788000900F5500101105D0900F55001011159EA
:100798000900F550010112590900F55001011359DA
:1007A800D8A00CD00101172BDDD701010651800B11
:1007B800000AD8B4AED7800AD8B4D1D7030E010145
:1007C80006150001C76F000E010107150001C86F6B
:1007D8000001C7510001C811D8B403D02D0EC8ECD0
:1007E80016F0010117510101086F096B08BF0907CD
:1007F80087D008C1C7F009C1C8F00001D890C73731
:10080800C8370001D890C737C837D30E0001C725AD
:10081800F66EFD0EC821F76E0900F5CF28F0090025
:10082800F5CF29F00900F5CF2AF00A00F5CF2BF013
:1008380010C124F011C125F012C126F013C127F010
:100848000AEC13F024C031F025C032F026C033F092
:1008580027C034F00A0E356E000E366E000E376E65
:10086800000E386EFCEC13F03150300F0101176F99
:1008780043D010C124F011C125F012C126F013C1D4
:1008880027F008C1C7F009C1C8F00001D890C737E0
:10089800C8370001D890C737C837490E0001C725A7
:1008A800F66EFE0EC821F76E0900F5CF28F0090094
:1008B800F5CF29F00900F5CF2AF00A00F5CF2BF083
:1008C8000AEC13F024500F0B0101036F01010351CF
:1008D800010D2F0EF324F66EFF0EF420F76E0800BC
:1008E800F5CF17F109D001010651800B000AD8B4E1
:1008F80080D7800AD8B4BDD701011751C8EC16F0CB
:1009080001010807D8A0090701010829ECE1010144
:100918000929D8A4E8D7C0C0F6FFC1C0F7FF000175
:10092800C04BC12B0800F5CF17F101011751D8B4FE
:10093800120011EF00F00001A16F0001A1AF04D176
:100948000001A16D0001A151800A120FD8A094D016
:10095800000E356E030E346E000E2D6E0A0E2C6ED0
:10096800000E276E640E266E0001A151246E256AC2
:1009780024BE2506C4EC13F024C02AF025C02BF0B1
:10098800C8EC12F0090E2A24326E000E2B20336EAA
:10099800A3EC16F0FB0E3224F66EFD0E3320F76E34
:1009A8000900F5CF8FF00900F5CF90F00A00F5CFD8
:1009B80091F0000E2D6E640E2C6E0001A1512A6E6E
:1009C8002B6A2ABE2B06C8EC12F0120E2A24326EAD
:1009D800000E2B20336E000E356E030E346EA3EC22
:1009E80016F0FB0E3224F66EFD0E3320F76E09006A
:1009F800F5CF8CF00900F5CF8DF00A00F5CF8EF019
:100A0800E8EC0BF08CC09EF08DC09FF08EC0A0F07B
:100A18009EC08CF09FC08DF0A0C08EF0000E356E89
:100A2800030E346E000E276E0A0E266E0001A151C9
:100A3800246E256A24BE2506C4EC13F024C032F0C7
:100A480025C033F0A3EC16F0FB0E3224F66EFD0E33
:100A58003320F76E0900F5CF8FF00900F5CF90F03D
:100A68000A00F5CF91F0E8EC0BF08CC09BF08DC03C
:100A78009CF08EC09DF012000001A151800A750FF4
:100A8800D8A04FD0000E2D6E0A0E2C6E0001A15179
:100A98002A6E2B6A2ABE2B06C8EC12F0090E2A24ED
:100AA800326E000E2B20336E000E356E030E346E40
:100AB800A3EC16F0FB0E3224F66EFD0E3320F76E13
:100AC8000900F5CF8CF00900F5CF8DF00A00F5CFBD
:100AD8008EF0000E356E030E346E000E276E0A0E71
:100AE800266E0001A151246E256A24BE2506C4EC99
:100AF80013F024C032F025C033F0A3EC16F0FB0E3F
:100B08003224F66EFD0E3320F76E0900F5CF8FF014
:100B18000900F5CF90F00A00F5CF91F0E8EC0BF062
:100B2800A4D70001A151030DFB0EF324F66EFD0EB0
:100B3800F420F76E0900F5CF9BF00900F5CF9CF083
:100B48000A00F5CF9DF012000001A151800A120F92
:100B5800D8A094D0000E356E030E346E000E2D6EA4
:100B68000A0E2C6E000E276E640E266E0001A1512F
:100B7800246E256A24BE2506C4EC13F024C02AF08E
:100B880025C02BF0C8EC12F0090E2A24326E000E94
:100B98002B20336EA3EC16F0220E3224F66EFE0ED6
:100BA8003320F76E0900F5CF8FF00900F5CF90F0EC
:100BB8000A00F5CF91F0000E2D6E640E2C6E000128
:100BC800A1512A6E2B6A2ABE2B06C8EC12F0120E0F
:100BD8002A24326E000E2B20336E000E356E030E63
:100BE800346EA3EC16F0220E3224F66EFE0E33207D
:100BF800F76E0900F5CF8CF00900F5CF8DF00A00EB
:100C0800F5CF8EF0E8EC0BF08CC09EF08DC09FF015
:100C18008EC0A0F09EC08CF09FC08DF0A0C08EF05A
:100C2800000E356E030E346E000E276E0A0E266E09
:100C38000001A151246E256A24BE2506C4EC13F0D8
:100C480024C032F025C033F0A3EC16F0220E322473
:100C5800F66EFE0E3320F76E0900F5CF8FF009000F
:100C6800F5CF90F00A00F5CF91F0E8EC0BF08CC0CE
:100C78009BF08DC09CF08EC09DF012000001A15128
:100C8800800A750FD8A04FD0000E2D6E0A0E2C6E5C
:100C98000001A1512A6E2B6A2ABE2B06C8EC12F05D
:100CA800090E2A24326E000E2B20336E000E356E8C
:100CB800030E346EA3EC16F0220E3224F66EFE0EEE
:100CC8003320F76E0900F5CF8CF00900F5CF8DF0D1
:100CD8000A00F5CF8EF0000E356E030E346E000E4E
:100CE800276E0A0E266E0001A151246E256A24BEC5
:100CF8002506C4EC13F024C032F025C033F0A3EC71
:100D080016F0220E3224F66EFE0E3320F76E09001E
:100D1800F5CF8FF00900F5CF90F00A00F5CF91F0EC
:100D2800E8EC0BF0A4D70001A151030D220EF32427
:100D3800F66EFE0EF420F76E0900F5CF9BF0090061
:100D4800F5CF9CF00A00F5CF9DF01200DFC024F02B
:100D5800E0C025F058EC15F0EFC024F0F0C025F005
:100D6800F1C026F0F2C027F0000E296E000E286EA2
:100D7800FAEC10F0AE0E0001CD6FFE0E0001CE6F42
:100D880009EC17F0E5C0D7F0E6C0D8F0F7C0D9F005
:100D9800F8C0DAF0A6EC11F0D70E0001CD6FFF0E07
:100DA8000001CE6F09EC17F09A0E0101206F990E21
:100DB8000101216F400E0101226FC00E0101236F56
:100DC8007F0E0101246F440E0101256FF3C024F04A
:100DD800F4C025F0F5C026F0F6C027F0F1EC0FF0CE
:100DE800D89024340101296F253401012A6F41C0AC
:100DF80024F042C025F043C026F044C027F0F1ECAF
:100E08000FF0245001012913255001012A13EBC0CA
:100E180024F0ECC025F0EDC026F0EEC027F0000E5F
:100E2800296E010E286EFAEC10F023C183F024C15C
:100E380084F025C185F04FC024F050C025F0FDECAA
:100E480015F024C02CF025C02DF026C02EF027C0A8
:100E58002FF088EC13F02CC080F02DC081F02EC04C
:100E680082F039EC0DF080C08CF081C08DF082C02A
:100E78008EF020C18FF021C190F022C191F0E8ECF2
:100E88000BF08CC026F18DC027F18EC028F146ECFE
:100E980017F0B70E0001C06FFF0E0001C16F29C126
:100EA800C2F02AC1C3F026C1C4F027C1C5F028C1C9
:100EB800C6F009EC00F06AEC16F046EC17F0990E53
:100EC8000001C06FFE0E0001C16F09EC00F021EEB9
:100ED8004EF011EE18F0070EDBCFE3FFE806FCE258
:100EE8003BC0D7F03CC0D8F0A00E0001DB6FFF0E6E
:100EF8000001DC6F6AEC16F00001DD6FDE6BD89044
:100F08000001DD37DE370001DB510001DD2700017C
:100F1800DC510001DE23180E0001DD25D96E010E1B
:100F28000001DE21DA6EDECFD9F0DDCFDAF0A6ECF3
:100F380011F0A60E0001CD6FFF0E0001CE6F09EC77
:100F480017F0E5C0D7F0E6C0D8F0FBC0D9F0FCC078
:100F5800DAF0A6EC11F0C80E0001CD6FFF0E00010B
:100F6800CE6F09EC17F0E5C0D7F0E6C0D8F0F9C0AD
:100F7800D9F0FAC0DAF0A6EC11F0810E0001CD6FBD
:100F8800FE0E0001CE6F09EC17F0DFC006F1E0C0DD
:100F980007F1E1C008F1E2C009F1E3C00AF1E4C0D9
:100FA8000BF1000E01010D6F5A0E0C6F4BEC13F094
:100FB800EFC024F0F0C025F0F1C026F0F2C027F011
:100FC800000E296E010E286EFAEC10F0FFD7A7C0AC
:100FD800ABF00001AC6BAD6B0001A6350001AB377F
:100FE80001E3AC810001AB510001B06FAAC0ABF0C6
:100FF8000001AC6BAD6B0001A9350001AB3701E313
:10100800AC810001AB510001AF6F0001B05100018C
:10101800D8B411D00001AF510001B05DD8B012D0E2
:101028000001B05100080001AF250001AB6F180E98
:101038000001AB6507D0A8C0A5F0A9C0A6F0AAC05A
:10104800A7F012000001AF510001D8B411D000017F
:10105800B0510001AF5DD8B012D00001AF51000807
:101068000001B0250001AB6F180E0001AB6507D079
:10107800A5C0A5F0A6C0A6F0A7C0A7F01200060E4E
:101088000001AE6F0001A7AF02D00001AE8F0001D2
:10109800AAAF02D00001AE8D0001A68FFF0E00019D
:1010A800A517FF0E0001A617000E0001A7170001E3
:1010B800A98FFF0E0001A817FF0E0001A917000E47
:1010C8000001AA170001AF510001B05DD8B025D0CA
:1010D8000001D890A837A937AA370001AF07000147
:1010E800B0510001AF19D8B411D00001AE07AEC09D
:1010F800ABF0070E0001AB17D8B408D0E9D7000150
:10110800D890A733A633A5330001B02B0001AF5107
:101118000001B019D8B42BD0F2D70001B0510001AA
:10112800AF5DD8B024D00001D890A537A637A7372F
:101138000001B0070001B0510001AF19D8B411D0B7
:101148000001AE07AEC0ABF0070E0001AB17D8B474
:1011580008D0E9D70001D890AA33A933A8330001F1
:10116800AF2B0001AF510001B019D8A4F3D700018B
:10117800AEAF12D0FF0E0001A51BFF0E0001A61B8B
:10118800FF0E0001A71B010E0001A527000E00019C
:10119800A623000E0001A7230001AEAD12D0FF0E5A
:1011A8000001A81BFF0E0001A91BFF0E0001AA1BCE
:1011B800010E0001A827000E0001A923000E00015E
:1011C800AA23000E0001AE6F0001A5510001A82757
:1011D8000001A6510001A9230001A7510001AA237B
:1011E8000001AAAF15D0FF0E0001A81BFF0E0001D9
:1011F800A91BFF0E0001AA1B010E0001A827000E63
:101208000001A923000E0001AA23010E0001AE6F00
:10121800A8C024F0A9C025F0AAC026F0B0C027F0C5
:10122800AEC028F0A3EC10F024C0A5F025C0A6F0AD
:1012380026C0A7F012000001A46F6D0E0001A4657E
:10124800A2D0000E356E030E346E000E2D6E0A0EFF
:101258002C6E000E276E640E266EA4C024F0256A3C
:10126800C4EC13F024C02AF025C02BF0C8EC12F00F
:10127800090E2A24326E000E2B20336EA3EC16F0D2
:10128800FB0E3224F66EFD0E3320F76E0900F5CF03
:101298008FF00900F5CF90F00A00F5CF91F0000E1D
:1012A8002D6E640E2C6EA4C02AF02B6AC8EC12F0C6
:1012B800120E2A24326E000E2B20336E000E356E6D
:1012C800030E346EA3EC16F0FB0E3224F66EFD0E00
:1012D8003320F76E0900F5CF8CF00900F5CF8DF0BB
:1012E8000A00F5CF8EF0E8EC0BF08CC0A1F08DC0B1
:1012F800A2F08EC0A3F0000E356E030E346E000E01
:10130800276E0A0E266EA4C024F0256AC4EC13F0DA
:1013180024C032F025C033F0A3EC16F0FB0E3224C3
:10132800F66EFD0E3320F76E0900F5CF8FF0090039
:10133800F5CF90F00A00F5CF91F0A1C08CF0A2C0D3
:101348008DF0A3C08EF0E8EC0BF08CC09EF08DC041
:101358009FF08EC0A0F09EC08CF09FC08DF0A0C002
:101368008EF0000E00018F6F000E0001906F3F0E8F
:101378000001916FE8EC0BF08CC09BF08DC09CF0E5
:101388008EC09DF012000A0E0001A46560D0000E08
:10139800356E030E346E000E276E0A0E266EA4C03C
:1013A80024F0256AC4EC13F024C032F025C033F0D1
:1013B800A3EC16F0FB0E3224F66EFD0E3320F76E0A
:1013C8000900F5CF8FF00900F5CF90F00A00F5CFAE
:1013D80091F0000E2D6E0A0E2C6EA4C02AF02B6A16
:1013E800C8EC12F0090E2A24326E000E2B20336E40
:1013F800000E356E030E346EA3EC16F0FB0E32248D
:10140800F66EFD0E3320F76E0900F5CF8CF009005B
:10141800F5CF8DF00A00F5CF8EF0E8EC0BF08CC01C
:10142800A1F08DC0A2F08EC0A3F0A1C08CF0A2C024
:101438008DF0A3C08EF0000E00018F6F000E00012A
:10144800906F3F0E0001916FE8EC0BF095D700010B
:10145800A451030DFB0EF324F66EFD0EF420F76E77
:101468000900F5CF8CF00900F5CF8DF00A00F5CF13
:101478008EF0000E00018F6F000E0001906F3F0E7E
:101488000001916FE8EC0BF08CC09BF08DC09CF0D4
:101498008EC09DF01200F2A402D0010E01D0000E01
:1014A8000C6E0D6A9EA002D0010E01D0000E0E6EC9
:1014B8000F6A9EA202D0010E01D0000E106E116AB2
:1014C800A1A202D0010E01D0000E126E136A000E06
:1014D800156E000E146E15BE08D0155005E1040EE9
:1014E800145CD8B0120001D01200D8901434D96E10
:1014F8001534DA6E0C0ED926000EDA22DE50DE1014
:10150800D8B4ABD0D8901434D96E1534DA6E430EF3
:10151800D926010EDA22DECF01F0DDCF02F0D89015
:101528001434D96E1534DA6E3B0ED926010EDA2240
:10153800DECF03F0DDCF04F04AEC10F001500210CA
:10154800D8B42FD014C001F015C002F0AF0E036E4E
:101558003C0E046E000E056E000E066E32EC15F0A1
:10156800D8901434D96E1534DA6E430ED926010E8C
:10157800DA22DECF01F0DDCF02F0D8901434D96E34
:101588001534DA6E3B0ED926010EDA22DECF03F0CF
:10159800DDCF04F0000E066E000E056E50EC11F063
:1015A80047D014C001F015C002F02B0E0A6E010ED0
:1015B8000B6ED8901434D96E1534DA6ED890D936AB
:1015C800DA360A50D9260B50DA22DECF03F0DECF06
:1015D80004F0DECF05F0DECF06F032EC15F0D8903F
:1015E8001434D96E1534DA6E430ED926010EDA2278
:1015F800DECF01F0DDCF02F0D8901434D96E153467
:10160800DA6E3B0ED926010EDA22DECF03F0DDCFEB
:1016180004F0000E066E010E056E50EC11F008D0B5
:10162800F2941BD09E9019D09E9217D0A19215D0FB
:1016380014C00AF015C00BF00B50000AD8A40DD046
:101648000A50000AD8B4ECD7010AD8B4EBD7030A79
:10165800D8B4EAD7010AD8B4E9D7144A152A15BE6E
:1016680044D7155001E13BD71200000E0001C86FA6
:10167800000EC96F000ECA6F000ECB6FE20E00019C
:10168800D36F040ED46F000ED56F000ED66F6A0E9E
:101698000001CC6F180ECD6F000ECE6F000ECF6F0D
:1016A800D3C0C4F0D4C0C5F0D5C0C6F0D6C0C7F00A
:1016B8000001C41FC51FC61FC71FC42B000EC523AA
:1016C800C623C7230001CC510001C4252C6E00019C
:1016D800CD510001C5212D6E0001CE510001C6215A
:1016E8002E6E0001CF510001C7212F6E88EC13F038
:1016F8002CC08FF02DC090F02EC091F0000E00018C
:10170800836F340E0001846F430E0001856FC0C0E3
:101718002CF0C1C02DF0E1EC15F02CC080F02DC0EC
:1017280081F02EC082F039EC0DF080C08CF081C0C1
:101738008DF082C08EF0E8EC0BF08CC0A8F08DC064
:10174800A9F08EC0AAF0D3C02CF0D4C02DF0D5C01B
:101758002EF0D6C02FF088EC13F02CC0A5F02DC0C9
:10176800A6F02EC0A7F0EBEC07F0A5C0D0F0A6C0FD
:10177800D1F0A7C0D2F0C8C02CF0C9C02DF0CAC0A3
:101788002EF0CBC02FF088EC13F02CC0A8F02DC0A1
:10179800A9F02EC0AAF0D0C0A5F0D1C0A6F0D2C042
:1017A800A7F0EBEC07F0A5C0B1F0A6C0B2F0A7C057
:1017B800B3F097EC0CF0B1C0C0F0B2C0C1F0B3C048
:1017C800C2F0B4C0C3F012008EC092F00001936B57
:1017D800946B00018D350001923701E3938100017C
:1017E80092510001956F00019551D8A40AD0000EBE
:1017F80000018C6F000E00018D6F000E00018E6FCE
:10180800120091C092F00001936B946B0001903527
:101818000001923701E393810001925100019A6F10
:1018280000019A51D8A40AD0000E00018C6F000E56
:1018380000018D6F000E00018E6F120000019A5199
:101848007B0F000195278EC09AF00001915100018D
:101858009A1B800E00019A1700018D8F0001908F4E
:10186800FF0E00018F17FF0E00019017000E0001F8
:101878009117000E0001966F000E0001976F000E81
:101888000001986F070E0001996F00018CA10CD020
:1018980000018F5100019627000190510001972304
:1018A80000019151000198230001D8908E338D33A7
:1018B8008C330001D8908F37903791370001992FDA
:1018C800E4D7090E0001996F00018CA10CD000012A
:1018D8008F510001962700019051000197230001C4
:1018E8009151000198230001D8908E338D338C33A9
:1018F8000001D8909833973396330001992FE4D795
:1019080096C024F097C025F098C026F095C027F01F
:101918009AC028F0A3EC10F024C08CF025C08DF0FC
:1019280026C08EF01200B3C0B5F00001B66BB76BDD
:101938000001B2350001B53701E3B6810001B551A8
:101948000001BF6F0001BF51D8A40AD0000E0001EA
:10195800B16F000EB26F000EB36F000EB46F1200BD
:10196800170E0001B56FB1C0B6F0B2C0B7F0B3C082
:10197800B8F00001B5290001B96F05D00001D89071
:10198800B833B733B6330001B92FF8D70001B651D1
:101998000001BA6F0001B28FFF0E0001B117FF0EF0
:1019A8000001B217000E0001B3170001B151000188
:1019B800BB6F0001B2510001BC6F0001B3510001BF
:1019C800BD6F0001BE6B8E0E0001BF5F0001BFAF8F
:1019D8001AD00001BF51800A8F0FD8B00AD0000E6C
:1019E8000001B16F000EB26F000EB36F000EB46F3E
:1019F80012000001D890BE33BD33BC33BB330001A5
:101A0800BF3FF7D71BD0170E0001BF6512D0000EDD
:101A18000001B16F000EB26F000EB36F000EB46F0D
:101A280012000001D890BB37BC37BD37BE37000164
:101A3800BF070001BF510001D8A4F3D70001BA5174
:101A48000001D8B409D00001BE1FBD1FBC1FBB6D6B
:101A5800000EBC23BD23BE23BBC0B1F0BCC0B2F096
:101A6800BDC0B3F0BEC0B4F0120082C036F0376A11
:101A7800386A00018135363601E337803650000177
:101A88008A6F00018A51D8A40AD0000E0001806F25
:101A9800000E0001816F000E0001826F120085C0E8
:101AA80036F0376A386A00018435363601E3378004
:101AB800365000018B6F00018B51D8A40AD0000E5C
:101AC8000001806F000E0001816F000E0001826F1F
:101AD8001200000E0001876F000E0001886F000ED3
:101AE8000001896F00018B51890F00018A5F82C054
:101AF8008BF00001855100018B1B800E00018B17B4
:101B08000001818FFF0E00018017FF0E0001811771
:101B1800000E000182170001848FFF0E0001831759
:101B2800FF0E00018417000E00018517180E000132
:101B3800866F0001D890873788378937000183512D
:101B48000001805D00018451000181590001855127
:101B580000018259D8A00ED0000183510001805F96
:101B6800000184510001815B000185510001825B05
:101B7800000187810001D8908037813782370001C2
:101B8800862FD7D787C024F088C025F089C026F0D3
:101B98008AC027F08BC028F0A3EC10F024C080F096
:101BA80025C081F026C082F0120026C02AF02B6AD8
:101BB8002C6A25342A3601E32B802A50326E3250A3
:101BC800D8A409D0000E246E000E256E000E266ED5
:101BD800000E276E120029C02AF02B6A2C6A2834BE
:101BE8002A3601E32B802A50316E3150D8A409D00F
:101BF800000E246E000E256E000E266E000E276E57
:101C08001200258EFF0E2416FF0E2516000E26162E
:101C1800288EFF0E2716FF0E2816000E2916000E16
:101C28002D6E000E2E6E000E2F6E000E306E7F0E83
:101C3800325E3150980F325E180E316ED8902D36C4
:101C48002E362F3630362750245C285025582950F8
:101C58002658D8A007D02750245E2850255A295046
:101C6800265A2D80D890243625362636312EE6D7AA
:101C780032AE16D03250800A970FD8B009D0000E75
:101C8800246E000E256E000E266E000E276E1200C2
:101C9800D89030322F322E322D32323EF9D715D02D
:101CA800170E32640FD0000E246E000E256E000E43
:101CB800266E000E276E1200D8902D362E362F363F
:101CC800303632063250D8A4F7D72DC024F02EC0B3
:101CD80025F02FC026F030C027F012002634273414
:101CE8002F6E2F50D8A409D0000E246E000E256E3A
:101CF800000E266E000E276E120029342A342E6E2E
:101D08002E50D8A409D0000E246E000E256E000EA9
:101D1800266E000E276E1200268EFF0E2416FF0E6A
:101D28002516FF0E2616000E2716298EFF0E2716DB
:101D3800FF0E2816FF0E2916000E2A16000E2A6E10
:101D4800000E2B6E000E2C6E000E2D6E7F0E2F5E79
:101D58002E50A00F2F5E200E2E6ED8902A362B36CE
:101D68002C362D362750245C2850255829502658C3
:101D78002A502758D8A009D02750245E2850255A21
:101D88002950265A2A50275A2A80D8902436253690
:101D9800263627362E2EE1D72FAE16D02F50800AA2
:101DA8009F0FD8B009D0000E246E000E256E000ECD
:101DB800266E000E276E1200D8902D322C322B3250
:101DC8002A322F3EF9D715D01F0E2F640FD0000EE0
:101DD800246E000E256E000E266E000E276E120071
:101DE800D8902A362B362C362D362F062F50D8A4CD
:101DF800F7D72AC024F02BC025F02CC026F02DC020
:101E080027F0120014EC17F0BDEC14F090EC16F06B
:101E18006AEC16F0410AD8A4FBD77DEC16F06AEC00
:101E280016F00001CD6F420E0001CD19D8B40AD0CA
:101E3800430E0001CD19D8B405D02A0E0001CD19E2
:101E4800D8A4EDD7430E0001CD19D8A456D057EC2D
:101E580016F06AEC16F00001CD6F310E0001CD19B5
:101E6800D8B414D0320E0001CD19D8B40FD0330E27
:101E78000001CD19D8B40AD0340E0001CD19D8B458
:101E880005D02A0E0001CD19D8A4E3D72A0E0001E7
:101E9800CD19D8B4C2D70001CD5119EC16F06AECAF
:101EA80016F00001CD6F410E0001CD19D8B40AD04B
:101EB800420E0001CD19D8B405D02A0E0001CD1963
:101EC800D8A4EDD7410E0001CD19D8A403D031EC28
:101ED80016F00DD0420E0001CD19D8A403D044EC61
:101EE80016F005D02A0E0001CD19D8B496D76AECA1
:101EF80016F02A0AD8B4CFD7FAD7420E0001CD1966
:101F0800D8B412002A0E0001CD19D8B47FD785D7CE
:101F1800C1EC15F09EEC15F006EC0FF0EFC024F0C4
:101F2800F0C025F0F1C026F0F2C027F0000E296EAF
:101F3800010E286EFAEC10F0DFC006F1E0C007F1E0
:101F4800E1C008F1E2C009F1E3C00AF1E4C00BF115
:101F5800000E01010D6F5A0E0C6F4BEC13F0E5C02B
:101F680006F1E6C007F1E7C008F1E8C009F1E9C0E9
:101F78000AF1EAC00BF1F9C00CF1FAC00DF14BEC13
:101F880013F03BC006F13CC007F13DC008F13EC06C
:101F980009F13FC00AF140C00BF1000E01010D6FBD
:101FA8005A0E0C6F4BEC13F046EC17F0F60E0001CE
:101FB800C06FFF0E0001C16F09EC00F00001FD5178
:101FC8000001FE11D8B4FAD7AAEC06F0000E000101
:101FD800FE6F000EFD6FF2D7FFD740D026C028F065
:101FE80080CF29F0282A02D0D8902932282EFCD771
:101FF800010E29162950246E256A120026C028F0E1
:1020080081CF29F0282A02D0D8902932282EFCD74F
:10201800010E29162950246E256A120026C028F0C0
:1020280082CF29F0282A02D0D8902932282EFCD72E
:10203800010E29162950246E256A120026C028F0A0
:1020480083CF29F0282A02D0D8902932282EFCD70D
:10205800010E29162950246E256A120024C028F082
:1020680025C029F02950000AD8A40DD02850000A0C
:10207800D8B4B4D7010AD8B4C1D7030AD8B4CED7D4
:10208800010AD8B4DBD724682568120040D003C001
:1020980005F080CF06F0052A02D0D8900632052E2A
:1020A800FCD7010E06160650016E026A120003C024
:1020B80005F081CF06F0052A02D0D8900632052E09
:1020C800FCD7010E06160650016E026A120003C004
:1020D80005F082CF06F0052A02D0D8900632052EE8
:1020E800FCD7010E06160650016E026A120003C0E4
:1020F80005F083CF06F0052A02D0D8900632052EC7
:10210800FCD7010E06160650016E026A120001C0C5
:1021180005F002C006F00650000AD8A40DD00550FC
:10212800000AD8B4B4D7010AD8B4C1D7030AD8B4BE
:10213800CED7010AD8B4DBD701680268120027504D
:10214800D8B405D0245025102610D8A40CD0000EE1
:10215800246E000E256E000E266E1200272AD890D7
:10216800263225322432000E2414296E000E25143E
:102178002A6EFE0E26142B6E29502A102B10D8B466
:102188000CD0ECD7272A010E2426000E2522000E9B
:102198002622D890263225322432000E2414296EA5
:1021A800000E25142A6EFF0E26142B6E29502A10B5
:1021B8002B10D8B406D0E6D72706D8902436253673
:1021C800263625BE03D0020E2760F6D727A0259E07
:1021D800D8902732275026122850D8A4268E24C0FB
:1021E80024F025C025F026C026F0120026C02AF0CB
:1021F800010E2B6E000E2C6E2A2A03D0D8902B3697
:102208002C362A2EFBD72BC026F02CC027F02850BE
:102218002910D8A42BD0FF0E261A28D0280429105C
:10222800D8A403D02650891212002650891612000D
:1022380028042910D8A403D026508A121200265048
:102248008A16120028042910D8A403D026508B120D
:10225800120026508B16120028042910D8A403D087
:1022680026508C12120026508C16120024C02AF018
:1022780025C02BF02B50000AD8A412002A50000ABF
:10228800D8B4CCD7010AD8B4D3D7030AD8B4DAD78C
:10229800010AD8A41200E0D703C007F0010E086EA7
:1022A800000E096E072A03D0D89008360936072E83
:1022B800FBD708C003F009C004F005500610D8A4E5
:1022C8002BD0FF0E031A28D005040610D8A403D07B
:1022D80003508912120003508916120005040610D3
:1022E800D8A403D003508A12120003508A16120091
:1022F80005040610D8A403D003508B121200035013
:102308008B16120005040610D8A403D003508C12B3
:10231800120003508C16120001C007F002C008F02A
:102328000850000AD8A412000750000AD8B4CCD725
:10233800010AD8B4D3D7030AD8B4DAD7010AD8A483
:102348001200E0D7D9C0C0F0DAC0C1F039EC0BF008
:102358000001C01F0001C11F0001C21F0001C31FEF
:102368000001C02B000E0001C1230001C22300019F
:10237800C323FF0E0001C0250101006FFF0E0001FD
:10238800C1210101016F000E0001C2210101026F8C
:10239800000E0001C3210101036F2B0E0101046F20
:1023A800010E0101056FD8900001D735D96E0001E3
:1023B800D835DA6ED890D936DA3601010451D926E3
:1023C80001010551DA2200C1DEFF01C1DEFF02C1B1
:1023D800DEFF03C1DEFF12000600FACF16F0FBCFC6
:1023E80017F0E9CF18F0EACF19F0E1CF1AF0E2CFF1
:1023F8001BF0D9CF1CF0DACF1DF0F3CF1EF0F4CFCD
:102408001FF0F6CF20F0F7CF21F0F8CF22F0F5CF6C
:1024180023F04FEC0AF0F2A206D0F292000E00016F
:10242800FE6F010EFD6FF0A003D0F090EAEC16F0FD
:1024380023C0F5FF22C0F8FF21C0F7FF20C0F6FF38
:102448001FC0F4FF1EC0F3FF1DC0DAFF1CC0D9FF78
:102458001BC0E2FF1AC0E1FF19C0EAFF18C0E9FF7C
:1024680017C0FBFF16C0FAFF5C92110026AE16D00B
:1024780024C02AF025C02BF026C02CF02A1E2B1EC3
:102488002C1E2A2A000E2B222C22000E2A24246E0F
:10249800000E2B20256E800E2C20266E29AE16D01D
:1024A80027C02AF028C02BF029C02CF02A1E2B1E8A
:1024B8002C1E2A2A000E2B222C22000E2A24276EDC
:1024C800000E2B20286E800E2C20296E000E241A58
:1024D800000E251A800E261A000E271A000E281A3A
:1024E800800E291A2750245C285025582950265830
:1024F800D8B002D0D8901200D88012006C0EF66EB8
:102508002E0EF76E000EF86E01EE4EF010EE08F08B
:102518000900F5CFEEFFE550E150FAE1F40EF66E52
:102528002D0EF76E000EF86E00EEDFF010EE1EF0C6
:102538000900F5CFEEFFE550E150FAE13E0EF66EE8
:102548002E0EF76E000EF86E00EE3BF010EE12F055
:102558000900F5CFEEFFE550E150FAE101EE2BF06E
:10256800230EEE6AE806FDE10001FE6BFD6B00EE4E
:102578004DF00F0EEE6AE806FDE15C905C92000EED
:10258800F86E00018CEF0FF0000E2F6E2DAE06D006
:102598002C6C2D1ED8B02D2A010E2F6E2BAE06D016
:1025A8002A6C2B1ED8B02B2A010E2F1A000E316E62
:1025B800000E306E2C502D10D8B41CD0010E2E6E8B
:1025C80004D0D8902C362D362E2A2DAEFAD7D89096
:1025D800303631362C502A5C2D502B58D8A005D0D7
:1025E8002C502A5E2D502B5A3080D8902D322C3208
:1025F8002E2EEDD72F50D8B404D0306C311ED8B061
:10260800312A30C02AF031C02BF01200000E2C6E97
:10261800000E2D6E000E2E6E000E2F6E2850291003
:102628002A102B10D8B42AD0010E306E06D0D890BC
:10263800283629362A362B36302A2BAEF8D7D890AA
:102648002C362D362E362F362850245C2950255806
:102658002A5026582B502758D8A009D02850245E35
:102668002950255A2A50265A2B50275A2C80D89060
:102678002B322A3229322832302EE1D72CC024F0CE
:102688002DC025F02EC026F02FC027F01200D890BC
:1026980001010635D96E01010735DA6E430ED926D8
:1026A800010EDA2208C1DEFF09C1DDFFD890010161
:1026B8000635D96E01010735DA6E3B0ED926010EB3
:1026C800DA220AC1DEFF0BC1DDFF06C1D7F007C160
:1026D800D8F00CC1D9F00DC1DAF0A6EC11F006C1A2
:1026E80024F007C125F07BEC15F006C124F007C1E2
:1026F80025F0000E266E000E276E000E286E000EC6
:10270800296EE6EC14F01200000E356E8E0E346E53
:102718002FAE11D02F1E2E1E2D1E2C6C000E2D221A
:102728002E222F22010E356E06D0D8902F322E324F
:102738002D322C32342A000E2C14306E000E2D143B
:10274800316E000E2E14326EFF0E2F14336E305081
:10275800311032103310D8A4E8D72CC024F02DC083
:1027680025F02EC026F034C027F035C028F0A3ECA1
:1027780010F024C02CF025C02DF026C02EF0120039
:10278800000E296E25AE06D0246C251ED8B0252A49
:10279800010E296E27AE04D0266C271ED8B0272A32
:1027A80026502710D8B418D0010E286E04D0D8901F
:1027B80026362736282A27AEFAD72650245C2750F3
:1027C8002558D8A004D02650245E2750255AD890E2
:1027D80027322632282EF1D72950D8B404D0246CB9
:1027E800251ED8B0252A24C024F025C025F01200C3
:1027F8003550361037103810D8B424D0010E396E41
:1028080006D0D8903536363637363836392A38AE87
:10281800F8D73550315C3650325837503358385025
:102828003458D8A008D03550315E3650325A375017
:10283800335A3850345AD8903832373236323532E3
:10284800392EE7D731C031F032C032F033C033F01F
:1028580034C034F01200256E2550F00B246E8C50D5
:102868000F0B8C6E24508C108C6E8C96D60E00D06C
:1028780000D0E82EFCD700D08C86D60E00D000D031
:10288800E82EFCD700D02538F00B256E2550F00B2C
:10289800246E8C500F0B8C6E24508C108C6E8C9682
:1028A800D60E00D000D0E82EFCD700D08C86D60EED
:1028B80000D000D0E82EFCD700D012008E0E346E67
:1028C80006D0D8902F322E322D322C32342A000ED8
:1028D8002C14306E000E2D14316E000E2E14326E34
:1028E800FF0E2F14336E3050311032103310D8A42D
:1028F800E8D72CC024F02DC025F02EC026F034C017
:1029080027F0000E286EA3EC10F024C02CF025C090
:102918002DF026C02EF01200000EC76E280EC66ECF
:10292800000EC56E800E246E960E256E980E266ECD
:10293800000E276E31C035F032C036F033C037F0A4
:1029480034C038F0020ED890353636363736383639
:10295800E82EF9D735C028F036C029F037C02AF05C
:1029680038C02BF00AEC13F02404C86E94869488BF
:102978001200F29E3EEC17F0000E266ED00E256E69
:1029880031EC17F0000E266E000E256E31EC17F0B4
:10299800000E276E060E276401D010D02750010DB7
:1029A8007A0EF324F66EFE0EF420F76E0800F5504A
:1029B800256E266A31EC17F0272AECD73AEC17F087
:1029C800F28E120012D027C0D7FF26C0D6FFD58EB0
:1029D800120027C0CFFF26C0CEFFCD80120027C02F
:1029E800B3FF26C0B2FFB180120024C02AF025C070
:1029F8002BF02B50000AD8A412002A50000AD8B491
:102A0800E2D7010AD8B4E5D7020AD8A41200E7D75A
:102A18000001B4510001B5110001B611D8B409D0B4
:102A2800000E0001B41B000E0001B51B800E000152
:102A3800B61BB1C0A5F0B2C0A6F0B3C0A7F0B4C031
:102A4800A8F0B5C0A9F0B6C0AAF0EBEC07F0A5C095
:102A5800B1F0A6C0B2F0A7C0B3F0120012D004C003
:102A6800D7FF03C0D6FFD58E120004C0CFFF03C026
:102A7800CEFFCD80120004C0B3FF03C0B2FFB18007
:102A8800120001C007F002C008F00850000AD8A4DC
:102A980012000750000AD8B4E2D7010AD8B4E5D723
:102AA800020AD8A41200E7D70CD0000ED56E120087
:102AB800000ECD6E1200000ECA6E1200000EB16E2E
:102AC800120024C026F025C027F02750000AD8A4F9
:102AD80012002650000AD8B4E8D7010AD8B4E8D7BB
:102AE800030AD8B4E8D7010AD8A41200E7D70DD052
:102AF800000ED56ED586F28A1AD0000ECD6E9D8056
:102B080016D0000EB16EA08212D024C026F025C0C7
:102B180027F02750000AD8A40AD02650000AD8B4B3
:102B2800E7D7010AD8B4E9D7020AD8B4EAD7F28CB1
:102B3800F28E1200310E286EB20EE82EFED7282E25
:102B4800FCD700D0330ED9EC16F0320ED9EC16F0C3
:102B5800280ED9EC16F00F0ED9EC16F0060ED9ECAB
:102B680016F0010ED9EC16F0310E286EB20EE82ED2
:102B7800FED7282EFCD700D0120092689368000E6A
:102B8800946E000E956E000E966E000E896E000E05
:102B98008A6E000E8B6E000E8C6E000E8D6E000E0F
:102BA800C26E0E0EC112000EC06EC082300EC01270
:102BB800C08EF086F288F28E1200000E2F6E2DAEB7
:102BC80006D02C6C2D1ED8B02D2A010E2F6E2CC0CD
:102BD80024F02DC025F0266A8E0E276E2FC028F00F
:102BE800A3EC10F024C02CF025C02DF026C02EF048
:102BF80012002444E846FC0BC26EC280C282C2B2F4
:102C0800FED7C350C4CF28F0296A28C029F0286A03
:102C18002826000E292228C024F029C025F0000EFD
:102C280025BEFF0E266E276E12003A6E46EC17F090
:102C3800C20E0001C06FFE0E0001C16F3AC0C2F0A3
:102C48000001C36B09EC00F0730E0001C06FFF0EAA
:102C58000001C16F09EC00F0120046EC17F00B0EF2
:102C68000001C06FFF0E0001C16F09EC00F0400EBB
:102C78000001C06FFF0E0001C16F09EC00F01200E7
:102C880046EC17F01D0E0001C06FFF0E0001C16F6A
:102C980009EC00F0840E0001C06FFF0E0001C16F47
:102CA80009EC00F0120046EC17F0F90E0001C06FB5
:102CB800FE0E0001C16F09EC00F0510E0001C06F5B
:102CC800FF0E0001C16F09EC00F0120081A2FED7CF
:102CD80081380F0B0F0B246E81B2FED72450010DE3
:102CE800690EF324F66EFE0EF420F76E0800F55018
:102CF800120046EC17F0D50E0001C06FFE0E000161
:102D0800C16F09EC00F0620E0001C06FFF0E0001F8
:102D1800C16F09EC00F0120046EC17F0E70E000155
:102D2800C06FFE0E0001C16F09EC00F0950E0001A6
:102D3800C06FFF0E0001C16F09EC00F012003250A5
:102D48003402F3CF36F0F4CF37F032503502F35077
:102D5800372633503402F350372636C032F037C0A6
:102D680033F01200245025102610D8B406D0000ED7
:102D7800241A000E251A800E261A24C024F025C015
:102D880025F026C026F01200286E0A0E2818D8A4AE
:102D980003D042EC17F012008C84740EE82EFED794
:102DA80000D028502FEC14F01200276E8C94740E6B
:102DB800E82EFED700D027502FEC14F0040E266E14
:102DC8003E0EE82EFED7262EFCD7120081380F0BB8
:102DD8000F0B016E0150010D690EF324F66EFE0E05
:102DE800F420F76E0800F5CF5BF012000000020037
:102DF80001000100020002000000030002000000C0
:102E08000000010046005A00B40046EC17F0CDC09F
:102E1800C0F0CEC0C1F009EC00F06AEC16F0120068
:102E2800100E316E270E326E000E336E000E346EA9
:102E380090EC14F0120003000200030000000200EE
:102E480064003C0050007800C7B4FED7C5CF24F01A
:102E58001F0E2416D8B41200F7D728EC17F025C097
:102E6800C9FF120064005F005A00550028EC17F0F3
:102E7800C584120028EC17F0C5801200C00ED9ECEA
:0C2E880016F01200010ED9EC16F012003A
:10FDD20000010000000A00000064000000E80300C7
:10FDE2000010270000A086010040420F0080969874
:10FDF2000000E1F50500CA9A3B00803FCDCC3DD71B
:10FE0200233C12833AB7D138C62737388635C0D655
:10FE120033CC2B32708930E7DB2EE53C1E42A20D3B
:10FE220000803F00204100C842007A44401C4650F6
:10FE3200C34724744997184BBCBE4C6B6E4E0315D6
:10FE42005079AD60F349710100000010000000001C
:10FE5200010000001000000000010000001000007E
:10FE62000000010000001031323341343536423790
:10FE72003839432A3023440000590301130417631D
:10FE82006F6E7665796F7220262063796C696E6475
:10FE92006572206F6E3F007069636B20616E676CE4
:10FEA200653A20312C322C332C343F00696E746554
:10FEB20072727570742121210A636C6F73653F0041
:10FEC2002563292074696D6520203C412020202073
:10FED200200A0073746172742020203C422020208A
:10FEE2002020200A00202068683A6D6D3A73732042
:10FEF20020202020200A0073656C656374207275CF
:10FF02006E3A20202020200A0074696D653A206E26
:10FF12006E6E207365632020200A005B41412C39FC
:10FF2200562C432C6F746865725D200A00303132A2
:10FF320033343536373839616263646566002020B0
:10FF42002020202020202020202020202A3E005B6C
:10FF5200312C322C332C345D20202020202A3E00EC
:10FF6200686973746F7279203C43202020202A3EF6
:10FF7200002020207374617473203C422020202AC8
:10FF82003E005B6E6E2C6E2C6E2C6E6E5D20202001
:10FF92002A3E0020206D6D3A64643A79792020204F
:10FFA20020413E0072656C65617365206261747404
:10FFB2006572793F007461726765743A2025640A3C
:10FFC200563A202566007265736574207468652050
:10FFD2007061643F007265616420766F6C74616762
:10FFE200653F005B25782025785D0A0074313A2050
:0DFFF2002578200072756E6E696E67000044
:020000040020DA
:08000000FFFFFFFFFFFFFFFF00
:020000040030CA
:0E000000FF021F1EFF8381FF0FC00FE00F40A5
:00000001FF
