:040000003EEF09F0D6
:10100000003132334134353642373839432A3023C0
:0910100044000A00300031000028
:10101A0003C007F0010E086E000E096E072A03D0FE
:10102A00D89008360936072EFBD708C003F009C046
:10103A0004F005040610D8A42BD0FF0E031A28D0FA
:10104A0005500610D8A403D0035092121200035080
:10105A009216120005500610D8A403D0035093121A
:10106A00120003509316120005500610D8A403D09C
:10107A0003509412120003509416120005500610E1
:10108A00D8A403D0035095121200035095161200EB
:10109A0001C007F002C008F00850000AD8A41200E4
:1010AA000750000AD8B4CCD7010AD8B4D3D7030A58
:1010BA00D8B4DAD7010AD8A41200E0D7E2EC08F0D3
:1010CA00000E926E93CF0BF00C6ABCEC08F0000E87
:1010DA00026E010E016E000E046E010E036E000E0A
:1010EA00066E010E056E0DEC08F0120E066E100E5D
:1010FA00076E07EC09F093CF0BF00C6ABCEC08F012
:10110A000B0E126E260E116E5E0EE82EFED7112EF3
:10111A00FCD7122EFAD7F4D7026E0250F00B016EEA
:10112A008C500F0B8C6E01508C108C6E8C96F00EBE
:10113A0000D0E82EFDD78C86F00E00D0E82EFDD721
:10114A000238F00B026E0250F00B016E8C500F0B3E
:10115A008C6E01508C108C6E8C96F00E00D0E82E9E
:10116A00FDD78C86F00E00D0E82EFDD71200010EB6
:10117A00106E000E0F6E10BE1200105003E10F0425
:10118A00D8A012000F500B140D6E10500C140E6ED6
:10119A000D500E10D8B407D0160E066E100E076E3C
:1011AA0007EC09F006D0140E066E100E076E07EC57
:1011BA0009F0103410320F32DED7000E956E270E6A
:1011CA00056EF50EE82EFED7052EFCD700F0330E7D
:1011DA002DEC09F0320E2DEC09F0280E2DEC09F059
:1011EA000F0E2DEC09F0060E2DEC09F0010E2DEC78
:1011FA0009F0270E056EF50EE82EFED7052EFCD750
:10120A0000F01200080E086E000E096E03D00A5094
:10121A001CEC09F006C0F6FF07C0F7FF064A072ACA
:10122A000800F5CF0AF00A50D8B41200F0D7056EBC
:10123A000A0E0518D8A403D043EC09F012008C84D6
:10124A005D0EE82EFED700F0055091EC08F0120072
:10125A00046E8C945D0EE82EFED700F0045091ECDB
:10126A0008F0030E036E980EE82EFED7032EFCD765
:10127A001200000EF86E000163EF08F0C00E2DECAC
:04128A0009F0120055
:020000040020DA
:08000000FFFFFFFFFFFFFFFF00
:020000040030CA
:0E000000FF021F1EFF8381FF0FC00FE00F40A5
:00000001FF
