:0400000020EF0AF0F3
:10100000003132334134353642373839432A3023C0
:10101000440001000A006400E803102725643A2513
:0310200064000069
:101024000F0E146E000E156E7DD0250E1A18D8B44E
:1010340004D01A50F7EC09F075D0000E166E0DC0EE
:10104400F6FF0EC0F7FF0D4A0E2A0800F5CF1AF07E
:101054001A50000AD8B41200640AD8B403D00D0A96
:10106400D8A460D014C0D9FF15C0DAFFDECF18F0C1
:10107400DDCF19F0020E1426000E152219AE06D08B
:10108400030E1612186C191ED8B0192A010E1A6E06
:10109400050E1A18D8B412D01A50020D120EF324E9
:1010A400F66E100EF420F76E0900F550185C090076
:1010B400F5501958D8A002D01A2AEAD716C013F04E
:1010C400030E1316D8B403D02D0EF7EC09F01AC092
:1010D40017F024D01750020D120EF324F66E100EE2
:1010E400F420F76E0900F5CF03F00A00F5CF04F001
:1010F40018C001F019C002F088EC09F001C008F032
:1011040002C009F0000E0B6E0A0E0A6ED6EC09F04E
:101114000850300F1A6E1A50F7EC09F0170617280A
:10112400D8A4D8D70DC0F6FF0EC0F7FF0D4A0E2A7B
:101134000800F5CF1AF01A50D8B4120076D7B1ECE3
:1011440009F019EC0AF0000E226E000E216E21C087
:1011540001F022C002F0000E046E3C0E036EE3ECBC
:1011640008F001C01DF002C01EF021C001F022C031
:1011740002F0000E046E3C0E036E25EC09F001C073
:101184001FF002C020F01C0E0D6E100E0E6E1DC05E
:101194000FF01EC010F01FC011F020C012F012ECAE
:1011A40008F00B0E1C6E260E1B6E5E0EE82EFED78C
:1011B4001B2EFCD71C2EFAD729EC0AF0214A222A2E
:1011C400C6D7000E066E04AE06D0036C041ED8B05B
:1011D400042A010E066E02AE06D0016C021ED8B0BF
:1011E400022A010E061A000E086E000E076E035046
:1011F4000410D8B41CD0010E056E04D0D890033668
:101204000436052A04AEFAD7D890073608360350B8
:10121400015C04500258D8A005D00350015E04506C
:10122400025A0780D89004320332052EEDD70650B7
:10123400D8B404D0076C081ED8B0082A07C001F03F
:1012440008C002F01200000E066E02AE06D0016C59
:10125400021ED8B0022A010E066E04AE04D0036C3E
:10126400041ED8B0042A03500410D8B418D0010EB8
:10127400056E04D0D89003360436052A04AEFAD796
:101284000350015C04500258D8A004D00350015EFE
:101294000450025AD89004320332052EF1D7065076
:1012A400D8B404D0016C021ED8B0022A01C001F0E7
:1012B40002C002F01200026E0250F00B016E8C505C
:1012C4000F0B8C6E01508C108C6E8C96F00E00D02F
:1012D400E82EFDD78C86F00E00D0E82EFDD702381C
:1012E400F00B026E0250F00B016E8C500F0B8C6EE3
:1012F40001508C108C6E8C96F00E00D0E82EFDD729
:101304008C86F00E00D0E82EFDD71200000E066E7B
:10131400000E056E03500410D8B41CD0010E076EE5
:1013240004D0D89003360436072A04AEFAD7D890EE
:10133400053606360350015C04500258D8A005D087
:101344000350015E0450025A0580D89004320332DF
:10135400072EEDD705C001F006C002F01200000E02
:10136400956E270E056EF50EE82EFED7052EFCD7DA
:1013740000F0330E08EC0AF0320E08EC0AF0280EE6
:1013840008EC0AF00F0E08EC0AF0060E08EC0AF05E
:10139400010E08EC0AF0270E056EF50EE82EFED7B6
:1013A400052EFCD700F012000A500B10D8B418D048
:1013B400010E0C6E04D0D8900A360B360C2A0BAEF4
:1013C400FAD70A50085C0B500958D8A004D00A5028
:1013D400085E0B50095AD8900B320A320C2EF1D702
:1013E40008C008F009C009F01200056E0A0E0518BD
:1013F400D8A403D025EC0AF012008C845D0EE82EEC
:10140400FED700F005505DEC09F01200046E8C94D8
:101414005D0EE82EFED700F004505DEC09F0030EDB
:10142400036E980EE82EFED7032EFCD712009368A5
:10143400000E8A6E000EC26EC1681200000EF86EB5
:101444000001A1EF08F0C00E08EC0AF01200010E32
:0614540008EC0AF0120092
:020000040020DA
:08000000FFFFFFFFFFFFFFFF00
:020000040030CA
:0E000000FF021F1EFF8381FF0FC00FE00F40A5
:00000001FF
