:0400000007EF00F016
:100008005C82CCED12F016EF13F0BF0E0101046F05
:10001800000E0101056F8FEF04F0250E010117197D
:10002800D8B406D00101175115EC17F08FEF04F082
:10003800000E0101076F000E066F18D00101078539
:1000480034D00101068F31D004C1D9FF05C1DAFFD0
:10005800DF500101176F020E01010427000E05236E
:100068000101175115EC17F08FEF04F0BDC0F6FF32
:10007800BEC0F7FF0001BD4BBE2B0800F5CF17F13E
:1000880001011751000AD8B41200630AD8B4DCD7AA
:10009800070AD8B40AD0020AD8B4D0D70F0AD8B4FD
:1000A80004D0110AD8B4CDD7DBD7070E0101071544
:1000B800D8B4F4D2000E0101096F060E086F04C10E
:1000C800D9FF05C1DAFFDECF14F1DECF15F1DDCFA0
:1000D80016F1030E01010427000E0523010116AFD6
:1000E80011D014C124F015C125F016C126F003EC77
:1000F80017F024C014F125C015F126C016F1030E1F
:1001080001010613000E01010B6F000E0A6F0101B9
:1001180014510101151101011611D8B491D0820EA4
:100128000001C46FFF0E0001C56F14C1C6F015C1F0
:10013800C7F016C1C8F017C1C9F0100E06D00001EB
:10014800D890C933C833C733C633E82EF8D700016F
:10015800C6510001C42501010A6F000E0001C52126
:1001680001010B6F01010A07D8A00B070AC132F081
:100178000BC133F0000E356E030E346EF0EC16F042
:1001880032C00AF133C00BF10AC12AF00BC12BF0BF
:10019800000E2D6E0A0E2C6EA7EC13F02AC00AF181
:1001A8002BC00BF101010BAF04D001010A07D8A045
:1001B8000B0701010A5100089FEC04F098C00CF1EC
:1001C80099C00DF19AC00EF10CC189F00DC18AF0E9
:1001D8000EC18BF014C18CF015C18DF016C18EF0D4
:1001E80087EC0BF089C00CF18AC00DF18BC00EF1C1
:1001F8000CC124F00DC125F00EC126F0000E276EAB
:10020800800E286E3F0E296E5FEC13F0D8B005D033
:1002180001010A07D8A00B0713D00CC124F00DC1A7
:1002280025F00EC126F0000E276E200E286E410E16
:10023800296E5FEC13F0D8A003D001010A4B0B2BF9
:10024800010109BF08D0010109511DE10D0E01018D
:10025800085DD8B018D014C1A2F015C1A3F016C11A
:10026800A4F0010108518BEC09F098C0A5F099C0E1
:10027800A6F09AC0A7F057EC08F0A2C014F1A3C0EA
:1002880015F1A4C016F101010BBF08D001010B51F3
:100298002AE10A0E01010A5DD8B025D001011451E6
:1002A8000101151101011611D8B45FD014C1AEF0C7
:1002B80015C1AFF016C1B0F0E2EC0CF00001AE5180
:1002C8000001AF110001B0110001B111D8A44DD047
:1002D80001010BBF4AD001010B5105E1020E0101DA
:1002E8000A5DD8A042D00CC124F00DC125F00EC182
:1002F80026F0700E276E890E286E400E296E5FEC70
:1003080013F0D8B003D00101F70E02D00101F80EA6
:100318000A27FF0E0B2301010A519FEC04F098C035
:100328000CF199C00DF19AC00EF114C124F015C159
:1003380025F016C126F00CC127F00DC128F00EC11A
:1003480029F084EC0DF024C010F125C011F126C06D
:1003580012F127C013F1000E0101146F000E010104
:10036800156F000E0101166F33D014C1AEF015C120
:10037800AFF016C1B0F0E2EC0CF0AEC010F1AFC0B7
:1003880011F1B0C012F1B1C013F114C1AEF015C132
:10039800AFF016C1B0F010C12CF011C12DF012C190
:1003A8002EF013C12FF004EC15F02CC0B1F02DC0C5
:1003B800B2F02EC0B3F058EC15F0AEC014F1AFC0D7
:1003C80015F1B0C016F1000E01010B6F000E0A6F97
:1003D800010E0101176F0A0E01011719D8B41ED0BA
:1003E80001011751040DCD0EF324F66EFD0EF42015
:1003F800F76E0900F5500101105D0900F550010183
:1004080011590900F550010112590900F55001016F
:100418001359D8A003D00101172BDDD7030E010112
:1004280006150001C46F000E010107150001C56F14
:100438000001C4510001C511D8B44AD02D0E15ECE5
:1004480017F046D010C124F011C125F012C126F0D2
:1004580013C127F001011751040DCD0EF324F66ED8
:10046800FD0EF420F76E0900F5CF28F00900F5CF4E
:1004780029F00900F5CF2AF00A00F5CF2BF0E9ECB6
:1004880013F024C00CF125C00DF126C00EF127C0D1
:100498000FF10CC131F00DC132F00EC133F00FC1B4
:1004A80034F00A0E356E000E366E000E376E000EF2
:1004B800386E9EEC14F031C00CF132C00DF133C02F
:1004C8000EF134C00FF101010C51300F15EC17F08B
:1004D8000101170701011729D8B408D0B3D7300E86
:1004E80015EC17F001010A07D8A00B0701010BBF93
:1004F80007D001010B51F3E101010A05D8B0EFD78C
:10050800010109BF0CD00101095105E1090E0101E2
:10051800085DD8A004D0080E0101176F02D008C1E9
:1005280017F1010117510101085F000E010117BF02
:10053800FF0E0101095B010117510101D8B403D075
:100548002E0E15EC17F0010117519FEC04F098C01E
:1005580000F199C001F19AC002F114C18CF015C1E3
:100568008DF016C18EF000C189F001C18AF002C178
:100578008BF087EC0BF089C0AEF08AC0AFF08BC06F
:10058800B0F0E2EC0CF0AEC010F1AFC011F1B0C0A9
:1005980012F1B1C013F16DD010C124F011C125F0D2
:1005A80012C126F013C127F001011751040DCD0E19
:1005B800F324F66EFD0EF420F76E0900F5CF28F04F
:1005C8000900F5CF29F00900F5CF2AF00A00F5CF88
:1005D8002BF0E9EC13F024C00CF125C00DF126C076
:1005E8000EF127C00FF10CC131F00DC132F00EC170
:1005F80033F00FC134F00A0E356E000E366E000E61
:10060800376E000E386E9EEC14F031C00CF132C01B
:100618000DF133C00EF134C00FF101010C51300F50
:1006280015EC17F010C131F011C132F012C133F0DE
:1006380013C134F001011751040DCD0EF324F66EE9
:10064800FD0EF420F76E0900F5CF35F00900F5CF5F
:1006580036F00900F5CF37F00A00F5CF38F09EECF8
:1006680014F031C010F132C011F133C012F134C0AE
:1006780013F10101170701011729D8B408D08CD745
:10068800300E15EC17F001010807D8A00907010181
:10069800085101010911D8B43ED1F2D7010106BFB2
:1006A80023D004C1D9FF05C1DAFFDECF10F1DDCFB9
:1006B80011F10101000E11BFFF0E126F136F020E30
:1006C80001010427000E0523010113AF6ED0030EAC
:1006D800010106130101131F121F111F106D000ED7
:1006E80011231223132361D004C1D9FF05C1DAFFF6
:1006F800DECFC4F0DDCFC5F0C4C010F1C5C011F124
:100708000101126B136B020E01010427000E052371
:100718004CD0010E0101176F0A0E01011719D8B448
:100728004DD001011751040DCD0EF324F66EFD0EC8
:10073800F420F76E0900F5500101105D0900F5502D
:10074800010111590900F550010112590900F5502C
:1007580001011359D8A032D00101172BDDD7010EA2
:100768000101176F080E01011719D8B427D001012C
:100778001751040D430EF324F66EFE0EF420F76EA7
:100788000900F5500101105D0900F55001011159EA
:100798000900F550010112590900F55001011359DA
:1007A800D8A00CD00101172BDDD701010651800B11
:1007B800000AD8B4AED7800AD8B4D1D7030E010145
:1007C80006150001C46F000E010107150001C56F71
:1007D8000001C4510001C511D8B403D02D0E15EC89
:1007E80017F0010117510101086F096B08BF0907CC
:1007F80087D008C1C4F009C1C5F00001D890C4373A
:10080800C5370001D890C437C537CD0E0001C425BF
:10081800F66EFD0EC521F76E0900F5CF28F0090028
:10082800F5CF29F00900F5CF2AF00A00F5CF2BF013
:1008380010C124F011C125F012C126F013C127F010
:10084800E9EC13F024C031F025C032F026C033F0B3
:1008580027C034F00A0E356E000E366E000E376E65
:10086800000E386E9EEC14F03150300F0101176FF6
:1008780043D010C124F011C125F012C126F013C1D4
:1008880027F008C1C4F009C1C5F00001D890C437E9
:10089800C5370001D890C437C537430E0001C425B9
:1008A800F66EFE0EC521F76E0900F5CF28F0090097
:1008B800F5CF29F00900F5CF2AF00A00F5CF2BF083
:1008C800E9EC13F024500F0B0101036F01010351F0
:1008D800010D410EF324F66EFF0EF420F76E0800AA
:1008E800F5CF17F109D001010651800B000AD8B4E1
:1008F80080D7800AD8B4BDD70101175115EC17F07D
:1009080001010807D8A0090701010829ECE1010144
:100918000929D8A4E8D7BDC0F6FFBEC0F7FF00017B
:10092800BD4BBE2B0800F5CF17F101011751D8B404
:10093800120011EF00F000019E6F00019EAF04D17C
:1009480000019E6D00019E51800A120FD8A094D01C
:10095800000E356E030E346E000E2D6E0A0E2C6ED0
:10096800000E276E640E266E00019E51246E256AC5
:1009780024BE250666EC14F024C02AF025C02BF00E
:10098800A7EC13F0090E2A24326E000E2B20336ECA
:10099800F0EC16F0F50E3224F66EFD0E3320F76EED
:1009A8000900F5CF8CF00900F5CF8DF00A00F5CFDE
:1009B8008EF0000E2D6E640E2C6E00019E512A6E74
:1009C8002B6A2ABE2B06A7EC13F0120E2A24326ECD
:1009D800000E2B20336E000E356E030E346EF0ECD5
:1009E80016F0F50E3224F66EFD0E3320F76E090070
:1009F800F5CF89F00900F5CF8AF00A00F5CF8BF022
:100A080087EC0BF089C09BF08AC09CF08BC09DF0EE
:100A18009BC089F09CC08AF09DC08BF0000E356E9B
:100A2800030E346E000E276E0A0E266E00019E51CC
:100A3800246E256A24BE250666EC14F024C032F024
:100A480025C033F0F0EC16F0F50E3224F66EFD0EEC
:100A58003320F76E0900F5CF8CF00900F5CF8DF043
:100A68000A00F5CF8EF087EC0BF089C098F08AC0A9
:100A780099F08BC09AF0120000019E51800A750F00
:100A8800D8A04FD0000E2D6E0A0E2C6E00019E517C
:100A98002A6E2B6A2ABE2B06A7EC13F0090E2A240D
:100AA800326E000E2B20336E000E356E030E346E40
:100AB800F0EC16F0F50E3224F66EFD0E3320F76ECC
:100AC8000900F5CF89F00900F5CF8AF00A00F5CFC3
:100AD8008BF0000E356E030E346E000E276E0A0E74
:100AE800266E00019E51246E256A24BE250666ECFA
:100AF80014F024C032F025C033F0F0EC16F0F50EF7
:100B08003224F66EFD0E3320F76E0900F5CF8CF017
:100B18000900F5CF8DF00A00F5CF8EF087EC0BF0C9
:100B2800A4D700019E51030DF50EF324F66EFD0EB9
:100B3800F420F76E0900F5CF98F00900F5CF99F089
:100B48000A00F5CF9AF0120000019E51800A120F98
:100B5800D8A094D0000E356E030E346E000E2D6EA4
:100B68000A0E2C6E000E276E640E266E00019E5132
:100B7800246E256A24BE250666EC14F024C02AF0EB
:100B880025C02BF0A7EC13F0090E2A24326E000EB4
:100B98002B20336EF0EC16F01C0E3224F66EFE0E8F
:100BA8003320F76E0900F5CF8CF00900F5CF8DF0F2
:100BB8000A00F5CF8EF0000E2D6E640E2C6E00012B
:100BC8009E512A6E2B6A2ABE2B06A7EC13F0120E32
:100BD8002A24326E000E2B20336E000E356E030E63
:100BE800346EF0EC16F01C0E3224F66EFE0E332036
:100BF800F76E0900F5CF89F00900F5CF8AF00A00F1
:100C0800F5CF8BF087EC0BF089C09BF08AC09CF085
:100C18008BC09DF09BC089F09CC08AF09DC08BF072
:100C2800000E356E030E346E000E276E0A0E266E09
:100C380000019E51246E256A24BE250666EC14F038
:100C480024C032F025C033F0F0EC16F01C0E32242C
:100C5800F66EFE0E3320F76E0900F5CF8CF0090012
:100C6800F5CF8DF00A00F5CF8EF087EC0BF089C038
:100C780098F08AC099F08BC09AF0120000019E513A
:100C8800800A750FD8A04FD0000E2D6E0A0E2C6E5C
:100C980000019E512A6E2B6A2ABE2B06A7EC13F080
:100CA800090E2A24326E000E2B20336E000E356E8C
:100CB800030E346EF0EC16F01C0E3224F66EFE0EA7
:100CC8003320F76E0900F5CF89F00900F5CF8AF0D7
:100CD8000A00F5CF8BF0000E356E030E346E000E51
:100CE800276E0A0E266E00019E51246E256A24BEC8
:100CF800250666EC14F024C032F025C033F0F0EC81
:100D080016F01C0E3224F66EFE0E3320F76E090024
:100D1800F5CF8CF00900F5CF8DF00A00F5CF8EF0F5
:100D280087EC0BF0A4D700019E51030D1C0EF32491
:100D3800F66EFE0EF420F76E0900F5CF98F0090064
:100D4800F5CF99F00A00F5CF9AF012003FC024F0D1
:100D580040C025F0A4EC15F0F00E246E000E256EB0
:100D6800000E276E000E266E1BEC11F0C00E00015F
:100D7800CA6FFE0E0001CB6F52EC17F0450E000152
:100D8800D46F000E0001D56FE0C0D6F0E1C0D7F0F7
:100D980080EC12F0D80E0001CA6FFF0E0001CB6F75
:100DA80052EC17F09A0E01011D6F790E01011E6FAA
:100DB800400E01011F6FC00E0101206F7F0E01015F
:100DC800216F440E0101226F4B0E246E000E256E1A
:100DD80031EC10F0D89024340101236F253401013F
:100DE800246F4F0E246E000E256E31EC10F0245047
:100DF80001012313255001012413EC0E246E000E6B
:100E0800256E000E276E010E266E1BEC11F020C118
:100E180039F021C13AF022C13BF055C024F056C048
:100E280025F04AEC16F024C02CF025C02DF026C081
:100E38002EF027C02FF02AEC14F02CC036F02DC06D
:100E480037F02EC038F0B1EC0EF036C089F037C05C
:100E58008AF038C08BF01DC18CF01EC18DF01FC107
:100E68008EF087EC0BF089C027F18AC028F18BC07F
:100E780029F16BEC17F0940E0001BD6FFE0E000116
:100E8800BE6F23C1BFF024C1C0F027C1C1F028C183
:100E9800C2F029C1C3F009EC00F0B7EC16F0AC0EB3
:100EA8000001CA6FFE0E0001CB6F52EC17F093D011
:100EB800EC0E246E000E256E000E276E000E266EB8
:100EC8001BEC11F0040E0101186F3D0EE82EFED741
:100ED800182FFCD700D020C139F021C13AF022C127
:100EE8003BF055C024F056C025F04AEC16F024C05B
:100EF8002CF025C02DF026C02EF027C02FF02AECAC
:100F080014F02CC036F02DC037F02EC038F0B1ECFC
:100F18000EF036C089F037C08AF038C08BF01DC19A
:100F28008CF01EC18DF01FC18EF087EC0BF089C0CC
:100F38001AF18AC01BF18BC01CF11AC124F01BC125
:100F480025F01CC126F0CD0E276ECC0E286E3D0E66
:100F5800296E5FEC13F0D8B00FD0F7C024F0F8C0BA
:100F680025F0F9C026F027C127F028C128F029C1AB
:100F780029F05FEC13F023D0F4C024F0F5C025F07D
:100F8800F6C026F027C127F028C128F029C129F08A
:100F98005FEC13F0D8B01AD0E6C025F1E7C026F10F
:100FA8002ED0FAC024F0FBC025F0FCC026F027C1E3
:100FB80027F028C128F029C129F05FEC13F0D8B038
:100FC80005D0E8C025F1E9C026F119D0EAC025F11D
:100FD800EBC026F114D023C118F124C119F1010185
:100FE8001951000AD8A40BD001011851000AD8B42D
:100FF8005FD7010AD8B4C0D7030AD8B4D2D74A0EEB
:101008000001D46F010E0001D56F25C1D6F026C1AD
:10101800D7F080EC12F0B80E0001CA6FFF0E000185
:10102800CB6F52EC17F0450E0001D46F000E000193
:10103800D56FE4C0D6F0E5C0D7F080EC12F0C90E49
:101048000001CA6FFF0E0001CB6F52EC17F0450E7E
:101058000001D46F000E0001D56FE2C0D6F0E3C0E6
:10106800D7F080EC12F07B0E0001CA6FFE0E000173
:10107800CB6F52EC17F03F0E0101006F000E01011B
:10108800016F000E0101036F5A0E026FBBEC0FF0E7
:10109800F00E246E000E256E000E276E010E266ED1
:1010A8001BEC11F01200A4C0A8F00001A96BAA6BF8
:1010B8000001A3350001A83701E3A9810001A85167
:1010C8000001AD6FA7C0A8F00001A96BAA6B0001D1
:1010D800A6350001A83701E3A9810001A851000144
:1010E800AC6F0001AD510001D8B411D00001AC5172
:1010F8000001AD5DD8B012D00001AD51000800016B
:10110800AC250001A86F180E0001A86507D0A5C07E
:10111800A2F0A6C0A3F0A7C0A4F012000001AC5131
:101128000001D8B411D00001AD510001AC5DD8B0B8
:1011380012D00001AC5100080001AD250001A86FD4
:10114800180E0001A86507D0A2C0A2F0A3C0A3F0A2
:10115800A4C0A4F01200060E0001AB6F0001A4AFFA
:1011680002D00001AB8F0001A7AF02D00001AB8D08
:101178000001A38FFF0E0001A217FF0E0001A317A5
:10118800000E0001A4170001A68FFF0E0001A5178D
:10119800FF0E0001A617000E0001A7170001AC51B1
:1011A8000001AD5DD8B025D00001D890A537A6378D
:1011B800A7370001AC070001AD510001AC19D8B444
:1011C80011D00001AB07ABC0A8F0070E0001A817AB
:1011D800D8B408D0E9D70001D890A433A333A233F8
:1011E8000001AD2B0001AC510001AD19D8B42BD0D2
:1011F800F2D70001AD510001AC5DD8B024D0000198
:10120800D890A237A337A4370001AD070001AD512C
:101218000001AC19D8B411D00001AB07ABC0A8F0DD
:10122800070E0001A817D8B408D0E9D70001D89054
:10123800A733A633A5330001AC2B0001AC51000144
:10124800AD19D8A4F3D70001ABAF12D0FF0E00013F
:10125800A21BFF0E0001A31BFF0E0001A41B010E21
:101268000001A227000E0001A323000E0001A42301
:101278000001ABAD12D0FF0E0001A51BFF0E00014F
:10128800A61BFF0E0001A71B010E0001A527000EDB
:101298000001A623000E0001A723000E0001AB6F7A
:1012A8000001A2510001A5270001A3510001A623B6
:1012B8000001A4510001A7230001A7AF15D0FF0E1C
:1012C8000001A51BFF0E0001A61BFF0E0001A71BB6
:1012D800010E0001A527000E0001A623000E000143
:1012E800A723010E0001AB6FA5C024F0A6C025F00E
:1012F800A7C026F0ADC027F0ABC028F0DBEC11F09A
:1013080024C0A2F025C0A3F026C0A4F0120000015A
:10131800A16F6D0E0001A165A2D0000E356E030EFF
:10132800346E000E2D6E0A0E2C6E000E276E640EA3
:10133800266EA1C024F0256A66EC14F024C02AF0B9
:1013480025C02BF0A7EC13F0090E2A24326E000EEC
:101358002B20336EF0EC16F0F50E3224F66EFD0EEF
:101368003320F76E0900F5CF8CF00900F5CF8DF02A
:101378000A00F5CF8EF0000E2D6E640E2C6EA1C003
:101388002AF02B6AA7EC13F0120E2A24326E000EF4
:101398002B20336E000E356E030E346EF0EC16F013
:1013A800F50E3224F66EFD0E3320F76E0900F5CFE8
:1013B80089F00900F5CF8AF00A00F5CF8BF087ECA9
:1013C8000BF089C09EF08AC09FF08BC0A0F0000E81
:1013D800356E030E346E000E276E0A0E266EA1C0FF
:1013E80024F0256A66EC14F024C032F025C033F0EE
:1013F800F0EC16F0F50E3224F66EFD0E3320F76E83
:101408000900F5CF8CF00900F5CF8DF00A00F5CF73
:101418008EF09EC089F09FC08AF0A0C08BF087EC48
:101428000BF089C09BF08AC09CF08BC09DF09BC0DC
:1014380089F09CC08AF09DC08BF0000E00018C6F73
:10144800000E00018D6F3F0E00018E6F87EC0BF0D0
:1014580089C098F08AC099F08BC09AF012000A0EE1
:101468000001A16560D0000E356E030E346E000ECB
:10147800276E0A0E266EA1C024F0256A66EC14F0C9
:1014880024C032F025C033F0F0EC16F0F50E32240B
:10149800F66EFD0E3320F76E0900F5CF8CF00900CB
:1014A800F5CF8DF00A00F5CF8EF0000E2D6E0A0EE6
:1014B8002C6EA1C02AF02B6AA7EC13F0090E2A247F
:1014C800326E000E2B20336E000E356E030E346E16
:1014D800F0EC16F0F50E3224F66EFD0E3320F76EA2
:1014E8000900F5CF89F00900F5CF8AF00A00F5CF99
:1014F8008BF087EC0BF089C09EF08AC09FF08BC000
:10150800A0F09EC089F09FC08AF0A0C08BF0000EAA
:1015180000018C6F000E00018D6F3F0E00018E6F71
:1015280087EC0BF095D70001A151030DF50EF324BC
:10153800F66EFD0EF420F76E0900F5CF89F009006C
:10154800F5CF8AF00A00F5CF8BF0000E00018C6F02
:10155800000E00018D6F3F0E00018E6F87EC0BF0BF
:1015680089C098F08AC099F08BC09AF01200F2A452
:1015780002D0010E01D0000E0C6E0D6A9EA002D0A2
:10158800010E01D0000E0E6E0F6A9EA202D0010E4F
:1015980001D0000E106E116AA1A202D0010E01D076
:1015A800000E126E136A000E156E000E146E15BE34
:1015B80008D0155005E1040E145CD8B0120001D013
:1015C8001200D8901434D96E1534DA6E0C0ED92660
:1015D800000EDA22DE50DE10D8B48DD014C00AF026
:1015E80015C00BF0D8900A360B36D8900A360B3651
:1015F8003A0E0A24016E010E0B20026EA6EC10F0C2
:1016080001500210D8B425D014C001F015C002F062
:10161800AF0E036E3C0E046E000E056E000E066ED5
:101628007EEC15F014C00AF015C00BF0D8900A36FD
:101638000B36D8900A360B363A0E0A24016E010E84
:101648000B20026E000E046E000E036E7BEC11F090
:101658003DD014C001F015C002F02A0E0A6E010E2A
:101668000B6ED8901434D96E1534DA6ED890D936FA
:10167800DA360A50D9260B50DA22DECF03F0DECF55
:1016880004F0DECF05F0DECF06F07EEC15F014C0D6
:101698000AF015C00BF0D8900A360B36D8900A36E7
:1016A8000B363A0E0A24016E010E0B20026E000E54
:1016B800046E010E036E7BEC11F008D0F2941BD07F
:1016C8009E9019D09E9217D0A19215D014C00AF0FE
:1016D80015C00BF00B50000AD8A40DD00A50000A10
:1016E800D8B4ECD7010AD8B4EBD7030AD8B4EAD7F0
:1016F800010AD8B4E9D7144A152A15BE62D715507D
:1017080001E159D712008BC08FF00001906B916BEB
:1017180000018A3500018F3701E3908100018F5164
:101728000001926F00019251D8A40AD0000E000166
:10173800896F000E00018A6F000E00018B6F120086
:101748008EC08FF00001906B916B00018D35000108
:101758008F3701E3908100018F510001976F0001DD
:101768009751D8A40AD0000E0001896F000E00011D
:101778008A6F000E00018B6F1200000197517B0FDA
:10178800000192278BC097F000018E510001971B32
:10179800800E0001971700018A8F00018D8FFF0EC0
:1017A80000018C17FF0E00018D17000E00018E1727
:1017B800000E0001936F000E0001946F000E0001EF
:1017C800956F070E0001966F000189A10CD00001EA
:1017D8008C510001932700018D51000194230001D1
:1017E8008E51000195230001D8908B338A338933B9
:1017F8000001D8908C378D378E370001962FE4D7AB
:10180800090E0001966F000189A10CD000018C51CE
:101818000001932700018D510001942300018E518E
:10182800000195230001D8908B338A338933000156
:10183800D8909533943393330001962FE4D793C00F
:1018480024F094C025F095C026F092C027F097C0E8
:1018580028F0DBEC11F024C089F025C08AF026C0FE
:101868008BF01200000E0001C56F000EC66F000E4F
:10187800C76F000EC86FE20E0001D06F040ED16F63
:10188800000ED26F000ED36F6A0E0001C96F180EDA
:10189800CA6F000ECB6F000ECC6FD0C0C1F0D1C0A4
:1018A800C2F0D2C0C3F0D3C0C4F00001C11FC21F30
:1018B800C31FC41FC12B000EC223C323C4230001AE
:1018C800C9510001C1252C6E0001CA510001C22175
:1018D8002D6E0001CB510001C3212E6E0001CC51A9
:1018E8000001C4212F6E2AEC14F02CC08CF02DC0FE
:1018F8008DF02EC08EF0000E396E340E3A6E430E07
:101908003B6EBDC02CF0BEC02DF02EEC16F02CC0E6
:1019180036F02DC037F02EC038F0B1EC0EF036C0DE
:1019280089F037C08AF038C08BF087EC0BF089C09B
:10193800A5F08AC0A6F08BC0A7F0D0C02CF0D1C00B
:101948002DF0D2C02EF0D3C02FF02AEC14F02CC00A
:10195800A2F02DC0A3F02EC0A4F057EC08F0A2C04E
:10196800CDF0A3C0CEF0A4C0CFF0C5C02CF0C6C047
:101978002DF0C7C02EF0C8C02FF02AEC14F02CC0F0
:10198800A5F02DC0A6F02EC0A7F0CDC0A2F0CEC005
:10199800A3F0CFC0A4F057EC08F0A2C0AEF0A3C0EB
:1019A800AFF0A4C0B0F0E2EC0CF0AEC0BDF0AFC038
:1019B800BEF0B0C0BFF0B1C0C0F01200B0C0B2F00D
:1019C8000001B36BB46B0001AF350001B23701E31E
:1019D800B3810001B2510001BC6F0001BC51D8A411
:1019E8000AD0000E0001AE6F000EAF6F000EB06F90
:1019F800000EB16F1200170E0001B26FAEC0B3F047
:101A0800AFC0B4F0B0C0B5F00001B2290001B66FA4
:101A180005D00001D890B533B433B3330001B62FE5
:101A2800F8D70001B3510001B76F0001AF8FFF0E67
:101A38000001AE17FF0E0001AF17000E0001B0172E
:101A48000001AE510001B86F0001AF510001B96F3C
:101A58000001B0510001BA6F0001BB6B8E0E00018E
:101A6800BC5F0001BCAF1AD00001BC51800A8F0FC7
:101A7800D8B00AD0000E0001AE6F000EAF6F000E96
:101A8800B06F000EB16F12000001D890BB33BA33AB
:101A9800B933B8330001BC3FF7D71BD0170E00018C
:101AA800BC6512D0000E0001AE6F000EAF6F000EC5
:101AB800B06F000EB16F12000001D890B837B93777
:101AC800BA37BB370001BC070001BC510001D8A4DC
:101AD800F3D70001B7510001D8B409D00001BB1FEA
:101AE800BA1FB91FB86D000EB923BA23BB23B8C0FB
:101AF800AEF0B9C0AFF0BAC0B0F0BBC0B1F01200E0
:101B080026C02AF02B6A2C6A25342A3601E32B805A
:101B18002A50326E3250D8A409D0000E246E000E1E
:101B2800256E000E266E000E276E120029C02AF0C0
:101B38002B6A2C6A28342A3601E32B802A50316E0E
:101B48003150D8A409D0000E246E000E256E000E68
:101B5800266E000E276E1200258EFF0E2416FF0E2D
:101B68002516000E2616288EFF0E2716FF0E28169D
:101B7800000E2916000E2D6E000E2E6E000E2F6E12
:101B8800000E306E7F0E325E3150980F325E180EA6
:101B9800316ED8902D362E362F3630362750245CAD
:101BA8002850255829502658D8A007D02750245EF9
:101BB8002850255A2950265A2D80D8902436253663
:101BC8002636312EE6D732AE16D03250800A970F1D
:101BD800D8B009D0000E246E000E256E000E266EB9
:101BE800000E276E1200D89030322F322E322D324E
:101BF800323EF9D715D0170E32640FD0000E246E7E
:101C0800000E256E000E266E000E276E1200D8906C
:101C18002D362E362F36303632063250D8A4F7D726
:101C28002DC024F02EC025F02FC026F030C027F09C
:101C38001200263427342F6E2F50D8A409D0000E56
:101C4800246E000E256E000E266E000E276E120002
:101C580029342A342E6E2E50D8A409D0000E246EB2
:101C6800000E256E000E266E000E276E1200268EC0
:101C7800FF0E2416FF0E2516FF0E2616000E271639
:101C8800298EFF0E2716FF0E2816FF0E2916000EA6
:101C98002A16000E2A6E000E2B6E000E2C6E000EF9
:101CA8002D6E7F0E2F5E2E50A00F2F5E200E2E6EF3
:101CB800D8902A362B362C362D362750245C2850BF
:101CC8002558295026582A502758D8A009D02750D7
:101CD800245E2850255A2950265A2A50275A2A80E5
:101CE800D89024362536263627362E2EE1D72FAE25
:101CF80016D02F50800A9F0FD8B009D0000E246E3E
:101D0800000E256E000E266E000E276E1200D8906B
:101D18002D322C322B322A322F3EF9D715D01F0EF6
:101D28002F640FD0000E246E000E256E000E266E56
:101D3800000E276E1200D8902A362B362C362D36F8
:101D48002F062F50D8A4F7D72AC024F02BC025F08F
:101D58002CC026F02DC027F0120038C080F00001FA
:101D6800816B826B37340001803701E38181000188
:101D780080510001876F00018751D8A407D0000E59
:101D8800366E000E376E000E386E12003BC080F0C3
:101D98000001816B826B3A340001803701E3818155
:101DA800000180510001886F00018851D8A407D034
:101DB800000E366E000E376E000E386E1200000EE2
:101DC8000001846F000E0001856F000E0001866F10
:101DD80000018851890F0001875F38C088F03B50A7
:101DE8000001881B800E00018817378EFF0E3616FB
:101DF800FF0E3716000E38163A8EFF0E3916FF0EF4
:101E08003A16000E3B16180E0001836F0001D89099
:101E18008437853786373950365C3A5037583B50C7
:101E28003858D8A008D03950365E3A50375A3B5007
:101E3800385A00018481D890363637363836000152
:101E4800832FE4D784C024F085C025F086C026F00F
:101E580087C027F088C028F0DBEC11F024C036F0EA
:101E680025C037F026C038F01200DDEC16F0B7ECCC
:101E780016F0410AD8A4FBD7CAEC16F0B7EC16F056
:101E88000001CA6F420E0001CA19D8B40AD0430E25
:101E98000001CA19D8B405D02A0E0001CA19D8A45D
:101EA800EDD7430E0001CA19D8A456D0A4EC16F0F9
:101EB800B7EC16F00001CA6F310E0001CA19D8B488
:101EC80014D0320E0001CA19D8B40FD0330E000155
:101ED800CA19D8B40AD0340E0001CA19D8B405D02A
:101EE8002A0E0001CA19D8A4E3D72A0E0001CA197C
:101EF800D8B4C2D70001CA5166EC16F0B7EC16F098
:101F08000001CA6F410E0001CA19D8B40AD0420EA6
:101F18000001CA19D8B405D02A0E0001CA19D8A4DC
:101F2800EDD7410E0001CA19D8A403D07EEC16F0F3
:101F38000DD0420E0001CA19D8A403D091EC16F0B6
:101F480005D02A0E0001CA19D8B496D7B7EC16F0F6
:101F58002A0AD8B4CFD7FAD7420E0001CA19D8B482
:101F680012002A0E0001CA19D8B47FD785D700C13C
:101F7800D9FF01C1DAFFDECF08F1DDCF09F1010198
:101F880020EE02F00051D9260151DA22DECF04F109
:101F9800DDCF05F1010120EE04F00051D9260151F1
:101FA800DA22DECF06F1DDCF07F13A0E0001DE6F4F
:101FB800010E0001DF6FD89001010835D96E0101CB
:101FC8000935DA6ED890D936DA360001DE51D926CD
:101FD8000001DF51DA2204C1DEFF05C1DDFF08C1BF
:101FE800DEF009C1DFF00001D890DE37DF370001ED
:101FF800D890DE37DF37020E0001DE27000EDF2320
:102008003A0E0001DE25D96E010E0001DF21DA6EDD
:1020180006C1DEFF07C1DDFF080E0001D46F010E07
:102028000001D56F02C1D6F003C1D7F080EC12F0E1
:1020380008C124F009C125F0C7EC15F008C124F047
:1020480009C125F0000E266E000E276E000E286EC0
:10205800000E296E32EC15F0120058D020EE02F076
:102068002450D9262550DA22DF50266E80CF27F05B
:10207800262A02D0D8902732262EFCD7010E271602
:102088002750246E256A120020EE02F02450D9262B
:102098002550DA22DF50266E81CF27F0262A02D07B
:1020A800D8902732262EFCD7010E27162750246EEB
:1020B800256A120020EE02F02450D9262550DA2293
:1020C800DF50266E82CF27F0262A02D0D8902732FA
:1020D800262EFCD7010E27162750246E256A1200DB
:1020E80020EE02F02450D9262550DA22DF50266E41
:1020F80083CF27F0262A02D0D8902732262EFCD765
:10210800010E27162750246E256A120024C0D9FF15
:1021180025C0DAFFDECF26F0DDCF27F02750000AF2
:10212800D8A40DD02650000AD8B498D7010AD8B43C
:10213800ABD7030AD8B4BED7010AD8B4D1D724681C
:102148002568120058D020EE02F00150D92602501E
:10215800DA22DF50036E80CF04F0032A02D0D89031
:102168000432032EFCD7010E04160450016E026AD5
:10217800120020EE02F00150D9260250DA22DF5078
:10218800036E81CF04F0032A02D0D8900432032EC4
:10219800FCD7010E04160450016E026A120020EEEC
:1021A80002F00150D9260250DA22DF50036E82CFA6
:1021B80004F0032A02D0D8900432032EFCD7010E73
:1021C80004160450016E026A120020EE02F001505B
:1021D800D9260250DA22DF50036E83CF04F0032A97
:1021E80002D0D8900432032EFCD7010E04160450F6
:1021F800016E026A120001C0D9FF02C0DAFFDECF09
:1022080003F0DDCF04F00450000AD8A40DD0035029
:10221800000AD8B498D7010AD8B4ABD7030AD8B4FF
:10222800BED7010AD8B4D1D701680268120020EEDF
:1022380002F02450D9262550DA22DF50286E010EEC
:10224800296E000E2A6E282A03D0D89029362A36FD
:10225800282EFBD729C02BF02AC02CF02650271097
:10226800D8A42BD0FF0E2B1A28D026042710D8A4C8
:1022780003D02B50891212002B5089161200260405
:102288002710D8A403D02B508A1212002B508A167C
:10229800120026042710D8A403D02B508B1212004A
:1022A8002B508B16120026042710D8A403D02B50CD
:1022B8008C1212002B508C16120024C0D9FF25C096
:1022C800DAFFDECF28F0DDCF29F02950000AD8A4A4
:1022D80012002850000AD8B4C8D7010AD8B4CFD7FA
:1022E800030AD8B4D6D7010AD8A41200DCD720EE46
:1022F80002F00150D9260250DA22DF50056E010E95
:10230800066E000E076E052A03D0D89006360736EB
:10231800052EFBD706C008F007C009F003500410CB
:10232800D8A42BD0FF0E081A28D003040410D8A470
:1023380003D00850891212000850891612000304AD
:102348000410D8A403D008508A12120008508A1624
:10235800120003040410D8A403D008508B121200F2
:1023680008508B16120003040410D8A403D0085098
:102378008C12120008508C16120001C0D9FF02C03E
:10238800DAFFDECF05F0DDCF06F00650000AD8A44C
:1023980012000550000AD8B4C8D7010AD8B4CFD75C
:1023A800030AD8B4D6D7010AD8A41200DCD727501C
:1023B800D8B405D0245025102610D8A40CD0000E6F
:1023C800246E000E256E000E266E1200272AD89065
:1023D800263225322432000E2414296E000E2514CC
:1023E8002A6EFE0E26142B6E29502A102B10D8B4F4
:1023F8000CD0ECD7272A010E2426000E2522000E29
:102408002622D890263225322432000E2414296E32
:10241800000E25142A6EFF0E26142B6E29502A1042
:102428002B10D8B406D0E6D72706D8902436253600
:10243800263625BE03D0020E2760F6D727A0259E94
:10244800D8902732275026122850D8A4268E24C088
:1024580024F025C025F026C026F012000DEC16F059
:10246800EAEC15F039EC0FF0F00E246E000E256E34
:10247800000E276E010E266E1BEC11F03F0E0101B7
:10248800006F000E0101016F000E0101036F5A0E6B
:10249800026FBBEC0FF0450E0101006F000E010149
:1024A800016FE2C002F1E3C003F1BBEC0FF04A0E8A
:1024B8000101006F010E0101016F000E0101036FA0
:1024C8005A0E026FBBEC0FF06BEC17F0F70E000121
:1024D800BD6FFF0E0001BE6F09EC00F00001FD5159
:1024E8000001FE11D8B4FAD7AAEC06F0000E0001DC
:1024F800FE6F000EFD6FE8D7D6C0BDF0D7C0BEF0A6
:1025080036EC0CF00001BD1F0001BE1F0001BF1F0B
:102518000001C01F0001BD2B000E0001BE230001F9
:10252800BF230001C023FF0E0001BD250001D86FA5
:10253800FF0E0001BE210001D96F000E0001BF216E
:102548000001DA6F000E0001C0210001DB6FD4C06A
:10255800D9FFD5C0DAFFDECFDCF0DDCFDDF000013A
:10256800D890DC37DD370001D890DC37DD372A0E0C
:102578000001DC25D96E010E0001DD21DA6ED8C01C
:10258800DEFFD9C0DEFFDAC0DEFFDBC0DEFF1200EF
:102598000600FACF16F0FBCF17F0E9CF18F0EACF14
:1025A80019F0E1CF1AF0E2CF1BF0D9CF1CF0DACF47
:1025B8001DF0F3CF1EF0F4CF1FF0F6CF20F0F7CFC9
:1025C80021F0F8CF22F0F5CF23F0BBEC0AF0F2A20D
:1025D80006D0F292000E0001FE6F010EFD6FF0A012
:1025E80003D0F09037EC17F023C0F5FF22C0F8FFB6
:1025F80021C0F7FF20C0F6FF1FC0F4FF1EC0F3FF85
:102608001DC0DAFF1CC0D9FF1BC0E2FF1AC0E1FFE2
:1026180019C0EAFF18C0E9FF17C0FBFF16C0FAFF90
:102628005C921100DE0EF66E2E0EF76E000EF86E3E
:1026380001EE4AF010EE06F00900F5CFEEFFE55086
:10264800E150FAE1BA0EF66E2E0EF76E000EF86E35
:1026580000EEE0F010EE14F00900F5CFEEFFE550C3
:10266800E150FAE18E0EF66E2E0EF76E000EF86E41
:1026780000EE3DF010EE16F00900F5CFEEFFE55044
:10268800E150FAE101EE2AF0200EEE6AE806FDE1DB
:1026980000EEF4F00B0EEE6AE806FDE100EE53F0F2
:1026A800090EEE6AE806FDE15C905C92000EF86E99
:1026B800000132EF12F026AE16D024C02AF025C051
:1026C8002BF026C02CF02A1E2B1E2C1E2A2A000EA8
:1026D8002B222C22000E2A24246E000E2B20256E7D
:1026E800800E2C20266E29AE16D027C02AF028C0CE
:1026F8002BF029C02CF02A1E2B1E2C1E2A2A000E75
:102708002B222C22000E2A24276E000E2B20286E46
:10271800800E2C20296E000E241A000E251A800E19
:10272800261A000E271A000E281A800E291A27507A
:10273800245C2850255829502658D8B002D0D89063
:102748001200D8801200000E2F6E2DAE06D02C6C11
:102758002D1ED8B02D2A010E2F6E2BAE06D02A6C56
:102768002B1ED8B02B2A010E2F1A000E316E000E28
:10277800306E2C502D10D8B41CD0010E2E6E04D003
:10278800D8902C362D362E2A2DAEFAD7D890303642
:1027980031362C502A5C2D502B58D8A005D02C50FF
:1027A8002A5E2D502B5A3080D8902D322C322E2E66
:1027B800EDD72F50D8B404D0306C311ED8B0312AA0
:1027C80030C02AF031C02BF01200000E2C6E000E23
:1027D8002D6E000E2E6E000E2F6E285029102A1016
:1027E8002B10D8B42AD0010E306E06D0D8902836D7
:1027F80029362A362B36302A2BAEF8D7D8902C36E5
:102808002D362E362F362850245C295025582A502C
:1028180026582B502758D8A009D02850245E295074
:10282800255A2A50265A2B50275A2C80D8902B32BA
:102838002A3229322832302EE1D72CC024F02DC07C
:1028480025F02EC026F02FC027F01200000E356E9E
:102858008E0E346E2FAE11D02F1E2E1E2D1E2C6CF8
:10286800000E2D222E222F22010E356E06D0D89072
:102878002F322E322D322C32342A000E2C14306E88
:10288800000E2D14316E000E2E14326EFF0E2F1412
:10289800336E3050311032103310D8A4E8D72CC022
:1028A80024F02DC025F02EC026F034C027F035C006
:1028B80028F0DBEC11F024C02CF025C02DF026C048
:1028C8002EF01200000E296E25AE06D0246C251EAF
:1028D800D8B0252A010E296E27AE04D0266C271EF3
:1028E800D8B0272A26502710D8B418D0010E286E41
:1028F80004D0D89026362736282A27AEFAD726506D
:10290800245C27502558D8A004D02650245E275090
:10291800255AD89027322632282EF1D72950D8B4F4
:1029280004D0246C251ED8B0252A24C024F025C044
:1029380025F012003550361037103810D8B424D08E
:10294800010E396E06D0D8903536363637363836D9
:10295800392A38AEF8D73550315C365032583750AE
:10296800335838503458D8A008D03550315E3650D6
:10297800325A3750335A3850345AD890383237325E
:1029880036323532392EE7D731C031F032C032F025
:1029980033C033F034C034F01200256E2550F00BEC
:1029A800246E8C500F0B8C6E24508C108C6E8C9671
:1029B800D60E00D000D0E82EFCD700D08C86D60EDC
:1029C80000D000D0E82EFCD700D02538F00B256EBB
:1029D8002550F00B246E8C500F0B8C6E24508C10ED
:1029E8008C6E8C96D60E00D000D0E82EFCD700D086
:1029F8008C86D60E00D000D0E82EFCD700D012006E
:102A08008E0E346E06D0D8902F322E322D322C32C4
:102A1800342A000E2C14306E000E2D14316E000E68
:102A28002E14326EFF0E2F14336E305031103210C8
:102A38003310D8A4E8D72CC024F02DC025F02EC020
:102A480026F034C027F0000E286EDBEC11F024C00D
:102A58002CF025C02DF026C02EF0120012D027C071
:102A6800D7FF26C0D6FFD58E120027C0CFFF26C0BD
:102A7800CEFFCD80120027C0B3FF26C0B2FFB180C1
:102A8800120024C02AF025C02BF02B50000AD8A42D
:102A980012002A50000AD8B4E2D7010AD8B4E5D700
:102AA800020AD8A41200E7D70001B1510001B211FF
:102AB8000001B311D8B409D0000E0001B11B000EFB
:102AC8000001B21B800E0001B31BAEC0A2F0AFC064
:102AD800A3F0B0C0A4F0B1C0A5F0B2C0A6F0B3C0D6
:102AE800A7F057EC08F0A2C0AEF0A3C0AFF0A4C0A6
:102AF800B0F0120012D004C0D7FF03C0D6FFD58EA5
:102B0800120004C0CFFF03C0CEFFCD80120004C066
:102B1800B3FF03C0B2FFB180120001C007F002C0CA
:102B280008F00850000AD8A412000750000AD8B4C8
:102B3800E2D7010AD8B4E5D7020AD8A41200E7D729
:102B48000CD0000ED56E1200000ECD6E1200000ED5
:102B5800CA6E1200000EB16E120024C026F025C005
:102B680027F02750000AD8A412002650000AD8B42B
:102B7800E8D7010AD8B4E8D7030AD8B4E8D7010AD5
:102B8800D8A41200E7D70DD0000ED56ED586F28AEC
:102B98001AD0000ECD6E9D8016D0000EB16EA082A8
:102BA80012D024C026F025C027F02750000AD8A448
:102BB8000AD02650000AD8B4E7D7010AD8B4E9D712
:102BC800020AD8B4EAD7F28CF28E1200310E286EBF
:102BD800B20EE82EFED7282EFCD700D0330E26ECF6
:102BE80017F0320E26EC17F0280E26EC17F00F0E11
:102BF80026EC17F0060E26EC17F0010E26EC17F05F
:102C0800310E286EB20EE82EFED7282EFCD700D043
:102C1800120092689368000E946E000E956E000E76
:102C2800966E000E896E000E8A6E000E8B6E000E78
:102C38008C6E000E8D6E000EC26EC1880B0EC11216
:102C4800000EC06EC082300EC012C08EF086F288B0
:102C5800F28E1200000E2F6E2DAE06D02C6C2D1E9B
:102C6800D8B02D2A010E2F6E2CC024F02DC025F0CF
:102C7800266A8E0E276E2FC028F0DBEC11F024C0D8
:102C88002CF025C02DF026C02EF012002444E84672
:102C9800FC0BC26EC280C282C2B2FED7C350C4CF80
:102CA80028F0296A28C029F0286A2826000E292237
:102CB80028C024F029C025F0000E25BEFF0E266E80
:102CC800276E12003C6E6BEC17F0D40E0001BD6F3E
:102CD800FE0E0001BE6F3CC0BFF00001C06B09ECE6
:102CE80000F0850E0001BD6FFF0E0001BE6F09ECFC
:102CF80000F012006BEC17F01D0E0001BD6FFF0E07
:102D08000001BE6F09EC00F0520E0001BD6FFF0E0E
:102D18000001BE6F09EC00F012006BEC17F02F0EEB
:102D28000001BD6FFF0E0001BE6F09EC00F0960EAA
:102D38000001BD6FFF0E0001BE6F09EC00F012002C
:102D48006BEC17F00B0E0001BD6FFF0E0001BE6F9C
:102D580009EC00F0630E0001BD6FFF0E0001BE6FAD
:102D680009EC00F0120081A2FED781380F0B0F0B7F
:102D7800246E81B2FED72450010D630EF324F66E43
:102D8800FE0EF420F76E0800F55012006BEC17F0F9
:102D9800E70E0001BD6FFE0E0001BE6F09EC00F0EA
:102DA800740E0001BD6FFF0E0001BE6F09EC00F04C
:102DB80012006BEC17F0F90E0001BD6FFE0E00015A
:102DC800BE6F09EC00F0A70E0001BD6FFF0E0001F9
:102DD800BE6F09EC00F0120032503402F3CF36F027
:102DE800F4CF37F032503502F350372633503402DF
:102DF800F350372636C032F037C033F01200245073
:102E080025102610D8B406D0000E241A000E251A54
:102E1800800E261A24C024F025C025F026C026F0EE
:102E28001200286E0A0E2818D8A403D067EC17F0F1
:102E380012008C84740EE82EFED700D02850D1ECF6
:102E480014F01200276E8C94740EE82EFED700D072
:102E58002750D1EC14F0040E266E3E0EE82EFED755
:102E6800262EFCD7120081380F0B0F0B016E015074
:102E7800010D630EF324F66EFE0EF420F76E0800C3
:102E8800F5CF5BF0120050000000020001000300C3
:102E98000200020000000100000002006BEC17F0C5
:102EA800CAC0BDF0CBC0BEF009EC00F0B7EC16F01C
:102EB800120046005A00B40064003C00780000008C
:102EC800030002000000C00E26EC17F01200010EED
:0C2ED80026EC17F01200010002000300BD
:10FDCC0000010000000A00000064000000E80300CD
:10FDDC000010270000A086010040420F008096987A
:10FDEC000000E1F50500CA9A3B00803FCDCC3DD721
:10FDFC00233C12833AB7D138C62737388635C0D65C
:10FE0C0033CC2B32708930E7DB2EE53C1E42A20D41
:10FE1C0000803F00204100C842007A44401C4650FC
:10FE2C00C34724744997184BBCBE4C6B6E4E0315DC
:10FE3C005079AD60F3497101000000100000000022
:10FE4C000100000010000000000100000010000084
:10FE5C000000010000001031323341343536423796
:10FE6C003839432A30234400005903011304176323
:10FE7C006F6E7665796F722026200A63796C696ED5
:10FE8C00646572206F6E3F007369676E616C3A2017
:10FE9C002564200A566F6C746167653A20256600EC
:10FEAC0073657420726564697265637420616E6732
:10FEBC006C653F00696E74657272757074212121D6
:10FECC000A636C6F73653F002563292074696D6547
:10FEDC0020203C4120202020200A00737461727481
:10FEEC002020203C422020202020200A00202068B6
:10FEFC00683A6D6D3A73732020202020200A00731D
:10FF0C00656C6563742072756E3A20202020200A7F
:10FF1C000074696D653A206E6E6E207365632020E7
:10FF2C00200A005B41412C39562C432C6F746865B8
:10FF3C00725D200A0030313233343536373839614E
:10FF4C006263646566002020202020202020202071
:10FF5C00202020202A3E005B312C322C332C345DA7
:10FF6C0020202020202A3E00686973746F7279204B
:10FF7C003C43202020202A3E0020202073746174F2
:10FF8C0073203C422020202A3E005B6E6E2C6E2C8F
:10FF9C006E2C6E6E5D2020202A3E0020206D6D3A66
:10FFAC0064643A797920202020413E0072656C65AA
:10FFBC0061736520626174746572793F0072657358
:10FFCC00657420746865207061643F0072656164BB
:10FFDC0020766F6C746167653F005B25782025780F
:10FFEC005D0A0074313A202578200072756E6E69B6
:04FFFC006E6700002C
:020000040020DA
:08000000FFFFFFFFFFFFFFFF00
:020000040030CA
:0E000000FF021F1EFF8381FF0FC00FE00F40A5
:00000001FF
