:0400000007EF00F016
:100008007E82FDED1BF02FEF28F0D70E0101086F5F
:10001800000E0101096F55EF06F0250E01011D19AB
:10002800D8B406D001011D5165EC29F055EF06F052
:10003800000E0101176F000E166F000E01011C6FF4
:10004800000E1B6F05D001011B850001D54BD62B77
:10005800D5C0F6FFD6C0F7FF0800F550300AD8B46F
:10006800F2D7D5C0F6FFD6C0F7FF0800F5503BEC35
:1000780029F0D8A0A1D0000E0101176F000E166F4D
:1000880016C18EF017C18FF0000E0001916F0A0E95
:10009800906FF3EC28F08EC016F18FC017F1D00ED8
:1000A8000001DF6FFF0E0001E06FD5C0F6FFD6C07C
:1000B800F7FF0800F5500001E16FE26B0001DF5126
:1000C8000001E1270001E0510001E2230001E151B4
:1000D800010116270001E251010117230001D54B48
:1000E800D62BD5C0F6FFD6C0F7FF0800F5503BEC7D
:1000F80029F0D8A061D0C4D701011B895DD00101C6
:100108001C857CD001011B8F79D00101165101019A
:10011800065D0101175101010759D8B009D0010145
:1001280006510101165F010107510101175B09D052
:10013800000E0101176F000E166F03D0200E65EC3C
:1001480029F001011607D8A0170701011629F6E1C1
:1001580001011729D8B40BD0F1D703C1D9FF04C1C5
:10016800DAFFDF5065EC29F00101034B042B010194
:100178000607D8A0070701010629EFE101010729B1
:10018800D8B455EF06F0E9D708C1D9FF09C1DAFF9D
:10019800DF5001011D6F020E01010827000E09231F
:1001A8001D0E0101036F010E0101046F000E010114
:1001B800076F010E066FA9D7D5C0F6FFD6C0F7FFA7
:1001C8000001D54BD62B0800F5CF1DF101011D51BB
:1001D800000AD8B41200630AD8B4D6D7070AD8B42C
:1001E8000DD0020AD8B48BD70F0AD8B407D0050AA5
:1001F800D8B482D7140AD8B485D7D2D7070E01014C
:100208001C15D8B47AD3000E01010B6F060E0A6FC5
:1002180008C1D9FF09C1DAFFDECF18F1DECF19F125
:10022800DDCF1AF1030E01010827000E0923010191
:100238001AAF11D018C180F019C181F01AC182F02B
:100248000EEC29F080C018F181C019F182C01AF1B2
:10025800030E01011B13000E0101116F000E106F38
:10026800010118510101191101011A11D8B49BD0CB
:10027800820E0001DF6FFF0E0001E06F18C1E1F090
:1002880019C1E2F01AC1E3F01BC1E4F0100E06D068
:100298000001D890E433E333E233E133E82EF8D7B2
:1002A8000001E1510001DF250101106F000E00017E
:1002B800E0210101116F01011007D8A0110710C139
:1002C8008EF011C18FF0000E0001916F030E906F38
:1002D800F3EC28F08EC010F18FC011F110C186F038
:1002E80011C187F0000E0001896F0A0E886F16ECA5
:1002F80023F086C010F187C011F1010111AF04D0BD
:1003080001011007D8A01107010110510008A9EC3C
:100318000BF0B0C00CF1B1C00DF1B2C00EF10CC1C0
:10032800A1F00DC1A2F00EC1A3F018C1A4F019C12B
:10033800A5F01AC1A6F006EC1AF0A1C00CF1A2C0F3
:100348000DF1A3C00EF10CC180F00DC181F00EC1FA
:1003580082F0000E0001836F800E0001846F3F0E53
:100368000001856F4EEC22F00001D8B005D00101E4
:100378001007D8A0110717D00CC180F00DC181F06B
:100388000EC182F0000E0001836F200E0001846F01
:10039800410E0001856F4EEC22F00001D8A003D079
:1003A8000101104B112B01010BBF08D001010B51AA
:1003B8001DE10D0E01010A5DD8B018D018C1BAF0C0
:1003C80019C1BBF01AC1BCF001010A513DEC13F090
:1003D800B0C0BDF0B1C0BEF0B2C0BFF093EC14F035
:1003E800BAC018F1BBC019F1BCC01AF1010111BFA4
:1003F80008D0010111512AE10A0E0101105DD8B09F
:1004080025D0010118510101191101011A11D8B49F
:1004180063D018C1C6F019C1C7F01AC1C8F05BECA7
:100428001BF00001C6510001C7110001C8110001ED
:10043800C911D8A451D0010111BF4ED001011151E9
:1004480005E1020E0101105DD8A046D00CC180F074
:100458000DC181F00EC182F0700E0001836F890E0C
:100468000001846F400E0001856F4EEC22F0000100
:10047800D8B003D00101F70E02D00101F80E102701
:10048800FF0E112301011051A9EC0BF0B0C00CF1C3
:10049800B1C00DF1B2C00EF118C180F019C181F0E0
:1004A8001AC182F00CC183F00DC184F00EC185F031
:1004B800C0EC17F080C012F181C013F182C014F1B2
:1004C80083C015F1000E0101186F000E0101196FAC
:1004D800000E01011A6F33D018C1C6F019C1C7F058
:1004E8001AC1C8F05BEC1BF0C6C012F1C7C013F10B
:1004F800C8C014F1C9C015F118C1C6F019C1C7F0B8
:100508001AC1C8F012C188F013C189F014C18AF069
:1005180015C18BF029EC26F088C0C9F089C0CAF053
:100528008AC0CBF0BEEC27F0C6C018F1C7C019F1DD
:10053800C8C01AF1000E0101116F000E106F010EF4
:1005480001011D6F0A0E01011D19D8B41ED0010149
:100558001D51040D310EF324F66EFE0EF420F76ED5
:100568000900F5500101125D0900F5500101135908
:100578000900F550010114590900F55001011559F8
:10058800D8A003D001011D2BDDD71DC1DFF000016C
:10059800E06BDFBFE00701010A510001DF2701011D
:1005A8000B510001E023010110510001DF27010177
:1005B80011510001E0230001DF510101165F000124
:1005C800E0510101175B01010A5101010B11D8B477
:1005D80004D001011607D8A01707030E01011B1547
:1005E8000001DF6F000E01011C150001E06F000122
:1005F800DF510001E011D8B404D001011607D8A0DA
:10060800170701011BA52DD0030E01011B150001C1
:10061800DF6F000E01011C150001E06F0001DF51C2
:100628000001E011D8B40BD02D0E65EC29F007D0ED
:10063800300E65EC29F001011607D8A01707010153
:1006480017BF74D001011751F3E101011605D8A0B5
:100658006DD0EED7200E65EC29F001011607D8A061
:100668001707010117BF07D001011751F3E1010175
:100678001605D8B0EFD7030E01011B150001DF6F77
:10068800000E01011C150001E06F0001DF5100019F
:10069800E011D8B44BD02D0E65EC29F047D012C12B
:1006A80080F013C181F014C182F015C183F00101FB
:1006B8001D51040D310EF324F66EFE0EF420F76E74
:1006C8000900F5CF84F00900F5CF85F00900F5CFD2
:1006D80086F00A00F5CF87F075EC23F080C00CF1A6
:1006E80081C00DF182C00EF183C00FF10CC18DF0F5
:1006F8000DC18EF00EC18FF00FC190F00A0E0001EF
:10070800916F000E926F000E936F000E946FCAECFB
:1007180024F08DC00CF18EC00DF18FC00EF190C089
:100728000FF101010C51300F65EC29F001011D0793
:1007380001011D29D8B408D0B2D7300E65EC29F0D4
:1007480001011007D8A01107010111BF07D001014D
:100758001151F3E101011005D8B0EFD701010BBF2A
:100768000CD001010B5105E1090E01010A5DD8A069
:1007780004D0080E01011D6F02D00AC11DF101014C
:100788001D5101010A5F000E01011DBFFF0E01018D
:100798000B5B01011D510101D8B403D02E0E65EC8D
:1007A80029F001011D51A9EC0BF0B0C000F1B1C056
:1007B80001F1B2C002F118C1A4F019C1A5F01AC123
:1007C800A6F000C1A1F001C1A2F002C1A3F006EC9D
:1007D8001AF0A1C0C6F0A2C0C7F0A3C0C8F05BEC75
:1007E8001BF0C6C012F1C7C013F1C8C014F1C9C0CC
:1007F80015F16ED012C180F013C181F014C182F0DE
:1008080015C183F001011D51040D310EF324F66E5C
:10081800FE0EF420F76E0900F5CF84F00900F5CF3D
:1008280085F00900F5CF86F00A00F5CF87F075EC62
:1008380023F080C00CF181C00DF182C00EF183C09D
:100848000FF10CC18DF00DC18EF00EC18FF00FC1EC
:1008580090F00A0E0001916F000E926F000E936FD8
:10086800000E946FCAEC24F08DC00CF18EC00DF10F
:100878008FC00EF190C00FF101010C51300F65ECE3
:1008880029F012C18DF013C18EF014C18FF015C17B
:1008980090F001011D51040D310EF324F66EFE0E89
:1008A800F420F76E0900F5CF91F00900F5CF92F02A
:1008B8000900F5CF93F00A00F5CF94F0CAEC24F0C4
:1008C8008DC012F18EC013F18FC014F190C015F1D4
:1008D80001011D0701011D29D8B408D08BD7300E9E
:1008E80065EC29F001010A07D8A00B0701010A519C
:1008F80001010B11D8B4D5D1F2D701011BBF34D0F7
:1009080001011BA90ED008C1D9FF09C1DAFFDECF4A
:1009180012F1DECF13F1DECF14F1DECF15F1040EA4
:100928000FD008C1D9FF09C1DAFFDECF12F1DDCF40
:1009380013F10101000E13BFFF0E146F156F020EA5
:1009480001010827000E0923010115AF7FD0030E0E
:1009580001011B130101151F141F131F126D000E37
:1009680013231423152372D001011BA90ED008C12B
:10097800D9FF09C1DAFFDECF12F1DECF13F1DECFE6
:1009880014F1DECF15F1040E10D008C1D9FF09C14A
:10099800DAFFDECFDFF0DDCFE0F0DFC012F1E0C03C
:1009A80013F10101146B156B020E01010827000EEB
:1009B80009234CD0010E01011D6F0A0E01011D19FA
:1009C800D8B44DD001011D51040D310EF324F66E3B
:1009D800FE0EF420F76E0900F5500101125D0900C2
:1009E800F550010113590900F55001011459090086
:1009F800F55001011559D8A032D001011D2BDDD7C2
:100A0800010E01011D6F080E01011D19D8B427D070
:100A180001011D51040DA70EF324F66EFE0EF420FD
:100A2800F76E0900F5500101125D0900F55001014A
:100A380013590900F550010114590900F550010135
:100A48001559D8A00CD001011D2BDDD701011B5170
:100A5800800B000AD8B4AED7800AD8B4D1D7010128
:100A6800165101011711D8B414D0030E01011B153A
:100A78000001DF6F000E01011C150001E06F00018D
:100A8800DF510001E011D8B404D001011607D8A045
:100A98001707800E01011DBF7F0E0001DF6F0101E6
:100AA800165101011D5D01011751800A0001DF592E
:100AB800D8B00BD001011D510101165F000E0101D4
:100AC8001DBFFF0E0101175B05D0000E0101176F56
:100AD800000E166F01011BA521D0030E01011B1585
:100AE8000001DF6F000E01011C150001E06F00011D
:100AF800DF510001E011D8B403D02D0E65EC29F0C8
:100B08000101165101011711D8B42ED0300E65EC31
:100B180029F001011607D8A01707F2D701011651CD
:100B280001011711D8B40DD0200E65EC29F0010190
:100B38001607D8A017070101165101011711D8A4EB
:100B4800F3D7030E01011B150001DF6F000E010131
:100B58001C150001E06F0001DF510001E011D8B45D
:100B680003D02D0E65EC29F001011D5101010A6F1A
:100B78000B6B0ABF0B078AD00AC1DFF00BC1E0F08C
:100B88000001D890DF37E0370001D890DF37E03731
:100B9800310E0001DF25F66EFE0EE021F76E09002A
:100BA800F5CF84F00900F5CF85F00900F5CF86F080
:100BB8000A00F5CF87F012C180F013C181F014C18B
:100BC80082F015C183F075EC23F080C08DF081C0F0
:100BD8008EF082C08FF083C090F00A0E0001916FF2
:100BE800000E926F000E936F000E946FCAEC24F003
:100BF80000018D51300F01011D6F44D012C180F0EA
:100C080013C181F014C182F015C183F00AC1DFF06D
:100C18000BC1E0F00001D890DF37E0370001D89031
:100C2800DF37E037A70E0001DF25F66EFE0EE02164
:100C3800F76E0900F5CF84F00900F5CF85F00900BB
:100C4800F5CF86F00A00F5CF87F075EC23F00001A8
:100C580080510F0B0101056F01010551010D4C0E6B
:100C6800F324F66EFF0EF420F76E0800F5CF1DF1A1
:100C780009D001011B51800B000AD8B47DD7800A26
:100C8800D8B4BCD701011D5165EC29F001010A0750
:100C9800D8A00B0701010A29ECE101010B29D8A40E
:100CA800E8D7D5C0F6FFD6C0F7FF0001D54BD62B45
:100CB8000800F5CF1DF101011D51D8B4120011EF44
:100CC80000F0420E526E000E536E9BEF0BF0250E95
:100CD8006718D8B405D067509EEC29F09BEF0BF04D
:100CE800000E646E000E636E000E666E000E656E7A
:100CF80003D06584404A412A40C0F6FF41C0F7FF4F
:100D08000800F550300AD8B4F4D740C0F6FF41C007
:100D1800F7FF0800F550C0EC29F0D8A07BD0000EF2
:100D2800646E000E636E63C00FF064C010F0000EB6
:100D3800126E0A0E116E79EC29F00FC063F010C024
:100D480064F0D00E446EFF0E456E40C0F6FF41C001
:100D5800F7FF0800F550466E476A4450462645504E
:100D680047224650632647506422404A412A40C0E1
:100D7800F6FF41C0F7FF0800F550C0EC29F0D8A0F5
:100D880049D0D1D7658846D0668464D0658E62D054
:100D98006350505C64505158D8B005D05050635ED1
:100DA8005150645A08D0000E646E000E636E03D072
:100DB800200E9EEC29F06306D8A064066328F8E1AB
:100DC8006428D8B40AD0F4D74EC0D9FF4FC0DAFF90
:100DD800DF509EEC29F04E4A4F2A5006D8A0510603
:100DE8005028F2E15128D8B49BEF0BF0EDD752C050
:100DF800D9FF53C0DAFFDF50676E020E5226000E8D
:100E08005322670E4E6E000E4F6E000E516E010E8D
:100E1800506EBED740C0F6FF41C0F7FF404A412A96
:100E28000800F5CF67F06750000AD8B41200630ACB
:100E3800D8B4DDD7070AD8B40DD0020AD8B4A4D7DD
:100E48000F0AD8B407D0050AD8B49CD7140AD8B466
:100E58009DD7D7D7070E6614D8B4ECD2000E556EBE
:100E6800060E546E52C0D9FF53C0DAFFDECF60F0D1
:100E7800DECF61F0DDCF62F0030E5226000E532262
:100E880062AE10D060C001F061C002F062C003F031
:100E98008CEC29F001C060F002C061F003C062F080
:100EA800030E6512000E5B6E000E5A6E60506110E4
:100EB8006210D8B483D0820E446EFF0E456E60C0B7
:100EC80046F061C047F062C048F063C049F0100EB8
:100ED80005D0D8904932483247324632E82EF9D701
:100EE800465044245A6E000E45205B6E5A06D8A020
:100EF8005B065AC00FF05BC010F0000E126E030EB6
:100F0800116E79EC29F00FC05AF010C05BF05AC08E
:100F180007F05BC008F0000E0A6E0A0E096EA6EC18
:100F280025F007C05AF008C05BF05BAE03D05A0644
:100F3800D8A05B065A50000800EC0EF024C056F00A
:100F480025C057F026C058F056C015F057C016F007
:100F580058C017F060C018F061C019F062C01AF0EC
:100F680077EC20F015C056F016C057F017C058F0AF
:100F780056C001F057C002F058C003F0000E046ECE
:100F8800800E056E3F0E066E17EC25F0D8B004D023
:100F98005A06D8A05B0612D056C001F057C002F01E
:100FA80058C003F0000E046E200E056E410E066E4A
:100FB80017EC25F0D8A002D05A4A5B2A55BE06D0B5
:100FC80055501BE10D0E545CD8B017D060C02EF000
:100FD80061C02FF062C030F05450C7EC15F024C047
:100FE80031F025C032F026C033F0EAEC16F02EC0FE
:100FF80060F02FC061F030C062F05BBE06D05B507D
:101008001EE10A0E5A5CD8B01AD060506110621006
:10101800D8B451D060C02BF061C02CF062C02DF064
:10102800F1EC20F02B502C102D102E10D8B45BBEF4
:1010380042D05B5004E1020E5A5CD8A03CD056C0A6
:1010480001F057C002F058C003F0700E046E890E0C
:10105800056E400E066E17EC25F0D8B002D0F70EDC
:1010680001D0F80E5A26FF0E5B225A5000EC0EF003
:1010780024C056F025C057F026C058F060C001F0D3
:1010880061C002F062C003F056C004F057C005F01A
:1010980058C006F09AEC1CF001C05CF002C05DF08C
:1010A80003C05EF004C05FF0000E606E000E616E5B
:1010B800000E626E32D060C02BF061C02CF062C0AE
:1010C8002DF0F1EC20F02BC05CF02CC05DF02DC0B1
:1010D8005EF02EC05FF060C03AF061C03BF062C0C5
:1010E8003CF05CC009F05DC00AF05EC00BF05FC068
:1010F8000CF041EC27F009C03DF00AC03EF00BC0EF
:101108003FF095EC28F03AC060F03BC061F03CC07D
:1011180062F0000E5B6E000E5A6E010E676E0A0ECC
:101128006718D8B418D06750040D310EF324F66E42
:10113800FE0EF420F76E0900F5505C5C0900F550CE
:101148005D580900F5505E580900F5505F58D8A061
:1011580002D0672AE4D767C044F0456A44BE450612
:1011680054504426555045225A5044265B50452237
:101178004450635E4550645A54505510D8B403D057
:101188006306D8A06406030E6514446E000E661448
:10119800456E44504510D8B403D06306D8A0640601
:1011A80065A422D0030E6514446E000E6614456EC5
:1011B80044504510D8B40AD02D0E9EEC29F006D024
:1011C800300E9EEC29F06306D8A0640664BE65D094
:1011D8006450F6E16304D8A060D0F2D7200E9EECEC
:1011E80029F06306D8A0640664BE05D06450F6E111
:1011F8006304D8B0F3D7030E6514446E000E66146A
:10120800456E44504510D8B448D02D0E9EEC29F0B8
:1012180044D05CC001F05DC002F05EC003F05FC066
:1012280004F06750040D310EF324F66EFE0EF42020
:10123800F76E0900F5CF05F00900F5CF06F00900B3
:10124800F5CF07F00A00F5CF08F0E8EC25F001C06B
:1012580056F002C057F003C058F004C059F056C009
:101268000EF057C00FF058C010F059C011F00A0E18
:10127800126E000E136E000E146E000E156EDBEC6F
:1012880026F00EC056F00FC057F010C058F011C02D
:1012980059F05650300F9EEC29F067066728D8B4ED
:1012A80007D0B7D7300E9EEC29F05A06D8A05B06B7
:1012B8005BBE05D05B50F6E15A04D8B0F3D755BEF3
:1012C80009D0555004E1090E545CD8A003D0080E8B
:1012D800676E02D054C067F06750545E000E67BE58
:1012E800FF0E555A6750D8B403D02E0E9EEC29F045
:1012F800675000EC0EF024C04AF025C04BF026C021
:101308004CF060C018F061C019F062C01AF04AC011
:1013180015F04BC016F04CC017F077EC20F015C054
:101328002BF016C02CF017C02DF0F1EC20F02BC0DC
:101338005CF02CC05DF02DC05EF02EC05FF06AD06E
:101348005CC001F05DC002F05EC003F05FC004F055
:101358006750040D310EF324F66EFE0EF420F76E7E
:101368000900F5CF05F00900F5CF06F00900F5CF23
:1013780007F00A00F5CF08F0E8EC25F001C056F0B8
:1013880002C057F003C058F004C059F056C00EF020
:1013980057C00FF058C010F059C011F00A0E126E65
:1013A800000E136E000E146E000E156EDBEC26F0A8
:1013B8000EC056F00FC057F010C058F011C059F0C9
:1013C8005650300F9EEC29F05CC00EF05DC00FF057
:1013D8005EC010F05FC011F06750040D310EF324A9
:1013E800F66EFE0EF420F76E0900F5CF12F0090034
:1013F800F5CF13F00900F5CF14F00A00F5CF15F07A
:10140800DBEC26F00EC05CF00FC05DF010C05EF0A3
:1014180011C05FF067066728D8B407D091D7300E9F
:101428009EEC29F05406D8A0550654505510D8B44F
:101438007ED1F5D765BE2ED065A80ED052C0D9FF93
:1014480053C0DAFFDECF5CF0DECF5DF0DECF5EF0BA
:10145800DECF5FF0040E0ED052C0D9FF53C0DAFFC2
:10146800DECF5CF0DDCF5DF0000E5DBEFF0E5E6E80
:101478005F6E020E5226000E53225FAE6AD0030E34
:1014880065125F1E5E1E5D1E5C6C000E5D225E2294
:101498005F225FD065A80ED052C0D9FF53C0DAFFD3
:1014A800DECF5CF0DECF5DF0DECF5EF0DECF5FF04A
:1014B800040E0FD052C0D9FF53C0DAFFDECF44F07C
:1014C800DDCF45F044C05CF045C05DF05E6A5F6A00
:1014D800020E5226000E53223CD0010E676E0A0EF1
:1014E8006718D8B43ED06750040D310EF324F66E59
:1014F800FE0EF420F76E0900F5505C5C0900F5500B
:101508005D580900F5505E580900F5505F58D8A09D
:1015180028D0672AE4D7010E676E080E6718D8B47A
:1015280020D06750040DA70EF324F66EFE0EF420AB
:10153800F76E0900F5505C5C0900F5505D5809002C
:10154800F5505E580900F5505F58D8A00AD0672AB0
:10155800E4D76550800B000AD8B4BFD7800AD8B446
:10156800DAD763506410D8B40DD0030E6514446EF6
:10157800000E6614456E44504510D8B403D0630677
:10158800D8A06406800E67BE7F0E446E6350675C09
:101598006450800A4458D8B007D06750635E000E84
:1015A80067BEFF0E645A04D0000E646E000E636EB0
:1015B80065A418D0030E6514446E000E6614456EBB
:1015C80044504510D8B403D02D0E9EEC29F063503A
:1015D8006410D8B422D0300E9EEC29F06306D8A04F
:1015E8006406F5D763506410D8B40AD0200E9EEC78
:1015F80029F06306D8A0640663506410D8A4F6D70F
:10160800030E6514446E000E6614456E4450451072
:10161800D8B403D02D0E9EEC29F06750546E556A4D
:1016280054BE55067CD054C044F055C045F0D890FF
:1016380044364536D89044364536310E4424F66E45
:10164800FE0E4520F76E0900F5CF05F00900F5CF2D
:1016580006F00900F5CF07F00A00F5CF08F05CC0E6
:1016680001F05DC002F05EC003F05FC004F0E8EC7A
:1016780025F001C00EF002C00FF003C010F004C046
:1016880011F00A0E126E000E136E000E146E000E8C
:10169800156EDBEC26F00E50300F676E3DD05CC047
:1016A80001F05DC002F05EC003F05FC004F054C0FA
:1016B80044F055C045F0D89044364536D890443665
:1016C8004536A70E4424F66EFE0E4520F76E090037
:1016D800F5CF05F00900F5CF06F00900F5CF07F0C2
:1016E8000A00F5CF08F0E8EC25F001500F0B4D6E1D
:1016F8004D50010D4C0EF324F66EFF0EF420F76EDC
:101708000800F5CF67F008D06550800B000AD8B400
:101718008AD7800AD8B4C3D767509EEC29F05406FC
:10172800D8A055065428F0E15528D8A4EDD740C0D4
:10173800F6FF41C0F7FF404A412A0800F5CF67F09D
:101748006750D8B412006BEF06F00001B66F0001C5
:10175800B6AF2AD10001B66D0001B651800A120F4A
:10176800D8A0ACD0000E0001916F030E906F000E50
:101778000001896F0A0E886F000E0001836F640EE6
:10178800826F0001B6510001806F816B80BF8107B5
:101798002AEC24F080C086F081C087F016EC23F094
:1017A800090E0001862500018E6F000E00018721B9
:1017B80000018F6FF3EC28F0590E00018E25F66EAC
:1017C800FE0E00018F21F76E0900F5CFA4F0090085
:1017D800F5CFA5F00A00F5CFA6F0000E0001896F3D
:1017E800640E886F0001B6510001866F876B86BF53
:1017F800870716EC23F0120E0001862500018E6F74
:10180800000E0001872100018F6F000E0001916F0B
:10181800030E906FF3EC28F0590E00018E25F66E3A
:10182800FE0E00018F21F76E0900F5CFA1F0090027
:10183800F5CFA2F00A00F5CFA3F006EC1AF0A1C08C
:10184800B3F0A2C0B4F0A3C0B5F0B3C0A1F0B4C067
:10185800A2F0B5C0A3F0000E0001916F030E906FC7
:10186800000E0001836F0A0E826F0001B65100015D
:10187800806F816B80BF81072AEC24F080C08EF0D6
:1018880081C08FF0F3EC28F0590E00018E25F66E1A
:10189800FE0E00018F21F76E0900F5CFA4F00900B4
:1018A800F5CFA5F00A00F5CFA6F006EC1AF0A1C016
:1018B800B0F0A2C0B1F0A3C0B2F012000001B6515E
:1018C800800A750FD8A05DD0000E0001896F0A0E3E
:1018D800886F0001B6510001866F876B86BF870746
:1018E80016EC23F0090E0001862500018E6F000E0C
:1018F8000001872100018F6F000E0001916F030E18
:10190800906FF3EC28F0590E00018E25F66EFE0E4E
:1019180000018F21F76E0900F5CFA1F00900F5CF7E
:10192800A2F00A00F5CFA3F0000E0001916F030E9C
:10193800906F000E0001836F0A0E826F0001B6518E
:101948000001806F816B80BF81072AEC24F080C082
:101958008EF081C08FF0F3EC28F0590E00018E252F
:10196800F66EFE0E00018F21F76E0900F5CFA4F088
:101978000900F5CFA5F00A00F5CFA6F006EC1AF09D
:1019880096D70001B651030D590EF324F66EFE0EDC
:10199800F420F76E0900F5CFB0F00900F5CFB1F0EB
:1019A8000A00F5CFB2F012000001B651800A120FFA
:1019B800D8A0ACD0000E0001916F030E906F000EFE
:1019C8000001896F0A0E886F000E0001836F640E94
:1019D800826F0001B6510001806F816B80BF810763
:1019E8002AEC24F080C086F081C087F016EC23F042
:1019F800090E0001862500018E6F000E0001872167
:101A080000018F6FF3EC28F0800E00018E25F66E32
:101A1800FE0E00018F21F76E0900F5CFA4F0090032
:101A2800F5CFA5F00A00F5CFA6F0000E0001896FEA
:101A3800640E886F0001B6510001866F876B86BF00
:101A4800870716EC23F0120E0001862500018E6F21
:101A5800000E0001872100018F6F000E0001916FB9
:101A6800030E906FF3EC28F0800E00018E25F66EC1
:101A7800FE0E00018F21F76E0900F5CFA1F00900D5
:101A8800F5CFA2F00A00F5CFA3F006EC1AF0A1C03A
:101A9800B3F0A2C0B4F0A3C0B5F0B3C0A1F0B4C015
:101AA800A2F0B5C0A3F0000E0001916F030E906F75
:101AB800000E0001836F0A0E826F0001B65100010B
:101AC800806F816B80BF81072AEC24F080C08EF084
:101AD80081C08FF0F3EC28F0800E00018E25F66EA1
:101AE800FE0E00018F21F76E0900F5CFA4F0090062
:101AF800F5CFA5F00A00F5CFA6F006EC1AF0A1C0C4
:101B0800B0F0A2C0B1F0A3C0B2F012000001B6510B
:101B1800800A750FD8A05DD0000E0001896F0A0EEB
:101B2800886F0001B6510001866F876B86BF8707F3
:101B380016EC23F0090E0001862500018E6F000EB9
:101B48000001872100018F6F000E0001916F030EC5
:101B5800906FF3EC28F0800E00018E25F66EFE0ED5
:101B680000018F21F76E0900F5CFA1F00900F5CF2C
:101B7800A2F00A00F5CFA3F0000E0001916F030E4A
:101B8800906F000E0001836F0A0E826F0001B6513C
:101B98000001806F816B80BF81072AEC24F080C030
:101BA8008EF081C08FF0F3EC28F0800E00018E25B6
:101BB800F66EFE0E00018F21F76E0900F5CFA4F036
:101BC8000900F5CFA5F00A00F5CFA6F006EC1AF04B
:101BD80096D70001B651030D800EF324F66EFE0E63
:101BE800F420F76E0900F5CFB0F00900F5CFB1F099
:101BF8000A00F5CFB2F012002A6E2AAEFBD02A6C8A
:101C08002A50800A120FD8A091D0000E126E030E2F
:101C1800116E000E0A6E0A0E096E000E046E640E36
:101C2800036E2A50016E026A01BE0206A3EC26F07A
:101C380001C007F002C008F0A6EC25F0090E072441
:101C48000F6E000E0820106E79EC29F0590E0F2443
:101C5800F66EFE0E1020F76E0900F5CF18F0090099
:101C6800F5CF19F00A00F5CF1AF0000E0A6E640ECF
:101C7800096E2A50076E086A07BE0806A6EC25F00A
:101C8800120E07240F6E000E0820106E000E126E42
:101C9800030E116E79EC29F0590E0F24F66EFE0E24
:101CA8001020F76E0900F5CF15F00900F5CF16F0F2
:101CB8000A00F5CF17F077EC20F015C027F016C012
:101CC80028F017C029F027C015F028C016F029C041
:101CD80017F0000E126E030E116E000E046E0A0E3F
:101CE800036E2A50016E026A01BE0206A3EC26F0BA
:101CF80001C00FF002C010F079EC29F0590E0F2442
:101D0800F66EFE0E1020F76E0900F5CF18F00900E8
:101D1800F5CF19F00A00F5CF1AF077EC20F015C0CE
:101D280024F016C025F017C026F012002A50800AA9
:101D3800750FD8A04DD0000E0A6E0A0E096E2A50F3
:101D4800076E086A07BE0806A6EC25F0090E0724E8
:101D58000F6E000E0820106E000E126E030E116E2C
:101D680079EC29F0590E0F24F66EFE0E1020F76E4E
:101D78000900F5CF15F00900F5CF16F00A00F5CFE8
:101D880017F0000E126E030E116E000E046E0A0E8E
:101D9800036E2A50016E026A01BE0206A3EC26F009
:101DA80001C00FF002C010F079EC29F0590E0F2491
:101DB800F66EFE0E1020F76E0900F5CF18F0090038
:101DC800F5CF19F00A00F5CF1AF077EC20F0A7D775
:101DD8002A50030D590EF324F66EFE0EF420F76E0A
:101DE8000900F5CF24F00900F5CF25F00A00F5CF5A
:101DF80026F012002A50800A120FD8A091D0000EA7
:101E0800126E030E116E000E0A6E0A0E096E000E97
:101E1800046E640E036E2A50016E026A01BE020649
:101E2800A3EC26F001C007F002C008F0A6EC25F0EC
:101E3800090E07240F6E000E0820106E79EC29F0A9
:101E4800800E0F24F66EFE0E1020F76E0900F5CFF7
:101E580018F00900F5CF19F00A00F5CF1AF0000EB6
:101E68000A6E640E096E2A50076E086A07BE0806D5
:101E7800A6EC25F0120E07240F6E000E0820106E37
:101E8800000E126E030E116E79EC29F0800E0F24ED
:101E9800F66EFE0E1020F76E0900F5CF15F009005A
:101EA800F5CF16F00A00F5CF17F077EC20F015C043
:101EB80027F016C028F017C029F027C015F028C051
:101EC80016F029C017F0000E126E030E116E000EE8
:101ED800046E0A0E036E2A50016E026A01BE0206E3
:101EE800A3EC26F001C00FF002C010F079EC29F045
:101EF800800E0F24F66EFE0E1020F76E0900F5CF47
:101F080018F00900F5CF19F00A00F5CF1AF077ECB0
:101F180020F015C024F016C025F017C026F01200D6
:101F28002A50800A750FD8A04DD0000E0A6E0A0EEE
:101F3800096E2A50076E086A07BE0806A6EC25F047
:101F4800090E07240F6E000E0820106E000E126E88
:101F5800030E116E79EC29F0800E0F24F66EFE0E3A
:101F68001020F76E0900F5CF15F00900F5CF16F02F
:101F78000A00F5CF17F0000E126E030E116E000E58
:101F8800046E0A0E036E2A50016E026A01BE020632
:101F9800A3EC26F001C00FF002C010F079EC29F094
:101FA800800E0F24F66EFE0E1020F76E0900F5CF96
:101FB80018F00900F5CF19F00A00F5CF1AF077EC00
:101FC80020F0A7D72A50030D800EF324F66EFE0EDC
:101FD800F420F76E0900F5CF24F00900F5CF25F0BD
:101FE8000A00F5CF26F012006A0E0001EC6F010E10
:101FF8000001ED6F000E0001EF6F5A0EEE6FE4EC7A
:1020080021F0720E0001806F010E0001816F000E39
:102018000001836F000E826FF5EC1FF00D0E0001BA
:10202800F76FAF0E0001F66FB60EE82EFED7F62F4B
:10203800FCD7F72FFAD700F07E0E0001EC6F010EE7
:102048000001ED6F56C1EEF057C1EFF0E4EC21F05E
:10205800070E0001F76F580E0001F66F590EE82EB3
:10206800FED7F62FFCD7F72FFAD700D0850E01013F
:10207800216F930E0101226F400E0101236FC00EE4
:102088000101246F7F0E0101256F440E0101266FA7
:10209800760E0001806F010E0001816F33EC1DF098
:1020A800D890000180350101296F000181350101B7
:1020B8002A6F7A0E0001806F010E0001816F33ECE8
:1020C8001DF0000180510101291300018151010116
:1020D8002A13660E0001806F010E0001816F000E49
:1020E8000001836F010E826FF5EC1FF024C195F09B
:1020F80025C196F026C197F098C180F099C181F06A
:1021080074EC28F080C088F081C089F082C08AF021
:1021180083C08BF07BEC24F088C092F089C093F0E8
:102128008AC094F0B5EC1AF092C0A1F093C0A2F066
:1021380094C0A3F021C1A4F022C1A5F023C1A6F048
:1021480006EC1AF0A1C02BF1A2C02CF1A3C02DF10E
:10215800D3EC29F0D40E0001D56FFF0E0001D66F25
:1021680029C1D7F02AC1D8F02BC1D9F02CC1DAF097
:102178002DC1DBF009EC00F026EC29F0A3D0660EA7
:102188000001806F010E0001816F000E0001836F56
:10219800000E826FF5EC1FF0040E0001F66F3D0E85
:1021A800E82EFED7F62FFCD700D024C195F025C124
:1021B80096F026C197F098C180F099C181F074EC2F
:1021C80028F080C088F081C089F082C08AF083C07E
:1021D8008BF07BEC24F088C092F089C093F08AC021
:1021E80094F0B5EC1AF092C0A1F093C0A2F094C09C
:1021F800A3F021C1A4F022C1A5F023C1A6F006ECEA
:102208001AF0A1C01EF1A2C01FF1A3C020F11EC187
:1022180080F01FC181F020C182F0CD0E0001836FD4
:10222800CC0E0001846F3D0E0001856F4EEC22F04C
:102238000001D8B016D04CC180F04DC181F04EC11C
:1022480082F02BC183F02CC184F02DC185F04EECB7
:1022580022F00001D8B031D060C127F161C128F166
:1022680045D049C180F04AC181F04BC182F02BC1F1
:1022780083F02CC184F02DC185F04EEC22F00001D2
:10228800D8B01BD05EC127F15FC128F12FD04FC154
:1022980080F050C181F051C182F02BC183F02CC174
:1022A80084F02DC185F04EEC22F00001D8B005D0A5
:1022B80062C127F163C128F119D064C127F165C152
:1022C80028F114D029C1F6F02AC1F7F00001F7511E
:1022D800000AD8A40BD00001F651000AD8B44FD791
:1022E800010AD8B4D4D7030AD8B4BBD7820E0001E8
:1022F800EC6F010E0001ED6F27C1EEF028C1EFF081
:10230800E4EC21F0070E0001F76F580E0001F66F9C
:10231800590EE82EFED7F62FFCD7F72FFAD700D0A4
:102328007E0E0001EC6F010E0001ED6F5AC1EEF058
:102338005BC1EFF0E4EC21F00D0E0001F76FAF0E7A
:102348000001F66FB60EE82EFED7F62FFCD7F72F52
:10235800FAD700F07E0E0001EC6F010E0001ED6F60
:1023680058C1EEF059C1EFF0E4EC21F06A0E00011B
:10237800EC6F010E0001ED6F000E0001EF6F000E13
:10238800EE6FE4EC21F0720E0001806F010E000187
:10239800816F000E0001836F010E826FF5EC1FF054
:1023A8001200B5EC28F00AEC28F0000E01013B6F92
:1023B800000E3C6F000E3D6F000E3E6F000E0101D7
:1023C8009A6F000E9B6F000E9C6F000E9D6F000EA3
:1023D8000001816F010E806F97EC27F0000E00015D
:1023E800816F010E806F000E0001826F000E836FF7
:1023F800000E846F000E856F6FEC27F0720E0001DF
:10240800806F010E0001816F000E0001836F010EC5
:10241800826FF5EC1FF06A0E0001F66F010E0001E5
:10242800F76F000E0001F96F000EF86F5FEC25F0F2
:102438007E0E0001F66F010E0001F76F58C1F8F02B
:1024480059C1F9F05FEC25F0820E0001F66F010E1C
:102458000001F76F60C1F8F061C1F9F05FEC25F099
:10246800D3EC29F0F60E0001D56FFF0E0001D66FF0
:1024780009EC00F09AC143F19BC144F1000E01013F
:10248800466F000E456F000E0101406F0A0E3F6F48
:10249800000E0101426F0A0E416FDCD0D7EC29F023
:1024A800C30E0001D56FFF0E0001D66F9AC180F0F0
:1024B8009BC181F09CC182F09DC183F0580E000140
:1024C800846F020E856F000E866F000E876F5FECBB
:1024D8001EF080C0D7F081C0D8F082C0D9F083C088
:1024E800DAF00A0E0001846F000E856F000E866F09
:1024F800000E876F9AC180F09BC181F09CC182F069
:102508009DC183F05FEC1EF080C08EF081C08FF01B
:1025180082C090F083C091F03C0E0001926F000ED3
:10252800936F000E946F000E956F6BEC21F08EC0C8
:10253800DBF08FC0DCF090C0DDF091C0DEF009EC7C
:1025480000F0FA0E01012E6FFF0EE82EFED72E2F97
:10255800FCD745C12EF146C12FF1000E01012FBF56
:10256800FF0E306F316F43C132F144C133F1000EB9
:10257800010133BFFF0E346F356F0101321F331F66
:10258800341F351F322B000E33233423352301012A
:102598009A51010132250101366F01019B51010158
:1025A80033210101376F01019C51010134210101DF
:1025B800386F01019D51010135210101396F010178
:1025C8002E510101365D01012F51010137590101D9
:1025D80030510101385901013951800A01013A6F1E
:1025E80001013151800A01013A59D8A033D06E0E49
:1025F8000001806F010E0001816F33EC1DF080C077
:1026080047F181C048F16E0E0001806F010E000194
:10261800816F0101475101014811D8A402D0010E70
:1026280001D0000E0001826F836BF5EC1FF00101F1
:10263800475101014811D8B405D041C145F142C103
:1026480046F104D03FC145F140C146F19AC143F17A
:102658009BC144F101019E5101019F11D8B41ED7BD
:10266800F8EC0FF0000E01019F6F000E9E6FF8D678
:10267800FFD70001B96F6D0E0001B965BAD0000E21
:102688000001916F030E906F000E0001896F0A0E12
:10269800886F000E0001836F640E826FB9C080F0EE
:1026A8000001816B2AEC24F080C086F081C087F09D
:1026B80016EC23F0090E0001862500018E6F000E2E
:1026C8000001872100018F6FF3EC28F0590E0001FB
:1026D8008E25F66EFE0E00018F21F76E0900F5CFEC
:1026E800A4F00900F5CFA5F00A00F5CFA6F0000E7A
:1026F8000001896F640E886FB9C086F00001876B8E
:1027080016EC23F0120E0001862500018E6F000ED4
:102718000001872100018F6F000E0001916F030EE9
:10272800906FF3EC28F0590E00018E25F66EFE0E20
:1027380000018F21F76E0900F5CFA1F00900F5CF50
:10274800A2F00A00F5CFA3F006EC1AF0A1C0B6F08B
:10275800A2C0B7F0A3C0B8F0000E0001916F030E3D
:10276800906F000E0001836F0A0E826FB9C080F06F
:102778000001816B2AEC24F080C08EF081C08FF0BC
:10278800F3EC28F0590E00018E25F66EFE0E0001BE
:102798008F21F76E0900F5CFA4F00900F5CFA5F059
:1027A8000A00F5CFA6F0B6C0A1F0B7C0A2F0B8C035
:1027B800A3F006EC1AF0A1C0B3F0A2C0B4F0A3C015
:1027C800B5F0B3C0A1F0B4C0A2F0B5C0A3F0000E3C
:1027D8000001A46F000E0001A56F3F0E0001A66F57
:1027E80006EC1AF0A1C0B0F0A2C0B1F0A3C0B2F0DC
:1027F80012000A0E0001B9656ED0000E0001916F3B
:10280800030E906F000E0001836F0A0E826FB9C02D
:1028180080F00001816B2AEC24F080C08EF081C02A
:102828008FF0F3EC28F0590E00018E25F66EFE0E9F
:1028380000018F21F76E0900F5CFA4F00900F5CF4C
:10284800A5F00A00F5CFA6F0000E0001896F0A0E68
:10285800886FB9C086F00001876B16EC23F0090E6B
:102868000001862500018E6F000E000187210001FE
:102878008F6F000E0001916F030E906FF3EC28F03C
:10288800590E00018E25F66EFE0E00018F21F76E9F
:102898000900F5CFA1F00900F5CFA2F00A00F5CFA5
:1028A800A3F006EC1AF0A1C0B6F0A2C0B7F0A3C01E
:1028B800B8F0B6C0A1F0B7C0A2F0B8C0A3F0000E3F
:1028C8000001A46F000E0001A56F3F0E0001A66F66
:1028D80006EC1AF087D70001B951030D590EF324FD
:1028E800F66EFE0EF420F76E0900F5CFA1F0090090
:1028F800F5CFA2F00A00F5CFA3F0000E0001A46FF7
:10290800000E0001A56F3F0E0001A66F06EC1AF03D
:10291800A1C0B0F0A2C0B1F0A3C0B2F01200BCC018
:10292800C0F00001C16BC26B0001BB350001C037AC
:1029380001E3C1810001C0510001C56FBFC0C0F0F3
:102948000001C16BC26B0001BE350001C03701E355
:10295800C1810001C0510001C46F0001C5510001CF
:10296800D8B411D00001C4510001C55DD8B012D04F
:102978000001C55100080001C4250001C06F180EF0
:102988000001C06507D0BDC0BAF0BEC0BBF0BFC073
:10299800BCF012000001C4510001D8B411D00001EC
:1029A800C5510001C45DD8B012D00001C45100085F
:1029B8000001C5250001C06F180E0001C06507D0D1
:1029C800BAC0BAF0BBC0BBF0BCC0BCF01200060E67
:1029D8000001C36F0001BCAF02D00001C38F00012A
:1029E800BFAF02D00001C38D0001BB8FFF0E0001F5
:1029F800BA17FF0E0001BB17000E0001BC1700013B
:102A0800BE8FFF0E0001BD17FF0E0001BE17000E9E
:102A18000001BF170001C4510001C55DD8B025D021
:102A28000001D890BD37BE37BF370001C407000189
:102A3800C5510001C419D8B411D00001C307C3C0DF
:102A4800C0F0070E0001C017D8B408D0E9D70001BC
:102A5800D890BC33BB33BA330001C52B0001C45135
:102A68000001C519D8B42BD0F2D70001C551000117
:102A7800C45DD8B024D00001D890BA37BB37BC3772
:102A88000001C5070001C5510001C419D8B411D00F
:102A98000001C307C3C0C0F0070E0001C017D8B4B7
:102AA80008D0E9D70001D890BF33BE33BD33000149
:102AB800C42B0001C4510001C519D8A4F3D70001E3
:102AC800C3AF12D0FF0E0001BA1BFF0E0001BB1BE3
:102AD800FF0E0001BC1B010E0001BA27000E000109
:102AE800BB23000E0001BC230001C3AD12D0FF0EB2
:102AF8000001BD1BFF0E0001BE1BFF0E0001BF1B26
:102B0800010E0001BD27000E0001BE23000E0001CA
:102B1800BF23000E0001C36F0001BA510001BD2799
:102B28000001BB510001BE230001BC510001BF23BD
:102B38000001BFAF15D0FF0E0001BD1BFF0E000145
:102B4800BE1BFF0E0001BF1B010E0001BD27000EBA
:102B58000001BE23000E0001BF23010E0001C36F58
:102B6800BDC080F0BEC081F0BFC082F0C5C083F098
:102B7800C3C084F0ECEC1EF080C0BAF081C0BBF09A
:102B880082C0BCF012002D6E6D0E2D649FD0000E19
:102B9800126E030E116E000E0A6E0A0E096E000EFA
:102BA800046E640E036E2DC001F0026AA3EC26F0D9
:102BB80001C007F002C008F0A6EC25F0090E0724B2
:102BC8000F6E000E0820106E79EC29F0590E0F24B4
:102BD800F66EFE0E1020F76E0900F5CF18F009000A
:102BE800F5CF19F00A00F5CF1AF0000E0A6E640E40
:102BF800096E2DC007F0086AA6EC25F0120E07240E
:102C08000F6E000E0820106E000E126E030E116E6D
:102C180079EC29F0590E0F24F66EFE0E1020F76E8F
:102C28000900F5CF15F00900F5CF16F00A00F5CF29
:102C380017F077EC20F015C02AF016C02BF017C05B
:102C48002CF0000E126E030E116E000E046E0A0EAA
:102C5800036E2DC001F0026AA3EC26F001C00FF04C
:102C680002C010F079EC29F0590E0F24F66EFE0E12
:102C78001020F76E0900F5CF18F00900F5CF19F00C
:102C88000A00F5CF1AF02AC015F02BC016F02CC098
:102C980017F077EC20F015C027F016C028F017C001
:102CA80029F027C015F028C016F029C017F0000E2B
:102CB800186E000E196E3F0E1A6E77EC20F015C0D4
:102CC80024F016C025F017C026F012000A0E2D6455
:102CD8005DD0000E126E030E116E000E046E0A0E09
:102CE800036E2DC001F0026AA3EC26F001C00FF0BC
:102CF80002C010F079EC29F0590E0F24F66EFE0E82
:102D08001020F76E0900F5CF18F00900F5CF19F07B
:102D18000A00F5CF1AF0000E0A6E0A0E096E2DC0D1
:102D280007F0086AA6EC25F0090E07240F6E000EBE
:102D38000820106E000E126E030E116E79EC29F049
:102D4800590E0F24F66EFE0E1020F76E0900F5CF0F
:102D580015F00900F5CF16F00A00F5CF17F077EC5B
:102D680020F015C02AF016C02BF017C02CF02AC08E
:102D780015F02BC016F02CC017F0000E186E000EC0
:102D8800196E3F0E1A6E77EC20F099D72D50030D6F
:102D9800590EF324F66EFE0EF420F76E0900F5CFF7
:102DA80015F00900F5CF16F00A00F5CF17F0000E60
:102DB800186E000E196E3F0E1A6E77EC20F015C0D3
:102DC80024F016C025F017C026F0120030C034F0E9
:102DD800356A366A2F34343601E335803450396E1B
:102DE80033C034F0356A366A3234343601E335801C
:102DF8003450386E3950D8B40BD03850395CD8B00C
:102E08000ED0395000083824346E180E346407D0B8
:102E180031C02EF032C02FF033C030F012003850DD
:102E2800D8B40BD03950385CD8B00ED03850000820
:102E38003924346E180E346407D02EC02EF02FC0FB
:102E48002FF030C030F01200060E376E30BE378ECD
:102E580033BE378C2F8EFF0E2E16FF0E2F16000E48
:102E68003016328EFF0E3116FF0E3216000E331654
:102E78003850395CD8B01BD0D8903136323633361A
:102E8800380639503818D8B40DD0370637C034F062
:102E9800070E3416D8B406D0EFD7D89030322F3278
:102EA8002E32392A38503918D8B41FD0F6D73950AD
:102EB800385CD8B01AD0D8902E362F36303639062E
:102EC80039503818D8B40DD0370637C034F0070E4B
:102ED8003416D8B406D0EFD7D890333232323132E4
:102EE800382A38503918D8A4F7D737AE0CD0FF0E87
:102EF8002E1AFF0E2F1AFF0E301A010E2E26000E64
:102F08002F22000E302237AC0CD0FF0E311AFF0EE4
:102F1800321AFF0E331A010E3126000E3222000E2D
:102F28003322000E376E2E5031262F503222305069
:102F3800332233AE0ED0FF0E311AFF0E321AFF0EB7
:102F4800331A010E3126000E3222000E3322010EF2
:102F5800376E31C001F032C002F033C003F039C01F
:102F680004F037C005F0D3EC23F001C02EF002C006
:102F78002FF003C030F0120082C086F00001876B8A
:102F8800886B000181350001863701E387810001E4
:102F9800865100018E6F00018E51D8A40AD0000E10
:102FA8000001806F000E816F000E826F000E836F2C
:102FB800120085C086F00001876B886B000184359C
:102FC8000001863701E387810001865100018D6F7A
:102FD80000018D51D8A40AD0000E0001806F000EA8
:102FE800816F000E826F000E836F12000001818FC7
:102FF800FF0E00018017FF0E00018117000E00016F
:1030080082170001848FFF0E00018317FF0E000155
:103018008417000E00018517000E0001896F000E4D
:103028008A6F000E8B6F000E8C6F7F0E00018E5F13
:1030380000018D51980F00018E5F180E00018D6FF1
:103048000001D89089378A378B378C370001835134
:103058000001805D00018451000181590001855102
:1030680000018259D8A00ED0000183510001805F71
:10307800000184510001815B000185510001825BE0
:10308800000189810001D89080378137823700019B
:103098008D2FD6D700018EAF1AD000018E51800A2D
:1030A800970FD8B00AD0000E0001806F000E816F14
:1030B800000E826F000E836F12000001D8908C33CF
:1030C8008B338A33893300018E3FF7D71BD0170E15
:1030D80000018E6512D0000E0001806F000E816F16
:1030E800000E826F000E836F12000001D89089379E
:1030F8008A378B378C3700018E0700018E5100010B
:10310800D8A4F3D789C080F08AC081F08BC082F040
:103118008CC083F0120000018235833500018B6F6B
:1031280000018B51D8A40AD0000E0001806F000E58
:10313800816F000E826F000E836F120000018535CB
:10314800863500018A6F00018A51D8A40AD0000E82
:103158000001806F000E816F000E826F000E836F7A
:1031680012000001828FFF0E00018017FF0E8117E9
:10317800FF0E8217000E83170001858FFF0E0001D6
:103188008317FF0E8417FF0E8517000E8617000E93
:103198000001866F000E876F000E886F000E896F22
:1031A8007F0E00018B5F00018A51A00F00018B5F29
:1031B800200E00018A6F0001D8908637873788373C
:1031C8008937000183510001805D000184510001AD
:1031D8008159000185510001825900018651000181
:1031E8008359D8A012D0000183510001805F0001EB
:1031F80084510001815B000185510001825B00015F
:1032080086510001835B000186810001D8908037D8
:1032180081378237833700018A2FCDD700018BAFE2
:103228001AD000018B51800A9F0FD8B00AD0000E27
:103238000001806F000E816F000E826F000E836F99
:1032480012000001D8908933883387338633000110
:103258008B3FF7D71BD01F0E00018B6512D0000ED5
:103268000001806F000E816F000E826F000E836F69
:1032780012000001D89086378737883789370001D0
:103288008B0700018B510001D8A4F3D786C080F0CA
:1032980087C081F088C082F089C083F01200A80E30
:1032A8000001DD6FFD0EDE6FFF0EDF6FFF0EE06FBA
:1032B800E20E0001E86F040EE96F000EEA6F000EDF
:1032C800EB6F6A0E0001E16F180EE26F000EE36FFC
:1032D800000EE46FE8C0D9F0E9C0DAF0EAC0DBF02C
:1032E800EBC0DCF00001D91FDA1FDB1FDC1FD92B74
:1032F800000EDA23DB23DC230001E1510001D9258C
:103308000001886F0001E2510001DA210001896F94
:103318000001E3510001DB2100018A6F0001E45143
:103328000001DC2100018B6F7BEC24F088C0A4F045
:1033380089C0A5F08AC0A6F0000E0001956F340E72
:103348000001966F430E0001976FD5C088F0D6C074
:1033580089F052EC28F088C092F089C093F08AC0B6
:1033680094F0B5EC1AF092C0A1F093C0A2F094C00A
:10337800A3F006EC1AF0A1C0BDF0A2C0BEF0A3C035
:10338800BFF0E8C088F0E9C089F0EAC08AF0EBC075
:103398008BF07BEC24F088C0BAF089C0BBF08AC0FF
:1033A800BCF093EC14F0BAC0E5F0BBC0E6F0BCC0CA
:1033B800E7F0DDC088F0DEC089F0DFC08AF0E0C049
:1033C8008BF07BEC24F088C0BDF089C0BEF08AC0C9
:1033D800BFF0E5C0BAF0E6C0BBF0E7C0BCF093ECC4
:1033E80014F0BAC0C6F0BBC0C7F0BCC0C8F05BECF4
:1033F8001BF0C6C0D5F0C7C0D6F0C8C0D7F0C9C04A
:10340800D8F01200A3C0A7F00001A86BA96B0001B7
:10341800A2350001A73701E3A8810001A7510001E7
:10342800AA6F0001AA51D8A40AD0000E0001A16F0A
:10343800000E0001A26F000E0001A36F1200A6C0CB
:10344800A7F00001A86BA96B0001A5350001A737FB
:1034580001E3A8810001A7510001AF6F0001AF513E
:10346800D8A40AD0000E0001A16F000E0001A26FBF
:10347800000E0001A36F12000001AF517B0F000185
:10348800AA27A3C0AFF00001A6510001AF1B800E10
:103498000001AF170001A28F0001A58FFF0E0001E8
:1034A800A417FF0E0001A517000E0001A617000EB5
:1034B8000001AB6F000E0001AC6F000E0001AD6F94
:1034C800070E0001AE6F0001A1A10CD00001A451AC
:1034D8000001AB270001A5510001AC230001A65152
:1034E8000001AD230001D890A333A233A13300011A
:1034F800D890A437A537A6370001AE2FE4D7090E18
:103508000001AE6F0001A1A10CD00001A45100017F
:10351800AB270001A5510001AC230001A651000111
:10352800AD230001D890A333A233A1330001D89072
:10353800AD33AC33AB330001AE2FE4D7ABC080F072
:10354800ACC081F0ADC082F0AAC083F0AFC084F0F7
:10355800ECEC1EF080C0A1F081C0A2F082C0A3F004
:10356800120094C098F00001996B9A6B0001933592
:103578000001983701E399810001985100019F6F7C
:1035880000019F51D8A40AD0000E0001926F000ECE
:103598000001936F000E0001946F120097C098F01D
:1035A8000001996B9A6B000196350001983701E389
:1035B8009981000198510001A06F0001A051D8A481
:1035C8000AD0000E0001926F000E0001936F000EEA
:1035D8000001946F1200000E00019C6F000E0001A4
:1035E8009D6F000E00019E6F0001A051890F000120
:1035F8009F5F94C0A0F0000197510001A01B800EAE
:103608000001A0170001938FFF0E00019217FF0E13
:1036180000019317000E000194170001968FFF0E0A
:1036280000019517FF0E00019617000E000197176D
:10363800180E00019B6F0001D8909C379D379E376C
:10364800000195510001925D0001965100019359C6
:103658000001975100019459D8A00ED0000195514E
:103668000001925F000196510001935B00019751A0
:103678000001945B00019C810001D8909237933738
:10368800943700019B2FD7D79CC080F09DC081F054
:103698009EC082F09FC083F0A0C084F0ECEC1EF0C6
:1036A80080C092F081C093F082C094F01200C8C02C
:1036B800CAF00001CB6BCC6B0001C7350001CA37DB
:1036C80001E3CB810001CA510001D46F0001D4513C
:1036D800D8A40AD0000E0001C66F000EC76F000EF6
:1036E800C86F000EC96F1200170E0001CA6FC6C05E
:1036F800CBF0C7C0CCF0C8C0CDF00001CA2900018A
:10370800CE6F05D00001D890CD33CC33CB33000138
:10371800CE2FF8D70001CB510001CF6F0001C78F22
:10372800FF0E0001C617FF0E0001C717000E0001AB
:10373800C8170001C6510001D06F0001C751000130
:10374800D16F0001C8510001D26F0001D36B8E0EFA
:103758000001D45F0001D4AF1AD00001D451800A0F
:103768008F0FD8B00AD0000E0001C66F000EC76FC9
:10377800000EC86F000EC96F12000001D890D33335
:10378800D233D133D0330001D43FF7D71BD0170E33
:103798000001D46512D0000E0001C66F000EC76F7D
:1037A800000EC86F000EC96F12000001D890D03704
:1037B800D137D237D3370001D4070001D4510001E3
:1037C800D8A4F3D70001CF510001D8B409D0000123
:1037D800D31FD21FD11FD06D000ED123D223D323E4
:1037E800D0C0C6F0D1C0C7F0D2C0C8F0D3C0C9F0AD
:1037F80012000600FACF6CF0FBCF6DF0E9CF6EF047
:10380800EACF6FF0E1CF70F0E2CF71F0D9CF72F06C
:10381800DACF73F0F3CF74F0F4CF75F0F6CF76F01B
:10382800F7CF77F0F8CF78F0F5CF79F072EC1FF09A
:103838009EA024D0000E086E010E076EFF0E686E63
:10384800FF0E696E5CC16AF05DC16BF06A1E6B1E8B
:103858006A4A6B2A68506A2669506B226AC009F066
:103868006BC00AF00B6A0C6AE4EC27F0010E010148
:103878009A27000E9B239C239D239E90F2A206D09C
:10388800F292000E01019F6F010E9E6FF0B0F0A63C
:103898002FD0F09081380F0B0F0B7A6E7A50D8A486
:1038A8000AD0000E01019A6F000E9B6F000E9C6FEC
:1038B800000E9D6F11D07A04D8A405D0640E0101C2
:1038C8005C27000E08D0020E7A18D8A405D0010192
:1038D8009C0E5C27FF0E5D23DFEC29F0E30E406EA3
:1038E800FF0E416E5CC142F05DC143F065EC06F02D
:1038F80079C0F5FF78C0F8FF77C0F7FF76C0F6FF0C
:1039080075C0F4FF74C0F3FF73C0DAFF72C0D9FF4B
:1039180071C0E2FF70C0E1FF6FC0EAFF6EC0E9FF4F
:103928006DC0FBFF6CC0FAFF7E92110003C007F068
:10393800086A096A0234073601E3088007500F6EE7
:103948000F50D8A409D0000E016E000E026E000EB2
:10395800036E000E046E120006C007F0086A096ABA
:103968000534073601E3088007500E6E0E50D8A4C0
:1039780009D0000E016E000E026E000E036E000EDE
:10398800046E1200028EFF0E0116FF0E0216000EC4
:103998000316058EFF0E0416FF0E0516000E0616FA
:1039A800000E0A6E000E0B6E000E0C6E000E0D6EF1
:1039B8007F0E0F5E0E50980F0F5E180E0E6ED89089
:1039C8000A360B360C360D360450015C0550025889
:1039D80006500358D8A007D00450015E0550025A7B
:1039E8000650035A0A80D8900136023603360E2E46
:1039F800E6D70FAE16D00F50800A970FD8B009D06F
:103A0800000E016E000E026E000E036E000E046EB4
:103A18001200D8900D320C320B320A320F3EF9D711
:103A280015D0170E0F640FD0000E016E000E026E37
:103A3800000E036E000E046E1200D8900A360B3684
:103A48000C360D360F060F50D8A4F7D70AC001F070
:103A58000BC002F00CC003F00DC004F0120078D0C7
:103A6800000120EE02F08051D9268151DA22DF5080
:103A78000001826F80CF83F00001822B03D0000108
:103A8800D89083330001822FFAD7010E00018317E3
:103A9800000183510001806F816B1200000120EE4C
:103AA80002F08051D9268151DA22DF500001826F5D
:103AB80081CF83F00001822B03D00001D89083339B
:103AC8000001822FFAD7010E0001831700018351EC
:103AD8000001806F816B1200000120EE02F080511E
:103AE800D9268151DA22DF500001826F82CF83F01C
:103AF8000001822B03D00001D89083330001822F6C
:103B0800FAD7010E00018317000183510001806F6D
:103B1800816B1200000120EE02F08051D9268151FC
:103B2800DA22DF500001826F83CF83F00001822BFD
:103B380003D00001D89083330001822FFAD7010EF9
:103B480000018317000183510001806F816B12000F
:103B580080C0D9FF81C0DAFFDECF82F0DDCF83F0ED
:103B680000018351000AD8A40ED000018251000A36
:103B7800D8B476D7010AD8B491D7030AD8B4ACD749
:103B8800010AD8B4C7D700018069816912000334DB
:103B980004340C6E0C50D8A409D0000E016E000E2F
:103BA800026E000E036E000E046E12000634073417
:103BB8000B6E0B50D8A409D0000E016E000E026ED9
:103BC800000E036E000E046E1200038EFF0E011627
:103BD800FF0E0216FF0E0316000E0416068EFF0EC9
:103BE8000416FF0E0516FF0E0616000E0716000E29
:103BF800076E000E086E000E096E000E0A6E7F0E2C
:103C08000C5E0B50A00F0C5E200E0B6ED890073682
:103C1800083609360A360450015C05500258065029
:103C2800035807500458D8A009D00450015E055025
:103C3800025A0650035A0750045A0780D890013692
:103C48000236033604360B2EE1D70CAE16D00C50D4
:103C5800800A9F0FD8B009D0000E016E000E026EC8
:103C6800000E036E000E046E1200D8900A3209325C
:103C7800083207320C3EF9D715D01F0E0C640FD04E
:103C8800000E016E000E026E000E036E000E046E32
:103C98001200D8900736083609360A360C060C503A
:103CA800D8A4F7D707C001F008C002F009C003F094
:103CB8000AC004F01200000E0001896F000187AFEE
:103CC8000CD00001871F861F851F846D000E852379
:103CD80086238723010E0001896F000183AF0CD072
:103CE8000001831F821F811F806D000E81238223A4
:103CF8008323010E0001891B000E00018A6F000E4C
:103D08008B6F000E8C6F000E8D6F000184510001C7
:103D180085110001861100018711D8B442D0010E27
:103D28000001886F08D00001D8908437853786371E
:103D380087370001882B000187AFF5D70001D8909D
:103D48008A378B378C378D37000184510001805DAD
:103D580000018551000181590001865100018259F5
:103D68000001875100018359D8A012D00001845165
:103D78000001805F000185510001815B00018651CF
:103D88000001825B000187510001835B00018A8189
:103D98000001D89087338633853384330001882F18
:103DA800CDD7000189510001D8B409D000018D1F79
:103DB8008C1F8B1F8A6D000E8B238C238D238AC04A
:103DC80080F08BC081F08CC082F08DC083F012002F
:103DD800000183510001D8B408D0000180510001CE
:103DE800811100018211D8A411D0000E0001806F4A
:103DF800000E0001816F000E0001826F12000001A9
:103E0800832B0001D890823381338033000E000168
:103E180080150001856F000E000181150001866F75
:103E2800FE0E000182150001876F00018551000117
:103E3800861100018711D8B411D0E1D70001832B76
:103E4800010E00018027000E00018123000E0001F1
:103E580082230001D890823381338033000E000121
:103E680080150001856F000E000181150001866F25
:103E7800FF0E000182150001876F000185510001C6
:103E8800861100018711D8B408D0D8D7000183075C
:103E98000001D890803781378237000181BF04D074
:103EA800020E00018361F2D7000183B102D0000144
:103EB800819F0001D8908333000183510001821350
:103EC800000184510001D8B402D00001828F80C063
:103ED80080F081C081F082C082F01200F2A412004A
:103EE800F294D8907B34D96E7C34DA6E8E0ED92653
:103EF800010EDA22DECF07F0DDCF08F0000E0A6EE1
:103F0800000E096EB2EC22F0010E7B24016E000E49
:103F18007C20026E010E0001FE25036E000E0001DA
:103F2800FF21046EA3EC26F0D890013602368E0EDF
:103F38000124D96E010E0220DA6EDECF07F0DDCF44
:103F480008F0000E0A6E010E096EB2EC22F0000EA7
:103F5800086E000E076EFF0E106EFF0E116E010E3A
:103F68007B24016E000E7C20026E010E0001FE25EE
:103F7800036E000E0001FF21046EA3EC26F0D8901A
:103F880001360236860E0124D96E010E0220DA6E41
:103F9800DECF12F0DDCF13F0121E131E124A132AC1
:103FA800105012261150132212C009F013C00AF043
:103FB8000B6A0C6AE4EC27F0010E7B24016E000EFC
:103FC8007C20026E010E0001FE25036E000E00012A
:103FD800FF21046EA3EC26F001C07BF002C07CF048
:103FE80012000001805100018111D8B412000001B3
:103FF80020EE02F08051D9268151DA22DF500001EB
:10400800846F010E0001856F000E0001866F0001AC
:10401800842B04D0D8900001853786370001842F7F
:10402800F9D785C087F086C088F000018251000169
:104038008311D8A43CD0FF0E0001871B38D00001A3
:10404800820500018311D8A404D000018751891288
:104058001200000187518916120000018205000133
:104068008311D8A404D0000187518A1212000001DC
:1040780087518A1612000001820500018311D8A415
:1040880004D0000187518B121200000187518B1652
:1040980012000001820500018311D8A404D0000198
:1040A80087518C121200000187518C16120080C0B3
:1040B800D9FF81C0DAFFDECF84F0DDCF85F00001C3
:1040C8008551000AD8A4120000018451000AD8B40E
:1040D800B6D7010AD8B4C1D7030AD8B4CCD7010AD5
:1040E800D8A41200D6D717C01BF01C6A1D6A163454
:1040F8001B3601E31C801B501E6E1E50D8A407D02F
:10410800000E156E000E166E000E176E12001AC005
:104118001BF01C6A1D6A19341B3601E31C801B50F6
:10412800236E2350D8A407D0000E156E000E166E0D
:10413800000E176E120023507B0F1E2617C023F0A7
:104148001A50231A800E2316168E198EFF0E181673
:10415800FF0E1916000E1A16000E1F6E000E206EA6
:10416800000E216E070E226E15A006D018501F26CD
:10417800195020221A502122D8901732163215329F
:10418800D890183619361A36222EEED7090E226E16
:1041980015A006D018501F26195020221A50212287
:1041A800D890173216321532D890213220321F3269
:1041B800222EEED71FC001F020C002F021C003F06C
:1041C8001EC004F023C005F0D3EC23F001C015F0A5
:1041D80002C016F003C017F012002DC02FF0306A8D
:1041E800316A2C342F3601E330802F50396E395024
:1041F800D8A409D0000E2B6E000E2C6E000E2D6E6A
:10420800000E2E6E1200170E2F6E2BC030F02CC031
:1042180031F02DC032F02F28336E04D0D8903232CE
:1042280031323032332EFAD73050346E2C8EFF0EA6
:104238002B16FF0E2C16000E2D162B50356E2C50FB
:10424800366E2D50376E386A8E0E395E39AE16D0FE
:104258003950800A8F0FD8B009D0000E2B6E000E8F
:104268002C6E000E2D6E000E2E6E1200D890383275
:10427800373236323532393EF9D715D0170E396410
:104288000FD0000E2B6E000E2C6E000E2D6E000E41
:104298002E6E1200D890353636363736383639060F
:1042A8003950D8A4F7D73450D8B408D0381E371EA0
:1042B800361E356C000E36223722382235C02BF0D8
:1042C80036C02CF037C02DF038C02EF01200000E8A
:1042D8000001976F000191AF0CD00001911F901F52
:1042E8008F1F8E6D000E8F2390239123010E0001E6
:1042F800976F000195AF09D00001951F941F931F78
:10430800926D000E9323942395230001925100018E
:1043180093110001941100019511D8B43AD0010EFF
:104328000001966F08D00001D890923793379437E0
:1043380095370001962B000195AFF5D700019251F2
:1043480000018E5D0001935100018F5900019451C5
:10435800000190590001955100019159D8A010D041
:104368000001925100018E5F0001935100018F5BA3
:10437800000194510001905B000195510001915B8F
:104388000001D89095339433933392330001962FDC
:10439800D5D7000197510001D8B409D00001911F69
:1043A800901F8F1F8E6D000E8F23902391238EC038
:1043B8008EF08FC08FF090C090F091C091F01200F5
:1043C800C30E0001F36F500EF26F000E0001F56F7F
:1043D800000EF46F3FD0D8900001F435D96E00017B
:1043E800F535DA6E8E0ED926010EDA220001EC516F
:1043F800DE181CE10001ED51DE18D8A417D0EEC07C
:10440800D5F0EFC0D6F053EC19F0D8900001F43590
:10441800D96E0001F535DA6E860ED926010EDA223C
:104428000001D5C0DEFF0001D6C0DDFFD890000135
:10443800F435D96E0001F535DA6E860ED926010EEF
:10444800DA22DE500001F25FDD500001F35B00016B
:10445800F44BF52B0001FE510001F45D0001F5510C
:10446800800A0001F06F0001FF51800A0001F05935
:10447800D8A0B1D7D8900001FE35D96E0001FF351C
:10448800DA6E860ED926010EDA22F2C0DEFFF3C0FC
:10449800DDFF1200000182AF1DD080C086F081C010
:1044A80087F082C088F00001861F871F881F862B2F
:1044B800000E87238823000E000186250001806FE7
:1044C800000E000187210001816F800E0001882104
:1044D8000001826F000185AF1DD083C086F084C0C3
:1044E80087F085C088F00001861F871F881F862BEC
:1044F800000E87238823000E000186250001836FA4
:10450800000E000187210001846F800E00018821C0
:104518000001856F000E0001801B000E0001811B49
:10452800800E0001821B000E0001831B000E00019B
:10453800841B800E0001851B000183510001805DF2
:1045480000018451000181590001855100018259FF
:10455800D8B002D0D8901200D880120007500810A6
:10456800D8B4120020EE02F00750D9260850DA22FB
:10457800DF500B6E010E0C6E000E0D6E0B2A03D071
:10458800D8900C360D360B2EFBD70CC00EF00DC094
:104598000FF009500A10D8A42BD0FF0E0E1A28D0FD
:1045A80009040A10D8A403D00E50891212000E5024
:1045B8008916120009040A10D8A403D00E508A12D2
:1045C80012000E508A16120009040A10D8A403D04B
:1045D8000E508B1212000E508B16120009040A108E
:1045E800D8A403D00E508C1212000E508C16120054
:1045F80007C0D9FF08C0DAFFDECF0BF0DDCF0CF023
:104608000C50000AD8A412000B50000AD8B4C8D71E
:10461800010AD8B4CFD7030AD8B4D6D7010AD8A488
:104628001200DCD7000E00018B6F000189AF08D0A3
:104638000001886D891FD8B0892B010E00018B6F8E
:10464800000187AF08D00001866D871FD8B0872B7F
:10465800010E00018B1B000E00018D6F000E8C6F88
:104668000001885100018911D8B42CD0010E000135
:104678008A6F06D00001D8908837893700018A2BC5
:10468800000189AFF7D70001D8908C378D3700012A
:1046980088510001865D0001895100018759D8A021
:1046A8000AD0000188510001865F0001895100018C
:1046B800875B00018C810001D89089338833000121
:1046C8008A2FE1D700018B510001D8B405D0000131
:1046D8008C6D8D1FD8B08D2B8CC086F08DC087F067
:1046E8001200000E0001886F000E896F000E8A6F9D
:1046F800000E8B6F000184510001851100018611A5
:1047080000018711D8B442D0010E00018C6F08D087
:104718000001D890843785378637873700018C2B7E
:10472800000187AFF5D70001D890883789378A37D5
:104738008B37000184510001805D00018551000123
:1047480081590001865100018259000187510001F9
:104758008359D8A012D0000184510001805F000164
:1047680085510001815B000186510001825B0001D7
:1047780087510001835B000188810001D89087334D
:1047880086338533843300018C2FCDD788C080F0E1
:1047980089C081F08AC082F08BC083F01200045077
:1047A800D8B405D0015002100310D8A40CD0000EC4
:1047B800016E000E026E000E036E1200042AD890DD
:1047C800033202320132000E0114066E000E02148A
:1047D800076EFE0E0314086E065007100810D8B4B2
:1047E8000CD0ECD7042A010E0126000E0222000E7E
:1047F8000322D890033202320132000E0114066EF1
:10480800000E0214076EFF0E0314086E0650071000
:104818000810D8B406D0E6D70406D8900136023678
:10482800033602BE03D0020E0460F6D704A0029E2F
:10483800D8900432045003120550D8A4038E01C046
:1048480001F002C002F003C003F01200000E0001E4
:10485800856F000181AF08D00001806D811FD8B03D
:10486800812B010E0001856F000183AF05D0000187
:10487800826D831FD8B0832B000182510001831100
:10488800D8B426D0010E0001846F06D00001D8905C
:10489800823783370001842B000183AFF7D70001EB
:1048A80082510001805D0001835100018159D8A027
:1048B80008D0000182510001805F0001835100018E
:1048C800815B0001D890833382330001842FE7D7BE
:1048D800000185510001D8B405D00001806D811F09
:1048E800D8B0812B80C080F081C081F01200000E0A
:1048F8000001916F8E0E0001906F00018BAF15D0F3
:1049080000018B1F8A1F891F886D000E89238A2347
:104918008B23010E0001916F08D00001D8908B33D2
:104928008A33893388330001902B000E00018815E3
:1049380000018C6F000E0001891500018D6F000EBB
:1049480000018A1500018E6FFF0E00018B15000112
:104958008F6F00018C5100018D1100018E11000133
:104968008F11D8A4DAD788C080F089C081F08AC0B6
:1049780082F090C083F091C084F0ECEC1EF080C00F
:1049880088F081C089F082C08AF01200000191513C
:10499800000192110001931100019411D8B43AD08A
:1049A800010E0001956F08D00001D8909137923719
:1049B800933794370001952B000194AFF5D7000188
:1049C800915100018D5D0001925100018E59000145
:1049D800935100018F590001945100019059D8A0BA
:1049E80010D00001915100018D5F0001925100012A
:1049F8008E5B0001935100018F5B0001945100010F
:104A0800905B0001D8909433933392339133000133
:104A1800952FD5D78DC08DF08EC08EF08FC08FF0BA
:104A280090C090F0120003AE16D001C007F002C08B
:104A380008F003C009F0071E081E091E072A000E09
:104A480008220922000E0724016E000E0820026EBB
:104A5800800E0920036E06AE16D004C007F005C00C
:104A680008F006C009F0071E081E091E072A000ED6
:104A780008220922000E0724046E000E0820056E85
:104A8800800E0920066E000E011A000E021A800E12
:104A9800031A000E041A000E051A800E061A045096
:104AA800015C0550025806500358D8B002D0D8907F
:104AB8001200D88012000001FE4BFF2BFE0E0001F1
:104AC800FA6FFF0E0001FB6FFEC0FCF0FFC0FDF0A7
:104AD800D8900001FC37FD370001FA510001FC278E
:104AE8000001FB510001FD238E0E0001FC25D96E4B
:104AF800010E0001FD21DA6EF6C0DEFFF7C0DDFF12
:104B0800F6C0ECF0F7C0EDF0F8C0EEF0F9C0EFF049
:104B1800E4EC21F0000E0001816F000E806F97EC2D
:104B280027F0000E0001816F000E806F000E00015B
:104B3800826F000E836F000E846F000E856F6FEC1E
:104B480027F01200000E0C6E0AAE06D0096C0A1E81
:104B5800D8B00A2A010E0C6E08AE06D0076C081EE3
:104B6800D8B0082A010E0C1A000E0E6E000E0D6E3B
:104B780009500A10D8B41CD0010E0B6E04D0D8907E
:104B880009360A360B2A0AAEFAD7D8900D360E36F1
:104B98000950075C0A500858D8A005D00950075E8C
:104BA8000A50085A0D80D8900A3209320B2EEDD7D8
:104BB8000C50D8B404D00D6C0E1ED8B00E2A0DC0FF
:104BC80007F00EC008F01200000E096E000E0A6E03
:104BD800000E0B6E000E0C6E055006100710081024
:104BE800D8B42AD0010E0D6E06D0D89005360636F8
:104BF800073608360D2A08AEF8D7D89009360A368F
:104C08000B360C360550015C065002580750035805
:104C180008500458D8A009D00550015E0650025A21
:104C28000750035A0850045A0980D89008320732AE
:104C3800063205320D2EE1D709C001F00AC002F094
:104C48000BC003F00CC004F012008E0E0001906F30
:104C580008D00001D8908B338A3389338833000118
:104C6800902B000E0001881500018C6F000E0001CA
:104C7800891500018D6F000E00018A1500018E6FE5
:104C8800FF0E00018B1500018F6F00018C51000190
:104C98008D1100018E1100018F11D8A4DAD788C0B8
:104CA80080F089C081F08AC082F090C083F0000E45
:104CB8000001846FECEC1EF080C088F081C089F0A0
:104CC80082C08AF012000001816F00018151F00B4F
:104CD8000001806F8C500F0B8C6E000180518C107E
:104CE8008C6E8C96D60E00D000D0E82EFCD700D063
:104CF8008C86D60E00D000D0E82EFCD700D000015C
:104D08008139F00B0001816F00018151F00B000126
:104D1800806F8C500F0B8C6E000180518C108C6E44
:104D28008C96D60E00D000D0E82EFCD700D08C860A
:104D3800D60E00D000D0E82EFCD700D01200000E0E
:104D4800066E02AE06D0016C021ED8B0022A010E11
:104D5800066E04AE04D0036C041ED8B0042A0350B7
:104D68000410D8B418D0010E056E04D0D8900336BC
:104D78000436052A04AEFAD70350015C04500258E1
:104D8800D8A004D00350015E0450025AD8900432CF
:104D98000332052EF1D70650D8B404D0016C021E98
:104DA800D8B0022A01C001F002C002F0120012506D
:104DB800131014101510D8B424D0010E166E06D096
:104DC800D8901236133614361536162A15AEF8D77B
:104DD80012500E5C13500F5814501058155011589B
:104DE800D8A008D012500E5E13500F5A1450105A03
:104DF8001550115AD8901532143213321232162E19
:104E0800E7D70EC00EF00FC00FF010C010F011C0A1
:104E180011F01200026E0250F00B016E8C500F0B55
:104E28008C6E01508C108C6E8C96D60E00D000D0F3
:104E3800E82EFCD700D08C86D60E00D000D0E82E05
:104E4800FCD700D00238F00B026E0250F00B016E56
:104E58008C500F0B8C6E01508C108C6E8C96D60E6D
:104E680000D000D0E82EFCD700D08C86D60E00D01B
:104E780000D0E82EFCD700D012008E0E116E06D09E
:104E8800D8900C320B320A320932112A000E09145A
:104E98000D6E000E0A140E6E000E0B140F6EFF0E30
:104EA8000C14106E0D500E100F101010D8A4E8D767
:104EB80009C001F00AC002F00BC003F011C004F0F1
:104EC800000E056ED3EC23F001C009F002C00AF011
:104ED80003C00BF0120012D083C0D7FF82C0D6FFE8
:104EE800D58E120083C0CFFF82C0CEFFCD801200C6
:104EF80083C0B3FF82C0B2FFB180120080C086F0C9
:104F080081C087F000018751000AD8A4120000016F
:104F18008651000AD8B4E0D7010AD8B4E3D7020A08
:104F2800D8A41200E5D70FD0000ED56ED586F28A28
:104F38001ED0000ECD6E300ECD129D8018D0000E02
:104F4800B16EA08214D080C082F081C083F00001CD
:104F58008351000AD8A40BD000018251000AD8B4AA
:104F6800E3D7010AD8B4E5D7020AD8B4E8D7F28C57
:104F7800F28E12000001C9510001CA110001CB11C3
:104F8800D8B409D0000E0001C91B000E0001CA1BCD
:104F9800800E0001CB1BC6C0BAF0C7C0BBF0C8C0AA
:104FA800BCF0C9C0BDF0CAC0BEF0CBC0BFF093EC26
:104FB80014F0BAC0C6F0BBC0C7F0BCC0C8F012003D
:104FC80012D00AC0D7FF09C0D6FFD58E12000AC07A
:104FD800CFFF09C0CEFFCD8012000AC0B3FF09C0C1
:104FE800B2FFB180120007C00DF008C00EF00E50DD
:104FF800000AD8A412000D50000AD8B4E2D7010A5A
:10500800D8B4E5D7020AD8A41200E7D7310E0001B8
:10501800846FB20EE82EFED7842FFCD700F0330E33
:1050280050EC29F0320E50EC29F0280E50EC29F003
:105038000F0E50EC29F0060E50EC29F0010E50EC42
:1050480029F0310E0001846FB20EE82EFED7842FAE
:10505800FCD700F01200A80EF66E510EF76E000E87
:10506800F86E01EE49F010EE3DF00900F5CFEEFFC5
:10507800E550E150FAE101EE86F01E0EEE6AE80610
:10508800FDE10001FF6BFE6B7D6A7C6A7B6A7E90A6
:105098007E92000EF86E0001D5EF11F0000E0001AF
:1050A8008B6F000189AF08D00001886D891FD8B0C7
:1050B800892B010E00018B6F88C080F089C081F0B8
:1050C8000001826B8E0E0001836F8BC084F0ECECC4
:1050D8001EF080C088F081C089F082C08AF012007A
:1050E80000018045E846FC0BC26EC280C282C2B293
:1050F800FED7C350C4CF84F00001856B84C085F00F
:105108000001846B00018427000E852384C080F091
:1051180085C081F00001000E81BFFF0E826F836F92
:1051280012003D503E103F10D8B406D0000E3D1A74
:10513800000E3E1A800E3F1A3AC02EF03BC02FF0E8
:105148003CC030F03DC031F03EC032F03FC033F0DB
:10515800EAEC16F02EC03AF02FC03BF030C03CF01D
:10516800120092689368C00E946E000E956E000E41
:10517800966E000E896E000E8A6E000E8B6E000E03
:105188008C6E000E8D6E000EC26E0B0EC112000EDC
:10519800C06EC082300EC012C08EF288F28E12002D
:1051A800E1FA3FE9A63E33A33F5A00FFFF1E003C49
:1051B80000B4007C7976008A00A6009900020005F8
:1051C80000020002000300010002000000020006C5
:0D51D80000020007000200010003000000BB
:1051E60000018E5100019003F3CF92F0F4CF93F0BB
:1051F60000018E5100019103F35000019327000135
:105206008F5100019003F3500001932792C08EF056
:1052160093C08FF01200000180510001811100013E
:105226008211D8B409D0000E0001801B000E0001C7
:10523600811B800E0001821B80C080F081C081F03E
:1052460082C082F0120081A2FED781380F0B0F0BAD
:105256000001806F81B2FED700018051010DC70E9B
:10526600F324F66EFE0EF420F76E0800F5501200D9
:105276000001826F000E0001816F3A0E000182610B
:1052860007D02F0E0001826503D0010E0001816F49
:1052960081C080F00001803112000001836F8C9480
:1052A600740EE82EFED700D00001835167EC26F07D
:1052B600040E0001826F3D0EE82EFED7822FFCD72A
:1052C60000D012000001846F0A0E00018419D8A4D0
:1052D60003D0CFEC29F012008C84740EE82EFED792
:1052E60000D00001845167EC26F012000F50110225
:1052F600F3CF13F0F4CF14F00F501202F35014262C
:1053060010501102F350142613C00FF014C010F001
:105316001200015002100310D8B406D0000E011A74
:10532600000E021A800E031A01C001F002C002F03C
:1053360003C003F01200056E0A0E0518D8A403D0A8
:10534600DBEC29F012008C84740EE82EFED700D018
:1053560005500EEC27F01200046E8C94740EE82EA5
:10536600FED700D004500EEC27F0040E036E3E0E5E
:10537600E82EFED7032EFCD71200036E000E026E37
:105386003A0E036005D02F0E036402D0010E026EA2
:1053960002C001F001301200C00E50EC29F01200DC
:1053A600010E50EC29F01200C00E50EC29F012004C
:1053B600C00EAFEC29F01200010EAFEC29F012007E
:10FE300000010000000A00000064000000E8030068
:10FE40000010270000A086010040420F0080969815
:10FE50000000E1F50500CA9A3B00803FCDCC3DD7BC
:10FE6000233C12833AB7D138C62737388635C0D6F7
:10FE700033CC2B32708930E7DB2EE53C1E42A20DDD
:10FE800000803F00204100C842007A44401C465098
:10FE9000C34724744997184BBCBE4C6B6E4E031578
:10FEA0005079AD60F34971010000001000000000BE
:10FEB0000100000010000000000100000010000020
:10FEC0000000010000001031323341343536423732
:10FED0003839432A302344000059030113041725FD
:10FEE00063292074696D6520203C4120202020205A
:10FEF0000A0073746172742020203C42202020206C
:10FF000020200A00202068683A6D6D3A7373202023
:10FF1000202020200A0073656C6563742072756E62
:10FF20003A20202020200A0074696D653A206E6E08
:10FF30006E207365632020200A005B41412C3956F6
:10FF40002C432C6F746865725D200A0030313233A7
:10FF500034353637383961626364656600202020A5
:10FF600020202020202020202020202A3E005B313D
:10FF70002C322C332C345D20202020202A3E006897
:10FF80006973746F7279203C43202020202A3E0040
:10FF90002020207374617473203C422020202A3E6C
:10FFA000005B6E6E2C6E2C6E2C6E6E5D2020202AF7
:10FFB0003E0020206D6D3A64643A7979202020203B
:10FFC000413E0074696D65202530326C643A2530FD
:10FFD000326C64007369673A202564200A563A201F
:10FFE000256600706572696F6420256C6400743149
:0FFFF0003A202578200072756E6E696E670000EA
:020000040020DA
:08000000FFFFFFFFFFFFFFFF00
:020000040030CA
:0E000000FF021F1EFF8381FF0FC00FE00F40A5
:00000001FF
