:0400000007EF00F016
:100008005982FEED14F0C6EF1AF0CB0E0001E16F35
:10001800000E0001E26F0CEF07F0250E0001F61943
:10002800D8B406D00001F6510BEC1DF00CEF07F028
:10003800000E0001F16F000EF06F000E0001F36F6B
:10004800000EF26F05D00001F2850001C94BCA2BE2
:10005800C9C0F6FFCAC0F7FF0800F550300AD8B487
:10006800F2D7C9C0F6FFCAC0F7FF0800F5502DEC5B
:100078001DF0D8A040D0000E0001F16F000EF06F07
:10008800F0C084F0F1C085F0000E0001876F0A0E01
:10009800866F57EC1CF084C0F0F085C0F1F0D00EEC
:1000A8000001D36FFF0E0001D46FC9C0F6FFCAC0AC
:1000B800F7FF0800F5500001D56FD66B0001D3514A
:1000C8000001D5270001D4510001D6230001D551E4
:1000D8000001F0270001D6510001F1230001C94BAE
:1000E800CA2BC9C0F6FFCAC0F7FF0800F5502DECAF
:1000F8001DF0D8B0C5D7C9C0F6FFCAC0F7FF0800C1
:10010800F5502E0AD8A439D00001F38D0001C94B4F
:10011800CA2B000E0001F56F000EF46F23D0F4C057
:1001280084F0F5C085F0000E0001876F0A0E866F17
:1001380057EC1CF0C9C0F6FFCAC0F7FF0800F5501D
:1001480000018427000E00018523D00E00018425BC
:100158000001F46FFF0E000185210001F56F000119
:10016800C94BCA2BC9C0F6FFCAC0F7FF0800F55033
:100178002DEC1DF0D8A07DD0D2D7000E0001F56F70
:10018800000EF46F0001F38974D00001F28971D078
:100198000001F38590D00001F28F8DD00001F45159
:1001A8000001F511D8B40ED00001DF510001F45D53
:1001B8000001E0510001F559D8B004D0F4C0DFF0D7
:1001C800F5C0E0F00001F0510001DF5D0001F151E0
:1001D8000001E059D8B009D00001DF510001F05FFB
:1001E8000001E0510001F15B09D0000E0001F16F40
:1001F800000EF06F03D0200E0BEC1DF00001F0078D
:10020800D8A0F1070001F029F6E10001F129D8B4DE
:100218000BD0F1D7DDC0D9FFDEC0DAFFDF500BEC21
:100228001DF00001DD4BDE2B0001DF07D8A0E00741
:100238000001DF29EFE10001E029D8B40CEF07F055
:10024800E9D7E1C0D9FFE2C0DAFFDF500001F66F5D
:10025800020E0001E127000EE223F60E0001DD6F19
:10026800000E0001DE6F000E0001E06F010EDF6F6F
:1002780095D7C9C0F6FFCAC0F7FF0001C94BCA2B02
:100288000800F5CFF6F00001F651000AD8B41200C4
:10029800630AD8B4D6D7070AD8B40DD0020AD8B49E
:1002A80077D70F0AD8B407D0050AD8B46ED7140A7E
:1002B800D8B471D7D2D7070E0001F315D8B47CD3C0
:1002C8000001F3A905D0000E0001F56F060EF46FCA
:1002D800E1C0D9FFE2C0DAFFDECFE9F0DECFEAF015
:1002E800DDCFEBF0030E0001E127000EE223000151
:1002F800EBAF11D0E9C027F0EAC028F0EBC029F035
:10030800F9EC1CF027C0E9F028C0EAF029C0EBF0AE
:10031800030E0001F213000E0001E86F000EE76FF4
:100328000001E9510001EA110001EB11D8B49AD09B
:10033800820E0001D36FFF0E0001D46FE9C0D5F023
:10034800EAC0D6F0EBC0D7F0ECC0D8F0100E06D05B
:100358000001D890D833D733D633D533E82EF8D721
:100368000001D5510001D3250001E76F000E0001FF
:10037800D4210001E86F0001E707D8A0E807E7C02B
:1003880084F0E8C085F0000E0001876F030E866FC9
:1003980057EC1CF084C0E7F085C0E8F0E7C02DF00A
:1003A800E8C02EF0000E306E0A0E2F6EB9EC18F071
:1003B8002DC0E7F02EC0E8F00001E8AF04D000013E
:1003C800E707D8A0E8070001E751000899EC09F011
:1003D800A4C0E3F0A5C0E4F0A6C0E5F0E3C095F042
:1003E800E4C096F0E5C097F0E9C098F0EAC099F04B
:1003F800EBC09AF0C6EC10F095C0E3F096C0E4F0BC
:1004080097C0E5F0E3C080F0E4C081F0E5C082F079
:10041800000E0001836F800E0001846F3F0E000103
:10042800856F9AEC17F00001D8B005D00001E707F6
:10043800D8A0E80717D0E3C080F0E4C081F0E5C099
:1004480082F0000E0001836F200E0001846F410EC0
:100458000001856F9AEC17F00001D8A003D00001C5
:10046800E74BE82B0001F5BF08D00001F5511DE16D
:100478000D0E0001F45DD8B018D0E9C0AEF0EAC0A6
:10048800AFF0EBC0B0F00001F4519EEC0DF0A4C049
:10049800B1F0A5C0B2F0A6C0B3F0E3EC0EF0AEC068
:1004A800E9F0AFC0EAF0B0C0EBF00001E8BF08D057
:1004B8000001E8512AE10A0E0001E75DD8B025D015
:1004C8000001E9510001EA110001EB11D8B463D031
:1004D800E9C0BAF0EAC0BBF0EBC0BCF0C9EC12F05E
:1004E8000001BA510001BB110001BC110001BD118E
:1004F800D8A451D00001E8BF4ED00001E85105E171
:10050800020E0001E75DD8A046D0E3C080F0E4C049
:1005180081F0E5C082F0700E0001836F890E000142
:10052800846F400E0001856F9AEC17F00001D8B077
:1005380003D00001F70E02D00001F80EE727FF0EE6
:10054800E8230001E75199EC09F0A4C0E3F0A5C045
:10055800E4F0A6C0E5F0E9C027F0EAC028F0EBC057
:1005680029F0E3C02AF0E4C02BF0E5C02CF075ECCC
:1005780011F027C0ECF028C0EDF029C0EEF02AC039
:10058800EFF0000E0001E96F000E0001EA6F000EA7
:100598000001EB6F33D0E9C0BAF0EAC0BBF0EBC0A2
:1005A800BCF0C9EC12F0BAC0ECF0BBC0EDF0BCC0B6
:1005B800EEF0BDC0EFF0E9C0BAF0EAC0BBF0EBC0A6
:1005C800BCF0ECC02FF0EDC030F0EEC031F0EFC061
:1005D80032F090EC1AF02FC0BDF030C0BEF031C040
:1005E800BFF02CEC1BF0BAC0E9F0BBC0EAF0BCC00D
:1005F800EBF0000E0001E86F000EE76F010E00013E
:10060800F66F0A0E0001F619D8B41ED00001F65193
:10061800040D1D0EF324F66EFE0EF420F76E09008D
:10062800F5500001EC5D0900F5500001ED59090095
:10063800F5500001EE590900F5500001EF59D8A016
:1006480003D00001F62BDDD7F6C0D3F00001D46B40
:10065800D3BFD4070001F4510001D3270001F5519D
:100668000001D4230001E7510001D3270001E8511C
:100678000001D4230001D3510001F05F0001D451DF
:100688000001F15B0001F4510001F511D8B404D068
:100698000001F007D8A0F107030E0001F2150001D0
:1006A800D36F000E0001F3150001D46F0001D35180
:1006B8000001D411D8B404D00001F007D8A0F10784
:1006C8000001F2A52DD0030E0001F2150001D36F31
:1006D800000E0001F3150001D46F0001D351000191
:1006E800D411D8B40BD02D0E0BEC1DF007D0300E62
:1006F8000BEC1DF00001F007D8A0F1070001F1BFD5
:1007080074D00001F151F3E10001F005D8A06DD0DB
:10071800EED7200E0BEC1DF00001F007D8A0F10772
:100728000001F1BF07D00001F151F3E10001F0052C
:10073800D8B0EFD7030E0001F2150001D36F000EF9
:100748000001F3150001D46F0001D3510001D41149
:10075800D8B44BD02D0E0BEC1DF047D0ECC027F0D1
:10076800EDC028F0EEC029F0EFC02AF00001F651E4
:10077800040D1D0EF324F66EFE0EF420F76E09002C
:10078800F5CF2BF00900F5CF2CF00900F5CF2DF0AF
:100798000A00F5CF2EF0DFEC19F027C0E3F028C0EF
:1007A800E4F029C0E5F02AC0E6F0E3C080F0E4C038
:1007B80081F0E5C082F0E6C083F00A0E0001846F84
:1007C800000E856F000E866F000E876F07EC19F01C
:1007D80080C0E3F081C0E4F082C0E5F083C0E6F0B9
:1007E8000001E351300F0BEC1DF00001F60700018A
:1007F800F629D8B408D0B2D7300E0BEC1DF00001A2
:10080800E707D8A0E8070001E8BF07D00001E851D2
:10081800F3E10001E705D8B0EFD70001F5BF0CD030
:100828000001F55105E1090E0001F45DD8A004D0DE
:10083800080E0001F66F02D0F4C0F6F00001F65180
:100848000001F45F000E0001F6BFFF0E0001F55B2A
:100858000001F6510001D8B403D02E0E0BEC1DF0A8
:100868000001F65199EC09F0A4C0D9F0A5C0DAF05E
:10087800A6C0DBF0E9C098F0EAC099F0EBC09AF0A6
:10088800D9C095F0DAC096F0DBC097F0C6EC10F04E
:1008980095C0BAF096C0BBF097C0BCF0C9EC12F096
:1008A800BAC0ECF0BBC0EDF0BCC0EEF0BDC0EFF0DC
:1008B8006ED0ECC027F0EDC028F0EEC029F0EFC0F4
:1008C8002AF00001F651040D1D0EF324F66EFE0EFB
:1008D800F420F76E0900F5CF2BF00900F5CF2CF0C6
:1008E8000900F5CF2DF00A00F5CF2EF0DFEC19F056
:1008F80027C0E3F028C0E4F029C0E5F02AC0E6F0FC
:10090800E3C080F0E4C081F0E5C082F0E6C083F087
:100918000A0E0001846F000E856F000E866F000EB0
:10092800876F07EC19F080C0E3F081C0E4F082C063
:10093800E5F083C0E6F00001E351300F0BEC1DF049
:10094800ECC080F0EDC081F0EEC082F0EFC083F023
:100958000001F651040D1D0EF324F66EFE0EF42070
:10096800F76E0900F5CF84F00900F5CF85F009008E
:10097800F5CF86F00A00F5CF87F007EC19F080C0B4
:10098800ECF081C0EDF082C0EEF083C0EFF0000122
:10099800F6070001F629D8B408D08BD7300E0BEC37
:1009A8001DF00001F407D8A0F5070001F45100017B
:1009B800F511D8B42DD2F2D70001F2BF34D000011E
:1009C800F2A90ED0E1C0D9FFE2C0DAFFDECFECF029
:1009D800DECFEDF0DECFEEF0DECFEFF0040E0FD07D
:1009E800E1C0D9FFE2C0DAFFDECFECF0DDCFEDF0F9
:1009F8000001000EEDBFFF0EEE6FEF6F020E00015B
:100A0800E127000EE2230001EFAF32D0030E000110
:100A1800F2130001EF1FEE1FED1FEC6D000EED232A
:100A2800EE23EF2325D00001F2A90ED0E1C0D9FFB3
:100A3800E2C0DAFFDECFECF0DECFEDF0DECFEEF095
:100A4800DECFEFF0040E10D0E1C0D9FFE2C0DAFF2C
:100A5800DECFD3F0DDCFD4F0D3C0ECF0D4C0EDF0CE
:100A68000001EE6BEF6B020E0001E127000EE2239E
:100A78000001F4510001F511D8A45AD00001EC513D
:100A88000001ED110001EE110001EF11D8A450D0C2
:100A98000001F44BF52B4CD0010E0001F66F0A0E45
:100AA8000001F619D8B44DD00001F651040D1D0E01
:100AB800F324F66EFE0EF420F76E0900F5500001DF
:100AC800EC5D0900F5500001ED590900F5500001F1
:100AD800EE590900F5500001EF59D8A032D00001B5
:100AE800F62BDDD7010E0001F66F080E0001F6198E
:100AF800D8B427D00001F651040D930EF324F66EF6
:100B0800FE0EF420F76E0900F5500001EC5D0900B7
:100B1800F5500001ED590900F5500001EE590900A2
:100B2800F5500001EF59D8A00CD00001F62BDDD705
:100B38000001F251800B000AD8B4AED7800AD8B4AD
:100B4800D1D7800E0001F6BF7F0E0001D36F0001E0
:100B5800F4510001F65D0001F551800A0001D359F6
:100B6800D8B003D0F4C0F6F018D00001F551800ACF
:100B78000001D36F0001F6510001F45D800E000101
:100B8800F6BF7F0E0001D359D8B007D00001F65147
:100B98000001F46FF56BF4BFF5070001F051000197
:100BA800F111D8B414D0030E0001F2150001D36F6F
:100BB800000E0001F3150001D46F0001D3510001AC
:100BC800D411D8B404D00001F007D8A0F10700016F
:100BD800F3AD1ED00001F0510001F45D0001F551A4
:100BE800800A0001D36F0001F151800A0001D35936
:100BF800D8B009D00001F4510001F05F0001F551AF
:100C08000001F15B05D0000E0001F16F000EF06FDE
:100C1800800E0001F6BF7F0E0001D36F0001F05176
:100C28000001F65D0001F151800A0001D359D8B0E6
:100C38000BD00001F6510001F05F000E0001F6BF75
:100C4800FF0E0001F15B05D0000E0001F16F000EF0
:100C5800F06F0001F2A521D0030E0001F21500018A
:100C6800D36F000E0001F3150001D46F0001D351BA
:100C78000001D411D8B403D02D0E0BEC1DF00001E7
:100C8800F0510001F111D8B4B8D0300E0BEC1DF0C2
:100C98000001F007D8A0F107F2D70001F0510001D8
:100CA800F111D8B40DD0200E0BEC1DF00001F007A7
:100CB800D8A0F1070001F0510001F111D8A4F3D731
:100CC800030E0001F2150001D36F000E0001F315A9
:100CD8000001D46F0001D3510001D411D8B48DD0D4
:100CE8002D0E0BEC1DF089D0F4C0D3F0F5C0D4F074
:100CF8000001D890D337D4370001D890D337D437F0
:100D08001D0E0001D325F66EFE0ED421F76E0900E4
:100D1800F5CF2BF00900F5CF2CF00900F5CF2DF019
:100D28000A00F5CF2EF0ECC027F0EDC028F0EEC099
:100D380029F0EFC02AF0DFEC19F027C080F028C0B6
:100D480081F029C082F02AC083F00A0E0001846F66
:100D5800000E856F000E866F000E876F07EC19F086
:100D680000018051300F0001F66F43D0ECC027F02E
:100D7800EDC028F0EEC029F0EFC02AF0F4C0D3F09F
:100D8800F5C0D4F00001D890D337D4370001D890FB
:100D9800D337D437930E0001D325F66EFE0ED42137
:100DA800F76E0900F5CF2BF00900F5CF2CF00900FC
:100DB800F5CF2DF00A00F5CF2EF0DFEC19F0275013
:100DC8000F0B0001DC6F0001DC51010D380EF3241C
:100DD800F66EFF0EF420F76E0800F5CFF6F009D096
:100DE8000001F251800B000AD8B47ED7800AD8B42B
:100DF800BDD70001F6510BEC1DF00001F407D8A097
:100E0800F5070001F429ECE10001F529D8A4E8D799
:100E1800C9C0F6FFCAC0F7FF0001C94BCA2B0800BA
:100E2800F5CFF6F00001F651D8B4120011EF00F03A
:100E3800490E0001E06F010E0001E16F000E000194
:100E4800E36F5A0EE26FD0EC16F0510E276E010ECA
:100E5800286E000E2A6E000E296E36EC17F00D0E65
:100E68000001F86FAF0E0001F76FB60EE82EFED73F
:100E7800F72FFCD7F82FFAD700F0000E0101096F01
:100E8800A00E01010A6F400E01010B6FC00E010197
:100E98000C6F7F0E01010D6F440E01010E6F000EE5
:100EA80001010F6F000E0101106F000E0101116F9B
:100EB800000E0101026F000E0101036F000E010117
:100EC800046F000E0101066F010E056F000E01018F
:100ED800086F000E076F4BC02FF04CC030F022ECAB
:100EE8001CF02FC019F130C01AF131C01BF1FBD032
:100EF80019C1BAF01AC1BBF01BC1BCF0C9EC12F0A1
:100F0800BAC000F1BBC001F15D0E0001E06F010E37
:100F18000001E16F00C1E2F001C1E3F0D0EC16F08E
:100F2800530EE82EFED700F0450E276E010E286EF0
:100F3800000E2A6E010E296E36EC17F00CC189F0EE
:100F48000DC18AF00EC18BF077C127F078C128F067
:100F580006EC1CF027C02FF028C030F029C031F073
:100F68002AC032F054EC19F02FC086F030C087F058
:100F780031C088F023EC12F086C095F087C096F057
:100F880088C097F009C198F00AC199F00BC19AF08E
:100F9800C6EC10F095C016F196C017F197C018F17D
:100FA800CD0E0001806FCC0E0001816F3D0E000157
:100FB800826F16C183F017C184F018C185F09AECCE
:100FC80017F00001D8B003D00101054B062B0FC163
:100FD80080F010C181F011C182F016C183F017C1F1
:100FE80084F018C185F09AEC17F00001D8B064D0ED
:100FF800550E276E010E286E77EC15F0D890273421
:101008000101076F28340101086F590E276E010E80
:10101800286E77EC15F027500101071328500101BD
:10102800081316C10FF117C110F118C111F1450EBF
:10103800276E010E286E000E2A6E000E296E36EC01
:1010480017F0040E0001F76F3D0EE82EFED7F72FBC
:10105800FCD700D00CC189F00DC18AF00EC18BF00D
:1010680077C127F078C128F006EC1CF027C02FF0D4
:1010780028C030F029C031F02AC032F054EC19F001
:101088002FC086F030C087F031C088F023EC12F012
:1010980086C095F087C096F088C097F009C198F08F
:1010A8000AC199F00BC19AF0C6EC10F095C002F194
:1010B80096C003F197C004F119C1BAF01AC1BBF088
:1010C8001BC1BCF0CD0E0001BD6FCC0E0001BE6F80
:1010D8003D0E0001BF6F2CEC1BF0BAC019F1BBC06C
:1010E8001AF1BCC01BF149C02FF04AC030F022EC05
:1010F8001CF02FC080F030C081F031C082F019C1DF
:1011080083F01AC184F01BC185F09AEC17F0000136
:10111800D8A0EED60FC11CF110C11DF111C11EF1EE
:1011280048EC1DF0D10E0001C96FFF0E0001CA6F17
:1011380005C1CBF006C1CCF01CC1CDF01DC1CEF06D
:101148001EC1CFF009EC00F0C0EC1CF063D002C166
:1011580080F003C181F004C182F0CD0E0001836FDD
:10116800CC0E0001846F3D0E0001856F9AEC17F0DC
:101178000001D8B018D03BC180F03CC181F03DC11E
:1011880082F01CC183F01DC184F01EC185F09AEC69
:1011980017F00001D8B037D051C014F152C015F182
:1011A800404A412A4BD038C180F039C181F03AC158
:1011B80082F01CC183F01DC184F01EC185F09AEC39
:1011C80017F00001D8B01FD04FC014F150C015F16E
:1011D8003E4A3F2A33D03EC180F03FC181F040C132
:1011E80082F01CC183F01DC184F01EC185F09AEC09
:1011F80017F00001D8B007D053C014F154C015F14E
:10120800424A432A1BD055C014F156C015F1444A2E
:10121800452A14D007C1F7F008C1F8F00001F851C9
:10122800000AD8A40BD00001F751000AD8B48FD710
:10123800010AD8B4D0D7030AD8B4B5D7610E0001D3
:10124800E06F010E0001E16F14C1E2F015C1E3F097
:10125800D0EC16F0070E0001F86F580E0001F76F7A
:10126800590EE82EFED7F72FFCD7F82FFAD700D063
:1012780049C012F14AC013F118D05D0E0001E06FA9
:10128800010E0001E16F12C1E2F013C1E3F0D0ECEE
:1012980016F00A0E0001F76FBC0EE82EFED7F72FE6
:1012A800FCD700F00101124B132B4D500101125DC8
:1012B80001011351800A0001F76F4E50800A0001A6
:1012C800F759D8A0DAD70D0E0001F86FAF0E00015C
:1012D800F76FB60EE82EFED7F72FFCD7F82FFAD700
:1012E80000F05D0E0001E06F010E0001E16F4BC0E0
:1012F800E2F04CC0E3F0D0EC16F0490E0001E06FCC
:10130800010E0001E16F000E0001E36F820EE26F33
:10131800D0EC16F0510E276E010E286E000E2A6EC4
:10132800010E296E36EC17F012000001AA6F0001B9
:10133800AAAF19D10001AA6D0001AA51800A120FA3
:10134800D8A0A1D0000E0001876F030E866F000E93
:10135800306E0A0E2F6E000E2A6E640E296E000182
:10136800AA51276E286A27BE280620EC1AF027C043
:101378002DF028C02EF0B9EC18F0090E2D2400012C
:10138800846F000E2E200001856F57EC1CF0450E6F
:1013980000018425F66EFE0E00018521F76E090016
:1013A800F5CF98F00900F5CF99F00A00F5CF9AF03B
:1013B800000E306E640E2F6E0001AA512D6E2E6A3B
:1013C8002DBE2E06B9EC18F0120E2D240001846FE4
:1013D800000E2E200001856F000E0001876F030E9E
:1013E800866F57EC1CF0450E00018425F66EFE0E44
:1013F80000018521F76E0900F5CF95F00900F5CFBA
:1014080096F00A00F5CF97F0C6EC10F095C0A7F05B
:1014180096C0A8F097C0A9F0A7C095F0A8C096F00C
:10142800A9C097F0000E0001876F030E866F000EAB
:101438002A6E0A0E296E0001AA51276E286A27BE55
:10144800280620EC1AF027C084F028C085F057EC55
:101458001CF0450E00018425F66EFE0E0001852164
:10146800F76E0900F5CF98F00900F5CF99F00A005A
:10147800F5CF9AF0C6EC10F095C0A4F096C0A5F090
:1014880097C0A6F012000001AA51800A750FD8A0D3
:1014980057D0000E306E0A0E2F6E0001AA512D6E25
:1014A8002E6A2DBE2E06B9EC18F0090E2D24000167
:1014B800846F000E2E200001856F000E0001876FDB
:1014C800030E866F57EC1CF0450E00018425F66E5E
:1014D800FE0E00018521F76E0900F5CF95F0090091
:1014E800F5CF96F00A00F5CF97F0000E0001876F50
:1014F800030E866F000E2A6E0A0E296E0001AA518D
:10150800276E286A27BE280620EC1AF027C084F028
:1015180028C085F057EC1CF0450E00018425F66EB6
:10152800FE0E00018521F76E0900F5CF98F009003D
:10153800F5CF99F00A00F5CF9AF0C6EC10F09CD7D9
:101548000001AA51030D450EF324F66EFE0EF42099
:10155800F76E0900F5CFA4F00900F5CFA5F00A0051
:10156800F5CFA6F012000001AA51800A120FD8A0E8
:10157800A1D0000E0001876F030E866F000E306E3B
:101588000A0E2F6E000E2A6E640E296E0001AA51F3
:10159800276E286A27BE280620EC1AF027C02DF0EF
:1015A80028C02EF0B9EC18F0090E2D240001846F24
:1015B800000E2E200001856F57EC1CF06C0E000108
:1015C8008425F66EFE0E00018521F76E0900F5CF21
:1015D80098F00900F5CF99F00A00F5CF9AF0000EBF
:1015E800306E640E2F6E0001AA512D6E2E6A2DBE2C
:1015F8002E06B9EC18F0120E2D240001846F000E8F
:101608002E200001856F000E0001876F030E866F84
:1016180057EC1CF06C0E00018425F66EFE0E0001DE
:101628008521F76E0900F5CF95F00900F5CF96F002
:101638000A00F5CF97F0C6EC10F095C0A7F096C059
:10164800A8F097C0A9F0A7C095F0A8C096F0A9C0C7
:1016580097F0000E0001876F030E866F000E2A6E4A
:101668000A0E296E0001AA51276E286A27BE28068D
:1016780020EC1AF027C084F028C085F057EC1CF045
:101688006C0E00018425F66EFE0E00018521F76EB2
:101698000900F5CF98F00900F5CF99F00A00F5CFC9
:1016A8009AF0C6EC10F095C0A4F096C0A5F097C0CB
:1016B800A6F012000001AA51800A750FD8A057D0D1
:1016C800000E306E0A0E2F6E0001AA512D6E2E6A82
:1016D8002DBE2E06B9EC18F0090E2D240001846FDA
:1016E800000E2E200001856F000E0001876F030E8B
:1016F800866F57EC1CF06C0E00018425F66EFE0E0A
:1017080000018521F76E0900F5CF95F00900F5CFA6
:1017180096F00A00F5CF97F0000E0001876F030ED0
:10172800866F000E2A6E0A0E296E0001AA51276ED6
:10173800286A27BE280620EC1AF027C084F028C0A3
:1017480085F057EC1CF06C0E00018425F66EFE0E39
:1017580000018521F76E0900F5CF98F00900F5CF53
:1017680099F00A00F5CF9AF0C6EC10F09CD700016A
:10177800AA51030D6C0EF324F66EFE0EF420F76EDC
:101788000900F5CFA4F00900F5CFA5F00A00F5CFC0
:10179800A6F01200E6EC1BF0C3EC1BF0FFEC13F014
:1017A800000E346E000E356E000E366E000E376E6B
:1017B800000E286E010E276E9EEC1BF0000E286EA0
:1017C800010E276E000E296E000E2A6E000E2B6E7B
:1017D800000E2C6E52EC1BF0510E276E010E286E77
:1017E800000E2A6E010E296E36EC17F0490E000124
:1017F800EA6F010E0001EB6F000E0001ED6F820E23
:10180800EC6F9CEC19F05D0E0001EA6F010E00010F
:10181800EB6F4BC0ECF04CC0EDF09CEC19F0610E96
:101828000001EA6F010E0001EB6F51C0ECF052C0ED
:10183800EDF09CEC19F048EC1DF0F60E0001C96FB4
:10184800FF0E0001CA6F09EC00F034C030F135C05A
:1018580031F134C032F135C033F1000E0101356F7A
:10186800000E346F000E01012D6F0A0E2C6F000E52
:1018780001012F6F0A0E2E6F16D14CEC1DF0C00E11
:101888000001C96FFF0E0001CA6F34C027F035C0D0
:1018980028F036C029F037C02AF0580E2B6E020EF9
:1018A8002C6E000E2D6E000E2E6E5EEC16F027C00C
:1018B800CBF028C0CCF029C0CDF02AC0CEF00A0E5B
:1018C8002B6E000E2C6E000E2D6E000E2E6E34C088
:1018D80027F035C028F036C029F037C02AF05EEC72
:1018E80016F027C086F028C087F029C088F02AC0E3
:1018F80089F03C0E00018A6F000E8B6F000E8C6F12
:10190800000E8D6FECEC15F086C0CFF087C0D0F0DC
:1019180088C0D1F089C0D2F009EC00F0FA0E0101BC
:101928001F6FFF0EE82EFED71F2FFCD734C11FF103
:1019380035C120F1000E010120BFFF0E216F226F7B
:1019480032C123F133C124F1000E010124BFFF0E7F
:10195800256F266F0101231F241F251F261F232BF8
:10196800000E2423252326233450010123250101B9
:10197800276F3550010124210101286F36500101DC
:1019880025210101296F37500101262101012A6F04
:1019980001011F510101275D010120510101285951
:1019A800010121510101295901012A51800A01012E
:1019B8002B6F01012251800A01012B59D8A02ED08A
:1019C8004D0E276E010E286E77EC15F027C036F104
:1019D80028C037F14D0E276E010E286E01013651D1
:1019E80001013711D8A402D0010E01D0000E296ED2
:1019F8002A6A36EC17F00101365101013711D8B4C3
:101A080005D02EC134F12FC135F104D02CC134F1E9
:101A18002DC135F134C032F135C033F130C11FF179
:101A280031C120F1000E010120BFFF0E216F226F8E
:101A380001011F1F201F211F221F1F2B000E202303
:101A480021232223345001011F250101236F355022
:101A5800010120210101246F3650010121210101DA
:101A6800256F3750010122210101266F000E58BE53
:101A7800FF0E0101286F800A276F01012351575C6F
:101A8800010124515858010125510101285901012A
:101A98002651800A01012759D8B005D0000E476E9B
:101AA800010E466E08D038503910D8A404D04650DC
:101AB8004710D8B4E2D646504710D8A40BD01CEC37
:101AC80007F034C030F135C031F1000E396E000E28
:101AD800386EB1D6510E276E010E286E000E2A6E92
:101AE800000E296E36EC17F048EC1DF0AF0E000121
:101AF800C96FFF0E0001CA6F09EC00F0E00E00018B
:101B0800C96FFF0E0001CA6F40C0CBF041C0CCF0D6
:101B180042C0CDF043C0CEF03EC0CFF03FC0D0F0C1
:101B280044C0D1F045C0D2F009EC00F0C0EC1CF084
:101B380035D6FFD70001AD6F6D0E0001AD65AFD092
:101B4800000E0001876F030E866F000E306E0A0EBE
:101B58002F6E000E2A6E640E296EADC027F0286A1B
:101B680020EC1AF027C02DF028C02EF0B9EC18F0A0
:101B7800090E2D240001846F000E2E200001856FB0
:101B880057EC1CF0450E00018425F66EFE0E000190
:101B98008521F76E0900F5CF98F00900F5CF99F087
:101BA8000A00F5CF9AF0000E306E640E2F6EADC0AD
:101BB8002DF02E6AB9EC18F0120E2D240001846F56
:101BC800000E2E200001856F000E0001876F030EA6
:101BD800866F57EC1CF0450E00018425F66EFE0E4C
:101BE80000018521F76E0900F5CF95F00900F5CFC2
:101BF80096F00A00F5CF97F0C6EC10F095C0AAF061
:101C080096C0ABF097C0ACF0000E0001876F030ED2
:101C1800866F000E2A6E0A0E296EADC027F0286A5C
:101C280020EC1AF027C084F028C085F057EC1CF08F
:101C3800450E00018425F66EFE0E00018521F76E23
:101C48000900F5CF98F00900F5CF99F00A00F5CF13
:101C58009AF0AAC095F0ABC096F0ACC097F0C6EC6D
:101C680010F095C0A7F096C0A8F097C0A9F0A7C03B
:101C780095F0A8C096F0A9C097F0000E0001986FE3
:101C8800000E0001996F3F0E00019A6FC6EC10F02C
:101C980095C0A4F096C0A5F097C0A6F012000A0E51
:101CA8000001AD6568D0000E0001876F030E866FD6
:101CB800000E2A6E0A0E296EADC027F0286A20ECA5
:101CC8001AF027C084F028C085F057EC1CF0450EA8
:101CD80000018425F66EFE0E00018521F76E0900CD
:101CE800F5CF98F00900F5CF99F00A00F5CF9AF0F2
:101CF800000E306E0A0E2F6EADC02DF02E6AB9ECB4
:101D080018F0090E2D240001846F000E2E2000010A
:101D1800856F000E0001876F030E866F57EC1CF06D
:101D2800450E00018425F66EFE0E00018521F76E32
:101D38000900F5CF95F00900F5CF96F00A00F5CF28
:101D480097F0C6EC10F095C0AAF096C0ABF097C01B
:101D5800ACF0AAC095F0ABC096F0ACC097F0000EFE
:101D68000001986F000E0001996F3F0E00019A6FF5
:101D7800C6EC10F08DD70001AD51030D450EF324CC
:101D8800F66EFE0EF420F76E0900F5CF95F0090007
:101D9800F5CF96F00A00F5CF97F0000E0001986F86
:101DA800000E0001996F3F0E00019A6FC6EC10F00B
:101DB80095C0A4F096C0A5F097C0A6F01200B0C0D8
:101DC800B4F00001B56BB66B0001AF350001B43754
:101DD80001E3B5810001B4510001B96FB3C0B4F09B
:101DE8000001B56BB66B0001B2350001B43701E3F1
:101DF800B5810001B4510001B86F0001B95100016B
:101E0800D8B411D00001B8510001B95DD8B012D0D2
:101E18000001B95100080001B8250001B46F180E7F
:101E28000001B46507D0B1C0AEF0B2C0AFF0B3C026
:101E3800B0F012000001B8510001D8B411D000016F
:101E4800B9510001B85DD8B012D00001B8510008EE
:101E58000001B9250001B46F180E0001B46507D060
:101E6800AEC0AEF0AFC0AFF0B0C0B0F01200060E1A
:101E78000001B76F0001B0AF02D00001B78F0001B9
:101E8800B3AF02D00001B78D0001AF8FFF0E000184
:101E9800AE17FF0E0001AF17000E0001B0170001CA
:101EA800B28FFF0E0001B117FF0E0001B217000E2E
:101EB8000001B3170001B8510001B95DD8B025D0B1
:101EC8000001D890B137B237B3370001B807000125
:101ED800B9510001B819D8B411D00001B707B7C07B
:101EE800B4F0070E0001B417D8B408D0E9D7000140
:101EF800D890B033AF33AE330001B92B0001B851DD
:101F08000001B919D8B42BD0F2D70001B95100019A
:101F1800B85DD8B024D00001D890AE37AF37B0370D
:101F28000001B9070001B9510001B819D8B411D09E
:101F38000001B707B7C0B4F0070E0001B417D8B452
:101F480008D0E9D70001D890B333B233B1330001D8
:101F5800B82B0001B8510001B919D8A4F3D7000172
:101F6800B7AF12D0FF0E0001AE1BFF0E0001AF1B72
:101F7800FF0E0001B01B010E0001AE27000E00018C
:101F8800AF23000E0001B0230001B7AD12D0FF0E41
:101F98000001B11BFF0E0001B21BFF0E0001B31BB5
:101FA800010E0001B127000E0001B223000E00014E
:101FB800B323000E0001B76F0001AE510001B12735
:101FC8000001AF510001B2230001B0510001B32359
:101FD8000001B3AF15D0FF0E0001B11BFF0E0001C9
:101FE800B21BFF0E0001B31B010E0001B127000E4A
:101FF8000001B223000E0001B323010E0001B76FE8
:10200800B1C027F0B2C028F0B3C029F0B9C02AF097
:10201800B7C02BF062EC18F027C0AEF028C0AFF0C4
:1020280029C0B0F01200A80E0001D16FFD0ED26FCA
:10203800FF0ED36FFF0ED46FE20E0001DC6F040EAB
:10204800DD6F000EDE6F000EDF6F6A0E0001D56FC8
:10205800180ED66F000ED76F000ED86FDCC0CDF00B
:10206800DDC0CEF0DEC0CFF0DFC0D0F00001CD1F64
:10207800CE1FCF1FD01FCD2B000ECE23CF23D023B2
:102088000001D5510001CD252F6E0001D651000168
:10209800CE21306E0001D7510001CF21316E0001F1
:1020A800D8510001D021326E54EC19F02FC098F0AD
:1020B80030C099F031C09AF0000E0001896F340EDB
:1020C80000018A6F430E00018B6FC9C02FF0CAC090
:1020D80030F022EC1CF02FC086F030C087F031C001
:1020E80088F023EC12F086C095F087C096F088C07F
:1020F80097F0C6EC10F095C0B1F096C0B2F097C05A
:10210800B3F0DCC02FF0DDC030F0DEC031F0DFC04E
:1021180032F054EC19F02FC0AEF030C0AFF031C03F
:10212800B0F0E3EC0EF0AEC0D9F0AFC0DAF0B0C05A
:10213800DBF0D1C02FF0D2C030F0D3C031F0D4C022
:1021480032F054EC19F02FC0B1F030C0B2F031C009
:10215800B3F0D9C0AEF0DAC0AFF0DBC0B0F0E3EC5A
:102168000EF0AEC0BAF0AFC0BBF0B0C0BCF0C9EC66
:1021780012F0BAC0C9F0BBC0CAF0BCC0CBF0BDC039
:10218800CCF0120097C09BF000019C6B9D6B000186
:10219800963500019B3701E39C8100019B510001AA
:1021A8009E6F00019E51D8A40AD0000E0001956FC1
:1021B800000E0001966F000E0001976F12009AC082
:1021C8009BF000019C6B9D6B0001993500019B37CA
:1021D80001E39C8100019B510001A36F0001A35101
:1021E800D8A40AD0000E0001956F000E0001966F6A
:1021F800000E0001976F12000001A3517B0F000130
:102208009E2797C0A3F000019A510001A31B800EDE
:102218000001A3170001968F0001998FFF0E00019E
:102228009817FF0E00019917000E00019A17000E6B
:1022380000019F6F000E0001A06F000E0001A16F4A
:10224800070E0001A26F000195A10CD00001985162
:1022580000019F27000199510001A02300019A5114
:102268000001A1230001D8909733963395330001DC
:10227800D890983799379A370001A22FE4D7090EDA
:102288000001A26F000195A10CD000019851000136
:102298009F27000199510001A02300019A510001D4
:1022A800A1230001D8909733963395330001D89035
:1022B800A133A0339F330001A22FE4D79FC027F09A
:1022C800A0C028F0A1C029F09EC02AF0A3C02BF01E
:1022D80062EC18F027C095F028C096F029C097F056
:1022E800120029C02DF02E6A2F6A28342D3601E3FA
:1022F8002E802D500001856F00018551D8A409D08A
:10230800000E276E000E286E000E296E000E2A6E33
:1023180012002CC02DF02E6A2F6A2B342D3601E3C3
:102328002E802D500001846F00018451D8A409D05B
:10233800000E276E000E286E000E296E000E2A6E03
:102348001200288EFF0E2716FF0E2816000E2916DB
:102358002B8EFF0E2A16FF0E2B16000E2C16000EC3
:102368000001806F000E816F000E826F000E836F78
:102378007F0E0001855F00018451980F0001855F81
:10238800180E0001846F0001D8908037813782379A
:1023980083372A50275C2B5028582C502958D8A00E
:1023A80008D02A50275E2B50285A2C50295A000151
:1023B8008081D8902736283629360001842FE3D724
:1023C800000185AF19D000018551800A970FD8B058
:1023D80009D0000E276E000E286E000E296E000E22
:1023E8002A6E12000001D890833382338133803300
:1023F8000001853FF7D71AD0170E0001856511D067
:10240800000E276E000E286E000E296E000E2A6E32
:1024180012000001D8908037813782378337000156
:102428008507000185510001D8A4F3D780C027F0A3
:1024380081C028F082C029F083C02AF0120088C029
:102448008CF000018D6B8E6B0001873500018C3795
:1024580001E38D8100018C510001936F00019351BC
:10246800D8A40AD0000E0001866F000E0001876F05
:10247800000E0001886F12008BC08CF000018D6B7C
:102488008E6B00018A3500018C3701E38D810001D4
:102498008C510001946F00019451D8A40AD0000E09
:1024A8000001866F000E0001876F000E0001886F23
:1024B8001200000E0001906F000E0001916F000ED7
:1024C8000001926F00019451890F0001935F88C049
:1024D80094F000018B510001941B800E00019417A9
:1024E8000001878FFF0E00018617FF0E0001871776
:1024F800000E0001881700018A8FFF0E000189175E
:10250800FF0E00018A17000E00018B17180E00013C
:102518008F6F0001D8909037913792370001895119
:102528000001865D00018A510001875900018B5125
:1025380000018859D8A00ED0000189510001865F9A
:1025480000018A510001875B00018B510001885B03
:10255800000190810001D8908637873788370001BD
:102568008F2FD7D790C027F091C028F092C029F0BC
:1025780093C02AF094C02BF062EC18F027C086F0C4
:1025880028C087F029C088F01200BCC0BEF0000146
:10259800BF6BC06B0001BB350001BE3701E3BF81D3
:1025A8000001BE510001C86F0001C851D8A40AD06B
:1025B800000E0001BA6F000EBB6F000EBC6F000E5C
:1025C800BD6F1200170E0001BE6FBAC0BFF0BBC0CE
:1025D800C0F0BCC0C1F00001BE290001C26F05D027
:1025E8000001D890C133C033BF330001C22FF8D7E0
:1025F8000001BF510001C36F0001BB8FFF0E000136
:10260800BA17FF0E0001BB17000E0001BC1700012E
:10261800BA510001C46F0001BB510001C56F000130
:10262800BC510001C66F0001C76B8E0E0001C85F68
:102638000001C8AF1AD00001C851800A8F0FD8B066
:102648000AD0000E0001BA6F000EBB6F000EBC6FFF
:10265800000EBD6F12000001D890C733C633C533D2
:10266800C4330001C83FF7D71BD0170E0001C86557
:1026780012D0000E0001BA6F000EBB6F000EBC6FC7
:10268800000EBD6F12000001D890C437C537C63799
:10269800C7370001C8070001C8510001D8A4F3D703
:1026A8000001C3510001D8B409D00001C71FC61FDB
:1026B800C51FC46D000EC523C623C723C4C0BAF006
:1026C800C5C0BBF0C6C0BCF0C7C0BDF012002934FD
:1026D8002A34326E3250D8A409D0000E276E000E6C
:1026E800286E000E296E000E2A6E12002C342D342E
:1026F800316E3150D8A409D0000E276E000E286E16
:10270800000E296E000E2A6E1200298EFF0E271663
:10271800FF0E2816FF0E2916000E2A162C8EFF0E05
:102728002A16FF0E2B16FF0E2C16000E2D16000E65
:102738002D6E000E2E6E000E2F6E000E306E7F0E68
:10274800325E3150A00F325E200E316ED8902D3699
:102758002E362F3630362A50275C2B5028582C50CE
:1027680029582D502A58D8A009D02A50275E2B5016
:10277800285A2C50295A2D502A5A2D80D89027365D
:10278800283629362A36312EE1D732AE16D03250C5
:10279800800A9F0FD8B009D0000E276E000E286E51
:1027A800000E296E000E2A6E1200D89030322F3299
:1027B8002E322D32323EF9D715D01F0E32640FD08B
:1027C800000E276E000E286E000E296E000E2A6E6F
:1027D8001200D8902D362E362F363036320632502B
:1027E800D8A4F7D72DC027F02EC028F02FC029F085
:1027F80030C02AF01200E6EC1CF0C0EC1CF0410AD4
:10280800D8A4FBD7D3EC1CF0C0EC1CF00001F86F87
:10281800420E0001F819D8B40AD0430E0001F81985
:10282800D8B405D02A0E0001F819D8A4EDD7430E64
:102838000001F819D8A456D0ADEC1CF0C0EC1CF07F
:102848000001F86F310E0001F819D8B414D0320E17
:102858000001F819D8B40FD0330E0001F819D8B414
:102868000AD0340E0001F819D8B405D02A0E000198
:10287800F819D8A4E3D72A0E0001F819D8B4C2D79A
:102888000001F8513EEC1CF0C0EC1CF00001F86FA0
:10289800410E0001F819D8B40AD0420E0001F81907
:1028A800D8B405D02A0E0001F819D8A4EDD7410EE6
:1028B8000001F819D8A403D087EC1CF00DD0420E03
:1028C8000001F819D8A403D09AEC1CF005D02A0E00
:1028D8000001F819D8B496D7C0EC1CF02A0AD8B46D
:1028E800CFD7FAD7420E0001F819D8B412002A0E31
:1028F8000001F819D8B47FD785D7F2A41200F29452
:10290800D8903A34D96E3B34DA6E6D0ED926010E62
:10291800DA22DECF07F0DDCF08F0000E0A6E000ED7
:10292800096EFEEC17F0010E3A24016E000E3B20F2
:10293800026E010E3C24036E000E3D20046E58EC1E
:102948001AF0D890013602366D0E0124D96E010EA8
:102958000220DA6EDECF07F0DDCF08F0000E0A6E37
:10296800010E096EFEEC17F0000E086E000E076EE1
:10297800FF0E106EFF0E116E010E3A24016E000E4E
:102988003B20026E010E3C24036E000E3D20046EB7
:1029980058EC1AF0D89001360236650E0124D96E2B
:1029A800010E0220DA6EDECF12F0DDCF13F0121E18
:1029B800131E124A132A105012261150132212C045
:1029C80009F013C00AF00B6A0C6A78EC1BF0010ED0
:1029D8003A24016E000E3B20026E010E3C24036E69
:1029E800000E3D20046E58EC1AF001C03AF002C007
:1029F8003BF012000600FACF18F0FBCF19F0E9CF30
:102A08001AF0EACF1BF0E1CF1CF0E2CF1DF0D9CFCE
:102A18001EF0DACF1FF0F3CF20F0F4CF21F0F6CF7D
:102A280022F0F7CF23F0F8CF24F0F5CF25F081EC92
:102A380014F09EA023D0000E086E010E076EFF0E44
:102A4800146EFF0E156E43C116F044C117F0161E22
:102A5800171E164A172A145016261550172216C084
:102A680009F017C00AF00B6A0C6A78EC1BF0010E2B
:102A78003426000E3522362237229E90F2A205D047
:102A8800F292000E396E010E386EF0B0F0A60DD03D
:102A9800F09081380F0B0F0B266E0C0E2618D8A459
:102AA80004D0000E476E010E466E25C0F5FF24C007
:102AB800F8FF23C0F7FF22C0F6FF21C0F4FF20C0B3
:102AC800F3FF1FC0DAFF1EC0D9FF1DC0E2FF1CC004
:102AD800E1FF1BC0EAFF1AC0E9FF19C0FBFF18C0DD
:102AE800FAFF5992110058D020EE02F02750D9264B
:102AF8002850DA22DF50296E80CF2AF0292A02D006
:102B0800D8902A32292EFCD7010E2A162A50276E71
:102B1800286A120020EE02F02750D9262850DA221F
:102B2800DF50296E81CF2AF0292A02D0D8902A3284
:102B3800292EFCD7010E2A162A50276E286A120061
:102B480020EE02F02750D9262850DA22DF50296ECD
:102B580082CF2AF0292A02D0D8902A32292EFCD7EF
:102B6800010E2A162A50276E286A120020EE02F05B
:102B78002750D9262850DA22DF50296E83CF2AF031
:102B8800292A02D0D8902A32292EFCD7010E2A16DB
:102B98002A50276E286A120027C0D9FF28C0DAFFFA
:102BA800DECF29F0DDCF2AF02A50000AD8A40DD0B4
:102BB8002950000AD8B498D7010AD8B4ABD7030A69
:102BC800D8B4BED7010AD8B4D1D72768286812006C
:102BD800000E306E000189AF0BD00001891F881FDD
:102BE800871F866D000E872388238923010E306E88
:102BF80000018DAF09D000018D1F8C1F8B1F8A6DBE
:102C0800000E8B238C238D2300018A5100018B1128
:102C180000018C1100018D11D8B437D0010E2F6E30
:102C280007D00001D8908A378B378C378D372F2AF9
:102C380000018DAFF6D700018A510001865D0001C1
:102C48008B510001875900018C51000188590001FE
:102C58008D5100018959D8A010D000018A51000176
:102C6800865F00018B510001875B00018C510001D8
:102C7800885B00018D510001895B0001D8908D337C
:102C88008C338B338A332F2ED6D73050D8B409D013
:102C98000001891F881F871F866D000E87238823E0
:102CA800892386C086F087C087F088C088F089C0ED
:102CB80089F01200000E0001816F2EAE0BD02E1E7F
:102CC8002D1E2C1E2B6C000E2C222D222E22010EC6
:102CD8000001816F2AAE0BD02A1E291E281E276CE0
:102CE800000E282229222A22010E0001811B000E33
:102CF8000001826F000E836F000E846F000E856FD7
:102D08002B502C102D102E10D8B42FD0010E0001EE
:102D1800806F07D0D8902B362C362D362E360001F2
:102D2800802B2EAEF7D70001D890823783378437AF
:102D380085372B50275C2C5028582D5029582E5059
:102D48002A58D8A00AD02B50275E2C50285A2D502C
:102D5800295A2E502A5A00018281D8902E322D32BB
:102D68002C322B320001802FDED700018151000167
:102D7800D8B409D00001851F841F831F826D000EFF
:102D880083238423852382C027F083C028F084C04E
:102D980029F085C02AF01200C30E0001E76F500E1B
:102DA800E66F000E0001E96F000EE86F3FD0D89083
:102DB8000001E835D96E0001E935DA6E6D0ED926C5
:102DC800010EDA220001E051DE181CE10001E15198
:102DD800DE18D8A417D0E2C0C9F0E3C0CAF017ECD7
:102DE80010F0D8900001E835D96E0001E935DA6EA7
:102DF800650ED926010EDA220001C9C0DEFF0001E6
:102E0800CAC0DDFFD8900001E835D96E0001E93568
:102E1800DA6E650ED926010EDA22DE500001E65F71
:102E2800DD500001E75B0001E84BE92B3C50000155
:102E3800E85D0001E951800A0001E46F3D50800A15
:102E48000001E459D8A0B3D7D8903C34D96E3D34AA
:102E5800DA6E650ED926010EDA22E6C0DEFFE7C07B
:102E6800DDFF120027502810D8B4120020EE02F01F
:102E78002750D9262850DA22DF502B6E010E2C6EEF
:102E8800000E2D6E2B2A03D0D8902C362D362B2EE3
:102E9800FBD72CC02EF02DC02FF029502A10D8A413
:102EA8002BD0FF0E2E1A28D029042A10D8A403D01C
:102EB8002E50891212002E508916120029042A1049
:102EC800D8A403D02E508A1212002E508A1612004F
:102ED80029042A10D8A403D02E508B1212002E5089
:102EE8008B16120029042A10D8A403D02E508C1255
:102EF80012002E508C16120027C0D9FF28C0DAFF06
:102F0800DECF2BF0DDCF2CF02C50000AD8A4120015
:102F18002B50000AD8B4C8D7010AD8B4CFD7030AAF
:102F2800D8B4D6D7010AD8A41200DCD7000182AFE2
:102F38001DD080C086F081C087F082C088F0000173
:102F4800861F871F881F862B000E87238823000E65
:102F5800000186250001806F000E00018721000115
:102F6800816F800E000188210001826F000185AF0A
:102F78001DD083C086F084C087F085C088F000012A
:102F8800861F871F881F862B000E87238823000E25
:102F9800000186250001836F000E000187210001D2
:102FA800846F800E000188210001856F000E0001EA
:102FB800801B000E0001811B800E0001821B000E89
:102FC8000001831B000E0001841B800E0001851B7D
:102FD800000183510001805D000184510001815985
:102FE8000001855100018259D8B002D0D890120052
:102FF800D880120007500810D8B4120020EE02F052
:103008000750D9260850DA22DF500B6E010E0C6EDD
:10301800000E0D6E0B2A03D0D8900C360D360B2EF1
:10302800FBD70CC00EF00DC00FF009500A10D8A441
:103038002BD0FF0E0E1A28D009040A10D8A403D0EA
:103048000E50891212000E508916120009040A1037
:10305800D8A403D00E508A1212000E508A161200FD
:1030680009040A10D8A403D00E508B1212000E5077
:103078008B16120009040A10D8A403D00E508C1223
:1030880012000E508C16120007C0D9FF08C0DAFFD4
:10309800DECF0BF0DDCF0CF00C50000AD8A41200E4
:1030A8000B50000AD8B4C8D7010AD8B4CFD7030A3E
:1030B800D8B4D6D7010AD8A41200DCD72A50D8B47D
:1030C80005D0275028102910D8A40CD0000E276E40
:1030D800000E286E000E296E12002A2AD890293276
:1030E80028322732000E27142C6E000E28142D6E5D
:1030F800FE0E29142E6E2C502D102E10D8B40CD084
:10310800ECD72A2A010E2726000E2822000E292293
:10311800D890293228322732000E27142C6E000E40
:1031280028142D6EFF0E29142E6E2C502D102E10E3
:10313800D8B406D0E6D72A06D890273628362936B6
:1031480028BE03D0020E2A60F6D72AA0289ED8905F
:103158002A322A5029122B50D8A4298E27C027F0AA
:1031680028C028F029C029F01200000E0001816F44
:1031780030AE07D02F6C301ED8B0302A010E0001B7
:10318800816F2EAE07D02D6C2E1ED8B02E2A010EC0
:103198000001811B000E0001836F000E826F2F500B
:1031A8003010D8B421D0010E0001806F05D0D8901E
:1031B8002F3630360001802B30AEF9D70001D89079
:1031C800823783372F502D5C30502E58D8A006D028
:1031D8002F502D5E30502E5A00018281D890303207
:1031E8002F320001802FEAD7000181510001D8B4A5
:1031F80005D00001826D831FD8B0832B82C02DF0CB
:1032080083C02EF0120000018451000185110001D5
:10321800861100018711D8B43AD0010E0001886FD9
:1032280008D00001D8908437853786378737000162
:10323800882B000187AFF5D7000184510001805D1C
:103248000001855100018159000186510001825910
:103258000001875100018359D8A010D00001845182
:103268000001805F000185510001815B00018651EA
:103278000001825B000187510001835B0001D89047
:1032880087338633853384330001882FD5D780C0B0
:1032980080F081C081F082C082F083C083F0120088
:1032A800000E0001856F8E0E0001846F32AE13D0C0
:1032B800321E311E301E2F6C000E30223122322277
:1032C800010E0001856F07D0D8903232313230328A
:1032D8002F320001842B000E2F140001806F000E86
:1032E80030140001816F000E31140001826FFF0E4F
:1032F80032140001836F0001805100018111000127
:10330800821100018311D8A4DFD72FC027F030C065
:1033180028F031C029F084C02AF085C02BF062EC77
:1033280018F027C02FF028C030F029C031F0120063
:103338003C4A3D2AFE0E0001EE6FFF0E0001EF6FC2
:103348003CC0F0F03DC0F1F0D8900001F037F13703
:103358000001EE510001F0270001EF510001F123B7
:103368006D0E0001F025D96E010E0001F121DA6E13
:10337800EAC0DEFFEBC0DDFFEAC0E0F0EBC0E1F041
:10338800ECC0E2F0EDC0E3F0D0EC16F0000E286ED1
:10339800000E276E9EEC1BF0000E286E000E276EA6
:1033A800000E296E000E2A6E000E2B6E000E2C6E7B
:1033B80052EC1BF01200000E2F6E000E306E000E45
:1033C800316E000E326E2B502C102D102E10D8B4EA
:1033D8002AD0010E336E06D0D8902B362C362D36D7
:1033E8002E36332A2EAEF8D7D8902F3630363136CF
:1033F80032362B50275C2C5028582D5029582E50E7
:103408002A58D8A009D02B50275E2C50285A2D5066
:10341800295A2E502A5A2F80D8902E322D322C32EB
:103428002B32332EE1D72FC027F030C028F031C01F
:1034380029F032C02AF01200000E2C6E28AE06D0F9
:10344800276C281ED8B0282A010E2C6E2AAE04D06C
:10345800296C2A1ED8B02A2A29502A10D8B418D084
:10346800010E2B6E04D0D89029362A362B2A2AAE84
:10347800FAD72950275C2A502858D8A004D02950B8
:10348800275E2A50285AD8902A3229322B2EF1D773
:103498002C50D8B404D0276C281ED8B0282A27C0AE
:1034A80027F028C028F01200000E066E02AE06D0E3
:1034B800016C021ED8B0022A010E066E04AE04D0BA
:1034C800036C041ED8B0042A03500410D8B418D0D2
:1034D800010E056E04D0D89003360436052A04AED2
:1034E800FAD70350015C04500258D8A004D0035006
:1034F800015E0450025AD89004320332052EF1D7E7
:103508000650D8B404D0016C021ED8B0022A01C0FB
:1035180001F002C002F012008E0E336E06D0D89071
:103528003232313230322F32332A000E2F1400015A
:10353800806F000E30140001816F000E31140001FD
:10354800826FFF0E32140001836F00018051000169
:1035580081110001821100018311D8A4E0D72FC086
:1035680027F030C028F031C029F033C02AF0000E0F
:103578002B6E62EC18F027C02FF028C030F029C05D
:1035880031F01200E00EF66E380EF76E000EF86E8F
:1035980001EE38F010EE2DF00900F5CFEEFFE55002
:1035A800E150FAE1780EF66E3A0EF76E000EF86EFC
:1035B80000EE49F010EE10F00900F5CFEEFFE550EF
:1035C800E150FAE101EE65F0180EEE6AE806FDE159
:1035D80000EE34F0150EEE6AE806FDE159905992B6
:1035E800000EF86E0001CEEF0BF0286E2850F00B9D
:1035F800276E8C500F0B8C6E27508C108C6E8C960F
:10360800D60E00D000D0E82EFCD700D08C86D60E7F
:1036180000D000D0E82EFCD700D02838F00B286E58
:103628002850F00B276E8C500F0B8C6E27508C1087
:103638008C6E8C96D60E00D000D0E82EFCD700D029
:103648008C86D60E00D000D0E82EFCD700D0120011
:103658000001BD510001BE110001BF11D8B409D04D
:10366800000E0001BD1B000E0001BE1B800E0001F4
:10367800BF1BBAC0AEF0BBC0AFF0BCC0B0F0BDC09D
:10368800B1F0BEC0B2F0BFC0B3F0E3EC0EF0AEC014
:10369800BAF0AFC0BBF0B0C0BCF0120012D02AC064
:1036A800D7FF29C0D6FFD58E12002AC0CFFF29C068
:1036B800CEFFCD8012002AC0B3FF29C0B2FFB1806F
:1036C800120027C02DF028C02EF02E50000AD8A4D2
:1036D80012002D50000AD8B4E2D7010AD8B4E5D7B1
:1036E800020AD8A41200E7D712D00AC0D7FF09C02F
:1036F800D6FFD58E12000AC0CFFF09C0CEFFCD80FD
:1037080012000AC0B3FF09C0B2FFB180120007C09F
:103718000DF008C00EF00E50000AD8A412000D508B
:10372800000AD8B4E2D7010AD8B4E5D7020AD8A467
:103738001200E7D70FD0000ED56ED586F28A1CD0BE
:10374800000ECD6E300ECD129D8016D0000EB16EDB
:10375800A08212D027C029F028C02AF02A50000AD7
:10376800D8A40AD02950000AD8B4E5D7010AD8B499
:10377800E7D7020AD8B4EAD7F28CF28E1200310EDB
:103788002B6EB20EE82EFED72B2EFCD700D0330EB0
:103798001CEC1DF0320E1CEC1DF0280E1CEC1DF06C
:1037A8000F0E1CEC1DF0060E1CEC1DF0010E1CEC9F
:1037B8001DF0310E2B6EB20EE82EFED72B2EFCD745
:1037C80000D0120092689368C00E946E000E956E39
:1037D800000E966E000E896E000E8A6E000E8B6EBD
:1037E800000E8C6E000E8D6E000EC26E0B0EC11296
:1037F800000EC06EC082300EC012C08EF086F288F5
:10380800F28E12002744E846FC0BC26EC280C282C8
:10381800C2B2FED7C350C4CF2BF02C6A2BC02CF0F9
:103828002B6A2B26000E2C222BC027F02CC028F048
:10383800000E28BEFF0E296E2A6E1200000E326E90
:1038480030AE06D02F6C301ED8B0302A010E326E42
:103858002FC027F030C028F0296A8E0E2A6E32C099
:103868002BF062EC18F027C02FF028C030F029C0E8
:1038780031F012000001F76F48EC1DF0CB0E00018B
:10388800C96FFE0E0001CA6FF7C0CBF00001CC6B08
:1038980009EC00F07C0E0001C96FFF0E0001CA6F31
:1038A80009EC00F012000001845100018603F3CFF7
:1038B80031F0F4CF32F00001845100018703F35056
:1038C80032260001855100018603F350322631C0AB
:1038D80084F032C085F0120077EE3FC14A3EA7A9B6
:1038E8003F5A007C79020005000200020003000133
:1038F80000020000000200060002000700020001AA
:053908000003000000B7
:10390E0048EC1DF0140E0001C96FFF0E0001CA6FC6
:10391E0009EC00F0490E0001C96FFF0E0001CA6FDD
:10392E0009EC00F0120048EC1DF0260E0001C96FE4
:10393E00FF0E0001CA6F09EC00F08D0E0001C96F79
:10394E00FF0E0001CA6F09EC00F0120048EC1DF0EA
:10395E00020E0001C96FFF0E0001CA6F09EC00F0E4
:10396E005A0E0001C96FFF0E0001CA6F09EC00F07C
:10397E00120081A2FED781380F0B0F0B276E81B27A
:10398E00FED72750010DB30EF324F66EFE0EF42073
:10399E00F76E0800F550120048EC1DF0DE0E000127
:1039AE00C96FFE0E0001CA6F09EC00F06B0E00012C
:1039BE00C96FFF0E0001CA6F09EC00F0120048EC4F
:1039CE001DF0F00E0001C96FFE0E0001CA6F09EC6A
:1039DE0000F09E0E0001C96FFF0E0001CA6F09ECC8
:1039EE0000F01200275028102910D8B406D0000E6F
:1039FE00271A000E281A800E291A27C027F028C071
:103A0E0028F029C029F012002B6E0A0E2B18D8A40C
:103A1E0003D044EC1DF012008C84740EE82EFED7F9
:103A2E0000D02B50F9EC1AF012002A6E8C94740E02
:103A3E00E82EFED700D02A50F9EC1AF0040E296EAB
:103A4E003E0EE82EFED7292EFCD71200296E000E50
:103A5E00286E3A0E296005D02F0E296402D0010E71
:103A6E00286E28C027F0273012001E004C00B4002C
:103A7E0076008A00A60099001027C00E1CEC1DF0DF
:103A8E001200010E1CEC1DF01200C00E1CEC1DF0FD
:023A9E00120014
:10FE1C0000010000000A00000064000000E803007C
:10FE2C000010270000A086010040420F0080969829
:10FE3C000000E1F50500CA9A3B00803FCDCC3DD7D0
:10FE4C00233C12833AB7D138C62737388635C0D60B
:10FE5C0033CC2B32708930E7DB2EE53C1E42A20DF1
:10FE6C0000803F00204100C842007A44401C4650AC
:10FE7C00C34724744997184BBCBE4C6B6E4E03158C
:10FE8C005079AD60F34971010000001000000000D2
:10FE9C000100000010000000000100000010000034
:10FEAC000000010000001031323341343536423746
:10FEBC003839432A30234400005903011304172511
:10FECC0063292074696D6520203C4120202020206E
:10FEDC000A0073746172742020203C422020202080
:10FEEC0020200A00202068683A6D6D3A7373202038
:10FEFC00202020200A0073656C6563742072756E77
:10FF0C003A20202020200A0074696D653A206E6E1C
:10FF1C006E207365632020200A005B41412C39560A
:10FF2C002C432C6F746865725D200A0030313233BB
:10FF3C0034353637383961626364656600202020B9
:10FF4C0020202020202020202020202A3E005B3151
:10FF5C002C322C332C345D20202020202A3E0068AB
:10FF6C006973746F7279203C43202020202A3E0054
:10FF7C002020207374617473203C422020202A3E80
:10FF8C00005B6E6E2C6E2C6E2C6E6E5D2020202A0B
:10FF9C003E0020206D6D3A64643A7979202020204F
:10FFAC00413E005B41412C432C39562C4F54484563
:10FFBC00525D0A0074696D65202530326C643A25F7
:10FFCC0030326C64004E3A2025642C0A563A2025B7
:10FFDC002E3366005B25642C25642C25642C25644B
:10FFEC005D0074313A202578200072756E6E696E52
:03FFFC006700009B
:020000040020DA
:08000000FFFFFFFFFFFFFFFF00
:020000040030CA
:0E000000FF021F1EFF8381FF0FC00FE00F40A5
:00000001FF
