:0400000007EF00F016
:1000080078828AED13F0CFEF1CF0D70E0101086F4C
:10001800000E0101096F2DEF06F0250E01011D19D3
:10002800D8B406D001011D5112EC1FF02DEF06F0D7
:10003800000E01011C6F000E1B6F000E0101176FEF
:10004800000E166F05D0010116850001D54BD62B81
:10005800D5C0F6FFD6C0F7FF0800F550300AD8B46F
:10006800F2D7D5C0F6FFD6C0F7FF0800F550E8EC88
:100078001EF0D8A09ED0000E01011C6F000E1B6F51
:100088001BC18EF01CC18FF0000E0001916F0A0E8B
:10009800906F59EC1EF08EC01BF18FC01CF1D00E72
:1000A8000001DD6FFF0E0001DE6FD5C0F6FFD6C080
:1000B800F7FF0800F5500001DF6FE06B0001DD512C
:1000C8000001DF270001DE510001E0230001DF51BC
:1000D80001011B270001E05101011C230001D54B40
:1000E800D62BD5C0F6FFD6C0F7FF0800F550E8ECD0
:1000F8001EF0D8A05ED0C4D70101178579D00101C0
:10010800168F76D001011B510101065D01011C51BA
:1001180001010759D8B009D00101065101011B5F3F
:100128000101075101011C5B09D0000E01011C6F80
:10013800000E1B6F03D0200E12EC1FF001011B07ED
:10014800D8A01C0701011B29F6E101011C29D8B41C
:100158000BD0F1D703C1D9FF04C1DAFFDF5012EC8D
:100168001FF00101034B042B01010607D8A0070764
:1001780001010629EFE101010729D8B42DEF06F0A6
:10018800E9D708C1D9FF09C1DAFFDF5001011D6FA6
:10019800020E01010827000E09231D0E0101036F3D
:1001A800010E0101046F000E0101076F010E066FB9
:1001B800A9D7D5C0F6FFD6C0F7FF0001D54BD62B7F
:1001C8000800F5CF1DF101011D51000AD8B4120035
:1001D800630AD8B4D6D7070AD8B40AD0020AD8B462
:1001E8008BD70F0AD8B404D0110AD8B488D7D5D77A
:1001F800070E01011715D8B47AD3000E01010B6F51
:10020800060E0A6F08C1D9FF09C1DAFFDECF18F15F
:10021800DECF19F1DDCF1AF1030E01010827000E18
:10022800092301011AAF11D018C180F019C181F05A
:100238001AC182F08DEC1EF080C018F181C019F14E
:1002480082C01AF1030E01011613000E0101116F8D
:10025800000E106F010118510101191101011A1145
:10026800D8B49BD0820E0001DD6FFF0E0001DE6F57
:1002780018C1DFF019C1E0F01AC1E1F01BC1E2F0CA
:10028800100E06D00001D890E233E133E033DF33BB
:10029800E82EF8D70001DF510001DD250101106FBC
:1002A800000E0001DE210101116F01011007D8A025
:1002B800110710C18EF011C18FF0000E0001916F6F
:1002C800030E906F59EC1EF08EC010F18FC011F123
:1002D80010C186F011C187F0000E0001896F0A0E67
:1002E800886FDFEC17F086C010F187C011F10101AB
:1002F80011AF04D001011007D8A011070101105156
:1003080000083DEC06F0B0C00CF1B1C00DF1B2C070
:100318000EF10CC1A1F00DC1A2F00EC1A3F018C1DD
:10032800A4F019C1A5F01AC1A6F0F3EC10F0A1C011
:100338000CF1A2C00DF1A3C00EF10CC180F00DC1EB
:1003480081F00EC182F0000E0001836F800E000163
:10035800846F3F0E0001856F7BEC17F00001D8B069
:1003680005D001011007D8A0110717D00CC180F0E3
:100378000DC181F00EC182F0000E0001836F200EC6
:100388000001846F410E0001856F7BEC17F00001BE
:10039800D8A003D00101104B112B01010BBF08D0CD
:1003A80001010B511DE10D0E01010A5DD8B018D0F5
:1003B80018C1BAF019C1BBF01AC1BCF001010A5149
:1003C80063EC0AF0B0C0BDF0B1C0BEF0B2C0BFF07F
:1003D800B9EC0BF0BAC018F1BBC019F1BCC01AF1E6
:1003E800010111BF08D0010111512AE10A0E0101D2
:1003F800105DD8B025D00101185101011911010172
:100408001A11D8B463D018C1C6F019C1C7F01AC1FF
:10041800C8F048EC12F00001C6510001C7110001F4
:10042800C8110001C911D8A451D0010111BF4ED083
:100438000101115105E1020E0101105DD8A046D05D
:100448000CC180F00DC181F00EC182F0700E000168
:10045800836F890E0001846F400E0001856F7BEC6D
:1004680017F00001D8B003D00101F70E02D0010146
:10047800F80E1027FF0E1123010110513DEC06F074
:10048800B0C00CF1B1C00DF1B2C00EF118C180F0CE
:1004980019C181F01AC182F00CC183F00DC184F03A
:1004A8000EC185F0ADEC0EF080C012F181C013F1E1
:1004B80082C014F183C015F1000E0101186F000EFF
:1004C8000101196F000E01011A6F33D018C1C6F06F
:1004D80019C1C7F01AC1C8F048EC12F0C6C012F131
:1004E800C7C013F1C8C014F1C9C015F118C1C6F0CE
:1004F80019C1C7F01AC1C8F012C188F013C189F038
:1005080014C18AF015C18BF0B5EC1BF088C0C9F096
:1005180089C0CAF08AC0CBF020EC1DF0C6C018F123
:10052800C7C019F1C8C01AF1000E0101116F000E01
:10053800106F010E01011D6F0A0E01011D19D8B4BB
:100548001ED001011D51040DC10EF324F66EFD0EDF
:10055800F420F76E0900F5500101125D0900F5500D
:10056800010113590900F550010114590900F5500A
:1005780001011559D8A003D001011D2BDDD71DC1DC
:10058800DDF00001DE6BDDBFDE0701010A5100016D
:10059800DD2701010B510001DE230101105100018B
:1005A800DD27010111510001DE230001DD510101A8
:1005B8001B5F0001DE5101011C5B01010A510101B1
:1005C8000B11D8B404D001011B07D8A01C07030ED7
:1005D800010116150001DD6F000E0101171500015C
:1005E800DE6F0001DD510001DE11D8B404D0010135
:1005F8001B07D8A01C07010116A52DD0030E010169
:1006080016150001DD6F000E010117150001DE6FE0
:100618000001DD510001DE11D8B40BD02D0E12EC13
:100628001FF007D0300E12EC1FF001011B07D8A0F5
:100638001C0701011CBF74D001011C51F3E1010129
:100648001B05D8A06DD0EED7200E12EC1FF00101CB
:100658001B07D8A01C0701011CBF07D001011C51B2
:10066800F3E101011B05D8B0EFD7030E0101161500
:100678000001DD6F000E010117150001DE6F00019A
:10068800DD510001DE11D8B44BD02D0E12EC1FF055
:1006980047D012C180F013C181F014C182F015C196
:1006A80083F001011D51040DC10EF324F66EFD0EF9
:1006B800F420F76E0900F5CF84F00900F5CF85F036
:1006C8000900F5CF86F00A00F5CF87F03EEC18F068
:1006D80080C00CF181C00DF182C00EF183C00FF112
:1006E8000CC18DF00DC18EF00EC18FF00FC190F0CE
:1006F8000A0E0001916F000E926F000E936F000EAC
:10070800946F94EC1AF08DC00CF18EC00DF18FC06F
:100718000EF190C00FF101010C51300F12EC1FF0D7
:1007280001011D0701011D29D8B408D0B2D7300E28
:1007380012EC1FF001011007D8A01107010111BF29
:1007480007D001011151F3E101011005D8B0EFD72D
:1007580001010BBF0CD001010B5105E1090E01018C
:100768000A5DD8A004D0080E01011D6F02D00AC18D
:100778001DF101011D5101010A5F000E01011DBF9C
:10078800FF0E01010B5B01011D510101D8B403D01B
:100798002E0E12EC1FF001011D513DEC06F0B0C009
:1007A80000F1B1C001F1B2C002F118C1A4F019C141
:1007B800A5F01AC1A6F000C1A1F001C1A2F002C1C2
:1007C800A3F0F3EC10F0A1C0C6F0A2C0C7F0A3C01C
:1007D800C8F048EC12F0C6C012F1C7C013F1C8C087
:1007E80014F1C9C015F16ED012C180F013C181F0A7
:1007F80014C182F015C183F001011D51040DC10E11
:10080800F324F66EFD0EF420F76E0900F5CF84F0A0
:100818000900F5CF85F00900F5CF86F00A00F5CF7D
:1008280087F03EEC18F080C00CF181C00DF182C059
:100838000EF183C00FF10CC18DF00DC18EF00EC109
:100848008FF00FC190F00A0E0001916F000E926FA9
:10085800000E936F000E946F94EC1AF08DC00CF19B
:100868008EC00DF18FC00EF190C00FF101010C5137
:10087800300F12EC1FF012C18DF013C18EF014C1AD
:100888008FF015C190F001011D51040DC10EF32424
:10089800F66EFD0EF420F76E0900F5CF91F0090011
:1008A800F5CF92F00900F5CF93F00A00F5CF94F058
:1008B80094EC1AF08DC012F18EC013F18FC014F1B0
:1008C80090C015F101011D0701011D29D8B408D0F8
:1008D8008BD7300E12EC1FF001010A07D8A00B07C6
:1008E80001010A5101010B11D8B4B3D1F2D70101AA
:1008F80016BF23D008C1D9FF09C1DAFFDECF12F134
:10090800DDCF13F10101000E13BFFF0E146F156F39
:10091800020E01010827000E0923010115AF6ED050
:10092800030E010116130101151F141F131F126D69
:10093800000E13231423152361D008C1D9FF09C160
:10094800DAFFDECFDDF0DDCFDEF0DDC012F1DEC094
:1009580013F10101146B156B020E01010827000E3B
:1009680009234CD0010E01011D6F0A0E01011D194A
:10097800D8B44DD001011D51040DC10EF324F66EFB
:10098800FD0EF420F76E0900F5500101125D090013
:10099800F550010113590900F550010114590900D6
:1009A800F55001011559D8A032D001011D2BDDD712
:1009B800010E01011D6F080E01011D19D8B427D0C1
:1009C80001011D51040D370EF324F66EFE0EF420BE
:1009D800F76E0900F5500101125D0900F55001019B
:1009E80013590900F550010114590900F550010186
:1009F8001559D8A00CD001011D2BDDD701011651C6
:100A0800800B000AD8B4AED7800AD8B4D1D7010178
:100A18001B5101011C11D8B414D0030E0101161585
:100A28000001DD6F000E010117150001DE6F0001E6
:100A3800DD510001DE11D8B404D001011B07D8A094
:100A48001C07800E01011DBF7F0E0001DD6F010133
:100A58001B5101011D5D01011C51800A0001DD5976
:100A6800D8B00BD001011D5101011B5F000E01011F
:100A78001DBFFF0E01011C5B05D0000E01011C6F9C
:100A8800000E1B6F010116A521D0030E01011615DA
:100A98000001DD6F000E010117150001DE6F000176
:100AA800DD510001DE11D8B403D02D0E12EC1FF079
:100AB80001011B5101011C11D8B42ED0300E12ECCB
:100AC8001FF001011B07D8A01C07F2D701011B5119
:100AD80001011C11D8B40DD0200E12EC1FF0010139
:100AE8001B07D8A01C0701011B5101011C11D8A428
:100AF800F3D7030E010116150001DD6F000E010189
:100B080017150001DE6F0001DD510001DE11D8B4B8
:100B180003D02D0E12EC1FF001011D5101010A6FC7
:100B28000B6B0ABF0B078AD00AC1DDF00BC1DEF0E0
:100B38000001D890DD37DE370001D890DD37DE3789
:100B4800C10E0001DD25F66EFD0EDE21F76E0900EF
:100B5800F5CF84F00900F5CF85F00900F5CF86F0D0
:100B68000A00F5CF87F012C180F013C181F014C1DB
:100B780082F015C183F03EEC18F080C08DF081C082
:100B88008EF082C08FF083C090F00A0E0001916F42
:100B9800000E926F000E936F000E946F94EC1AF093
:100BA80000018D51300F01011D6F44D012C180F03A
:100BB80013C181F014C182F015C183F00AC1DDF0C0
:100BC8000BC1DEF00001D890DD37DE370001D89088
:100BD800DD37DE37370E0001DD25F66EFE0EDE212D
:100BE800F76E0900F5CF84F00900F5CF85F009000C
:100BF800F5CF86F00A00F5CF87F03EEC18F000013B
:100C080080510F0B0101056F01010551010D300ED7
:100C1800F324F66EFF0EF420F76E0800F5CF1DF1F1
:100C280009D001011651800B000AD8B47DD7800A7B
:100C3800D8B4BCD701011D5112EC1FF001010A07FD
:100C4800D8A00B0701010A29ECE101010B29D8A45E
:100C5800E8D7D5C0F6FFD6C0F7FF0001D54BD62B95
:100C68000800F5CF1DF101011D51D8B4120011EF94
:100C780000F00001B66F0001B6AF2AD10001B66DD1
:100C88000001B651800A120FD8A0ACD0000E0001A6
:100C9800916F030E906F000E0001896F0A0E886F26
:100CA800000E0001836F640E826F0001B6510001CF
:100CB800806F816B80BF8107F4EC19F080C086F0EB
:100CC80081C087F0DFEC17F0090E000186250001CE
:100CD8008E6F000E0001872100018F6F59EC1EF006
:100CE800E90E00018E25F66EFD0E00018F21F76ECC
:100CF8000900F5CFA4F00900F5CFA5F00A00F5CF5B
:100D0800A6F0000E0001896F640E886F0001B651CD
:100D18000001866F876B86BF8707DFEC17F0120E1E
:100D28000001862500018E6F000E00018721000159
:100D38008F6F000E0001916F030E906F59EC1EF03B
:100D4800E90E00018E25F66EFD0E00018F21F76E6B
:100D58000900F5CFA1F00900F5CFA2F00A00F5CF00
:100D6800A3F0F3EC10F0A1C0B3F0A2C0B4F0A3C09C
:100D7800B5F0B3C0A1F0B4C0A2F0B5C0A3F0000EA6
:100D88000001916F030E906F000E0001836F0A0E31
:100D9800826F0001B6510001806F816B80BF8107AF
:100DA800F4EC19F080C08EF081C08FF059EC1EF081
:100DB800E90E00018E25F66EFD0E00018F21F76EFB
:100DC8000900F5CFA4F00900F5CFA5F00A00F5CF8A
:100DD800A6F0F3EC10F0A1C0B0F0A2C0B1F0A3C02F
:100DE800B2F012000001B651800A750FD8A05DD08C
:100DF800000E0001896F0A0E886F0001B6510001CC
:100E0800866F876B86BF8707DFEC17F0090E000136
:100E1800862500018E6F000E0001872100018F6F6B
:100E2800000E0001916F030E906F59EC1EF0E90E51
:100E380000018E25F66EFD0E00018F21F76E090068
:100E4800F5CFA1F00900F5CFA2F00A00F5CFA3F085
:100E5800000E0001916F030E906F000E0001836F6A
:100E68000A0E826F0001B6510001806F816B80BF4E
:100E78008107F4EC19F080C08EF081C08FF059EC36
:100E88001EF0E90E00018E25F66EFD0E00018F2181
:100E9800F76E0900F5CFA4F00900F5CFA5F00A0018
:100EA800F5CFA6F0F3EC10F096D70001B651030D7C
:100EB800E90EF324F66EFD0EF420F76E0900F5CF67
:100EC800B0F00900F5CFB1F00A00F5CFB2F012008A
:100ED8000001B651800A120FD8A0ACD0000E000154
:100EE800916F030E906F000E0001896F0A0E886FD4
:100EF800000E0001836F640E826F0001B65100017D
:100F0800806F816B80BF8107F4EC19F080C086F098
:100F180081C087F0DFEC17F0090E0001862500017B
:100F28008E6F000E0001872100018F6F59EC1EF0B3
:100F3800100E00018E25F66EFE0E00018F21F76E51
:100F48000900F5CFA4F00900F5CFA5F00A00F5CF08
:100F5800A6F0000E0001896F640E886F0001B6517B
:100F68000001866F876B86BF8707DFEC17F0120ECC
:100F78000001862500018E6F000E00018721000107
:100F88008F6F000E0001916F030E906F59EC1EF0E9
:100F9800100E00018E25F66EFE0E00018F21F76EF1
:100FA8000900F5CFA1F00900F5CFA2F00A00F5CFAE
:100FB800A3F0F3EC10F0A1C0B3F0A2C0B4F0A3C04A
:100FC800B5F0B3C0A1F0B4C0A2F0B5C0A3F0000E54
:100FD8000001916F030E906F000E0001836F0A0EDF
:100FE800826F0001B6510001806F816B80BF81075D
:100FF800F4EC19F080C08EF081C08FF059EC1EF02F
:10100800100E00018E25F66EFE0E00018F21F76E80
:101018000900F5CFA4F00900F5CFA5F00A00F5CF37
:10102800A6F0F3EC10F0A1C0B0F0A2C0B1F0A3C0DC
:10103800B2F012000001B651800A750FD8A05DD039
:10104800000E0001896F0A0E886F0001B651000179
:10105800866F876B86BF8707DFEC17F0090E0001E4
:10106800862500018E6F000E0001872100018F6F19
:10107800000E0001916F030E906F59EC1EF0100ED8
:1010880000018E25F66EFE0E00018F21F76E090015
:10109800F5CFA1F00900F5CFA2F00A00F5CFA3F033
:1010A800000E0001916F030E906F000E0001836F18
:1010B8000A0E826F0001B6510001806F816B80BFFC
:1010C8008107F4EC19F080C08EF081C08FF059ECE4
:1010D8001EF0100E00018E25F66EFE0E00018F2107
:1010E800F76E0900F5CFA4F00900F5CFA5F00A00C6
:1010F800F5CFA6F0F3EC10F096D70001B651030D2A
:10110800100EF324F66EFE0EF420F76E0900F5CFEC
:10111800B0F00900F5CFB1F00A00F5CFB2F0120037
:1011280061C180F062C181F06CEC1DF077C180F084
:1011380078C181F079C182F07AC183F0000E000194
:10114800856F000E846F0BEC17F09B0E0001E36FA8
:10115800FE0E0001E46F91EC1FF067C1ECF068C16E
:10116800EDF083C1EEF084C1EFF02DEC1BF0D80E4A
:101178000001E36FFF0E0001E46F91EC1FF09A0E7F
:101188000101216F990E0101226F400E0101236FA9
:10119800C00E0101246F7F0E0101256F440E01016D
:1011A800266F7BC180F07CC181F07DC182F07EC159
:1011B80083F024EC16F0D890000180350101296FE6
:1011C8000001813501012A6F7FC180F080C181F063
:1011D80081C182F082C183F024EC16F000018051B5
:1011E800010129130001815101012A1373C180F003
:1011F80074C181F075C182F076C183F0000E0001E0
:10120800856F010E846F0BEC17F024C195F025C192
:1012180096F026C197F054C180F055C181F0FDECDD
:101228001DF080C088F081C089F082C08AF083C038
:101238008BF045EC1AF088C092F089C093F08AC010
:1012480094F0A2EC11F092C0A1F093C0A2F094C067
:10125800A3F021C1A4F022C1A5F023C1A6F0F3ECAC
:1012680010F0A1C02BF1A2C02CF1A3C02DF1AFEC5E
:101278001FF0B80E0001D56FFF0E0001D66F29C10F
:10128800D7F02AC1D8F02BC1D9F02CC1DAF02DC182
:10129800DBF009EC00F0870E0001E36FFE0E0001A1
:1012A800E46F91EC1FF09ED073C180F074C181F09F
:1012B80075C182F076C183F0000E0001856F000EC3
:1012C800846F0BEC17F0040E0001FE6F3D0EE82E44
:1012D800FED7FE2FFCD700D024C195F025C196F08B
:1012E80026C197F054C180F055C181F0FDEC1DF086
:1012F80080C088F081C089F082C08AF083C08BF0FA
:1013080045EC1AF088C092F089C093F08AC094F036
:10131800A2EC11F092C0A1F093C0A2F094C0A3F087
:1013280021C1A4F022C1A5F023C1A6F0F3EC10F06E
:10133800A1C01EF1A2C01FF1A3C020F11EC180F000
:101348001FC181F020C182F0CD0E0001836FCC0E49
:101358000001846F3D0E0001856F7BEC17F00001E2
:10136800D8B00FD059C180F05AC181F05BC182F06A
:101378002BC183F02CC184F02DC185F07BEC17F0D4
:1013880024D056C180F057C181F058C182F02BC1DA
:1013980083F02CC184F02DC185F07BEC17F000019F
:1013A800D8B01BD089C127F18AC128F12FD05CC1E0
:1013B80080F05DC181F05EC182F02BC183F02CC149
:1013C80084F02DC185F07BEC17F00001D8B005D072
:1013D8008BC127F18CC128F119D08DC127F18EC19D
:1013E80028F114D029C1FEF02AC1FFF00001FF51F5
:1013F800000AD8A40BD00001FE51000AD8B454D773
:10140800010AD8B4BED7030AD8B4D1D76DC1ECF05D
:101418006EC1EDF027C1EEF028C1EFF02DEC1BF006
:10142800A70E0001E36FFF0E0001E46F91EC1FF0BF
:1014380067C1ECF068C1EDF087C1EEF088C1EFF04C
:101448002DEC1BF0C90E0001E36FFF0E0001E46FE5
:1014580091EC1FF067C1ECF068C1EDF085C1EEF0CA
:1014680086C1EFF02DEC1BF06F0E0001E36FFE0E4E
:101478000001E46F91EC1FF061C1F6F062C1F7F072
:1014880063C1F8F064C1F9F065C1FAF066C1FBF018
:10149800000E0001FD6F5A0EFC6F77EC1BF077C150
:1014A80080F078C181F079C182F07AC183F0000EB2
:1014B8000001856F010E846F0BEC17F0FFD7000158
:1014C800B96F6D0E0001B965BAD0000E0001916FB9
:1014D800030E906F000E0001896F0A0E886F000ED0
:1014E8000001836F640E826FB9C080F00001816BC8
:1014F800F4EC19F080C086F081C087F0DFEC17F0BB
:10150800090E0001862500018E6F000E000187215B
:1015180000018F6F59EC1EF0E90E00018E25F66E62
:10152800FD0E00018F21F76E0900F5CFA4F0090028
:10153800F5CFA5F00A00F5CFA6F0000E0001896FDF
:10154800640E886FB9C086F00001876BDFEC17F076
:10155800120E0001862500018E6F000E0001872102
:1015680000018F6F000E0001916F030E906F59EC10
:101578001EF0E90E00018E25F66EFD0E00018F218A
:10158800F76E0900F5CFA1F00900F5CFA2F00A0027
:10159800F5CFA3F0F3EC10F0A1C0B6F0A2C0B7F0FD
:1015A800A3C0B8F0000E0001916F030E906F000EFB
:1015B8000001836F0A0E826FB9C080F00001816B51
:1015C800F4EC19F080C08EF081C08FF059EC1EF059
:1015D800E90E00018E25F66EFD0E00018F21F76ED3
:1015E8000900F5CFA4F00900F5CFA5F00A00F5CF62
:1015F800A6F0B6C0A1F0B7C0A2F0B8C0A3F0F3EC53
:1016080010F0A1C0B3F0A2C0B4F0A3C0B5F0B3C04D
:10161800A1F0B4C0A2F0B5C0A3F0000E0001A46F01
:10162800000E0001A56F3F0E0001A66FF3EC10F04D
:10163800A1C0B0F0A2C0B1F0A3C0B2F012000A0E6F
:101648000001B9656ED0000E0001916F030E906F16
:10165800000E0001836F0A0E826FB9C080F000018E
:10166800816BF4EC19F080C08EF081C08FF059ECDA
:101678001EF0E90E00018E25F66EFD0E00018F2189
:10168800F76E0900F5CFA4F00900F5CFA5F00A0020
:10169800F5CFA6F0000E0001896F0A0E886FB9C059
:1016A80086F00001876BDFEC17F0090E0001862534
:1016B80000018E6F000E0001872100018F6F000E60
:1016C8000001916F030E906F59EC1EF0E90E0001B6
:1016D8008E25F66EFD0E00018F21F76E0900F5CFFD
:1016E800A1F00900F5CFA2F00A00F5CFA3F0F3ECC2
:1016F80010F0A1C0B6F0A2C0B7F0A3C0B8F0B6C051
:10170800A1F0B7C0A2F0B8C0A3F0000E0001A46F0A
:10171800000E0001A56F3F0E0001A66FF3EC10F05C
:1017280087D70001B951030DE90EF324F66EFD0EBB
:10173800F420F76E0900F5CFA1F00900F5CFA2F06B
:101748000A00F5CFA3F0000E0001A46F000E0001FF
:10175800A56F3F0E0001A66FF3EC10F0A1C0B0F02A
:10176800A2C0B1F0A3C0B2F01200BCC0C0F000012A
:10177800C16BC26B0001BB350001C03701E3C181F9
:101788000001C0510001C56FBFC0C0F00001C16BAE
:10179800C26B0001BE350001C03701E3C181000101
:1017A800C0510001C46F0001C5510001D8B411D067
:1017B8000001C4510001C55DD8B012D00001C55167
:1017C80000080001C4250001C06F180E0001C065A3
:1017D80007D0BDC0BAF0BEC0BBF0BFC0BCF012009D
:1017E8000001C4510001D8B411D00001C551000155
:1017F800C45DD8B012D00001C45100080001C5254D
:101808000001C06F180E0001C06507D0BAC0BAF059
:10181800BBC0BBF0BCC0BCF01200060E0001C36F19
:101828000001BCAF02D00001C38F0001BFAF02D0DE
:101838000001C38D0001BB8FFF0E0001BA17FF0E18
:101848000001BB17000E0001BC170001BE8FFF0E80
:101858000001BD17FF0E0001BE17000E0001BF17E3
:101868000001C4510001C55DD8B025D00001D89051
:10187800BD37BE37BF370001C4070001C55100019D
:10188800C419D8B411D00001C307C3C0C0F0070EF3
:101898000001C017D8B408D0E9D70001D890BC33EC
:1018A800BB33BA330001C52B0001C4510001C5196F
:1018B800D8B42BD0F2D70001C5510001C45DD8B00F
:1018C80024D00001D890BA37BB37BC370001C50710
:1018D8000001C5510001C419D8B411D00001C307D3
:1018E800C3C0C0F0070E0001C017D8B408D0E9D7AC
:1018F8000001D890BF33BE33BD330001C42B0001B3
:10190800C4510001C519D8A4F3D70001C3AF12D040
:10191800FF0E0001BA1BFF0E0001BB1BFF0E0001EA
:10192800BC1B010E0001BA27000E0001BB23000EEC
:101938000001BC230001C3AD12D0FF0E0001BD1B86
:10194800FF0E0001BE1BFF0E0001BF1B010E0001B0
:10195800BD27000E0001BE23000E0001BF23000EAC
:101968000001C36F0001BA510001BD270001BB513E
:101978000001BE230001BC510001BF230001BFAF1D
:1019880015D0FF0E0001BD1BFF0E0001BE1BFF0E90
:101998000001BF1B010E0001BD27000E0001BE2380
:1019A800000E0001BF23010E0001C36FBDC080F00F
:1019B800BEC081F0BFC082F0C5C083F0C3C084F050
:1019C80028EC14F080C0BAF081C0BBF082C0BCF033
:1019D8001200F2A402D0010E01D0000E0C6E0D6AA6
:1019E8009EA002D0010E01D0000E0E6E0F6A9EA2BC
:1019F80002D0010E01D0000E106E116AA1A202D011
:101A0800010E01D0000E126E136A000E156E000E44
:101A1800146E15BE08D0155005E1040E145CD8B03C
:101A2800120001D01200D8901434D96E1534DA6E31
:101A38000C0ED926000EDA22DE50DE10D8B4ABD058
:101A4800D8901434D96E1534DA6E4A0ED926010EA0
:101A5800DA22DECF01F0DDCF02F0D8901434D96E4F
:101A68001534DA6E420ED926010EDA22DECF03F0E3
:101A7800DDCF04F09CEC18F001500210D8B42FD040
:101A880014C001F015C002F0AF0E036E3C0E046ED8
:101A9800000E056E000E066E46EC1DF0D89014344C
:101AA800D96E1534DA6E4A0ED926010EDA22DECF47
:101AB80001F0DDCF02F0D8901434D96E1534DA6E07
:101AC800420ED926010EDA22DECF03F0DDCF04F074
:101AD800000E066E000E056E4CEC19F047D014C0CF
:101AE80001F015C002F0320E0A6E010E0B6ED8908E
:101AF8001434D96E1534DA6ED890D936DA360A50DD
:101B0800D9260B50DA22DECF03F0DECF04F0DECF89
:101B180005F0DECF06F046EC1DF0D8901434D96EEF
:101B28001534DA6E4A0ED926010EDA22DECF01F01C
:101B3800DDCF02F0D8901434D96E1534DA6E420E27
:101B4800D926010EDA22DECF03F0DDCF04F0000E35
:101B5800066E010E056E4CEC19F008D0F2941BD0FD
:101B68009E9019D09E9217D0A19215D014C00AF059
:101B780015C00BF00B50000AD8A40DD00A50000A6B
:101B8800D8B4ECD7010AD8B4EBD7030AD8B4EAD74B
:101B9800010AD8B4E9D7144A152A15BE44D71550F6
:101BA80001E13BD712002DC031F0326A336A2C3480
:101BB800313601E332803150366E30C031F0326A4E
:101BC800336A2F34313601E332803150356E365066
:101BD800D8B40BD03550365CD8B00ED0365000088B
:101BE8003524316E180E316407D02EC02BF02FC06B
:101BF8002CF030C02DF012003550D8B40BD0365030
:101C0800355CD8B00ED0355000083624316E180E29
:101C1800316407D02BC02BF02CC02CF02DC02DF038
:101C28001200060E346E2DBE348E30BE348C2C8ECF
:101C3800FF0E2B16FF0E2C16000E2D162F8EFF0EE4
:101C48002E16FF0E2F16000E30163550365CD8B003
:101C58001BD0D8902E362F363036350636503518EC
:101C6800D8B40DD0340634C031F0070E3116D8B4CC
:101C780006D0EFD7D8902D322C322B32362A355059
:101C88003618D8B41FD0F6D73650355CD8B01AD02D
:101C9800D8902B362C362D36360636503518D8B413
:101CA8000DD0340634C031F0070E3116D8B406D042
:101CB800EFD7D89030322F322E32352A3550361899
:101CC800D8A4F7D734AE0CD0FF0E2B1AFF0E2C1A5F
:101CD800FF0E2D1A010E2B26000E2C22000E2D228F
:101CE80034AC0CD0FF0E2E1AFF0E2F1AFF0E301A2E
:101CF800010E2E26000E2F22000E3022000E346E0A
:101D08002B502E262C502F222D50302230AE0ED0A4
:101D1800FF0E2E1AFF0E2F1AFF0E301A010E2E2656
:101D2800000E2F22000E3022010E346E2EC001F05C
:101D38002FC002F030C003F036C004F034C005F004
:101D4800F5EC18F001C02BF002C02CF003C02DF008
:101D5800120082C086F00001876B886B0001813514
:101D68000001863701E387810001865100018E6FEB
:101D780000018E51D8A40AD0000E0001806F000E19
:101D8800816F000E826F000E836F120085C086F08F
:101D98000001876B886B000184350001863701E3F9
:101DA80087810001865100018D6F00018D51D8A4F3
:101DB8000AD0000E0001806F000E816F000E826F46
:101DC800000E836F12000001818FFF0E0001801743
:101DD800FF0E00018117000E000182170001848F99
:101DE800FF0E00018317FF0E00018417000E00018B
:101DF8008517000E0001896F000E8A6F000E8B6F29
:101E0800000E8C6F7F0E00018E5F00018D51980FC0
:101E180000018E5F180E00018D6F0001D890893780
:101E28008A378B378C37000183510001805D0001B0
:101E38008451000181590001855100018259D8A0BF
:101E48000ED0000183510001805F00018451000120
:101E5800815B000185510001825B000189810001DD
:101E6800D89080378137823700018D2FD6D700016F
:101E78008EAF1AD000018E51800A970FD8B00AD0C1
:101E8800000E0001806F000E816F000E826F000E41
:101E9800836F12000001D8908C338B338A338933D7
:101EA80000018E3FF7D71BD0170E00018E6512D0A8
:101EB800000E0001806F000E816F000E826F000E11
:101EC800836F12000001D89089378A378B378C3797
:101ED80000018E0700018E510001D8A4F3D789C0F4
:101EE80080F08AC081F08BC082F08CC083F0120031
:101EF80000018235833500018B6F00018B51D8A416
:101F08000AD0000E0001806F000E816F000E826FF4
:101F1800000E836F120000018535863500018A6F37
:101F280000018A51D8A40AD0000E0001806F000E6B
:101F3800816F000E826F000E836F12000001828F86
:101F4800FF0E00018017FF0E8117FF0E8217000E8B
:101F580083170001858FFF0E00018317FF0E84177A
:101F6800FF0E8517000E8617000E0001866F000E03
:101F7800876F000E886F000E896F7F0E00018B5FE0
:101F880000018A51A00F00018B5F200E00018A6FAB
:101F98000001D89086378737883789370001835101
:101FA8000001805D000184510001815900018551C3
:101FB800000182590001865100018359D8A012D02E
:101FC800000183510001805F000184510001815BA1
:101FD800000185510001825B000186510001835B8D
:101FE800000186810001D890803781378237833796
:101FF80000018A2FCDD700018BAF1AD000018B5179
:10200800800A9F0FD8B00AD0000E0001806F000E22
:10201800816F000E826F000E836F12000001D8904E
:10202800893388338733863300018B3FF7D71BD03A
:102038001F0E00018B6512D0000E0001806F000E8C
:10204800816F000E826F000E836F12000001D8901E
:10205800863787378837893700018B0700018B510E
:102068000001D8A4F3D786C080F087C081F088C06B
:1020780082F089C083F01200000E0001DD6F000EAF
:10208800DE6F000EDF6F000EE06FE20E0001E86FFA
:10209800040EE96F000EEA6F000EEB6F6A0E000186
:1020A800E16F180EE26F000EE36F000EE46FE8C0F8
:1020B800D9F0E9C0DAF0EAC0DBF0EBC0DCF00001EF
:1020C800D91FDA1FDB1FDC1FD92B000EDA23DB2315
:1020D800DC230001E1510001D9250001886F0001CE
:1020E800E2510001DA210001896F0001E35100018A
:1020F800DB2100018A6F0001E4510001DC210001AD
:102108008B6F45EC1AF088C0A4F089C0A5F08AC08E
:10211800A6F0000E0001956F340E0001966F430E75
:102128000001976FD5C088F0D6C089F0DBEC1DF0B0
:1021380088C092F089C093F08AC094F0A2EC11F0A4
:1021480092C0A1F093C0A2F094C0A3F0F3EC10F0F9
:10215800A1C0BDF0A2C0BEF0A3C0BFF0E8C088F027
:10216800E9C089F0EAC08AF0EBC08BF045EC1AF0C0
:1021780088C0BAF089C0BBF08AC0BCF0B9EC0BF0DB
:10218800BAC0E5F0BBC0E6F0BCC0E7F0DDC088F03F
:10219800DEC089F0DFC08AF0E0C08BF045EC1AF0B1
:1021A80088C0BDF089C0BEF08AC0BFF0E5C0BAF0F3
:1021B800E6C0BBF0E7C0BCF0B9EC0BF0BAC0C6F0A3
:1021C800BBC0C7F0BCC0C8F048EC12F0C6C0D5F020
:1021D800C7C0D6F0C8C0D7F0C9C0D8F01200A3C095
:1021E800A7F00001A86BA96B0001A2350001A73771
:1021F80001E3A8810001A7510001AA6F0001AA51BB
:10220800D8A40AD0000E0001A16F000E0001A26F31
:10221800000E0001A36F1200A6C0A7F00001A86B72
:10222800A96B0001A5350001A73701E3A8810001CA
:10223800A7510001AF6F0001AF51D8A40AD0000E1A
:102248000001A16F000E0001A26F000E0001A36F34
:1022580012000001AF517B0F0001AA27A3C0AFF005
:102268000001A6510001AF1B800E0001AF1700014D
:10227800A28F0001A58FFF0E0001A417FF0E000119
:10228800A517000E0001A617000E0001AB6F000E87
:102298000001AC6F000E0001AD6F070E0001AE6FBC
:1022A8000001A1A10CD00001A4510001AB2700013D
:1022B800A5510001AC230001A6510001AD23000186
:1022C800D890A333A233A1330001D890A437A537FF
:1022D800A6370001AE2FE4D7090E0001AE6F00014A
:1022E800A1A10CD00001A4510001AB270001A55108
:1022F8000001AC230001A6510001AD230001D890D4
:10230800A333A233A1330001D890AD33AC33AB3340
:102318000001AE2FE4D7ABC080F0ACC081F0ADC0F7
:1023280082F0AAC083F0AFC084F028EC14F080C01B
:10233800A1F081C0A2F082C0A3F0120094C098F06E
:102348000001996B9A6B000193350001983701E3FE
:1023580099810001985100019F6F00019F51D8A4F5
:102368000AD0000E0001926F000E0001936F000E5C
:102378000001946F120097C098F00001996B9A6B56
:10238800000196350001983701E3998100019851C1
:102398000001A06F0001A051D8A40AD0000E0001CE
:1023A800926F000E0001936F000E0001946F1200EF
:1023B800000E00019C6F000E00019D6F000E0001D1
:1023C8009E6F0001A051890F00019F5F94C0A0F08B
:1023D800000197510001A01B800E0001A017000109
:1023E800938FFF0E00019217FF0E00019317000E46
:1023F800000194170001968FFF0E00019517FF0E3C
:1024080000019617000E00019717180E00019B6F28
:102418000001D8909C379D379E37000195510001E7
:10242800925D0001965100019359000197510001F6
:102438009459D8A00ED0000195510001925F000177
:1024480096510001935B000197510001945B0001D4
:102458009C810001D89092379337943700019B2FC5
:10246800D7D79CC080F09DC081F09EC082F09FC0ED
:1024780083F0A0C084F028EC14F080C092F081C0F2
:1024880093F082C094F01200C8C0CAF00001CB6B70
:10249800CC6B0001C7350001CA3701E3CB810001CD
:1024A800CA510001D46F0001D451D8A40AD0000E3B
:1024B8000001C66F000EC76F000EC86F000EC96F0F
:1024C8001200170E0001CA6FC6C0CBF0C7C0CCF00F
:1024D800C8C0CDF00001CA290001CE6F05D00001A7
:1024E800D890CD33CC33CB330001CE2FF8D70001B1
:1024F800CB510001CF6F0001C78FFF0E0001C61737
:10250800FF0E0001C717000E0001C8170001C651D1
:102518000001D06F0001C7510001D16F0001C851FF
:102528000001D26F0001D36B8E0E0001D45F000151
:10253800D4AF1AD00001D451800A8F0FD8B00AD076
:10254800000E0001C66F000EC76F000EC86F000EA8
:10255800C96F12000001D890D333D233D133D033AE
:102568000001D43FF7D71BD0170E0001D46512D055
:10257800000E0001C66F000EC76F000EC86F000E78
:10258800C96F12000001D890D037D137D237D3376E
:102598000001D4070001D4510001D8A4F3D70001E9
:1025A800CF510001D8B409D00001D31FD21FD11FC9
:1025B800D06D000ED123D223D323D0C0C6F0D1C012
:1025C800C7F0D2C0C8F0D3C0C9F01200000E4E6EDA
:1025D800000E4F6E000E506E000E516EE20E596ED8
:1025E800040E5A6E000E5B6E000E5C6E6A0E526E22
:1025F800180E536E000E546E000E556E59C04AF0F8
:102608005AC04BF05BC04CF05CC04DF04A1E4B1EEC
:102618004C1E4D1E4A2A000E4B224C224D2252506F
:102628004A24096E53504B200A6E54504C200B6EAE
:1026380055504D200C6E2FEC1CF009C01FF00AC03D
:1026480020F00BC021F0000E106E340E116E430EF8
:10265800126E46C009F047C00AF03DEC1EF009C0F2
:102668000DF00AC00EF00BC00FF098EC16F00DC07C
:102678001CF00EC01DF00FC01EF0AAEC15F01CC017
:102688002EF01DC02FF01EC030F059C009F05AC0FE
:102698000AF05BC00BF05CC00CF02FEC1CF009C01A
:1026A8002BF00AC02CF00BC02DF0D7EC0DF02BC08E
:1026B80056F02CC057F02DC058F04EC009F04FC04E
:1026C8000AF050C00BF051C00CF02FEC1CF009C000
:1026D8002EF00AC02FF00BC030F056C02BF057C0B8
:1026E8002CF058C02DF0D7EC0DF02BC037F02CC0D3
:1026F80038F02DC039F030EC15F037C046F038C04E
:1027080047F039C048F03AC049F012000600FACF45
:1027180067F0FBCF68F0E9CF69F0EACF6AF0E1CF64
:102728006BF0E2CF6CF0D9CF6DF0DACF6EF0F3CF6B
:102738006FF0F4CF70F0F6CF71F0F7CF72F0F8CFFA
:1027480073F0F5CF74F0EDEC0CF0F2A206D0F29233
:10275800000E0101606F010E5F6FF0A057D0F0907E
:1027680081380F0B0F0B756E7550D8A40AD0000E68
:102778005E6E000E5D6E000E606E1E0E5F6E6BEC80
:102788001CF07504D8A40AD0000E5E6E000E5D6EB3
:10279800000E606E5A0E5F6E6BEC1CF0020E751820
:1027A800D8A40AD0000E5E6E000E5D6E000E606E3C
:1027B800870E5F6E6BEC1CF0040E7518D8A40AD057
:1027C800000E5E6E030E5D6E000E606E500E5F6E44
:1027D8006BEC1CF0050E7518D8A40AD0000E5E6EBE
:1027E800030E5D6E000E606E5A0E5F6E6BEC1CF091
:1027F800060E7518D8A40AD0000E5E6E030E5D6E24
:10280800000E606E640E5F6E6BEC1CF074C0F5FF1A
:1028180073C0F8FF72C0F7FF71C0F6FF70C0F4FF15
:102828006FC0F3FF6EC0DAFF6DC0D9FF6CC0E2FF66
:102838006BC0E1FF6AC0EAFF69C0E9FF68C0FBFF3F
:1028480067C0FAFF78921100000183510001D8B4E3
:1028580008D0000180510001811100018211D8A423
:1028680011D0000E0001806F000E0001816F000E74
:102878000001826F12000001832B0001D89082337F
:1028880081338033000E000180150001856F000E32
:10289800000181150001866FFE0E000182150001FE
:1028A800876F000185510001861100018711D8B496
:1028B80011D0E1D70001832B010E00018027000E03
:1028C80000018123000E000182230001D890823389
:1028D80081338033000E000180150001856F000EE2
:1028E800000181150001866FFF0E000182150001AD
:1028F800876F000185510001861100018711D8B446
:1029080008D0D8D7000183070001D89080378137D5
:102918008237000181BF04D0020E00018361F2D723
:10292800000183B102D00001819F0001D890833358
:102938000001835100018213000184510001D8B4C1
:1029480002D00001828F80C080F081C081F082C0F7
:1029580082F0120072EC1FF0D3EC1EF0410AD8A4EA
:10296800FBD75FEC1FF0D3EC1EF00001E46F420EC2
:102978000001E419D8B40AD0430E0001E419D8B410
:1029880005D02A0E0001E419D8A4EDD7430E0001A2
:10299800E419D8A456D04CEC1FF0D3EC1EF000017B
:1029A800E46F310E0001E419D8B414D0320E0001DE
:1029B800E419D8B40FD0330E0001E419D8B40AD002
:1029C800340E0001E419D8B405D02A0E0001E41928
:1029D800D8A4E3D72A0E0001E419D8B4C2D700015D
:1029E800E45174EC1EF0D3EC1EF00001E46F410ECC
:1029F8000001E419D8B40AD0420E0001E419D8B491
:102A080005D02A0E0001E419D8A4EDD7410E000123
:102A1800E419D8A403D026EC1FF00DD0420E000113
:102A2800E419D8A403D039EC1FF005D02A0E000110
:102A3800E419D8B496D7D3EC1EF02A0AD8B4CFD765
:102A4800FAD7420E0001E419D8B412002A0E000188
:102A5800E419D8B47FD785D739C03BF03C6A3D6AC2
:102A680038343B3601E33C803B50456E4550D8A492
:102A780009D0000E376E000E386E000E396E000E4B
:102A88003A6E1200170E3B6E37C03CF038C03DF06E
:102A980039C03EF03B283F6E04D0D8903E323D32DC
:102AA8003C323F2EFAD73C50406E388EFF0E371618
:102AB800FF0E3816000E39163750416E3850426EE8
:102AC8003950436E446A8E0E455E45AE16D0455069
:102AD800800A8F0FD8B009D0000E376E000E386EFE
:102AE800000E396E000E3A6E1200D890443243320E
:102AF80042324132453EF9D715D0170E45640FD002
:102B0800000E376E000E386E000E396E000E3A6EEB
:102B18001200D89041364236433644364506455071
:102B2800D8A4F7D74050D8B408D0441E431E421E3C
:102B3800416C000E42224322442241C037F042C079
:102B480038F043C039F044C03AF012001EC022F0F9
:102B5800236A246A1D34223601E323802250256E1D
:102B68002550D8A407D0000E1C6E000E1D6E000E56
:102B78001E6E120021C022F0236A246A20342236F5
:102B880001E3238022502A6E2A50D8A407D0000ED1
:102B98001C6E000E1D6E000E1E6E12002A507B0F5A
:102BA80025261EC02AF021502A1A800E2A161D8EAC
:102BB800208EFF0E1F16FF0E2016000E2116000E87
:102BC800266E000E276E000E286E070E296E1CA0BA
:102BD80006D01F5026262050272221502822D89080
:102BE8001E321D321C32D8901F3620362136292E2F
:102BF800EED7090E296E1CA006D01F50262620509D
:102C0800272221502822D8901E321D321C32D890FB
:102C1800283227322632292EEED726C001F027C0C7
:102C280002F028C003F025C004F02AC005F0F5EC36
:102C380018F001C01CF002C01DF003C01EF0120005
:102C480058D082C084F080CF85F00001842B03D057
:102C58000001D89085330001842FFAD7010E0001B6
:102C68008517000185510001806F816B120082C0B9
:102C780084F081CF85F00001842B03D00001D89027
:102C880085330001842FFAD7010E00018517000152
:102C980085510001806F816B120082C084F082CF61
:102CA80085F00001842B03D00001D8908533000102
:102CB800842FFAD7010E0001851700018551000104
:102CC800806F816B120082C084F083CF85F0000191
:102CD800842B03D00001D89085330001842FFAD7C4
:102CE800010E00018517000185510001806F816B7D
:102CF800120080C084F081C085F000018551000A6F
:102D0800D8A40ED000018451000AD8B49AD7010A79
:102D1800D8B4ADD7030AD8B4C0D7010AD8B4D3D72A
:102D280000018069816912000FC013F0146A156AE6
:102D38000E34133601E3148013501A6E1A50D8A4B7
:102D480007D0000E0D6E000E0E6E000E0F6E1200F4
:102D580012C013F0146A156A1134133601E3148093
:102D680013501B6E1B50D8A407D0000E0D6E000E1A
:102D78000E6E000E0F6E1200000E176E000E186E0B
:102D8800000E196E1B50890F1A5E0FC01BF01250EF
:102D98001B1A800E1B160E8EFF0E0D16FF0E0E163A
:102DA800000E0F16118EFF0E1016FF0E1116000ED4
:102DB8001216180E166ED890173618361936105087
:102DC8000D5C11500E5812500F58D8A007D0105053
:102DD8000D5E11500E5A12500F5A1780D8900D36AA
:102DE8000E360F36162EE7D717C001F018C002F0BE
:102DF80019C003F01AC004F01BC005F0F5EC18F078
:102E080001C00DF002C00EF003C00FF0120082C026
:102E180086F0010E0001876F000E0001886F000127
:102E2800862B04D0D8900001873788370001862F79
:102E3800F9D787C082F088C083F00001845100016F
:102E48008511D8A43CD0FF0E0001821B38D00001A8
:102E5800840500018511D8A404D00001825189128B
:102E68001200000182518916120000018405000138
:102E78008511D8A404D0000182518A1212000001E1
:102E880082518A1612000001840500018511D8A418
:102E980004D0000182518B121200000182518B165E
:102EA80012000001840500018511D8A404D0000196
:102EB80082518C121200000182518C16120080C0BF
:102EC80086F081C087F000018751000AD8A412005B
:102ED80000018651000AD8B4BAD7010AD8B4C5D7B8
:102EE800030AD8B4D0D7010AD8A41200DAD700014F
:102EF80082AF1DD080C086F081C087F082C088F084
:102F08000001861F871F881F862B000E87238823B2
:102F1800000E000186250001806F000E0001872148
:102F28000001816F800E000188210001826F00017D
:102F380085AF1DD083C086F084C087F085C088F037
:102F48000001861F871F881F862B000E8723882372
:102F5800000E000186250001836F000E0001872105
:102F68000001846F800E000188210001856F000E2A
:102F78000001801B000E0001811B800E0001821BD6
:102F8800000E0001831B000E0001841B800E00014F
:102F9800851B000183510001805D000184510001FF
:102FA80081590001855100018259D8B002D0D890CA
:102FB8001200D8801200000E00018B6F000189AF4B
:102FC80008D00001886D891FD8B0892B010E000137
:102FD8008B6F000187AF08D00001866D871FD8B0BE
:102FE800872B010E00018B1B000E00018D6F000E58
:102FF8008C6F0001885100018911D8B42CD0010EC2
:1030080000018A6F06D00001D890883789370001FF
:103018008A2B000189AFF7D70001D8908C378D37FC
:10302800000188510001865D00018951000187591E
:10303800D8A00AD0000188510001865F000189519B
:103048000001875B00018C810001D89089338833A7
:1030580000018A2FE1D700018B510001D8B405D0B7
:1030680000018C6D8D1FD8B08D2B8CC086F08DC063
:1030780087F01200000E0001886F000E896F000EA5
:103088008A6F000E8B6F00018451000185110001C9
:10309800861100018711D8B442D0010E00018C6F4F
:1030A80008D00001D89084378537863787370001E4
:1030B8008C2B000187AFF5D70001D8908837893766
:1030C8008A378B37000184510001805D00018551EA
:1030D8000001815900018651000182590001875180
:1030E80000018359D8A012D0000184510001805FEB
:1030F800000185510001815B000186510001825B5E
:10310800000187510001835B000188810001D8908C
:10311800873386338533843300018C2FCDD788C01D
:1031280080F089C081F08AC082F08BC083F01200E1
:1031380040D003C005F080CF06F0052A02D0D89011
:103148000632052EFCD7010E06160650016E026ADD
:10315800120003C005F081CF06F0052A02D0D890EE
:103168000632052EFCD7010E06160650016E026ABD
:10317800120003C005F082CF06F0052A02D0D890CD
:103188000632052EFCD7010E06160650016E026A9D
:10319800120003C005F083CF06F0052A02D0D890AC
:1031A8000632052EFCD7010E06160650016E026A7D
:1031B800120001C005F002C006F00650000AD8A4AB
:1031C8000DD00550000AD8B4B4D7010AD8B4C1D775
:1031D800030AD8B4CED7010AD8B4DBD7016802688D
:1031E80012000450D8B405D0015002100310D8A41E
:1031F8000CD0000E016E000E026E000E036E12005F
:10320800042AD890033202320132000E0114066EED
:10321800000E0214076EFE0E0314086E0650071007
:103228000810D8B40CD0ECD7042A010E0126000EE1
:103238000222000E0322D890033202320132000E1D
:103248000114066E000E0214076EFF0E0314086EBA
:10325800065007100810D8B406D0E6D70406D89050
:1032680001360236033602BE03D0020E0460F6D7DA
:1032780004A0029ED8900432045003120550D8A42A
:10328800038E01C001F002C002F003C003F0120077
:1032980003C007F0010E086E000E096E072A03D05E
:1032A800D89008360936072EFBD708C003F009C0A6
:1032B80004F005500610D8A42BD0FF0E031A28D00E
:1032C80005040610D8A403D0035089121200035035
:1032D8008916120005040610D8A403D003508A12D8
:1032E800120003508A16120005040610D8A403D051
:1032F80003508B12120003508B161200050406109F
:10330800D8A403D003508C12120003508C1612005C
:1033180001C007F002C008F00850000AD8A4120043
:103328000750000AD8B4CCD7010AD8B4D3D7030AB7
:10333800D8B4DAD7010AD8A41200E0D71EEC1EF0E0
:10334800B6EC1DF085EC1FF0E1EC1AF083C030F10B
:1033580084C031F1AFEC1FF0AF0E0001D56FFE0E47
:103368000001D66F010120EE04F03051D926315109
:10337800DA22DECFD7F0DDCFD8F0010120EE02F05F
:103388003051D9263151DA22DECFD9F0DDCFDAF04B
:1033980030C1D9FF31C1DAFFDECFDBF0DDCFDCF0A1
:1033A80009EC00F0020E01012F6F450E01012E6F8E
:1033B800A90EE82EFED72E2FFCD72F2FFAD700D034
:1033C800C3D701015F5101016011D8B4FAD794EC59
:1033D80008F0000E0101606F000E5F6FF2D7FFD793
:1033E800000E0001856F000181AF08D00001806DDB
:1033F800811FD8B0812B010E0001856F000183AFBA
:1034080005D00001826D831FD8B0832B0001825143
:1034180000018311D8B426D0010E0001846F06D0B4
:103428000001D890823783370001842B000183AFD5
:10343800F7D7000182510001805D0001835100012E
:103448008159D8A008D0000182510001805F000195
:1034580083510001815B0001D890833382330001DE
:10346800842FE7D7000185510001D8B405D00001A9
:10347800806D811FD8B0812B80C080F081C081F021
:103488001200000E0001916F8E0E0001906F000176
:103498008BAF15D000018B1F8A1F891F886D000E06
:1034A80089238A238B23010E0001916F08D0000124
:1034B800D8908B338A33893388330001902B000EE0
:1034C8000001881500018C6F000E000189150001AC
:1034D8008D6F000E00018A1500018E6FFF0E00012E
:1034E8008B1500018F6F00018C5100018D110001B7
:1034F8008E1100018F11D8A4DAD788C080F089C056
:1035080081F08AC082F090C083F091C084F028ECEA
:1035180014F080C088F081C089F082C08AF012005F
:1035280000019151000192110001931100019411C1
:10353800D8B43AD0010E0001956F08D00001D89098
:1035480091379237933794370001952B000194AF48
:10355800F5D70001915100018D5D000192510001E4
:103568008E590001935100018F59000194510001B7
:103578009059D8A010D00001915100018D5F000131
:10358800925100018E5B0001935100018F5B000195
:1035980094510001905B0001D89094339333923397
:1035A80091330001952FD5D78DC08DF08EC08EF048
:1035B8008FC08FF090C090F01200B7EC1FF0000E93
:1035C8000001826FD00E816FA6EC1FF0000E000183
:1035D800826F000E816FA6EC1FF0B3EC1FF0B7EC02
:1035E8001FF0000E0001826FD10E816FA6EC1FF054
:1035F800000E0001956F050E0001956501D016D0EB
:10360800010EBCEC1EF00001856F866B0001955120
:10361800020D870EF324D96E000EF420DA6E85C0F1
:10362800DEFF86C0DDFF0001952BE5D7000EBCEC60
:103638001EF00001856F000185510001936F946BA6
:10364800B3EC1FF0870E0001836F000E0001846F3A
:103658001200EEC0D5F0EFC0D6F040EC10F000013B
:10366800D51F0001D61F0001D71F0001D81F000178
:10367800D52B000E0001D6230001D7230001D82343
:10368800FF0E0001D5250001F06FFF0E0001D621C5
:103698000001F16F000E0001D7210001F26F000E4A
:1036A8000001D8210001F36F320E0001F46F010E02
:1036B8000001F56FD8900001EC35D96E0001ED35A9
:1036C800DA6ED890D936DA360001F451D9260001DD
:1036D800F551DA22F0C0DEFFF1C0DEFFF2C0DEFFF6
:1036E800F3C0DEFF1200D8900001F635D96E000154
:1036F800F735DA6E4A0ED926010EDA22F8C0DEFF57
:10370800F9C0DDFFD8900001F635D96E0001F73514
:10371800DA6E420ED926010EDA22FAC0DEFFFBC0AD
:10372800DDFFF6C0ECF0F7C0EDF0FCC0EEF0FDC038
:10373800EFF02DEC1BF0F6C080F0F7C081F091ECB3
:103748001DF0F6C080F0F7C081F0000E0001826F16
:10375800000E836F000E846F000E856FF8EC1CF06E
:1037680012008E0E0001906F08D00001D8908B33A4
:103778008A33893388330001902B000E00018815A5
:1037880000018C6F000E0001891500018D6F000E7D
:1037980000018A1500018E6FFF0E00018B150001D4
:1037A8008F6F00018C5100018D1100018E110001F5
:1037B8008F11D8A4DAD788C080F089C081F08AC078
:1037C80082F090C083F0000E0001846F28EC14F0A2
:1037D80080C088F081C089F082C08AF012000001A0
:1037E800816F00018151F00B0001806F8C500F0B2D
:1037F8008C6E000180518C108C6E8C96D60E00D089
:1038080000D0E82EFCD700D08C86D60E00D000D091
:10381800E82EFCD700D000018139F00B0001816F40
:1038280000018151F00B0001806F8C500F0B8C6EE2
:10383800000180518C108C6E8C96D60E00D000D072
:10384800E82EFCD700D08C86D60E00D000D0E82E0B
:10385800FCD700D01200000E126E8E0E116E0CAE48
:1038680011D00C1E0B1E0A1E096C000E0A220B2218
:103878000C22010E126E06D0D8900C320B320A328E
:103888000932112A000E09140D6E000E0A140E6E6C
:10389800000E0B140F6EFF0E0C14106E0D500E1050
:1038A8000F101010D8A4E8D709C001F00AC002F020
:1038B8000BC003F011C004F012C005F0F5EC18F0CD
:1038C80001C009F002C00AF003C00BF012005FC08B
:1038D80046F060C047F0EAEC12F0461E471E481E4C
:1038E800491E462A000E472248224922FF0E462436
:1038F800616EFF0E4720626E000E4820636E000E58
:103908004920646E320E656E010E666ED8905D3485
:10391800D96E5E34DA6ED890D936DA366550D92643
:103928006650DA2261C0DEFF62C0DEFF63C0DEFFE0
:1039380064C0DEFF1200000EC76E280EC66E000EB1
:10394800C56E800E0001806F960E816F980E826F93
:10395800000E836F8DC091F08EC092F08FC093F0EF
:1039680090C094F0020ED8900001913792379337A7
:103978009437E82EF8D791C084F092C085F093C0B0
:1039880086F094C087F03EEC18F000018005C86E00
:103998009486948812004A0EF66E3D0EF76E000E5D
:1039A800F86E01EE61F010EE2EF00900F5CFEEFF93
:1039B800E550E150FAE1760EF66E3F0EF76E000E16
:1039C800F86E0900F5CF76F00900F5CF77F001EE33
:1039D80032F02F0EEE6AE806FDE178907892000E3C
:1039E800F86E0001A2EF19F012D083C0D7FF82C091
:1039F800D6FFD58E120083C0CFFF82C0CEFFCD8008
:103A0800120083C0B3FF82C0B2FFB180120080C031
:103A180086F081C087F000018751000AD8A41200FF
:103A280000018651000AD8B4E0D7010AD8B4E3D718
:103A3800020AD8A41200E5D70001C9510001CA1131
:103A48000001CB11D8B409D0000E0001C91B000E2B
:103A58000001CA1B800E0001CB1BC6C0BAF0C7C04C
:103A6800BBF0C8C0BCF0C9C0BDF0CAC0BEF0CBC076
:103A7800BFF0B9EC0BF0BAC0C6F0BBC0C7F0BCC011
:103A8800C8F0120012D004C0D7FF03C0D6FFD58EED
:103A9800120004C0CFFF03C0CEFFCD80120004C0C7
:103AA800B3FF03C0B2FFB180120001C007F002C02B
:103AB80008F00850000AD8A412000750000AD8B429
:103AC800E2D7010AD8B4E5D7020AD8A41200E7D78A
:103AD8000CD0000ED56E1200000ECD6E1200000E36
:103AE800CA6E1200000EB16E120080C082F081C052
:103AF80083F000018351000AD8A41200000182510A
:103B0800000AD8B4E6D7010AD8B4E6D7030AD8B46D
:103B1800E6D7010AD8A41200E5D70DD0000ED56E5D
:103B2800D586F28A1CD0000ECD6E9D8018D0000E6E
:103B3800B16EA08214D080C082F081C083F00001F1
:103B48008351000AD8A40BD000018251000AD8B4CE
:103B5800E5D7010AD8B4E7D7020AD8B4E8D7F28C77
:103B6800F28E1200310E0001846FB20EE82EFED7DD
:103B7800842FFCD700F0330EFDEC1EF0320EFDEC66
:103B88001EF0280EFDEC1EF00F0EFDEC1EF0060ECA
:103B9800FDEC1EF0010EFDEC1EF0310E0001846FED
:103BA800B20EE82EFED7842FFCD700F01200000ECC
:103BB80000018B6F000189AF08D00001886D891F53
:103BC800D8B0892B010E00018B6F88C080F089C0A6
:103BD80081F00001826B8E0E0001836F8BC084F030
:103BE80028EC14F080C088F081C089F082C08AF087
:103BF800120000018045E846FC0BC26EC280C282FA
:103C0800C2B2FED7C350C4CF84F00001856B84C014
:103C180085F00001846B00018427000E852384C091
:103C280080F085C081F00001000E81BFFF0E826F19
:103C3800836F120092689368000E946E000E956E62
:103C4800000E966E000E896E000E8A6E000E8B6E48
:103C5800000E8C6E000E8D6E000EC26E0E0EC1121E
:103C6800000EC06EC082300EC012C08EF288F28E76
:103C78001200000E0C6E0AAE06D0096C0A1ED8B0EF
:103C88000A2A010E0C6E09C001F00AC002F0036A8C
:103C98008E0E046E0CC005F0F5EC18F001C009F0AA
:103CA80002C00AF003C00BF0120000018E5100019F
:103CB8009003F3CF92F0F4CF93F000018E510001FE
:103CC8009103F3500001932700018F5100019003E5
:103CD800F3500001932792C08EF093C08FF012002A
:103CE8000001E36FAFEC1FF0C30E0001D56FFE0EAD
:103CF8000001D66FE3C0D7F00001D86B09EC00F0E3
:103D0800740E0001D56FFF0E0001D66F09EC00F0AC
:103D18001200000180510001811100018211D8B404
:103D280009D0000E0001801B000E0001811B800ECF
:103D38000001821B80C080F081C081F082C082F0C7
:103D4800120000000200010001000200020003004E
:103D58000200030000000300020000000000010050
:103D68000000020046005A00B40064003C007800DD
:103D78000001816F9CEC1FF0C5869CEC1FF0C9CF39
:103D880082F09CEC1FF0000181510001D8A402D000
:103D9800C58A01D0C59AC58800018251120081A246
:103DA800FED781380F0B0F0B0001806F81B2FED751
:103DB80000018051010D570EF324F66EFE0EF4201B
:103DC800F76E0800F55012000001826F000E000126
:103DD800816F3A0E0001826107D02F0E00018265C3
:103DE80003D0010E0001816F81C080F00001803195
:103DF80012000001836F8C94740EE82EFED700D059
:103E080000018351F3EC1BF0040E0001826F3D0E9C
:103E1800E82EFED7822FFCD700D012000001846F55
:103E28000A0E00018419D8A403D0ABEC1FF01200CD
:103E38008C84740EE82EFED700D000018451F3EC78
:103E48001BF01200AFEC1FF00C0E0001D56FFF0E37
:103E58000001D66F09EC00F0410E0001D56FFF0E8E
:103E68000001D66F09EC00F01200AFEC1FF01E0E37
:103E78000001D56FFF0E0001D66F09EC00F0850E2A
:103E88000001D56FFF0E0001D66F09EC00F012009B
:103E9800AFEC1FF0FA0E0001D56FFE0E0001D66FD1
:103EA80009EC00F0520E0001D56FFF0E0001D66F2D
:103EB80009EC00F01200AFEC1FF0D60E0001D56F30
:103EC800FE0E0001D66F09EC00F0630E0001D56FFD
:103ED800FF0E0001D66F09EC00F01200AFEC1FF0E6
:103EE800E80E0001D56FFE0E0001D66F09EC00F058
:103EF800960E0001D56FFF0E0001D66F09EC00F099
:103F08001200100E00018D6F270E8E6F000E8F6F3E
:103F1800000E906F9FEC1CF01200AFEC1FF0E3C096
:103F2800D5F0E4C0D6F009EC00F0D3EC1EF0120096
:103F3800C7B4FED7C5CF80F01F0E00018017D8B4D4
:103F48001200F6D79CEC1FF081C0C9FF1200C00E0A
:103F5800FDEC1EF01200010EFDEC1EF012009CECB0
:103F68001FF0C58412009CEC1FF0C58012005000A1
:10FDC00000010000000A00000064000000E80300D9
:10FDD0000010270000A086010040420F0080969886
:10FDE0000000E1F50500CA9A3B00803FCDCC3DD72D
:10FDF000233C12833AB7D138C62737388635C0D668
:10FE000033CC2B32708930E7DB2EE53C1E42A20D4D
:10FE100000803F00204100C842007A44401C465008
:10FE2000C34724744997184BBCBE4C6B6E4E0315E8
:10FE30005079AD60F349710100000010000000002E
:10FE40000100000010000000000100000010000090
:10FE500000000100000010313233413435364237A2
:10FE60003839432A30234400455923073112166399
:10FE70006F6E7665796F7220262063796C696E6487
:10FE80006572206F6E3F00736574207265646972DD
:10FE900065637420616E676C653F00696E7465729E
:10FEA000727570742121210A636C6F73653F0020A5
:10FEB00025303278203A2025303278203A202530FB
:10FEC0003278002563292074696D6520203C41202B
:10FED000202020200A0073746172742020203C428C
:10FEE0002020202020200A00202068683A6D6D3AEA
:10FEF00073732020202020200A0073656C656374D2
:10FF00002072756E3A20202020200A0074696D65E9
:10FF10003A206E6E6E207365632020200A005B41DC
:10FF2000412C39562C432C6F746865725D200A0091
:10FF3000303132333435363738396162636465665F
:10FF40000020202020202020202020202020202AC7
:10FF50003E005B312C322C332C345D2020202020BD
:10FF60002A3E00686973746F7279203C4320202018
:10FF7000202A3E002020207374617473203C4220AC
:10FF800020202A3E005B6E6E2C6E2C6E2C6E6E5DF9
:10FF90002020202A3E0020206D6D3A64643A797951
:10FFA00020202020413E0072656C656173652062EF
:10FFB0006174746572793F007461726765743A2088
:10FFC00025640A563A2025660072657365742074AC
:10FFD0006865207061643F007265616420766F6CB3
:10FFE000746167653F005B25782025785D0A0074A1
:10FFF000313A202578200072756E6E696E670000B8
:020000040020DA
:08000000FFFFFFFFFFFFFFFF00
:020000040030CA
:0E000000FF021F1EFF8381FF0FC00FE00F40A5
:00000001FF
