:0400000006EF09F00E
:10100000003132334134353642373839432A3023C0
:101010004400256320776173207072657373656483
:101020000048656C6C6F20776F726C64210A000059
:10103000080E0B6E000E0C6E2AD0250E0D18D8B4BB
:1010400004D00D50DDEC08F022D0000E0A6E0ED058
:101050000BC0D9FF0CC0DAFFDF500D6E020E0B265D
:10106000000E0C220D50DDEC08F011D006C0F6FF8A
:1010700007C0F7FF064A072A0800F5CF0DF00D500C
:10108000000AD8B41200630AD8B4E2D7EBD706C07E
:10109000F6FF07C0F7FF064A072A0800F5CF0DF054
:1010A0000D50D8B41200C9D7026E0250F00B016E79
:1010B0008C500F0B8C6E01508C108C6E8C96F00E39
:1010C00000D0E82EFDD78C86F00E00D0E82EFDD79C
:1010D0000238F00B026E0250F00B016E8C500F0BB9
:1010E0008C6E01508C108C6E8C96F00E00D0E82E19
:1010F000FDD78C86F00E00D0E82EFDD71200A5ECAF
:1011000008F0FFEC08F00FEC09F0210E066E100E4F
:10111000076E18EC08F0CAEC08F0106E0FEC09F03E
:10112000120E066E100E076E10C008F0096A18EC59
:1011300008F00B0E0F6E260E0E6E5E0EE82EFED71A
:101140000E2EFCD70F2EFAD7DED7000E956E270E87
:10115000056EF50EE82EFED7052EFCD700F0330EF7
:10116000EEEC08F0320EEEEC08F0280EEEEC08F093
:101170000F0EEEEC08F0060EEEEC08F0010EEEECB1
:1011800008F0270E056EF50EE82EFED7052EFCD7CB
:1011900000F0120081A2FED781380F0B0F0B016EF9
:1011A00081B2FED70150010D010EF324F66E100E30
:1011B000F420F76E0800F5501200056E0A0E0518AF
:1011C000D8A403D00BEC09F012008C845D0EE82E3D
:1011D000FED700F0055054EC08F01200046E8C9419
:1011E0005D0EE82EFED700F0045054EC08F0030E1C
:1011F000036E980EE82EFED7032EFCD712009368DC
:10120000000E8A6E000EC26EC1681200000EF86EEB
:1012100000017FEF08F0C00EEEEC08F01200010EA6
:06122000EEEC08F01200E4
:020000040020DA
:08000000FFFFFFFFFFFFFFFF00
:020000040030CA
:0E000000FF021F1EFF8381FF0FC00FE00F40A5
:00000001FF
