:0400000007EF00F016
:100008005D821CED14F0F2EF19F0BF0E0001D56F00
:10001800000E0001D66FF5EF06F0250E0001EA1973
:10002800D8B406D00001EA51CDEC1CF0F5EF06F08B
:10003800000E0001E56F000EE46F000E0001E76F8F
:10004800000EE66F05D00001E6850001BD4BBE2B12
:10005800BDC0F6FFBEC0F7FF0800F550300AD8B49F
:10006800F2D7BDC0F6FFBEC0F7FF0800F550FFECA1
:100078001CF0D8A03FD0000E0001E56F000EE46F21
:10008800E4C031F0E5C032F0000E346E0A0E336E73
:1000980096EC1CF031C0E4F032C0E5F0D00E00015F
:1000A800C76FFF0E0001C86FBDC0F6FFBEC0F7FFE7
:1000B8000800F5500001C96FCA6B0001C751000163
:1000C800C9270001C8510001CA230001C951000114
:1000D800E4270001CA510001E5230001BD4BBE2BF6
:1000E800BDC0F6FFBEC0F7FF0800F550FFEC1CF0DE
:1000F800D8B0C6D7BDC0F6FFBEC0F7FF0800F550A0
:100108002E0AD8A434D00001E78D0001BD4BBE2BC8
:10011800000E0001E96F000EE86F1ED0E8C031F054
:10012800E9C032F0000E346E0A0E336E96EC1CF005
:10013800BDC0F6FFBEC0F7FF0800F5503126000E1F
:100148003222D00E31240001E86FFF0E3220000168
:10015800E96F0001BD4BBE2BBDC0F6FFBEC0F7FF67
:100168000800F550FFEC1CF0D8A07DD0D7D7000EC2
:100178000001E96F000EE86F0001E78974D0000103
:10018800E68971D00001E78590D00001E68F8DD017
:100198000001E8510001E911D8B40ED00001D35193
:1001A8000001E85D0001D4510001E959D8B004D03C
:1001B800E8C0D3F0E9C0D4F00001E4510001D35DF8
:1001C8000001E5510001D459D8B009D00001D3513C
:1001D8000001E45F0001D4510001E55B09D0000E85
:1001E8000001E56F000EE46F03D0200ECDEC1CF08B
:1001F8000001E407D8A0E5070001E429F6E10001C1
:10020800E529D8B40BD0F1D7D1C0D9FFD2C0DAFFD5
:10021800DF50CDEC1CF00001D14BD22B0001D307ED
:10022800D8A0D4070001D329EFE10001D429D8B41C
:10023800F5EF06F0E9D7D5C0D9FFD6C0DAFFDF5011
:100248000001EA6F020E0001D527000ED623EA0E40
:100258000001D16F000E0001D26F000E0001D46FB3
:10026800010ED36F95D7BDC0F6FFBEC0F7FF0001E2
:10027800BD4BBE2B0800F5CFEAF00001EA51000A99
:10028800D8B41200630AD8B4D6D7070AD8B40DD0A8
:10029800020AD8B477D70F0AD8B407D0050AD8B459
:1002A8006ED7140AD8B471D7D2D7070E0001E71554
:1002B800D8B46DD30001E7A905D0000E0001E96F9D
:1002C800060EE86FD5C0D9FFD6C0DAFFDECFDDF065
:1002D800DECFDEF0DDCFDFF0030E0001D527000E04
:1002E800D6230001DFAF11D0DDC023F0DEC024F03B
:1002F800DFC025F0BBEC1CF023C0DDF024C0DEF02D
:1003080025C0DFF0030E0001E613000E0001DC6FCC
:10031800000EDB6F0001DD510001DE110001DF116D
:10032800D8B491D0820E0001C76FFF0E0001C86FCC
:10033800DDC0C9F0DEC0CAF0DFC0CBF0E0C0CCF051
:10034800100E06D00001D890CC33CB33CA33C93352
:10035800E82EF8D70001C9510001C7250001DB6F5D
:10036800000E0001C8210001DC6F0001DB07D8A0E6
:10037800DC07DBC031F0DCC032F0000E346E030E57
:10038800336E96EC1CF031C0DBF032C0DCF0DBC021
:1003980029F0DCC02AF0000E2C6E0A0E2B6EC3EC7E
:1003A80018F029C0DBF02AC0DCF00001DCAF04D073
:1003B8000001DB07D8A0DC070001DB510008A5EC31
:1003C80009F098C0D7F099C0D8F09AC0D9F0D7C032
:1003D80089F0D8C08AF0D9C08BF0DDC08CF0DEC0BF
:1003E8008DF0DFC08EF06FEC0FF089C0D7F08AC0B7
:1003F800D8F08BC0D9F0D7C02FF0D8C030F0D9C012
:1004080031F0000E326E800E336E3F0E346E37ECD4
:1004180018F0D8B005D00001DB07D8A0DC0713D04E
:10042800D7C02FF0D8C030F0D9C031F0000E326EEE
:10043800200E336E410E346E37EC18F0D8A003D07E
:100448000001DB4BDC2B0001E9BF08D00001E951BA
:100458001DE10D0E0001E85DD8B018D0DDC0A2F096
:10046800DEC0A3F0DFC0A4F00001E8513FEC0EF0BD
:1004780098C0A5F099C0A6F09AC0A7F00BEC0DF0B3
:10048800A2C0DDF0A3C0DEF0A4C0DFF00001DCBF35
:1004980008D00001DC512AE10A0E0001DB5DD8B06A
:1004A80025D00001DD510001DE110001DF11D8B4B3
:1004B8005FD0DDC0AEF0DEC0AFF0DFC0B0F0CAEC98
:1004C80010F00001AE510001AF110001B0110001A0
:1004D800B111D8A44DD00001DCBF4AD00001DC51D5
:1004E80005E1020E0001DB5DD8A042D0D7C02FF095
:1004F800D8C030F0D9C031F0700E326E890E336E2C
:10050800400E346E37EC18F0D8B003D00001F70E67
:1005180002D00001F80EDB27FF0EDC230001DB51BF
:10052800A5EC09F098C0D7F099C0D8F09AC0D9F0D6
:10053800DDC023F0DEC024F0DFC025F0D7C026F0F0
:10054800D8C027F0D9C028F06CEC11F023C0E0F037
:1005580024C0E1F025C0E2F026C0E3F0000E00015F
:10056800DD6F000E0001DE6F000E0001DF6F33D07B
:10057800DDC0AEF0DEC0AFF0DFC0B0F0CAEC10F006
:10058800AEC0E0F0AFC0E1F0B0C0E2F0B1C0E3F05F
:10059800DDC0AEF0DEC0AFF0DFC0B0F0E0C02BF0E1
:1005A800E1C02CF0E2C02DF0E3C02EF0EEEC1AF022
:1005B8002BC0B1F02CC0B2F02DC0B3F071EC1BF021
:1005C800AEC0DDF0AFC0DEF0B0C0DFF0000E00015D
:1005D800DC6F000EDB6F010E0001EA6F0A0E0001EE
:1005E800EA19D8B41ED00001EA51040D090EF3240B
:1005F800F66EFE0EF420F76E0900F5500001E05D7E
:100608000900F5500001E1590900F5500001E259CF
:100618000900F5500001E359D8A003D00001EA2BE6
:10062800DDD7EAC0C7F00001C86BC7BFC807000123
:10063800E8510001C7270001E9510001C823000162
:10064800DB510001C7270001DC510001C82300016C
:10065800C7510001E45F0001C8510001E55B0001DA
:10066800E8510001E911D8B404D00001E407D8A08A
:10067800E507030E0001E6150001C76F000E000133
:10068800E7150001C86F0001C7510001C811D8B4AF
:1006980004D00001E407D8A0E5070001E6A52DD0A5
:1006A800030E0001E6150001C76F000E0001E715F3
:1006B8000001C86F0001C7510001C811D8B40BD0A0
:1006C8002D0ECDEC1CF007D0300ECDEC1CF0000147
:1006D800E407D8A0E5070001E5BF73D00001E551A4
:1006E800F3E10001E405D8A06CD0EED7200ECDECE4
:1006F8001CF00001E407D8A0E5070001E5BF07D01A
:100708000001E551F3E10001E405D8B0EFD7030E8D
:100718000001E6150001C76F000E0001E715000192
:10072800C86F0001C7510001C811D8B44AD02D0EB6
:10073800CDEC1CF046D0E0C023F0E1C024F0E2C0CC
:1007480025F0E3C026F00001EA51040D090EF32458
:10075800F66EFE0EF420F76E0900F5CF27F00900BB
:10076800F5CF28F00900F5CF29F00A00F5CF2AF0D7
:1007780005EC19F023C0D7F024C0D8F025C0D9F073
:1007880026C0DAF0D7C030F0D8C031F0D9C032F086
:10079800DAC033F00A0E346E000E356E000E366E77
:1007A800000E376E28EC1AF030C0D7F031C0D8F000
:1007B80032C0D9F033C0DAF00001D751300FCDEC98
:1007C8001CF00001EA070001EA29D8B408D0B3D721
:1007D800300ECDEC1CF00001DB07D8A0DC070001CF
:1007E800DCBF07D00001DC51F3E10001DB05D8B024
:1007F800EFD70001E9BF0CD00001E95105E1090E6E
:100808000001E85DD8A004D0080E0001EA6F02D00C
:10081800E8C0EAF00001EA510001E85F000E0001BB
:10082800EABFFF0E0001E95B0001EA510001D8B4FC
:1008380003D02E0ECDEC1CF00001EA51A5EC09F016
:1008480098C0CDF099C0CEF09AC0CFF0DDC08CF042
:10085800DEC08DF0DFC08EF0CDC089F0CEC08AF04A
:10086800CFC08BF06FEC0FF089C0AEF08AC0AFF04C
:100878008BC0B0F0CAEC10F0AEC0E0F0AFC0E1F051
:10088800B0C0E2F0B1C0E3F06DD0E0C023F0E1C049
:1008980024F0E2C025F0E3C026F00001EA51040D7F
:1008A800090EF324F66EFE0EF420F76E0900F5CF5C
:1008B80027F00900F5CF28F00900F5CF29F00A0044
:1008C800F5CF2AF005EC19F023C0D7F024C0D8F0F2
:1008D80025C0D9F026C0DAF0D7C030F0D8C031F042
:1008E800D9C032F0DAC033F00A0E346E000E356E1D
:1008F800000E366E000E376E28EC1AF030C0D7F0B6
:1009080031C0D8F032C0D9F033C0DAF00001D75185
:10091800300FCDEC1CF0E0C030F0E1C031F0E2C0A7
:1009280032F0E3C033F00001EA51040D090EF3245C
:10093800F66EFE0EF420F76E0900F5CF34F00900CC
:10094800F5CF35F00900F5CF36F00A00F5CF37F0CE
:1009580028EC1AF030C0E0F031C0E1F032C0E2F02B
:1009680033C0E3F00001EA070001EA29D8B408D04F
:100978008CD7300ECDEC1CF00001E807D8A0E907B1
:100988000001E8510001E911D8B42BD2F2D70001D7
:10099800E6BF34D00001E6A90ED0D5C0D9FFD6C035
:1009A800DAFFDECFE0F0DECFE1F0DECFE2F0DECF3F
:1009B800E3F0040E0FD0D5C0D9FFD6C0DAFFDECFE2
:1009C800E0F0DDCFE1F00001000EE1BFFF0EE26FC5
:1009D800E36F020E0001D527000ED6230001E3AF16
:1009E80032D0030E0001E6130001E31FE21FE11FEE
:1009F800E06D000EE123E223E32325D00001E6A900
:100A08000ED0D5C0D9FFD6C0DAFFDECFE0F0DECFFA
:100A1800E1F0DECFE2F0DECFE3F0040E10D0D5C077
:100A2800D9FFD6C0DAFFDECFC7F0DDCFC8F0C7C028
:100A3800E0F0C8C0E1F00001E26BE36B020E0001D8
:100A4800D527000ED6230001E8510001E911D8A4EA
:100A58005AD00001E0510001E1110001E21100014A
:100A6800E311D8A450D00001E84BE92B4CD0010E7B
:100A78000001EA6F0A0E0001EA19D8B44DD000014E
:100A8800EA51040D090EF324F66EFE0EF420F76EFB
:100A98000900F5500001E05D0900F5500001E15939
:100AA8000900F5500001E2590900F5500001E35929
:100AB800D8A032D00001EA2BDDD7010E0001EA6F81
:100AC800080E0001EA19D8B427D00001EA51040D34
:100AD8007F0EF324F66EFE0EF420F76E0900F55033
:100AE8000001E05D0900F5500001E1590900F550E9
:100AF8000001E2590900F5500001E359D8A00CD0D3
:100B08000001EA2BDDD70001E651800B000AD8B4BA
:100B1800AED7800AD8B4D1D7800E0001EABF7F0EC5
:100B28000001C76F0001E8510001EA5D0001E951C9
:100B3800800A0001C759D8B003D0E8C0EAF018D03D
:100B48000001E951800A0001C76F0001EA51000164
:100B5800E85D800E0001EABF7F0E0001C759D8B0DA
:100B680007D00001EA510001E86FE96BE8BFE90727
:100B78000001E4510001E511D8B414D0030E0001BE
:100B8800E6150001C76F000E0001E7150001C86FE8
:100B98000001C7510001C811D8B404D00001E4070E
:100BA800D8A0E5070001E7AD1ED00001E45100011F
:100BB800E85D0001E951800A0001C76F0001E551B5
:100BC800800A0001C759D8B009D00001E8510001D6
:100BD800E45F0001E9510001E55B05D0000E00016A
:100BE800E56F000EE46F800E0001EABF7F0E000182
:100BF800C76F0001E4510001EA5D0001E551800A78
:100C08000001C759D8B00BD00001EA510001E45FD8
:100C1800000E0001EABFFF0E0001E55B05D0000EE3
:100C28000001E56F000EE46F0001E6A521D0030E78
:100C38000001E6150001C76F000E0001E71500016D
:100C4800C86F0001C7510001C811D8B403D02D0ED8
:100C5800CDEC1CF00001E4510001E511D8B4B6D088
:100C6800300ECDEC1CF00001E407D8A0E507F2D760
:100C78000001E4510001E511D8B40DD0200ECDECEF
:100C88001CF00001E407D8A0E5070001E4510001C9
:100C9800E511D8A4F3D7030E0001E6150001C76FCC
:100CA800000E0001E7150001C86F0001C7510001DF
:100CB800C811D8B48BD02D0ECDEC1CF087D0E8C06D
:100CC800C7F0E9C0C8F00001D890C737C83700019D
:100CD800D890C737C837090E0001C725F66EFE0E33
:100CE800C821F76E0900F5CF27F00900F5CF28F0E5
:100CF8000900F5CF29F00A00F5CF2AF0E0C023F06B
:100D0800E1C024F0E2C025F0E3C026F005EC19F0BC
:100D180023C030F024C031F025C032F026C033F0B3
:100D28000A0E346E000E356E000E366E000E376EEB
:100D380028EC1AF03050300F0001EA6F43D0E0C0C1
:100D480023F0E1C024F0E2C025F0E3C026F0E8C0BB
:100D5800C7F0E9C0C8F00001D890C737C83700010C
:100D6800D890C737C8377F0E0001C725F66EFE0E2C
:100D7800C821F76E0900F5CF27F00900F5CF28F054
:100D88000900F5CF29F00A00F5CF2AF005EC19F093
:100D980023500F0B0001D06F0001D051010D260E1A
:100DA800F324F66EFF0EF420F76E0800F5CFEAF094
:100DB80009D00001E651800B000AD8B480D7800A18
:100DC800D8B4BDD70001EA51CDEC1CF00001E8070A
:100DD800D8A0E9070001E829ECE10001E929D8A435
:100DE800E8D7BDC0F6FFBEC0F7FF0001BD4BBE2B64
:100DF8000800F5CFEAF00001EA51D8B4120011EF6B
:100E080000F0430E0001D46F010E0001D56F000EF3
:100E18000001D76F5A0ED66FFFEC14F0470E236E01
:100E2800010E246E000E266E000E256ECFEC15F016
:100E38000D0E0001EC6FAF0E0001EB6FB60EE82E41
:100E4800FED7EB2FFCD7EC2FFAD700F0000E0101EC
:100E5800096FA00E01010A6F400E01010B6FC00E51
:100E680001010C6F7F0E01010D6F440E01010E6F21
:100E7800000E01010F6F000E0101106F000E01013D
:100E8800116F000E0101026F000E0101036F000EC9
:100E98000101046F000E0101066F010E056F000EBF
:100EA8000101086F000E076F46C02BF047C02CF0F9
:100EB80067EC1CF02BC019F12CC01AF12DC01BF1E6
:100EC800F6D019C1AEF01AC1AFF01BC1B0F0CAEC30
:100ED80010F0AEC000F1AFC001F14E0E0001D46FAA
:100EE800000E0001D56F00C1D6F001C1D7F0FFECAC
:100EF80014F0530EE82EFED700F03F0E236E010EBD
:100F0800246E000E266E010E256ECFEC15F00CC176
:100F180038F00DC139F00EC13AF069C123F06AC149
:100F280024F04BEC1CF023C02BF024C02CF025C07F
:100F38002DF026C02EF046EC19F02BC035F02CC051
:100F480036F02DC037F099EC12F035C089F036C074
:100F58008AF037C08BF009C18CF00AC18DF00BC143
:100F68008EF06FEC0FF089C016F18AC017F18BC0B4
:100F780018F1CD0E2F6ECC0E306E3D0E316E16C1AF
:100F880032F017C133F018C134F037EC18F0D8B08C
:100F980003D00101054B062B0FC12FF010C130F013
:100FA80011C131F016C132F017C133F018C134F055
:100FB80037EC18F0D8B064D04B0E236E010E246EB7
:100FC800A7EC13F0D89023340101076F24340101F2
:100FD800086F4F0E236E010E246EA7EC13F02350FA
:100FE8000101071324500101081316C10FF117C19D
:100FF80010F118C111F13F0E236E010E246E000E80
:10100800266E000E256ECFEC15F0040E0001EB6F76
:101018003D0EE82EFED7EB2FFCD700D00CC138F0E0
:101028000DC139F00EC13AF069C123F06AC124F04C
:101038004BEC1CF023C02BF024C02CF025C02DF065
:1010480026C02EF046EC19F02BC035F02CC036F037
:101058002DC037F099EC12F035C089F036C08AF00F
:1010680037C08BF009C18CF00AC18DF00BC18EF02E
:101078006FEC0FF089C002F18AC003F18BC004F154
:1010880019C1AEF01AC1AFF01BC1B0F0CD0E00010E
:10109800B16FCC0E0001B26F3D0E0001B36F71EC61
:1010A8001BF0AEC019F1AFC01AF1B0C01BF144C0BB
:1010B8002BF045C02CF067EC1CF02BC02FF02CC097
:1010C80030F02DC031F019C132F01AC133F01BC114
:1010D80034F037EC18F0D8A0F4D60FC11CF110C1C9
:1010E8001DF111C11EF136EC1DF09D0E0001BD6F02
:1010F800FF0E0001BE6F1CC1BFF01DC1C0F01EC1B4
:10110800C1F005C1C2F006C1C3F009EC00F08AD0F5
:1011180002C12FF003C130F004C131F0CD0E326EA0
:10112800CC0E336E3D0E346E37EC18F0D8B026D0A6
:101138003EC02FF03FC030F040C031F01CC132F04B
:101148001DC133F01EC134F037EC18F0D8B062D0AE
:1011580048C014F149C015F101016F4B702BC50E41
:101168000001BD6FFF0E0001BE6F3EC0BFF03FC063
:10117800C0F040C0C1F009EC00F068D03BC02FF0CF
:101188003CC030F03DC031F01CC132F01DC133F01D
:101198001EC134F037EC18F0D8B03CD03BC114F184
:1011A8003CC115F101016D4B6E2BD00E0001BD6FD6
:1011B800FF0E0001BE6F3BC0BFF03CC0C0F03DC099
:1011C800C1F009EC00F042D041C02FF042C030F02D
:1011D80043C031F01CC132F01DC133F01EC134F0E0
:1011E80037EC18F0D8B016D03DC114F13EC115F156
:1011F8000101714B722BBA0E0001BD6FFF0E000189
:10120800BE6F41C0BFF042C0C0F043C0C1F009EC9E
:1012180000F01CD04AC014F14BC015F10101734B0A
:10122800742B14D007C1EBF008C1ECF00001EC51AD
:10123800000AD8A40BD00001EB51000AD8B468D733
:10124800010AD8B4C1D7030AD8B498D783EC1CF0E4
:10125800530E0001D46F010E0001D56F14C1D6F0F2
:1012680015C1D7F0FFEC14F0070E0001EC6F580E13
:101278000001EB6F590EE82EFED7EB2FFCD7EC2FB1
:10128800FAD700D044C012F145C013F118D04E0E61
:101298000001D46F000E0001D56F12C1D6F013C142
:1012A800D7F0FFEC14F00A0E0001EB6FBC0EE82E2D
:1012B800FED7EB2FFCD700F00101124B132B0101D5
:1012C80039510101125D01011351800A0001EB6FD0
:1012D80001013A51800A0001EB59D8A0D8D70D0E68
:1012E8000001EC6FAF0E0001EB6FB60EE82EFED7D3
:1012F800EB2FFCD7EC2FFAD700F04E0E0001D46F7D
:10130800000E0001D56F46C0D6F047C0D7F0FFECFD
:1013180014F0430E0001D46F010E0001D56F000ECA
:101328000001D76F820ED66FFFEC14F0470E236EC4
:10133800010E246E000E266E010E256ECFEC15F000
:10134800120000019E6F00019EAF04D100019E6D46
:1013580000019E51800A120FD8A094D0000E346E5E
:10136800030E336E000E2C6E0A0E2B6E000E266EC8
:10137800640E256E00019E51236E246A23BE240646
:1013880082EC19F023C029F024C02AF0C3EC18F02D
:10139800090E2924316E000E2A20326E96EC1CF0BC
:1013A800310E3124F66EFE0E3220F76E0900F5CFAD
:1013B8008CF00900F5CF8DF00A00F5CF8EF0000E05
:1013C8002C6E640E2B6E00019E51296E2A6A29BE6E
:1013D8002A06C3EC18F0120E2924316E000E2A20BA
:1013E800326E000E346E030E336E96EC1CF0310E26
:1013F8003124F66EFE0E3220F76E0900F5CF89F023
:101408000900F5CF8AF00A00F5CF8BF06FEC0FF0EA
:1014180089C09BF08AC09CF08BC09DF09BC089F06E
:101428009CC08AF09DC08BF0000E346E030E336EA4
:10143800000E266E0A0E256E00019E51236E246A48
:1014480023BE240682EC19F023C031F024C032F008
:1014580096EC1CF0310E3124F66EFE0E3220F76E3B
:101468000900F5CF8CF00900F5CF8DF00A00F5CF13
:101478008EF06FEC0FF089C098F08AC099F08BC09D
:101488009AF0120000019E51800A750FD8A04FD023
:10149800000E2C6E0A0E2B6E00019E51296E2A6AD0
:1014A80029BE2A06C3EC18F0090E2924316E000E55
:1014B8002A20326E000E346E030E336E96EC1CF04A
:1014C800310E3124F66EFE0E3220F76E0900F5CF8C
:1014D80089F00900F5CF8AF00A00F5CF8BF0000EED
:1014E800346E030E336E000E266E0A0E256E000152
:1014F8009E51236E246A23BE240682EC19F023C071
:1015080031F024C032F096EC1CF0310E3124F66E26
:10151800FE0E3220F76E0900F5CF8CF00900F5CFEA
:101528008DF00A00F5CF8EF06FEC0FF0A4D7000114
:101538009E51030D310EF324F66EFE0EF420F76E65
:101548000900F5CF98F00900F5CF99F00A00F5CF1A
:101558009AF0120000019E51800A120FD8A094D070
:10156800000E346E030E336E000E2C6E0A0E2B6EB8
:10157800000E266E640E256E00019E51236E246AAD
:1015880023BE240682EC19F023C029F024C02AF0D7
:10159800C3EC18F0090E2924316E000E2A20326E91
:1015A80096EC1CF0580E3124F66EFE0E3220F76EC3
:1015B8000900F5CF8CF00900F5CF8DF00A00F5CFC2
:1015C8008EF0000E2C6E640E2B6E00019E51296E5B
:1015D8002A6A29BE2A06C3EC18F0120E2924316E95
:1015E800000E2A20326E000E346E030E336E96EC17
:1015F8001CF0580E3124F66EFE0E3220F76E0900EC
:10160800F5CF89F00900F5CF8AF00A00F5CF8BF005
:101618006FEC0FF089C09BF08AC09CF08BC09DF0E6
:101628009BC089F09CC08AF09DC08BF0000E346E80
:10163800030E336E000E266E0A0E256E00019E51B3
:10164800236E246A23BE240682EC19F023C031F0ED
:1016580024C032F096EC1CF0580E3124F66EFE0EC3
:101668003220F76E0900F5CF8CF00900F5CF8DF028
:101678000A00F5CF8EF06FEC0FF089C098F08AC0A1
:1016880099F08BC09AF0120000019E51800A750FE4
:10169800D8A04FD0000E2C6E0A0E2B6E00019E5162
:1016A800296E2A6A29BE2A06C3EC18F0090E2924D5
:1016B800316E000E2A20326E000E346E030E336E29
:1016C80096EC1CF0580E3124F66EFE0E3220F76EA2
:1016D8000900F5CF89F00900F5CF8AF00A00F5CFA7
:1016E8008BF0000E346E030E336E000E266E0A0E5B
:1016F800256E00019E51236E246A23BE240682ECC7
:1017080019F023C031F024C032F096EC1CF0580ECA
:101718003124F66EFE0E3220F76E0900F5CF8CF0FC
:101728000900F5CF8DF00A00F5CF8EF06FEC0FF0C1
:10173800A4D700019E51030D580EF324F66EFE0E39
:10174800F420F76E0900F5CF98F00900F5CF99F06D
:101758000A00F5CF9AF012002BEC1CF008EC1CF0F4
:101768009BEC17F0000E5B6E000E5A6E000E526E68
:10177800000E536E000E546E000E556E000E246E51
:10178800010E236EE3EC1BF0000E246E010E236E97
:10179800000E256E000E266E000E276E000E286EB7
:1017A80097EC1BF0470E236E010E246E000E266E7A
:1017B800010E256ECFEC15F0430E0001DE6F010E11
:1017C8000001DF6F000E0001E16F820EE06F8EEC0A
:1017D80014F04E0E0001DE6F000E0001DF6F46C0F0
:1017E800E0F047C0E1F08EEC14F0530E0001DE6F1C
:1017F800010E0001DF6F48C0E0F049C0E1F08EEC57
:1018080014F036EC1DF0F60E0001BD6FFF0E00015E
:10181800BE6F09EC00F052C031F153C032F152C032
:1018280029F153C02AF1000E01012C6F000E2B6F15
:10183800000E01012E6F460E2D6F000E0101306F54
:101848001E0E2F6F9DD03AEC1DF08C0E0001BD6F5F
:10185800FF0E0001BE6F52C023F053C024F054C0E5
:1018680025F055C026F0580E276E020E286E000E81
:10187800296E000E2A6E69EC15F023C0BFF024C053
:10188800C0F025C0C1F026C0C2F00A0E276E000EB7
:10189800286E000E296E000E2A6E52C023F053C027
:1018A80024F054C025F055C026F069EC15F023C08B
:1018B80031F024C032F025C033F026C034F03C0E9D
:1018C800356E000E366E000E376E000E386E45EC23
:1018D80017F031C0C3F032C0C4F033C0C5F034C013
:1018E800C6F009EC00F0FA0E01011F6FFF0EE82E9A
:1018F800FED71F2FFCD731C11FF132C120F1000ED6
:10190800010120BFFF0E216F226F01011F1F201F41
:10191800211F221F1F2B000E202321232223525078
:1019280001011F250101236F5350010120210101ED
:10193800246F5450010121210101256F55500101E7
:1019480022210101266F000E4DBEFF0E0101286FF6
:10195800800A276F010123514C5C010124514D5825
:10196800010125510101285901012651800A01016F
:101978002759D8B005D0000E5B6E010E5A6E08D0FC
:1019880056505710D8A404D05A505B10D8B45BD71F
:101998005A505B10D8A40BD005EC07F052C031F1B7
:1019A80053C032F1000E576E000E566E2AD7470EFE
:1019B800236E010E246E000E266E000E256ECFECEF
:1019C80015F036EC1DF07B0E0001BD6FFF0E000117
:1019D800BE6F09EC00F0AC0E0001BD6FFF0E0001F8
:1019E800BE6F6FC1BFF070C1C0F071C1C1F072C1EC
:1019F800C2F06DC1C3F06EC1C4F073C1C5F074C14B
:101A0800C6F009EC00F083EC1CF0AAD6FFD7A4C0FE
:101A1800A8F00001A96BAA6B0001A3350001A83743
:101A280001E3A9810001A8510001AD6FA7C0A8F08A
:101A38000001A96BAA6B0001A6350001A83701E3D4
:101A4800A9810001A8510001AC6F0001AD5100014E
:101A5800D8B411D00001AC510001AD5DD8B012D09E
:101A68000001AD5100080001AC250001A86F180E57
:101A78000001A86507D0A5C0A2F0A6C0A3F0A7C022
:101A8800A4F012000001AC510001D8B411D000013B
:101A9800AD510001AC5DD8B012D00001AC510008C6
:101AA8000001AD250001A86F180E0001A86507D038
:101AB800A2C0A2F0A3C0A3F0A4C0A4F01200060E16
:101AC8000001AB6F0001A4AF02D00001AB8F000191
:101AD800A7AF02D00001AB8D0001A38FFF0E00015C
:101AE800A217FF0E0001A317000E0001A4170001A2
:101AF800A68FFF0E0001A517FF0E0001A617000E06
:101B08000001A7170001AC510001AD5DD8B025D088
:101B18000001D890A537A637A7370001AC07000108
:101B2800AD510001AC19D8B411D00001AB07ABC05E
:101B3800A8F0070E0001A817D8B408D0E9D700010B
:101B4800D890A433A333A2330001AD2B0001AC51CC
:101B58000001AD19D8B42BD0F2D70001AD51000166
:101B6800AC5DD8B024D00001D890A237A337A437F1
:101B78000001AD070001AD510001AC19D8B411D076
:101B88000001AB07ABC0A8F0070E0001A817D8B436
:101B980008D0E9D70001D890A733A633A5330001B0
:101BA800AC2B0001AC510001AD19D8A4F3D700014A
:101BB800ABAF12D0FF0E0001A21BFF0E0001A31B4A
:101BC800FF0E0001A41B010E0001A227000E000158
:101BD800A323000E0001A4230001ABAD12D0FF0E19
:101BE8000001A51BFF0E0001A61BFF0E0001A71B8D
:101BF800010E0001A527000E0001A623000E00011A
:101C0800A723000E0001AB6F0001A2510001A52718
:101C18000001A3510001A6230001A4510001A7233C
:101C28000001A7AF15D0FF0E0001A51BFF0E000194
:101C3800A61BFF0E0001A71B010E0001A527000E21
:101C48000001A623000E0001A723010E0001AB6FBF
:101C5800A5C023F0A6C024F0A7C025F0ADC026F08B
:101C6800ABC027F0EEEC16F023C0A2F024C0A3F01E
:101C780025C0A4F012000001A16F6D0E0001A1653E
:101C8800A2D0000E346E030E336E000E2C6E0A0EB8
:101C98002B6E000E266E640E256EA1C023F0246AFA
:101CA80082EC19F023C029F024C02AF0C3EC18F004
:101CB800090E2924316E000E2A20326E96EC1CF093
:101CC800310E3124F66EFE0E3220F76E0900F5CF84
:101CD8008CF00900F5CF8DF00A00F5CF8EF0000EDC
:101CE8002C6E640E2B6EA1C029F02A6AC3EC18F082
:101CF800120E2924316E000E2A20326E000E346E28
:101D0800030E336E96EC1CF0310E3124F66EFE0E87
:101D18003220F76E0900F5CF89F00900F5CF8AF077
:101D28000A00F5CF8BF06FEC0FF089C09EF08AC0E7
:101D38009FF08BC0A0F0000E346E030E336E000EC1
:101D4800266E0A0E256EA1C023F0246A82EC19F0D3
:101D580023C031F024C032F096EC1CF0310E31244F
:101D6800F66EFE0E3220F76E0900F5CF8CF00900F2
:101D7800F5CF8DF00A00F5CF8EF09EC089F09FC098
:101D88008AF0A0C08BF06FEC0FF089C09BF08AC07E
:101D98009CF08BC09DF09BC089F09CC08AF09DC0D0
:101DA8008BF0000E00018C6F000E00018D6F3F0E4E
:101DB80000018E6F6FEC0FF089C098F08AC099F01F
:101DC8008BC09AF012000A0E0001A16560D0000EC7
:101DD800346E030E336E000E266E0A0E256EA1C0F9
:101DE80023F0246A82EC19F023C031F024C032F0C9
:101DF80096EC1CF0310E3124F66EFE0E3220F76E92
:101E08000900F5CF8CF00900F5CF8DF00A00F5CF69
:101E18008EF0000E2C6E0A0E2B6EA1C029F02A6AD5
:101E2800C3EC18F0090E2924316E000E2A20326EF8
:101E3800000E346E030E336E96EC1CF0310E312416
:101E4800F66EFE0E3220F76E0900F5CF89F0090014
:101E5800F5CF8AF00A00F5CF8BF06FEC0FF089C050
:101E68009EF08AC09FF08BC0A0F09EC089F09FC0F2
:101E78008AF0A0C08BF0000E00018C6F000E0001EC
:101E88008D6F3F0E00018E6F6FEC0FF095D700013C
:101E9800A151030D310EF324F66EFE0EF420F76EF9
:101EA8000900F5CF89F00900F5CF8AF00A00F5CFCF
:101EB8008BF0000E00018C6F000E00018D6F3F0E3D
:101EC80000018E6F6FEC0FF089C098F08AC099F00E
:101ED8008BC09AF012008BC08FF00001906B916B51
:101EE80000018A3500018F3701E3908100018F518D
:101EF8000001926F00019251D8A40AD0000E00018F
:101F0800896F000E00018A6F000E00018B6F1200AE
:101F18008EC08FF00001906B916B00018D35000130
:101F28008F3701E3908100018F510001976F000105
:101F38009751D8A40AD0000E0001896F000E000145
:101F48008A6F000E00018B6F1200000197517B0F02
:101F5800000192278BC097F000018E510001971B5A
:101F6800800E0001971700018A8F00018D8FFF0EE8
:101F780000018C17FF0E00018D17000E00018E174F
:101F8800000E0001936F000E0001946F000E000117
:101F9800956F070E0001966F000189A10CD0000112
:101FA8008C510001932700018D51000194230001F9
:101FB8008E51000195230001D8908B338A338933E1
:101FC8000001D8908C378D378E370001962FE4D7D3
:101FD800090E0001966F000189A10CD000018C51F7
:101FE8000001932700018D510001942300018E51B7
:101FF800000195230001D8908B338A33893300017F
:10200800D8909533943393330001962FE4D793C037
:1020180023F094C024F095C025F092C026F097C014
:1020280027F0EEEC16F023C089F024C08AF025C012
:102038008BF01200A80E0001C56FFD0EC66FFF0ED3
:10204800C76FFF0EC86FE20E0001D06F040ED16F8C
:10205800000ED26F000ED36F6A0E0001C96F180E02
:10206800CA6F000ECB6F000ECC6FD0C0C1F0D1C0CC
:10207800C2F0D2C0C3F0D3C0C4F00001C11FC21F58
:10208800C31FC41FC12B000EC223C323C4230001D6
:10209800C9510001C1252B6E0001CA510001C2219E
:1020A8002C6E0001CB510001C3212D6E0001CC51D3
:1020B8000001C4212E6E46EC19F02BC08CF02CC008
:1020C8008DF02DC08EF0000E386E340E396E430E32
:1020D8003A6EBDC02BF0BEC02CF067EC1CF02BC0D4
:1020E80035F02CC036F02DC037F099EC12F035C021
:1020F80089F036C08AF037C08BF06FEC0FF089C0DA
:10210800A5F08AC0A6F08BC0A7F0D0C02BF0D1C034
:102118002CF0D2C02DF0D3C02EF046EC19F02BC015
:10212800A2F02CC0A3F02DC0A4F00BEC0DF0A2C0BF
:10213800CDF0A3C0CEF0A4C0CFF0C5C02BF0C6C070
:102148002CF0C7C02DF0C8C02EF046EC19F02BC0FB
:10215800A5F02CC0A6F02DC0A7F0CDC0A2F0CEC02F
:10216800A3F0CFC0A4F00BEC0DF0A2C0AEF0A3C05A
:10217800AFF0A4C0B0F0CAEC10F0AEC0BDF0AFC074
:10218800BEF0B0C0BFF0B1C0C0F01200B0C0B2F035
:102198000001B36BB46B0001AF350001B23701E346
:1021A800B3810001B2510001BC6F0001BC51D8A439
:1021B8000AD0000E0001AE6F000EAF6F000EB06FB8
:1021C800000EB16F1200170E0001B26FAEC0B3F06F
:1021D800AFC0B4F0B0C0B5F00001B2290001B66FCD
:1021E80005D00001D890B533B433B3330001B62F0E
:1021F800F8D70001B3510001B76F0001AF8FFF0E90
:102208000001AE17FF0E0001AF17000E0001B01756
:102218000001AE510001B86F0001AF510001B96F64
:102228000001B0510001BA6F0001BB6B8E0E0001B6
:10223800BC5F0001BCAF1AD00001BC51800A8F0FEF
:10224800D8B00AD0000E0001AE6F000EAF6F000EBE
:10225800B06F000EB16F12000001D890BB33BA33D3
:10226800B933B8330001BC3FF7D71BD0170E0001B4
:10227800BC6512D0000E0001AE6F000EAF6F000EED
:10228800B06F000EB16F12000001D890B837B9379F
:10229800BA37BB370001BC070001BC510001D8A404
:1022A800F3D70001B7510001D8B409D00001BB1F12
:1022B800BA1FB91FB86D000EB923BA23BB23B8C023
:1022C800AEF0B9C0AFF0BAC0B0F0BBC0B1F0120008
:1022D80025C029F02A6A2B6A2434293601E32A808A
:1022E8002950316E3150D8A409D0000E236E000E4B
:1022F800246E000E256E000E266E120028C029F0EE
:102308002A6A2B6A2734293601E32A802950306E3D
:102318003050D8A409D0000E236E000E246E000E93
:10232800256E000E266E1200248EFF0E2316FF0E59
:102338002416000E2516278EFF0E2616FF0E2716CA
:10234800000E2816000E2C6E000E2D6E000E2E6E3E
:10235800000E2F6E7F0E315E3050980F315E180ED2
:10236800306ED8902C362D362E362F362650235CDC
:102378002750245828502558D8A007D02650235E27
:102388002750245A2850255A2C80D8902336243692
:102398002536302EE6D731AE16D03150800A970F49
:1023A800D8B009D0000E236E000E246E000E256EE4
:1023B800000E266E1200D8902F322E322D322C327B
:1023C800313EF9D715D0170E31640FD0000E236EA9
:1023D800000E246E000E256E000E266E1200D89098
:1023E8002C362D362E362F3631063150D8A4F7D755
:1023F8002CC023F02DC024F02EC025F02FC026F0CD
:102408001200253426342E6E2E50D8A409D0000E82
:10241800236E000E246E000E256E000E266E12002E
:10242800283429342D6E2D50D8A409D0000E236EDF
:10243800000E246E000E256E000E266E1200258EEC
:10244800FF0E2316FF0E2416FF0E2516000E261665
:10245800288EFF0E2616FF0E2716FF0E2816000ED2
:102468002916000E296E000E2A6E000E2B6E000E25
:102478002C6E7F0E2E5E2D50A00F2E5E200E2D6E20
:10248800D89029362A362B362C362650235C2750EE
:1024980024582850255829502658D8A009D0265005
:1024A800235E2750245A2850255A2950265A298015
:1024B800D89023362436253626362D2EE1D72EAE53
:1024C80016D02E50800A9F0FD8B009D0000E236E68
:1024D800000E246E000E256E000E266E1200D89097
:1024E8002C322B322A3229322E3EF9D715D01F0E24
:1024F8002E640FD0000E236E000E246E000E256E83
:10250800000E266E1200D89029362A362B362C3625
:102518002E062E50D8A4F7D729C023F02AC024F0BD
:102528002BC025F02CC026F0120037C080F0000127
:10253800816B826B36340001803701E381810001B1
:1025480080510001876F00018751D8A407D0000E81
:10255800356E000E366E000E376E12003AC080F0EF
:102568000001816B826B39340001803701E381817E
:10257800000180510001886F00018851D8A407D05C
:10258800000E356E000E366E000E376E1200000E0D
:102598000001846F000E0001856F000E0001866F38
:1025A80000018851890F0001875F37C088F03A50D1
:1025B8000001881B800E00018817368EFF0E351625
:1025C800FF0E3616000E3716398EFF0E3816FF0E20
:1025D8003916000E3A16180E0001836F0001D890C4
:1025E8008437853786373850355C395036583A50F5
:1025F8003758D8A008D03850355E3950365A3A5036
:10260800375A00018481D89035363636373600017E
:10261800832FE4D784C023F085C024F086C025F03A
:1026280087C026F088C027F0EEEC16F023C035F0FE
:1026380024C036F025C037F01200F2A482D0F294FC
:10264800D8905834D96E5934DA6E5F0ED926010EF7
:10265800DA22DECF07F0DDCF08F0000E0A6E000E9A
:10266800096E33EC16F0010E5824016E000E592045
:10267800026E010E0001F925036E000E0001FA2119
:10268800046EBAEC19F0D890013602365F0E0124B8
:10269800D96E010E0220DA6EDECF07F0DDCF08F02A
:1026A800000E0A6E010E096E33EC16F0000E086E6D
:1026B800000E076EFF0E106EFF0E116E010E5824ED
:1026C800016E000E5920026E010E0001F925036EFD
:1026D800000E0001FA21046EBAEC19F0D890013608
:1026E8000236570E0124D96E010E0220DA6EDECFB3
:1026F80012F0DDCF13F0121E131E124A132A1050C7
:1027080012261150132212C009F013C00AF00B6AE6
:102718000C6ABDEC1BF0010E5824016E000E592006
:10272800026E010E0001F925036E000E0001FA2168
:10273800046EBAEC19F001C058F002C059F0010E4D
:102748001200000E120058D020EE02F02350D926B5
:102758002450DA22DF50256E80CF26F0252A02D0B9
:10276800D8902632252EFCD7010E26162650236E29
:10277800246A120020EE02F02350D9262450DA22CF
:10278800DF50256E81CF26F0252A02D0D890263238
:10279800252EFCD7010E26162650236E246A120019
:1027A80020EE02F02350D9262450DA22DF50256E7D
:1027B80082CF26F0252A02D0D8902632252EFCD7A3
:1027C800010E26162650236E246A120020EE02F00F
:1027D8002350D9262450DA22DF50256E83CF26F0E5
:1027E800252A02D0D8902632252EFCD7010E26168F
:1027F8002650236E246A120023C0D9FF24C0DAFFB2
:10280800DECF25F0DDCF26F02650000AD8A40DD063
:102818002550000AD8B498D7010AD8B4ABD7030A10
:10282800D8B4BED7010AD8B4D1D723682468120017
:102838000600FACF14F0FBCF15F0E9CF16F0EACF77
:1028480017F0E1CF18F0E2CF19F0D9CF1AF0DACFAC
:102858001BF0F3CF1CF0F4CF1DF0F6CF1EF0F7CF2E
:102868001FF0F8CF20F0F5CF21F021EC13F000098C
:10287800D8A432D09EA016D0000E086E010E076EA6
:10288800830E096E860E0A6E000E0B6E000E0C6E1D
:10289800BDEC1BF0010E5226000E53225422552285
:1028A8009E901AD0F2A206D0F292000E576E010E38
:1028B800566E12D0F0B0F0A60FD0F090EFEC1CF0EE
:1028C80081380F0B0F0B226E0C0E2218D8A404D0DF
:1028D800000E5B6E010E5A6E21C0F5FF20C0F8FF96
:1028E8001FC0F7FF1EC0F6FF1DC0F4FF1CC0F3FF9A
:1028F8001BC0DAFF1AC0D9FF19C0E2FF18C0E1FFF8
:1029080017C0EAFF16C0E9FF15C0FBFF14C0FAFFA5
:102918005D921100000E0001E76F000EE66F17D000
:10292800D8900001E635D96E0001E735DA6E5F0E02
:10293800D926010EDA220001DE51DE1805E1000178
:10294800DF51DE18D8B412000001E64BE72B000176
:10295800F9510001E65D0001E751800A0001E26FCC
:102968000001FA51800A0001E259D8A0D9D7000124
:10297800F94BFA2BFE0E0001E26FFF0E0001E36F28
:10298800F9C0E4F0FAC0E5F0D8900001E437E53783
:102998000001E2510001E4270001E3510001E523B1
:1029A8005F0E0001E425D96E010E0001E521DA6E03
:1029B800DEC0DEFFDFC0DDFFDEC0D4F0DFC0D5F053
:1029C800E0C0D6F0E1C0D7F0FFEC14F0000E246EA2
:1029D800000E236EE3EC1BF0000E246E000E236E37
:1029E800000E256E000E266E000E276E000E286E55
:1029F80097EC1BF01200C30E0001DB6F500EDA6F6C
:102A0800000E0001DD6F000EDC6F3FD0D890000192
:102A1800DC35D96E0001DD35DA6E5F0ED926010E80
:102A2800DA220001D451DE181CE10001D551DE186C
:102A3800D8A417D0D6C0BDF0D7C0BEF01EEC10F099
:102A4800D8900001DC35D96E0001DD35DA6E570EFD
:102A5800D926010EDA220001BDC0DEFF0001BEC08A
:102A6800DDFFD8900001DC35D96E0001DD35DA6E66
:102A7800570ED926010EDA22DE500001DA5FDD504A
:102A88000001DB5B0001DC4BDD2B0001F95100018B
:102A9800DC5D0001DD51800A0001D86F0001FA51A8
:102AA800800A0001D859D8A0B1D7D8900001F935CB
:102AB800D96E0001FA35DA6E570ED926010EDA22E0
:102AC800DAC0DEFFDBC0DDFF1200000E2C6E2AAE7E
:102AD8000AD02A1E291E281E276C000E2822292209
:102AE8002A22010E2C6E26AE0AD0261E251E241E72
:102AF800236C000E242225222622010E2C1A000EF9
:102B08002D6E000E2E6E000E2F6E000E306E2750AA
:102B1800281029102A10D8B42AD0010E2B6E06D0FE
:102B2800D8902736283629362A362B2A2AAEF8D7BF
:102B3800D8902D362E362F3630362750235C285025
:102B48002458295025582A502658D8A009D027504B
:102B5800235E2850245A2950255A2A50265A2D8057
:102B6800D8902A322932283227322B2EE1D72C50FE
:102B7800D8B408D0301E2F1E2E1E2D6C000E2E220B
:102B88002F2230222DC023F02EC024F02FC025F094
:102B980030C026F0120023502410D8B4120020EEC2
:102BA80002F02350D9262450DA22DF50276E010E76
:102BB800286E000E296E272A03D0D8902836293689
:102BC800272EFBD728C02AF029C02BF02550261025
:102BD800D8A42BD0FF0E2A1A28D025042610D8A452
:102BE80003D02A50891212002A508916120025048F
:102BF8002610D8A403D02A508A1212002A508A1606
:102C0800120025042610D8A403D02A508B121200D3
:102C18002A508B16120025042610D8A403D02A5057
:102C28008C1212002A508C16120023C0D9FF24C01F
:102C3800DAFFDECF27F0DDCF28F02850000AD8A42D
:102C480012002750000AD8B4C8D7010AD8B4CFD781
:102C5800030AD8B4D6D7010AD8A41200DCD7075083
:102C68000810D8B4120020EE02F00750D9260850F8
:102C7800DA22DF500B6E010E0C6E000E0D6E0B2A61
:102C880003D0D8900C360D360B2EFBD70CC00EF0A7
:102C98000DC00FF009500A10D8A42BD0FF0E0E1A41
:102CA80028D009040A10D8A403D00E5089121200A3
:102CB8000E508916120009040A10D8A403D00E5029
:102CC8008A1212000E508A16120009040A10D8A49B
:102CD80003D00E508B1212000E508B1612000904EE
:102CE8000A10D8A403D00E508C1212000E508C1665
:102CF800120007C0D9FF08C0DAFFDECF0BF0DDCF26
:102D08000CF00C50000AD8A412000B50000AD8B4DA
:102D1800C8D7010AD8B4CFD7030AD8B4D6D7010A7E
:102D2800D8A41200DCD7000120EE02F0EB51D9261E
:102D3800EC51DA22DF500001ED6F080E0001ED279B
:102D4800EBC0D9FFECC0DAFFDECFEEF0DDCFEFF05D
:102D58000001ED2B04D0D8900001EE37EF370001C9
:102D6800ED2FF9D7EEC02BF0EFC02CF067EC1CF07C
:102D78002BC035F02CC036F02DC037F0000E386E61
:102D8800200E396E410E3A6E99EC12F035C0F0F013
:102D980036C0F1F037C0F2F036EC1DF0CA0E000173
:102DA800BD6FFE0E0001BE6FF0C0BFF0F1C0C0F0F5
:102DB800F2C0C1F009EC00F0370E0001BD6FFF0E44
:102DC8000001BE6F09EC00F083EC1CF02A0AD8B4AD
:102DD8001200FAD72650D8B405D023502410251055
:102DE800D8A40CD0000E236E000E246E000E256EA3
:102DF8001200262AD890253224322332000E2314BA
:102E0800286E000E2414296EFE0E25142A6E2850F2
:102E180029102A10D8B40CD0ECD7262A010E232664
:102E2800000E2422000E2522D89025322432233287
:102E3800000E2314286E000E2414296EFF0E25148C
:102E48002A6E285029102A10D8B406D0E6D72606AC
:102E5800D89023362436253624BE03D0020E2660A9
:102E6800F6D726A0249ED890263226502512275021
:102E7800D8A4258E23C023F024C024F025C025F033
:102E88001200000E3A6E34AE0AD0341E331E321EC3
:102E9800316C000E322233223422010E3A6E38AEE3
:102EA80008D0381E371E361E356C000E36223722E3
:102EB80038223550361037103810D8B424D0010EC7
:102EC800396E06D0D8903536363637363836392A00
:102ED80038AEF8D73550315C365032583750335801
:102EE80038503458D8A008D03550315E3650325A50
:102EF8003750335A3850345AD890383237323632FD
:102F08003532392EE7D73A50D8B408D0341E331E9C
:102F1800321E316C000E32223322342231C031F09D
:102F280032C032F033C033F034C034F0120027EC32
:102F38001DF049EC1BF00001F86F430E0001F81971
:102F4800D8A442D08EEC1AF00001F36F0001F351BF
:102F58000001F46FF56B2A0E0001F819D8B4E9D70F
:102F6800CF0E0001F4250001806FFF0E0001F5214E
:102F78000001816FEEEC17F080C0F6F081C0F7F029
:102F88000001F451C0EC1AF00001F86F410E000185
:102F9800F819D8A407D0F6C0EBF0F7C0ECF097EC1E
:102FA80016F0EED7420E0001F819D8A407D0F6C0E3
:102FB800EBF0F7C0ECF07FEC18F0E2D72A0E000136
:102FC800F819D8B4B6D7DCD7420E0001F819D8B42E
:102FD8001200AFD7000E0001916F000E906F000134
:102FE80091BF08D00001915137E1070E0001905DB3
:102FF800D8B032D080C031F081C032F0000E346ECB
:10300800070E336E96EC1CF000019051312600013A
:1030180091513222010E3126000E322231C037F092
:1030280032C038F0000E38BEFF0E396E3A6E0EEC24
:103038001DF0D89000019035D96E00019135DA6EF7
:10304800820ED926000EDA2237C0DEFF38C0DDFF37
:103058000001904B912BC3D7820E0001806F000EA8
:103068000001816F120031AE16D02FC035F030C08C
:1030780036F031C037F0351E361E371E352A000EA1
:1030880036223722000E35242F6E000E3620306E81
:10309800800E3720316E34AE16D032C035F033C0D2
:1030A80036F034C037F0351E361E371E352A000E6E
:1030B80036223722000E3524326E000E3620336E4B
:1030C800800E3720346E000E2F1A000E301A800E34
:1030D800311A000E321A000E331A800E341A32508A
:1030E8002F5C3350305834503158D8B002D0D89073
:1030F8001200D880120036EC1DF0140E0001BD6FCE
:10310800FF0E0001BE6F09EC00F0DD0E0001BD6F7F
:10311800FE0E0001BE6F000120EE04F0EB51D9262F
:10312800EC51DA22DECFBFF0DDCFC0F0000120EE97
:1031380006F0EB51D926EC51DA22DECFC1F0DDCF13
:10314800C2F0000120EE08F0EB51D926EC51DA224A
:10315800DECFC3F0DDCFC4F0000120EE0AF0EB5162
:10316800D926EC51DA22DECFC5F0DDCFC6F009EC66
:1031780000F083EC1CF02A0AD8B41200FAD7000E2B
:103188002E6E2CAE06D02B6C2C1ED8B02C2A010E1D
:103198002E6E2AAE06D0296C2A1ED8B02A2A010E15
:1031A8002E1A000E306E000E2F6E2B502C10D8B435
:1031B8001CD0010E2D6E04D0D8902B362C362D2A1B
:1031C8002CAEFAD7D8902F3630362B50295C2C509D
:1031D8002A58D8A005D02B50295E2C502A5A2F8067
:1031E800D8902C322B322D2EEDD72E50D8B404D0B7
:1031F8002F6C301ED8B0302A2FC029F030C02AF0EA
:103208001200000E2B6E000E2C6E000E2D6E000E9E
:103218002E6E2750281029102A10D8B42AD0010E53
:103228002F6E06D0D8902736283629362A362F2AE8
:103238002AAEF8D7D8902B362C362D362E36275076
:10324800235C28502458295025582A502658D8A09D
:1032580009D02750235E2850245A2950255A2A502D
:10326800265A2B80D8902A322932283227322F2EFC
:10327800E1D72BC023F02CC024F02DC025F02EC0A0
:1032880026F01200000E346E8E0E336E2EAE11D064
:103298002E1E2D1E2C1E2B6C000E2C222D222E22B3
:1032A800010E346E06D0D8902E322D322C322B32AD
:1032B800332A000E2B142F6E000E2C14306E000EC5
:1032C8002D14316EFF0E2E14326E2F503010311027
:1032D8003210D8A4E8D72BC023F02CC024F02DC07E
:1032E80025F033C026F034C027F0EEEC16F023C0EA
:1032F8002BF024C02CF025C02DF01200000E286EF3
:1033080024AE06D0236C241ED8B0242A010E286EC1
:1033180026AE04D0256C261ED8B0262A25502610A5
:10332800D8B418D0010E276E04D0D890253626368A
:10333800272A26AEFAD72550235C26502458D8A031
:1033480004D02550235E2650245AD89026322532A0
:10335800272EF1D72850D8B404D0236C241ED8B017
:10336800242A23C023F024C024F01200000E066E85
:1033780002AE06D0016C021ED8B0022A010E066EFB
:1033880004AE04D0036C041ED8B0042A0350041001
:10339800D8B418D0010E056E04D0D8900336043680
:1033A800052A04AEFAD70350015C04500258D8A08D
:1033B80004D00350015E0450025AD89004320332FC
:1033C800052EF1D70650D8B404D0016C021ED8B02F
:1033D800022A01C001F002C002F01200520EF66E7D
:1033E800390EF76E000EF86E01EE33F010EE24F091
:1033F8000900F5CFEEFFE550E150FAE1360EF66E22
:103408003A0EF76E000EF86E00EE3BF010EE17F075
:103418000900F5CFEEFFE550E150FAE101EE57F073
:10342800200EEE6AE806FDE10001FA6BF96B00EE8A
:1034380052F00B0EEE6AE806FDE15D905D92000E1B
:10344800F86E0001B0EF0BF034503510361037101D
:10345800D8B424D0010E386E06D0D890343635361C
:1034680036363736382A37AEF8D73450305C3550D0
:1034780031583650325837503358D8A008D03450C5
:10348800305E3550315A3650325A3750335AD89008
:103498003732363235323432382EE7D730C030F052
:1034A80031C031F032C032F033C033F01200246E34
:1034B8002450F00B236E8C500F0B8C6E23508C1005
:1034C8008C6E8C96D60E00D000D0E82EFCD700D09B
:1034D8008C86D60E00D000D0E82EFCD700D0243839
:1034E800F00B246E2450F00B236E8C500F0B8C6E57
:1034F80023508C108C6E8C96D60E00D000D0E82EFF
:10350800FCD700D08C86D60E00D000D0E82EFCD791
:1035180000D0120036EC1DF0020E0001BD6FFF0E48
:103528000001BE6F09EC00F0480E0001BD6FFF0EF0
:103538000001BE6F09EC00F083EC1CF00001EB6F9A
:10354800310E0001EB19D8B414D0320E0001EB197A
:10355800D8B40FD0330E0001EB19D8B40AD0340E0A
:103568000001EB19D8B405D02A0E0001EB19D8A434
:10357800E3D70001EB5112000001EB6F36EC1DF0B0
:10358800B70E0001BD6FFE0E0001BE6FEBC0BFF0AD
:103598000001C06B09EC00F06A0E0001BD6FFF0E60
:1035A8000001BE6F09EC00F083EC1CF00001EC6F29
:1035B800410E0001EC19D8B40AD0420E0001EC19F2
:1035C800D8B405D02A0E0001EC19D8A4EDD7000113
:1035D800EC5112008E0E336E06D0D8902E322D325A
:1035E8002C322B32332A000E2B142F6E000E2C1483
:1035F800306E000E2D14316EFF0E2E14326E2F50C9
:10360800301031103210D8A4E8D72BC023F02CC0CA
:1036180024F02DC025F033C026F0000E276EEEEC06
:1036280016F023C02BF024C02CF025C02DF012007A
:10363800000EC76E280EC66E000EC56E800E236E75
:10364800960E246E980E256E000E266E30C034F04D
:1036580031C035F032C036F033C037F0020ED890A2
:103668003436353636363736E82EF9D734C027F0B3
:1036780035C028F036C029F037C02AF005EC19F01B
:103688002304C86E94869488120036EC1DF0F00E60
:103698000001BD6FFE0E0001BE6F09EC00F0590E6F
:1036A8000001BD6FFF0E0001BE6F09EC00F083EC56
:1036B8001CF00001EB6F420E0001EB19D8B40AD0E0
:1036C800430E0001EB19D8B405D02A0E0001EB19FE
:1036D800D8A4EDD70001EB5112000001B15100014F
:1036E800B2110001B311D8B409D0000E0001B11B0A
:1036F800000E0001B21B800E0001B31BAEC0A2F089
:10370800AFC0A3F0B0C0A4F0B1C0A5F0B2C0A6F09D
:10371800B3C0A7F00BEC0DF0A2C0AEF0A3C0AFF0A1
:10372800A4C0B0F0120012D026C0D7FF25C0D6FF23
:10373800D58E120026C0CFFF25C0CEFFCD80120047
:1037480026C0B3FF25C0B2FFB180120023C029F004
:1037580024C02AF02A50000AD8A412002950000ACE
:10376800D8B4E2D7010AD8B4E5D7020AD8A412001F
:10377800E7D712D00AC0D7FF09C0D6FFD58E1200EE
:103788000AC0CFFF09C0CEFFCD8012000AC0B3FF28
:1037980009C0B2FFB180120007C00DF008C00EF0DA
:1037A8000E50000AD8A412000D50000AD8B4E2D76F
:1037B800010AD8B4E5D7020AD8A41200E7D70FD077
:1037C800000ED56ED586F28A1CD0000ECD6E300E56
:1037D800CD129D8016D0000EB16EA08212D023C0EB
:1037E80025F024C026F02650000AD8A40AD0255077
:1037F800000AD8B4E5D7010AD8B4E7D7020AD8B482
:10380800EAD7F28CF28E1200310E276EB20EE82E35
:10381800FED7272EFCD700D0330EDEEC1CF0320E7C
:10382800DEEC1CF0280EDEEC1CF00F0EDEEC1CF0BB
:10383800060EDEEC1CF0010EDEEC1CF0310E276EDD
:10384800B20EE82EFED7272EFCD700D012009268C1
:103858009368C00E946E000E956E000E966E000E64
:10386800896E000E8A6E000E8B6E000E8C6E000E36
:103878008D6E000EC26E0B0EC112000EC06EC0829D
:10388800300EC012C08EF086F288F28E12002344E9
:10389800E846FC0BC26EC280C282C2B2FED7C350D9
:1038A800C4CF27F0286A27C028F0276A2726000EE9
:1038B800282227C023F028C024F0000E24BEFF0EC3
:1038C800256E266E1200000E2E6E2CAE06D02B6CC6
:1038D8002C1ED8B02C2A010E2E6E2BC023F02CC023
:1038E80024F0256A8E0E266E2EC027F0EEEC16F018
:1038F80023C02BF024C02CF025C02DF0120081A28B
:10390800FED781380F0B0F0B236E81B2FED72350E1
:10391800010D9F0EF324F66EFE0EF420F76E0800DC
:10392800F550120031503302F3CF35F0F4CF36F0B2
:1039380031503402F350362632503302F3503626D3
:1039480035C031F036C032F01200030001005A00D1
:10395800B4007600A6000200050002000200020082
:1039680000000200060002000700030000002350C8
:1039780024102510D8B406D0000E231A000E241ADD
:10398800800E251A23C023F024C024F025C025F07A
:103998001200276E0A0E2718D8A403D032EC1DF0A7
:1039A80012008C84740EE82EFED700D027505BECF2
:1039B8001AF01200266E8C94740EE82EFED700D0F2
:1039C80026505BEC1AF0040E256E3E0EE82EFED74C
:1039D800252EFCD7120081380F0B0F0B016E0150FA
:1039E800010D9F0EF324F66EFE0EF420F76E08000C
:1039F800F5CF5CF01200256E000E246E3A0E25609D
:103A080005D02F0E256402D0010E246E24C023F0A9
:103A18002330120037C0A9FF3850030BAA6E000EDE
:103A2800A66E010EA66EA8CF37F0386A120077EEA0
:103A38003FC14A3EA7A93F460082008A009900106C
:053A480027020001004F
:103A4E00100E306E270E316E000E326E000E336E7B
:103A5E001CEC1BF01200C00EDEEC1CF01200010E6E
:0E3A6E00DEEC1CF01200C00EDEEC1CF01200AC
:10FE080000010000000A00000064000000E8030090
:10FE18000010270000A086010040420F008096983D
:10FE28000000E1F50500CA9A3B00803FCDCC3DD7E4
:10FE3800233C12833AB7D138C62737388635C0D61F
:10FE480033CC2B32708930E7DB2EE53C1E42A20D05
:10FE580000803F00204100C842007A44401C4650C0
:10FE6800C34724744997184BBCBE4C6B6E4E0315A0
:10FE78005079AD60F34971010000001000000000E6
:10FE88000100000010000000000100000010000048
:10FE9800000001000000103132334134353642375A
:10FEA8003839432A302344005059230102041725C6
:10FEB80063292074696D6520203C41202020202082
:10FEC8000A0074696D653A20252E316620736563D2
:10FED8002020200A005B25642C25642C25642C2511
:10FEE800645D2020202A3E007374617274202020F3
:10FEF8003C422020202020200A0073656C65637432
:10FF08002072756E3A20202020200A005B41412C87
:10FF180039562C432C6F746865725D200A003031A5
:10FF280032333435363738396162636465660020A8
:10FF3800202020202020202020202020202A3E00B1
:10FF48005B312C322C332C345D20202020202A3E9B
:10FF580000686973746F7279203C43202020202A3E
:10FF68003E002020207374617473203C42202020BE
:10FF78002A3E005B41412C432C39562C4F544845AE
:10FF8800525D0A0074696D65202530326C643A252B
:10FF980030326C6400563A20252E33662C204E3AB7
:10FFA800202564005B25642C25642C25642C25649D
:10FFB8005D004320206C696D3A2025660041412090
:10FFC8006C696D3A202566003956206C696D3A20B7
:10FFD80025660025783A25783A25780A0025782F6D
:10FFE80025782F25780074313A20257820007275FD
:07FFF8006E6E696E670000E8
:020000040020DA
:08000000FFFFFFFFFFFFFFFF00
:020000040030CA
:0E000000FF021F1EFF8381FF0FC00FE00F40A5
:00000001FF
