:0400000007EF00F016
:100008005D82C0ED15F0A8EF1AF0BF0E0001D96FA0
:10001800000E0001DA6FF5EF06F0250E0001EE196B
:10002800D8B406D00001EE5147EC1FF0F5EF06F00A
:10003800000E0001E96F000EE86F000E0001EB6F83
:10004800000EEA6F05D00001EA850001BD4BBE2B0A
:10005800BDC0F6FFBEC0F7FF0800F550300AD8B49F
:10006800F2D7BDC0F6FFBEC0F7FF0800F55088EC18
:100078001FF0D8A03FD0000E0001E96F000EE86F16
:10008800E8C031F0E9C032F0000E346E0A0E336E6B
:1000980022EC1FF031C0E8F032C0E9F0D00E0001C8
:1000A800CB6FFF0E0001CC6FBDC0F6FFBEC0F7FFDF
:1000B8000800F5500001CD6FCE6B0001CB51000157
:1000C800CD270001CC510001CE230001CD51000104
:1000D800E8270001CE510001E9230001BD4BBE2BEA
:1000E800BDC0F6FFBEC0F7FF0800F55088EC1FF052
:1000F800D8B0C6D7BDC0F6FFBEC0F7FF0800F550A0
:100108002E0AD8A434D00001EB8D0001BD4BBE2BC4
:10011800000E0001ED6F000EEC6F1ED0ECC031F048
:10012800EDC032F0000E346E0A0E336E22EC1FF072
:10013800BDC0F6FFBEC0F7FF0800F5503126000E1F
:100148003222D00E31240001EC6FFF0E3220000164
:10015800ED6F0001BD4BBE2BBDC0F6FFBEC0F7FF63
:100168000800F55088EC1FF0D8A07DD0D7D7000E36
:100178000001ED6F000EEC6F0001EB8974D00001F7
:10018800EA8971D00001EB8590D00001EA8F8DD00B
:100198000001EC510001ED11D8B40ED00001D75187
:1001A8000001EC5D0001D8510001ED59D8B004D030
:1001B800ECC0D7F0EDC0D8F00001E8510001D75DE0
:1001C8000001E9510001D859D8B009D00001D75130
:1001D8000001E85F0001D8510001E95B09D0000E79
:1001E8000001E96F000EE86F03D0200E47EC1FF006
:1001F8000001E807D8A0E9070001E829F6E10001B5
:10020800E929D8B40BD0F1D7D5C0D9FFD6C0DAFFC9
:10021800DF5047EC1FF00001D54BD62B0001D70764
:10022800D8A0D8070001D729EFE10001D829D8B410
:10023800F5EF06F0E9D7D9C0D9FFDAC0DAFFDF5009
:100248000001EE6F020E0001D927000EDA23EE0E30
:100258000001D56F000E0001D66F000E0001D86FA7
:10026800010ED76F95D7BDC0F6FFBEC0F7FF0001DE
:10027800BD4BBE2B0800F5CFEEF00001EE51000A91
:10028800D8B41200630AD8B4D6D7070AD8B40DD0A8
:10029800020AD8B477D70F0AD8B407D0050AD8B459
:1002A8006ED7140AD8B471D7D2D7070E0001EB1550
:1002B800D8B46DD30001EBA905D0000E0001ED6F95
:1002C800060EEC6FD9C0D9FFDAC0DAFFDECFE1F055
:1002D800DECFE2F0DDCFE3F0030E0001D927000EF8
:1002E800DA230001E3AF11D0E1C023F0E2C024F02B
:1002F800E3C025F035EC1FF023C0E1F024C0E2F0A4
:1003080025C0E3F0030E0001EA13000E0001E06FC0
:10031800000EDF6F0001E1510001E2110001E3115D
:10032800D8B491D0820E0001CB6FFF0E0001CC6FC4
:10033800E1C0CDF0E2C0CEF0E3C0CFF0E4C0D0F031
:10034800100E06D00001D890D033CF33CE33CD3342
:10035800E82EF8D70001CD510001CB250001DF6F51
:10036800000E0001CC210001E06F0001DF07D8A0DA
:10037800E007DFC031F0E0C032F0000E346E030E4B
:10038800336E22EC1FF031C0DFF032C0E0F0DFC086
:1003980029F0E0C02AF0000E2C6E0A0E2B6EEEEC4F
:1003A8001AF029C0DFF02AC0E0F00001E0AF04D065
:1003B8000001DF07D8A0E0070001DF510008B3EC17
:1003C80009F098C0DBF099C0DCF09AC0DDF0DBC022
:1003D80089F0DCC08AF0DDC08BF0E1C08CF0E2C0AF
:1003E8008DF0E3C08EF08BEC10F089C0DBF08AC092
:1003F800DCF08BC0DDF0DBC02FF0DCC030F0DDC0FE
:1004080031F0000E326E800E336E3F0E346E60ECAB
:100418001AF0D8B005D00001DF07D8A0E00713D044
:10042800DBC02FF0DCC030F0DDC031F0000E326EE2
:10043800200E336E410E346E60EC1AF0D8A003D053
:100448000001DF4BE02B0001EDBF08D00001ED51AA
:100458001DE10D0E0001EC5DD8B018D0E1C0A2F08E
:10046800E2C0A3F0E3C0A4F00001EC519FEC0EF051
:1004780098C0A5F099C0A6F09AC0A7F06BEC0DF053
:10048800A2C0E1F0A3C0E2F0A4C0E3F00001E0BF25
:1004980008D00001E0512AE10A0E0001DF5DD8B062
:1004A80025D00001E1510001E2110001E311D8B4A7
:1004B8005FD0E1C0AEF0E2C0AFF0E3C0B0F0E6EC70
:1004C80011F00001AE510001AF110001B01100019F
:1004D800B111D8A44DD00001E0BF4AD00001E051CD
:1004E80005E1020E0001DF5DD8A042D0DBC02FF08D
:1004F800DCC030F0DDC031F0700E326E890E336E24
:10050800400E346E60EC1AF0D8B003D00001F70E3C
:1005180002D00001F80EDF27FF0EE0230001DF51B3
:10052800B3EC09F098C0DBF099C0DCF09AC0DDF0BC
:10053800E1C023F0E2C024F0E3C025F0DBC026F0E0
:10054800DCC027F0DDC028F088EC12F023C0E4F00E
:1005580024C0E5F025C0E6F026C0E7F0000E000153
:10056800E16F000E0001E26F000E0001E36F33D06F
:10057800E1C0AEF0E2C0AFF0E3C0B0F0E6EC11F0DD
:10058800AEC0E4F0AFC0E5F0B0C0E6F0B1C0E7F04F
:10059800E1C0AEF0E2C0AFF0E3C0B0F0E4C02BF0D1
:1005A800E5C02CF0E6C02DF0E7C02EF024EC1DF0DD
:1005B8002BC0B1F02CC0B2F02DC0B3F0D2EC1DF0BE
:1005C800AEC0E1F0AFC0E2F0B0C0E3F0000E000151
:1005D800E06F000EDF6F010E0001EE6F0A0E0001E2
:1005E800EE19D8B41ED00001EE51040DDF0EF3242D
:1005F800F66EFD0EF420F76E0900F5500001E45D7B
:100608000900F5500001E5590900F5500001E659C7
:100618000900F5500001E759D8A003D00001EE2BDE
:10062800DDD7EEC0CBF00001CC6BCBBFCC0700010F
:10063800EC510001CB270001ED510001CC23000152
:10064800DF510001CB270001E0510001CC2300015C
:10065800CB510001E85F0001CC510001E95B0001CA
:10066800EC510001ED11D8B404D00001E807D8A07E
:10067800E907030E0001EA150001CB6F000E000127
:10068800EB150001CC6F0001CB510001CC11D8B49F
:1006980004D00001E807D8A0E9070001EAA52DD099
:1006A800030E0001EA150001CB6F000E0001EB15E7
:1006B8000001CC6F0001CB510001CC11D8B40BD094
:1006C8002D0E47EC1FF007D0300E47EC1FF000014D
:1006D800E807D8A0E9070001E9BF73D00001E95194
:1006E800F3E10001E805D8A06CD0EED7200E47EC66
:1006F8001FF00001E807D8A0E9070001E9BF07D00B
:100708000001E951F3E10001E805D8B0EFD7030E85
:100718000001EA150001CB6F000E0001EB15000186
:10072800CC6F0001CB510001CC11D8B44AD02D0EAA
:1007380047EC1FF046D0E4C023F0E5C024F0E6C043
:1007480025F0E7C026F00001EE51040DDF0EF3247A
:10075800F66EFD0EF420F76E0900F5CF27F00900BC
:10076800F5CF28F00900F5CF29F00A00F5CF2AF0D7
:1007780030EC1BF023C0DBF024C0DCF025C0DDF03A
:1007880026C0DEF0DBC030F0DCC031F0DDC032F076
:10079800DEC033F00A0E346E000E356E000E366E73
:1007A800000E376E5EEC1CF030C0DBF031C0DCF0C0
:1007B80032C0DDF033C0DEF00001DB51300F47EC12
:1007C8001FF00001EE070001EE29D8B408D0B3D716
:1007D800300E47EC1FF00001DF07D8A0E00700014A
:1007E800E0BF07D00001E051F3E10001DF05D8B018
:1007F800EFD70001EDBF0CD00001ED5105E1090E66
:100808000001EC5DD8A004D0080E0001EE6F02D004
:10081800ECC0EEF00001EE510001EC5F000E0001AB
:10082800EEBFFF0E0001ED5B0001EE510001D8B4F0
:1008380003D02E0E47EC1FF00001EE51B3EC09F087
:1008480098C0D1F099C0D2F09AC0D3F0E1C08CF032
:10085800E2C08DF0E3C08EF0D1C089F0D2C08AF03A
:10086800D3C08BF08BEC10F089C0AEF08AC0AFF02B
:100878008BC0B0F0E6EC11F0AEC0E4F0AFC0E5F02C
:10088800B0C0E6F0B1C0E7F06DD0E4C023F0E5C039
:1008980024F0E6C025F0E7C026F00001EE51040D73
:1008A800DF0EF324F66EFD0EF420F76E0900F5CF87
:1008B80027F00900F5CF28F00900F5CF29F00A0044
:1008C800F5CF2AF030EC1BF023C0DBF024C0DCF0BD
:1008D80025C0DDF026C0DEF0DBC030F0DCC031F032
:1008E800DDC032F0DEC033F00A0E346E000E356E15
:1008F800000E366E000E376E5EEC1CF030C0DBF07A
:1009080031C0DCF032C0DDF033C0DEF00001DB5175
:10091800300F47EC1FF0E4C030F0E5C031F0E6C01E
:1009280032F0E7C033F00001EE51040DDF0EF3247E
:10093800F66EFD0EF420F76E0900F5CF34F00900CD
:10094800F5CF35F00900F5CF36F00A00F5CF37F0CE
:100958005EEC1CF030C0E4F031C0E5F032C0E6F0E7
:1009680033C0E7F00001EE070001EE29D8B408D043
:100978008CD7300E47EC1FF00001EC07D8A0ED072C
:100988000001EC510001ED11D8B42BD2F2D70001CF
:10099800EABF34D00001EAA90ED0D9C0D9FFDAC025
:1009A800DAFFDECFE4F0DECFE5F0DECFE6F0DECF33
:1009B800E7F0040E0FD0D9C0D9FFDAC0DAFFDECFD6
:1009C800E4F0DDCFE5F00001000EE5BFFF0EE66FB5
:1009D800E76F020E0001D927000EDA230001E7AF06
:1009E80032D0030E0001EA130001E71FE61FE51FDE
:1009F800E46D000EE523E623E72325D00001EAA9EC
:100A08000ED0D9C0D9FFDAC0DAFFDECFE4F0DECFEE
:100A1800E5F0DECFE6F0DECFE7F0040E10D0D9C067
:100A2800D9FFDAC0DAFFDECFCBF0DDCFCCF0CBC018
:100A3800E4F0CCC0E5F00001E66BE76B020E0001C4
:100A4800D927000EDA230001EC510001ED11D8A4DA
:100A58005AD00001E4510001E5110001E61100013E
:100A6800E711D8A450D00001EC4BED2B4CD0010E6F
:100A78000001EE6F0A0E0001EE19D8B44DD0000146
:100A8800EE51040DDF0EF324F66EFD0EF420F76E22
:100A98000900F5500001E45D0900F5500001E55931
:100AA8000900F5500001E6590900F5500001E75921
:100AB800D8A032D00001EE2BDDD7010E0001EE6F79
:100AC800080E0001EE19D8B427D00001EE51040D2C
:100AD800550EF324F66EFE0EF420F76E0900F5505D
:100AE8000001E45D0900F5500001E5590900F550E1
:100AF8000001E6590900F5500001E759D8A00CD0CB
:100B08000001EE2BDDD70001EA51800B000AD8B4B2
:100B1800AED7800AD8B4D1D7800E0001EEBF7F0EC1
:100B28000001CB6F0001EC510001EE5D0001ED51B9
:100B3800800A0001CB59D8B003D0ECC0EEF018D031
:100B48000001ED51800A0001CB6F0001EE51000158
:100B5800EC5D800E0001EEBF7F0E0001CB59D8B0CE
:100B680007D00001EE510001EC6FED6BECBFED0713
:100B78000001E8510001E911D8B414D0030E0001B6
:100B8800EA150001CB6F000E0001EB150001CC6FD8
:100B98000001CB510001CC11D8B404D00001E80702
:100BA800D8A0E9070001EBAD1ED00001E851000113
:100BB800EC5D0001ED51800A0001CB6F0001E951A5
:100BC800800A0001CB59D8B009D00001EC510001CE
:100BD800E85F0001ED510001E95B05D0000E00015E
:100BE800E96F000EE86F800E0001EEBF7F0E000176
:100BF800CB6F0001E8510001EE5D0001E951800A68
:100C08000001CB59D8B00BD00001EE510001E85FCC
:100C1800000E0001EEBFFF0E0001E95B05D0000EDB
:100C28000001E96F000EE86F0001EAA521D0030E6C
:100C38000001EA150001CB6F000E0001EB15000161
:100C4800CC6F0001CB510001CC11D8B403D02D0ECC
:100C580047EC1FF00001E8510001E911D8B4B6D003
:100C6800300E47EC1FF00001E807D8A0E907F2D7DB
:100C78000001E8510001E911D8B40DD0200E47EC6D
:100C88001FF00001E807D8A0E9070001E8510001BA
:100C9800E911D8A4F3D7030E0001EA150001CB6FC0
:100CA800000E0001EB150001CC6F0001CB510001D3
:100CB800CC11D8B48BD02D0E47EC1FF087D0ECC0E8
:100CC800CBF0EDC0CCF00001D890CB37CC37000189
:100CD800D890CB37CC37DF0E0001CB25F66EFD0E52
:100CE800CC21F76E0900F5CF27F00900F5CF28F0E1
:100CF8000900F5CF29F00A00F5CF2AF0E4C023F067
:100D0800E5C024F0E6C025F0E7C026F030EC1BF083
:100D180023C030F024C031F025C032F026C033F0B3
:100D28000A0E346E000E356E000E366E000E376EEB
:100D38005EEC1CF03050300F0001EE6F43D0E4C081
:100D480023F0E5C024F0E6C025F0E7C026F0ECC0AB
:100D5800CBF0EDC0CCF00001D890CB37CC370001F8
:100D6800D890CB37CC37550E0001CB25F66EFE0E4A
:100D7800CC21F76E0900F5CF27F00900F5CF28F050
:100D88000900F5CF29F00A00F5CF2AF030EC1BF066
:100D980023500F0B0001D46F0001D451010D430EF5
:100DA800F324F66EFF0EF420F76E0800F5CFEEF090
:100DB80009D00001EA51800B000AD8B480D7800A14
:100DC800D8B4BDD70001EE5147EC1FF00001EC0785
:100DD800D8A0ED070001EC29ECE10001ED29D8A429
:100DE800E8D7BDC0F6FFBEC0F7FF0001BD4BBE2B64
:100DF8000800F5CFEEF00001EE51D8B4120011EF63
:100E080000F06F0E0001D46F010E0001D56F000EC7
:100E18000001D76F5A0ED66F17EC17F0730E236EBA
:100E2800010E246E000E266E000E256E4EEC18F094
:100E38000D0E0001F06FAF0E0001EF6FB60EE82E39
:100E4800FED7EF2FFCD7F02FFAD700F0000E0101E4
:100E5800096FA00E01010A6F400E01010B6FC00E51
:100E680001010C6F7F0E01010D6F440E01010E6F21
:100E7800000E01010F6F000E0101106F000E01013D
:100E8800116F000E0101026F000E0101036F000EC9
:100E98000101046F000E0101066F010E056F000EBF
:100EA8000101086F000E076F69C12BF06AC12CF0B1
:100EB800C8EC1EF02BC019F12CC01AF12DC01BF183
:100EC800F6D019C1AEF01AC1AFF01BC1B0F0E6EC14
:100ED80011F0AEC000F1AFC001F17B0E0001D46F7C
:100EE800010E0001D56F00C1D6F001C1D7F017EC93
:100EF80017F0530EE82EFED700F04A0E236E000EB0
:100F0800246E000E266E010E256E4EEC18F00CC1F4
:100F180038F00DC139F00EC13AF054C023F055C075
:100F280024F0ACEC1EF023C02BF024C02CF025C01C
:100F38002DF026C02EF0B2EC1BF02BC035F02CC0E3
:100F480036F02DC037F03DEC14F035C089F036C0CE
:100F58008AF037C08BF009C18CF00AC18DF00BC143
:100F68008EF08BEC10F089C016F18AC017F18BC097
:100F780018F1CD0E2F6ECC0E306E3D0E316E16C1AF
:100F880032F017C133F018C134F060EC1AF0D8B061
:100F980003D00101054B062B0FC12FF010C130F013
:100FA80011C131F016C132F017C133F018C134F055
:100FB80060EC1AF0D8B064D04E0E236E000E246E8A
:100FC8004BEC15F0D89023340101076F243401014C
:100FD800086F770E236E010E246E4BEC15F023502C
:100FE8000101071324500101081316C10FF117C19D
:100FF80010F118C111F14A0E236E000E246E000E76
:10100800266E000E256E4EEC18F0040E0001EF6FF0
:101018003D0EE82EFED7EF2FFCD700D00CC138F0DC
:101028000DC139F00EC13AF054C023F055C024F078
:10103800ACEC1EF023C02BF024C02CF025C02DF002
:1010480026C02EF0B2EC1BF02BC035F02CC036F0C9
:101058002DC037F03DEC14F035C089F036C08AF069
:1010680037C08BF009C18CF00AC18DF00BC18EF02E
:101078008BEC10F089C002F18AC003F18BC004F137
:1010880019C1AEF01AC1AFF01BC1B0F0CD0E00010E
:10109800B16FCC0E0001B26F3D0E0001B36FD2EC00
:1010A8001DF0AEC019F1AFC01AF1B0C01BF1F5C008
:1010B8002BF0F6C02CF0C8EC1EF02BC02FF02CC083
:1010C80030F02DC031F019C132F01AC133F01BC114
:1010D80034F060EC1AF0D8A0F4D60FC11CF110C19E
:1010E8001DF111C11EF1D7EC1FF0A90E0001BD6F53
:1010F800FF0E0001BE6F1CC1BFF01DC1C0F01EC1B4
:10110800C1F005C1C2F006C1C3F009EC00F09AD0E5
:1011180002C12FF003C130F004C131F0CD0E326EA0
:10112800CC0E336E3D0E346E60EC1AF0D8B02ED073
:101138003EC02FF03FC030F040C031F01CC132F04B
:101148001DC133F01EC134F060EC1AF0D8B008D0DD
:101158006BC114F16CC115F101015D4B5E2B07D019
:10116800F9C014F1FAC015F10101614B622BCF0EE1
:101178000001BD6FFF0E0001BE6F3EC0BFF03FC053
:10118800C0F040C0C1F009EC00F070D03BC02FF0B7
:101198003CC030F03DC031F01CC132F01DC133F00D
:1011A8001EC134F060EC1AF0D8B008D048C014F171
:1011B80049C015F101015B4B5C2B07D0F9C014F154
:1011C800FAC015F10101614B622BDA0E0001BD6F07
:1011D800FF0E0001BE6F3BC0BFF03CC0C0F03DC079
:1011E800C1F009EC00F042D041C02FF042C030F00D
:1011F80043C031F01CC132F01DC133F01EC134F0C0
:1012080060EC1AF0D8B008D0F7C014F1F8C015F1A6
:1012180001015F4B602B07D0F9C014F1FAC015F13A
:101228000101614B622BC40E0001BD6FFF0E00016E
:10123800BE6F41C0BFF042C0C0F043C0C1F009EC6E
:1012480000F014D007C1EFF008C1F0F00001F05130
:10125800000AD8A40BD00001EF51000AD8B458D71F
:10126800010AD8B4C1D7030AD8B490D7FCEC1EF051
:101278007F0E0001D46F010E0001D56F14C1D6F0A6
:1012880015C1D7F017EC17F0070E0001F06F580ED4
:101298000001EF6F590EE82EFED7EF2FFCD7F02F85
:1012A800FAD700D0F5C012F1F6C013F118D07B0EB2
:1012B8000001D46F010E0001D56F12C1D6F013C121
:1012C800D7F017EC17F00A0E0001EF6FBC0EE82EEE
:1012D800FED7EF2FFCD700F00101124B132B46501D
:1012E8000101125D01011351800A0001EF6F47509F
:1012F800800A0001EF59D8A0DAD70D0E0001F06F6F
:10130800AF0E0001EF6FB60EE82EFED7EF2FFCD719
:10131800F02FFAD700F07B0E0001D46F010E000108
:10132800D56F69C1D6F06AC1D7F017EC17F06F0E08
:101338000001D46F010E0001D56F000E0001D76FB8
:10134800820ED66F17EC17F0730E236E010E246E03
:10135800000E266E010E256E4EEC18F012000001EC
:101368009E6F00019EAF04D100019E6D00019E5149
:10137800800A120FD8A094D0000E346E030E336E7C
:10138800000E2C6E0A0E2B6E000E266E640E256E55
:1013980000019E51236E246A23BE2406EEEC1BF046
:1013A80023C029F024C02AF0EEEC1AF0090E2924F3
:1013B800316E000E2A20326E22EC1FF0070E312407
:1013C800F66EFE0E3220F76E0900F5CF8CF009009C
:1013D800F5CF8DF00A00F5CF8EF0000E2C6E640E5E
:1013E8002B6E00019E51296E2A6A29BE2A06EEEC50
:1013F8001AF0120E2924316E000E2A20326E000EC9
:10140800346E030E336E22EC1FF0070E3124F66E95
:10141800FE0E3220F76E0900F5CF89F00900F5CFEE
:101428008AF00A00F5CF8BF08BEC10F089C09BF0A6
:101438008AC09CF08BC09DF09BC089F09CC08AF04C
:101448009DC08BF0000E346E030E336E000E266EB8
:101458000A0E256E00019E51236E246A23BE2406BF
:10146800EEEC1BF023C031F024C032F022EC1FF068
:10147800070E3124F66EFE0E3220F76E0900F5CF06
:101488008CF00900F5CF8DF00A00F5CF8EF08BECCB
:1014980010F089C098F08AC099F08BC09AF01200B9
:1014A80000019E51800A750FD8A04FD0000E2C6EF7
:1014B8000A0E2B6E00019E51296E2A6A29BE2A0641
:1014C800EEEC1AF0090E2924316E000E2A20326E35
:1014D800000E346E030E336E22EC1FF0070E31241B
:1014E800F66EFE0E3220F76E0900F5CF89F009007E
:1014F800F5CF8AF00A00F5CF8BF0000E346E030E9C
:10150800336E000E266E0A0E256E00019E51236E64
:10151800246A23BE2406EEEC1BF023C031F024C05D
:1015280032F022EC1FF0070E3124F66EFE0E322048
:10153800F76E0900F5CF8CF00900F5CF8DF00A00A1
:10154800F5CF8EF08BEC10F0A4D700019E51030D5F
:10155800070EF324F66EFE0EF420F76E0900F5CFA1
:1015680098F00900F5CF99F00A00F5CF9AF012002B
:1015780000019E51800A120FD8A094D0000E346E3C
:10158800030E336E000E2C6E0A0E2B6E000E266EA6
:10159800640E256E00019E51236E246A23BE240624
:1015A800EEEC1BF023C029F024C02AF0EEEC1AF070
:1015B800090E2924316E000E2A20326E22EC1FF00B
:1015C8002E0E3124F66EFE0E3220F76E0900F5CF8E
:1015D8008CF00900F5CF8DF00A00F5CF8EF0000EE3
:1015E8002C6E640E2B6E00019E51296E2A6A29BE4C
:1015F8002A06EEEC1AF0120E2924316E000E2A206B
:10160800326E000E346E030E336E22EC1FF02E0E77
:101618003124F66EFE0E3220F76E0900F5CF89F000
:101628000900F5CF8AF00A00F5CF8BF08BEC10F0AB
:1016380089C09BF08AC09CF08BC09DF09BC089F04C
:101648009CC08AF09DC08BF0000E346E030E336E82
:10165800000E266E0A0E256E00019E51236E246A26
:1016680023BE2406EEEC1BF023C031F024C032F078
:1016780022EC1FF02E0E3124F66EFE0E3220F76E8D
:101688000900F5CF8CF00900F5CF8DF00A00F5CFF1
:101698008EF08BEC10F089C098F08AC099F08BC05E
:1016A8009AF0120000019E51800A750FD8A04FD001
:1016B800000E2C6E0A0E2B6E00019E51296E2A6AAE
:1016C80029BE2A06EEEC1AF0090E2924316E000E06
:1016D8002A20326E000E346E030E336E22EC1FF099
:1016E8002E0E3124F66EFE0E3220F76E0900F5CF6D
:1016F80089F00900F5CF8AF00A00F5CF8BF0000ECB
:10170800346E030E336E000E266E0A0E256E00012F
:101718009E51236E246A23BE2406EEEC1BF023C0E0
:1017280031F024C032F022EC1FF02E0E3124F66E78
:10173800FE0E3220F76E0900F5CF8CF00900F5CFC8
:101748008DF00A00F5CF8EF08BEC10F0A4D70001D5
:101758009E51030D2E0EF324F66EFE0EF420F76E46
:101768000900F5CF98F00900F5CF99F00A00F5CFF8
:101778009AF012008CEC1EF069EC1EF081EC17F068
:10178800000E0101646F000E636F000E0101556FBA
:10179800000E566F000E576F000E586F000E246E25
:1017A800010E236E44EC1EF0000E246E010E236E13
:1017B800000E256E000E266E000E276E000E286E97
:1017C800F8EC1DF0730E236E010E246E000E266ECB
:1017D800010E256E4EEC18F06F0E0001DE6F010E43
:1017E8000001DF6F000E0001E16F820EE06FA6ECD2
:1017F80016F07B0E0001DE6F010E0001DF6F69C17C
:10180800E0F06AC1E1F0A6EC16F07F0E0001DE6F91
:10181800010E0001DF6F6BC1E0F06CC1E1F0A6ECD6
:1018280016F0D7EC1FF0F60E0001BD6FFF0E000199
:10183800BE6F09EC00F055C135F156C136F155C1FE
:1018480029F156C12AF1000E01012C6F000E2B6FF1
:10185800000E01012E6F460E2D6F000E0101306F34
:101868001E0E2F6FD9D0D3EC1FF0580E276E020E24
:10187800286E000E296E000E2A6E55C123F056C13F
:1018880024F057C125F058C126F06DEC19F023C09B
:1018980031F124C032F125C033F126C034F1BC0E39
:1018A8000001BD6FFE0E0001BE6F55C12DF056C17F
:1018B8002EF057C12FF058C130F0580E316E020E7D
:1018C800326E000E336E000E346EE8EC17F02DC049
:1018D800BFF02EC0C0F02FC0C1F030C0C2F0580E0B
:1018E800276E020E286E000E296E000E2A6E55C154
:1018F80023F056C124F057C125F058C126F06DECED
:1019080019F023C02DF024C02EF025C02FF026C0DA
:1019180030F00A0E316E000E326E000E336E000E7D
:10192800346EE8EC17F02DC0C3F02EC0C4F02FC001
:10193800C5F030C0C6F031C123F032C124F033C144
:1019480025F034C126F00A0E276E000E286E000E10
:10195800296E000E2A6E6DEC19F023C0C7F024C062
:10196800C8F025C0C9F026C0CAF009EC00F0FA0E8C
:1019780001011F6FFF0EE82EFED71F2FFCD735C1C0
:101988001FF136C120F1000E010120BFFF0E216FAB
:10199800226F01011F1F201F211F221F1F2B000E56
:1019A8002023212322230101555101011F25010173
:1019B800236F01015651010120210101246F01010A
:1019C8005751010121210101256F010158510101E0
:1019D80022210101266F000E01016EBFFF0E0101D9
:1019E800286F800A276F0101235101016D5D0101F4
:1019F800245101016E5901012551010128590101A4
:101A08002651800A01012759D8B006D0000E0101DD
:101A1800646F010E636F0CD00101595101015A1115
:101A2800D8A406D00101635101016411D8B41BD7B1
:101A38000101635101016411D8A40CD005EC07F031
:101A480055C135F156C136F1000E01015A6F000E2D
:101A5800596FE7D6730E236E010E246E000E266EA4
:101A6800000E256E4EEC18F056C137F157C138F10B
:101A7800010155510101396F3A6B5DC13BF15EC1FE
:101A88003CF15BC13DF15CC13EF15FC13FF160C11A
:101A980040F161C141F162C142F1370E0001896F25
:101AA800010E00018A6F35EC16F0370E0001EF6F5A
:101AB800010E0001F06FCFEC0FF0370E0001EF6F51
:101AC800010E0001F06FC3EC19F058D6FFD7A4C07F
:101AD800A8F00001A96BAA6B0001A3350001A83783
:101AE80001E3A9810001A8510001AD6FA7C0A8F0CA
:101AF8000001A96BAA6B0001A6350001A83701E314
:101B0800A9810001A8510001AC6F0001AD5100018D
:101B1800D8B411D00001AC510001AD5DD8B012D0DD
:101B28000001AD5100080001AC250001A86F180E96
:101B38000001A86507D0A5C0A2F0A6C0A3F0A7C061
:101B4800A4F012000001AC510001D8B411D000017A
:101B5800AD510001AC5DD8B012D00001AC51000805
:101B68000001AD250001A86F180E0001A86507D077
:101B7800A2C0A2F0A3C0A3F0A4C0A4F01200060E55
:101B88000001AB6F0001A4AF02D00001AB8F0001D0
:101B9800A7AF02D00001AB8D0001A38FFF0E00019B
:101BA800A217FF0E0001A317000E0001A4170001E1
:101BB800A68FFF0E0001A517FF0E0001A617000E45
:101BC8000001A7170001AC510001AD5DD8B025D0C8
:101BD8000001D890A537A637A7370001AC07000148
:101BE800AD510001AC19D8B411D00001AB07ABC09E
:101BF800A8F0070E0001A817D8B408D0E9D700014B
:101C0800D890A433A333A2330001AD2B0001AC510B
:101C18000001AD19D8B42BD0F2D70001AD510001A5
:101C2800AC5DD8B024D00001D890A237A337A43730
:101C38000001AD070001AD510001AC19D8B411D0B5
:101C48000001AB07ABC0A8F0070E0001A817D8B475
:101C580008D0E9D70001D890A733A633A5330001EF
:101C6800AC2B0001AC510001AD19D8A4F3D7000189
:101C7800ABAF12D0FF0E0001A21BFF0E0001A31B89
:101C8800FF0E0001A41B010E0001A227000E000197
:101C9800A323000E0001A4230001ABAD12D0FF0E58
:101CA8000001A51BFF0E0001A61BFF0E0001A71BCC
:101CB800010E0001A527000E0001A623000E000159
:101CC800A723000E0001AB6F0001A2510001A52758
:101CD8000001A3510001A6230001A4510001A7237C
:101CE8000001A7AF15D0FF0E0001A51BFF0E0001D4
:101CF800A61BFF0E0001A71B010E0001A527000E61
:101D08000001A623000E0001A723010E0001AB6FFE
:101D1800A5C023F0A6C024F0A7C025F0ADC026F0CA
:101D2800ABC027F016EC19F023C0A2F024C0A3F032
:101D380025C0A4F012000001A16F6D0E0001A1657D
:101D4800A2D0000E346E030E336E000E2C6E0A0EF7
:101D58002B6E000E266E640E256EA1C023F0246A39
:101D6800EEEC1BF023C029F024C02AF0EEEC1AF0A8
:101D7800090E2924316E000E2A20326E22EC1FF043
:101D8800070E3124F66EFE0E3220F76E0900F5CFED
:101D98008CF00900F5CF8DF00A00F5CF8EF0000E1B
:101DA8002C6E640E2B6EA1C029F02A6AEEEC1AF094
:101DB800120E2924316E000E2A20326E000E346E67
:101DC800030E336E22EC1FF0070E3124F66EFE0E62
:101DD8003220F76E0900F5CF89F00900F5CF8AF0B7
:101DE8000A00F5CF8BF08BEC10F089C09EF08AC00A
:101DF8009FF08BC0A0F0000E346E030E336E000E01
:101E0800266E0A0E256EA1C023F0246AEEEC1BF0A4
:101E180023C031F024C032F022EC1FF0070E312429
:101E2800F66EFE0E3220F76E0900F5CF8CF0090031
:101E3800F5CF8DF00A00F5CF8EF09EC089F09FC0D7
:101E48008AF0A0C08BF08BEC10F089C09BF08AC0A0
:101E58009CF08BC09DF09BC089F09CC08AF09DC00F
:101E68008BF0000E00018C6F000E00018D6F3F0E8D
:101E780000018E6F8BEC10F089C098F08AC099F041
:101E88008BC09AF012000A0E0001A16560D0000E06
:101E9800346E030E336E000E266E0A0E256EA1C038
:101EA80023F0246AEEEC1BF023C031F024C032F09A
:101EB80022EC1FF0070E3124F66EFE0E3220F76E6C
:101EC8000900F5CF8CF00900F5CF8DF00A00F5CFA9
:101ED8008EF0000E2C6E0A0E2B6EA1C029F02A6A15
:101EE800EEEC1AF0090E2924316E000E2A20326E0B
:101EF800000E346E030E336E22EC1FF0070E3124F1
:101F0800F66EFE0E3220F76E0900F5CF89F0090053
:101F1800F5CF8AF00A00F5CF8BF08BEC10F089C072
:101F28009EF08AC09FF08BC0A0F09EC089F09FC031
:101F38008AF0A0C08BF0000E00018C6F000E00012B
:101F48008D6F3F0E00018E6F8BEC10F095D700015E
:101F5800A151030D070EF324F66EFE0EF420F76E62
:101F68000900F5CF89F00900F5CF8AF00A00F5CF0E
:101F78008BF0000E00018C6F000E00018D6F3F0E7C
:101F880000018E6F8BEC10F089C098F08AC099F030
:101F98008BC09AF01200EFC0D9FFF0C0DAFFDECF95
:101FA80004F1DDCF05F1000120EE02F0EF51D92652
:101FB800F051DA22DECF06F1DDCF07F1010104513D
:101FC8000001F26FF16B010106510001F1270101D7
:101FD80007510001F223F1C008F1F2C009F1010133
:101FE800000E09BFFF0E0A6F0B6FD7EC1FF0580EDB
:101FF800276E020E286E000E296E000E2A6E08C18A
:1020080023F009C124F00AC125F00BC126F06DECBC
:1020180019F023C000F124C001F125C002F126C047
:1020280003F18D0E0001BD6FFE0E0001BE6F08C1E9
:102038002DF009C12EF00AC12FF00BC130F0580E57
:10204800316E020E326E000E336E000E346EE8EC06
:1020580017F02DC0BFF02EC0C0F02FC0C1F030C0A7
:10206800C2F0580E276E020E286E000E296E000E62
:102078002A6E08C123F009C124F00AC125F00BC15A
:1020880026F06DEC19F023C02DF024C02EF025C0E9
:102098002FF026C030F00A0E316E000E326E000EA0
:1020A800336E000E346EE8EC17F02DC0C3F02EC06E
:1020B800C4F02FC0C5F030C0C6F000C123F001C184
:1020C80024F002C125F003C126F00A0E276E000E87
:1020D800286E000E296E000E2A6E6DEC19F023C0D2
:1020E800C7F024C0C8F025C0C9F026C0CAF009EC62
:1020F80000F0540E0001BD6FFF0E0001BE6F09EC29
:1021080000F0FCEC1EF02A0AD8B41200FAD78BC0F3
:102118008FF00001906B916B00018A3500018F37B9
:1021280001E3908100018F510001926F00019251EB
:10213800D8A40AD0000E0001896F000E00018A6F32
:10214800000E00018B6F12008EC08FF00001906BA3
:10215800916B00018D3500018F3701E390810001FB
:102168008F510001976F00019751D8A40AD0000E33
:102178000001896F000E00018A6F000E00018B6F4D
:102188001200000197517B0F000192278BC097F036
:1021980000018E510001971B800E00019717000166
:1021A8008A8F00018D8FFF0E00018C17FF0E000132
:1021B8008D17000E00018E17000E0001936F000EA0
:1021C8000001946F000E0001956F070E0001966FD5
:1021D800000189A10CD000018C5100019327000156
:1021E8008D510001942300018E51000195230001B7
:1021F800D8908B338A3389330001D8908C378D3748
:102208008E370001962FE4D7090E0001966F000162
:1022180089A10CD000018C510001932700018D5138
:102228000001942300018E51000195230001D890EC
:102238008B338A3389330001D890953394339333A1
:102248000001962FE4D793C023F094C024F095C0E2
:1022580025F092C026F097C027F016EC19F023C09D
:1022680089F024C08AF025C08BF01200A80E000166
:10227800C56FFD0EC66FFF0EC76FFF0EC86FE20E6B
:102288000001D06F040ED16F000ED26F000ED36F15
:102298006A0E0001C96F180ECA6F000ECB6F000ED0
:1022A800CC6FD0C0C1F0D1C0C2F0D2C0C3F0D3C08F
:1022B800C4F00001C11FC21FC31FC41FC12B000EE1
:1022C800C223C323C4230001C9510001C1252B6EB9
:1022D8000001CA510001C2212C6E0001CB5100013E
:1022E800C3212D6E0001CC510001C4212E6EB2EC29
:1022F8001BF02BC08CF02CC08DF02DC08EF0000E82
:10230800386E340E396E430E3A6EBDC02BF0BEC027
:102318002CF0C8EC1EF02BC035F02CC036F02DC0C8
:1023280037F03DEC14F035C089F036C08AF037C07C
:102338008BF08BEC10F089C0A5F08AC0A6F08BC09A
:10234800A7F0D0C02BF0D1C02CF0D2C02DF0D3C054
:102358002EF0B2EC1BF02BC0A2F02CC0A3F02DC0C5
:10236800A4F06BEC0DF0A2C0CDF0A3C0CEF0A4C0D9
:10237800CFF0C5C02BF0C6C02CF0C7C02DF0C8C028
:102388002EF0B2EC1BF02BC0A5F02CC0A6F02DC08F
:10239800A7F0CDC0A2F0CEC0A3F0CFC0A4F06BECE4
:1023A8000DF0A2C0AEF0A3C0AFF0A4C0B0F0E6EC50
:1023B80011F0AEC0BDF0AFC0BEF0B0C0BFF0B1C04C
:1023C800C0F01200B0C0B2F00001B36BB46B0001F2
:1023D800AF350001B23701E3B3810001B25100010A
:1023E800BC6F0001BC51D8A40AD0000E0001AE6F2A
:1023F800000EAF6F000EB06F000EB16F1200170E17
:102408000001B26FAEC0B3F0AFC0B4F0B0C0B5F069
:102418000001B2290001B66F05D00001D890B5338C
:10242800B433B3330001B62FF8D70001B35100011C
:10243800B76F0001AF8FFF0E0001AE17FF0E00014E
:10244800AF17000E0001B0170001AE510001B86FC0
:102458000001AF510001B96F0001B0510001BA6F1E
:102468000001BB6B8E0E0001BC5F0001BCAF1AD02F
:102478000001BC51800A8F0FD8B00AD0000E0001AD
:10248800AE6F000EAF6F000EB06F000EB16F12008E
:102498000001D890BB33BA33B933B8330001BC3F1D
:1024A800F7D71BD0170E0001BC6512D0000E000133
:1024B800AE6F000EAF6F000EB06F000EB16F12005E
:1024C8000001D890B837B937BA37BB370001BC0715
:1024D8000001BC510001D8A4F3D70001B751000195
:1024E800D8B409D00001BB1FBA1FB91FB86D000EC0
:1024F800B923BA23BB23B8C0AEF0B9C0AFF0BAC095
:10250800B0F0BBC0B1F0120025C029F02A6A2B6ACE
:102518002434293601E32A802950316E3150D8A459
:1025280009D0000E236E000E246E000E256E000EDC
:10253800266E120028C029F02A6A2B6A2734293609
:1025480001E32A802950306E3050D8A409D0000EFB
:10255800236E000E246E000E256E000E266E1200ED
:10256800248EFF0E2316FF0E2416000E2516278E26
:10257800FF0E2616FF0E2716000E2816000E2C6ECC
:10258800000E2D6E000E2E6E000E2F6E7F0E315E29
:102598003050980F315E180E306ED8902C362D368C
:1025A8002E362F362650235C27502458285025587D
:1025B800D8A007D02650235E2750245A2850255AE1
:1025C8002C80D890233624362536302EE6D731AEE7
:1025D80016D03150800A970FD8B009D0000E236E5C
:1025E800000E246E000E256E000E266E1200D89086
:1025F8002F322E322D322C32313EF9D715D0170E0C
:1026080031640FD0000E236E000E246E000E256E6E
:10261800000E266E1200D8902C362D362E362F3608
:1026280031063150D8A4F7D72CC023F02DC024F0A0
:102638002EC025F02FC026F01200253426342E6E29
:102648002E50D8A409D0000E236E000E246E000E62
:10265800256E000E266E1200283429342D6E2D505A
:10266800D8A409D0000E236E000E246E000E256E2D
:10267800000E266E1200258EFF0E2316FF0E24165E
:10268800FF0E2516000E2616288EFF0E2616FF0EA4
:102698002716FF0E2816000E2916000E296E000EAA
:1026A8002A6E000E2B6E000E2C6E7F0E2E5E2D50A5
:1026B800A00F2E5E200E2D6ED89029362A362B3686
:1026C8002C362650235C275024582850255829504A
:1026D8002658D8A009D02650235E2750245A2850BF
:1026E800255A2950265A2980D8902336243625364B
:1026F80026362D2EE1D72EAE16D02E50800A9F0FEB
:10270800D8B009D0000E236E000E246E000E256E80
:10271800000E266E1200D8902C322B322A32293223
:102728002E3EF9D715D01F0E2E640FD0000E236E43
:10273800000E246E000E256E000E266E1200D89034
:1027480029362A362B362C362E062E50D8A4F7D703
:1027580029C023F02AC024F02BC025F02CC026F075
:102768001200D7EC1FF0B0EC1FF07DD071EC1BF01D
:1027780026C00CF127C00DF10CC1D9FF0DC1DAFF3D
:10278800DECF00F1DDCF01F1010120EE02F00C51A6
:10279800D9260D51DA22DECF02F1DDCF03F1010196
:1027A80020EE04F00C51D9260D51DA22DECF04F1C7
:1027B800DDCF05F1010120EE08F00C51D9260D51AD
:1027C800DA22DECF06F1DDCF07F1010120EE0AF0B3
:1027D8000C51D9260D51DA22DECF08F1DDCF09F1EF
:1027E800010120EE0CF00C51D9260D51DA22DECF72
:1027F8000AF1DDCF0BF1D30E0001BD6FFE0E000113
:10280800BE6F0AC1BFF00BC1C0F008C1C1F009C159
:10281800C2F006C1C3F007C1C4F009EC00F0D3EC64
:102828001FF0A50E0001BD6FFE0E0001BE6F04C1B2
:10283800BFF005C1C0F002C1C1F003C1C2F000C1C0
:10284800C3F001C1C4F009EC00F0020E0001F06F02
:10285800450E0001EF6FA90EE82EFED7EF2FFCD72B
:10286800F02FFAD700D0C4EC1FF0410AD8B41200F8
:102878007DD737C080F00001816B826B3634000150
:10288800803701E38181000180510001876F0001D9
:102898008751D8A407D0000E356E000E366E000E94
:1028A800376E12003AC080F00001816B826B3934B8
:1028B8000001803701E38181000180510001886FA8
:1028C80000018851D8A407D0000E356E000E366E70
:1028D800000E376E1200000E0001846F000E00011A
:1028E800856F000E0001866F00018851890F000175
:1028F800875F37C088F03A500001881B800E0001BE
:102908008817368EFF0E3516FF0E3616000E371650
:10291800398EFF0E3816FF0E3916000E3A16180EAD
:102928000001836F0001D890843785378637385087
:10293800355C395036583A503758D8A008D03850F6
:10294800355E3950365A3A50375A00018481D8904A
:102958003536363637360001832FE4D784C023F066
:1029680085C024F086C025F087C026F088C027F0EF
:1029780016EC19F023C035F024C036F025C037F026
:102988001200F2A482D0F294D8905834D96E5934F7
:10299800DA6E4D0ED926010EDA22DECF07F0DDCF32
:1029A80008F0000E0A6E000E096EB2EC18F0010E67
:1029B8005824016E000E5920026E010E0001FB25FD
:1029C800036E000E0001FC21046E26EC1CF0D8906A
:1029D800013602364D0E0124D96E010E0220DA6E40
:1029E800DECF07F0DDCF08F0000E0A6E010E096E8B
:1029F800B2EC18F0000E086E000E076EFF0E106E97
:102A0800FF0E116E010E5824016E000E5920026E41
:102A1800010E0001FB25036E000E0001FC21046E6F
:102A280026EC1CF0D89001360236450E0124D96EEA
:102A3800010E0220DA6EDECF12F0DDCF13F0121E87
:102A4800131E124A132A105012261150132212C0B4
:102A580009F013C00AF00B6A0C6A1EEC1EF0010E96
:102A68005824016E000E5920026E010E0001FB254C
:102A7800036E000E0001FC21046E26EC1CF001C060
:102A880058F002C059F0010E1200000E120058D082
:102A980020EE02F02350D9262450DA22DF50256E8A
:102AA80080CF26F0252A02D0D8902632252EFCD7B2
:102AB800010E26162650236E246A120020EE02F01C
:102AC8002350D9262450DA22DF50256E81CF26F0F4
:102AD800252A02D0D8902632252EFCD7010E26169C
:102AE8002650236E246A120020EE02F02350D926C5
:102AF8002450DA22DF50256E82CF26F0252A02D014
:102B0800D8902632252EFCD7010E26162650236E85
:102B1800246A120020EE02F02350D9262450DA222B
:102B2800DF50256E83CF26F0252A02D0D890263292
:102B3800252EFCD7010E26162650236E246A120075
:102B480023C0D9FF24C0DAFFDECF25F0DDCF26F081
:102B58002650000AD8A40DD02550000AD8B498D71A
:102B6800010AD8B4ABD7030AD8B4BED7010AD8B47F
:102B7800D1D72368246812000600FACF14F0FBCFDF
:102B880015F0E9CF16F0EACF17F0E1CF18F0E2CF51
:102B980019F0D9CF1AF0DACF1BF0F3CF1CF0F4CF2D
:102BA8001DF0F6CF1EF0F7CF1FF0F8CF20F0F5CFCD
:102BB80021F0C5EC14F00009D8A435D09EA017D098
:102BC800000E086E010E076E830E096E860E0A6EE1
:102BD800000E0B6E000E0C6E1EEC1EF0010E0101B5
:102BE8005527000E5623572358239E901CD0F2A237
:102BF80007D0F292000E01015A6F010E596F13D0DF
:102C0800F0B0F0A610D0F09069EC1FF081380F0BEF
:102C18000F0B226E0C0E2218D8A405D0000E01014D
:102C2800646F010E636F21C0F5FF20C0F8FF1FC05D
:102C3800F7FF1EC0F6FF1DC0F4FF1CC0F3FF1BC04A
:102C4800DAFF1AC0D9FF19C0E2FF18C0E1FF17C0A8
:102C5800EAFF16C0E9FF15C0FBFF14C0FAFF5D923A
:102C68001100000E376E000E386E000E396E000E21
:102C78003A6E97EC1FF0010E37240001806F000EAA
:102C880038200001816F000E0001826F000E836FF3
:102C9800000E846F000E856F7FEC1DF0000E376EFE
:102CA800000E386E000E396E000E3A6E97EC1FF06B
:102CB80037C08BF038C08CF0000E00018E6F000E0C
:102CC8008D6F00018EBF08D000018E513AE1070ECA
:102CD80000018D5DD8B01200D89000018D35D96EF5
:102CE80000018E35DA6E00018951D92600018A511A
:102CF800DA22DECF80F0DDCF81F08BC031F08CC0DE
:102D080032F0000E346E070E336E22EC1FF0000115
:102D18008D51312600018E513222010E3126000ECE
:102D2800322231C082F032C083F00001000E83BF2E
:102D3800FF0E846F856F7FEC1DF000018D4B8E2B8D
:102D4800C0D71200000E0001E76F000EE66F17D023
:102D5800D8900001E635D96E0001E735DA6E4D0EE0
:102D6800D926010EDA220001DE51DE1805E1000144
:102D7800DF51DE18D8B412000001E64BE72B000142
:102D8800FB510001E65D0001E751800A0001E26F96
:102D98000001FC51800A0001E259D8A0D9D70001EE
:102DA800FB4BFC2BFE0E0001E26FFF0E0001E36FF0
:102DB800FBC0E4F0FCC0E5F0D8900001E437E5374B
:102DC8000001E2510001E4270001E3510001E5237D
:102DD8004D0E0001E425D96E010E0001E521DA6EE1
:102DE800DEC0DEFFDFC0DDFFDEC0D4F0DFC0D5F01F
:102DF800E0C0D6F0E1C0D7F017EC17F0000E246E53
:102E0800000E236E44EC1EF0000E246E000E236E9E
:102E1800000E256E000E266E000E276E000E286E20
:102E2800F8EC1DF01200C30E0001DB6F500EDA6FD4
:102E3800000E0001DD6F000EDC6F3FD0D89000015E
:102E4800DC35D96E0001DD35DA6E4D0ED926010E5E
:102E5800DA220001D451DE181CE10001D551DE1838
:102E6800D8A417D0D6C0BDF0D7C0BEF03AEC11F048
:102E7800D8900001DC35D96E0001DD35DA6E450EDB
:102E8800D926010EDA220001BDC0DEFF0001BEC056
:102E9800DDFFD8900001DC35D96E0001DD35DA6E32
:102EA800450ED926010EDA22DE500001DA5FDD5028
:102EB8000001DB5B0001DC4BDD2B0001FB51000155
:102EC800DC5D0001DD51800A0001D86F0001FC5172
:102ED800800A0001D859D8A0B1D7D8900001FB3595
:102EE800D96E0001FC35DA6E450ED926010EDA22BC
:102EF800DAC0DEFFDBC0DDFF1200B0EC1FF0B5EC7E
:102F080013F0AAEC1DF00101126F430E0101121912
:102F1800D8A44FD0C4EC1CF00001F36F0001F351AA
:102F280001010E6F0F6B2A0E01010E1901010F111D
:102F3800D8B4E7D7CF0E01010E250001806FFF0E30
:102F480001010F210001816F17EC1AF080C010F108
:102F580081C011F110C1D9FF11C1DAFFDE28DE10DE
:102F6800D8A403D0E4EC1EF0CCD701010E51F6EC46
:102F78001CF00101126F410E01011219D8A407D0EB
:102F880010C1EFF011C1F0F0CFEC0FF0EED7420E08
:102F980001011219D8A407D010C1EFF011C1F0F047
:102FA800C3EC19F0E2D72A0E01011219D8B4A9D737
:102FB800DCD7420E01011219D8B412002A0E010101
:102FC8001219D8B49CD79DD7000E366E34AE0AD0ED
:102FD800341E331E321E316C000E3222332234224C
:102FE800010E366E30AE0AD0301E2F1E2E1E2D6CEE
:102FF800000E2E222F223022010E361A000E376EB6
:10300800000E386E000E396E000E3A6E31503210D6
:1030180033103410D8B42AD0010E356E06D0D890AB
:103028003136323633363436352A34AEF8D7D8907E
:103038003736383639363A3631502D5C32502E58BC
:1030480033502F5834503058D8A009D031502D5E05
:1030580032502E5A33502F5A3450305A3780D89025
:103068003432333232323132352EE1D73650D8B499
:1030780008D03A1E391E381E376C000E3822392205
:103088003A2237C02DF038C02EF039C02FF03AC0A0
:1030980030F0120023502410D8B4120020EE02F0B1
:1030A8002350D9262450DA22DF50276E010E286ECD
:1030B800000E296E272A03D0D89028362936272EC5
:1030C800FBD728C02AF029C02BF025502610D8A4F9
:1030D8002BD0FF0E2A1A28D025042610D8A403D0F6
:1030E8002A50891212002A50891612002504261027
:1030F800D8A403D02A508A1212002A508A16120025
:1031080025042610D8A403D02A508B1212002A5066
:103118008B16120025042610D8A403D02A508C122E
:1031280012002A508C16120023C0D9FF24C0DAFFDF
:10313800DECF27F0DDCF28F02850000AD8A41200EF
:103148002750000AD8B4C8D7010AD8B4CFD7030A81
:10315800D8B4D6D7010AD8A41200DCD70750081073
:10316800D8B4120020EE02F00750D9260850DA220F
:10317800DF500B6E010E0C6E000E0D6E0B2A03D085
:10318800D8900C360D360B2EFBD70CC00EF00DC0A8
:103198000FF009500A10D8A42BD0FF0E0E1A28D011
:1031A80009040A10D8A403D00E50891212000E5038
:1031B8008916120009040A10D8A403D00E508A12E6
:1031C80012000E508A16120009040A10D8A403D05F
:1031D8000E508B1212000E508B16120009040A10A2
:1031E800D8A403D00E508C1212000E508C16120068
:1031F80007C0D9FF08C0DAFFDECF0BF0DDCF0CF037
:103208000C50000AD8A412000B50000AD8B4C8D732
:10321800010AD8B4CFD7030AD8B4D6D7010AD8A49C
:103228001200DCD72650D8B405D02350241025101E
:10323800D8A40CD0000E236E000E246E000E256E4E
:103248001200262AD890253224322332000E231465
:10325800286E000E2414296EFE0E25142A6E28509E
:1032680029102A10D8B40CD0ECD7262A010E232610
:10327800000E2422000E2522D89025322432233233
:10328800000E2314286E000E2414296EFF0E251438
:103298002A6E285029102A10D8B406D0E6D7260658
:1032A800D89023362436253624BE03D0020E266055
:1032B800F6D726A0249ED8902632265025122750CD
:1032C800D8A4258E23C023F024C024F025C025F0DF
:1032D8001200000E2C6E26AE0AD0261E251E241EB5
:1032E800236C000E242225222622010E2C6E2AAEE3
:1032F80008D02A1E291E281E276C000E28222922E3
:103308002A222750281029102A10D8B424D0010EB8
:103318002B6E06D0D8902736283629362A362B2AFF
:103328002AAEF8D72750235C28502458295025580E
:103338002A502658D8A008D02750235E2850245A4F
:103348002950255A2A50265AD8902A32293228320A
:1033580027322B2EE7D72C50D8B408D0261E251E8E
:10336800241E236C000E24222522262223C023F0AB
:1033780024C024F025C025F026C026F01200000144
:1033880020EE04F0EF51D926F051DA22DECF00F119
:10339800DDCF01F1000120EE06F0EF51D926F05102
:1033A800DA22DECF02F1DDCF03F1000120EE08F0D2
:1033B800EF51D926F051DA22DECF04F1DDCF05F145
:1033C800000120EE0AF0EF51D926F051DA22DECFC3
:1033D80006F1DDCF07F1D7EC1FF0310E0001BD6F0C
:1033E800FF0E0001BE6F09EC00F0FA0E0001BD6F80
:1033F800FE0E0001BE6F00C1BFF001C1C0F002C1E6
:10340800C1F003C1C2F004C1C3F005C1C4F006C1D4
:10341800C5F007C1C6F009EC00F0FCEC1EF02A0A62
:10342800D8B41200FAD7000E0001916F000E906F09
:10343800000191BF08D00001915137E1070E00014A
:10344800905DD8B032D080C031F081C032F0000E2B
:10345800346E070E336E22EC1FF0000190513126B6
:10346800000191513222010E3126000E322231C064
:1034780037F032C038F0000E38BEFF0E396E3A6EA3
:1034880097EC1FF0D89000019035D96E0001913566
:10349800DA6E820ED926000EDA2237C0DEFF38C077
:1034A800DDFF0001904B912BC3D7820E0001806F86
:1034B800000E0001816F120031AE16D02FC035F01A
:1034C80030C036F031C037F0351E361E371E352A6B
:1034D800000E36223722000E35242F6E000E3620BD
:1034E800306E800E3720316E34AE16D032C035F0D3
:1034F80033C036F034C037F0351E361E371E352A35
:10350800000E36223722000E3524326E000E362089
:10351800336E800E3720346E000E2F1A000E301ACC
:10352800800E311A000E321A000E331A800E341A29
:1035380032502F5C3350305834503158D8B002D004
:10354800D8901200D8801200F20EF66E3E0EF76E7A
:10355800000EF86E01EE65F010EE1EF00900F5CFD2
:10356800EEFFE550E150FAE1C60EF66E3F0EF76E3B
:10357800000EF86E00EEF5F010EE06F00900F5CF3B
:10358800EEFFE550E150FAE1480EF66E3F0EF76E99
:10359800000EF86E00EE3BF010EE17F00900F5CFC4
:1035A800EEFFE550E150FAE101EE45F0200EEE6A3B
:1035B800E806FDE10001FC6BFB6B00EE52F00B0E20
:1035C800EE6AE806FDE15D905D92000EF86E00017E
:1035D800BEEF0BF0000E2E6E2CAE06D02B6C2C1E00
:1035E800D8B02C2A010E2E6E2AAE06D0296C2A1EBF
:1035F800D8B02A2A010E2E1A000E306E000E2F6E39
:103608002B502C10D8B41CD0010E2D6E04D0D8909D
:103618002B362C362D2A2CAEFAD7D8902F363036AA
:103628002B50295C2C502A58D8A005D02B50295E45
:103638002C502A5A2F80D8902C322B322D2EEDD791
:103648002E50D8B404D02F6C301ED8B0302A2FC0DA
:1036580029F030C02AF01200000E2B6E000E2C6EDE
:10366800000E2D6E000E2E6E2750281029102A10DD
:10367800D8B42AD0010E2F6E06D0D8902736283617
:1036880029362A362F2A2AAEF8D7D8902B362C3648
:103698002D362E362750235C28502458295025587B
:1036A8002A502658D8A009D02750235E2850245ADB
:1036B8002950255A2A50265A2B80D8902A32293246
:1036C800283227322F2EE1D72BC023F02CC024F02C
:1036D8002DC025F02EC026F01200F29EDFEC1FF060
:1036E800000E256ED00E246ECAEC1FF0000E256E5B
:1036F800000E246ECAEC1FF0DBEC1FF0DFEC1FF0AD
:10370800000E256ED10E246ECAEC1FF0000E386E26
:10371800050E386401D013D0010E0FEC1FF0286E8F
:10372800296A3850020D2A0EF324D96E000EF420AF
:10373800DA6E28C0DEFF29C0DDFF382AE9D7000E7F
:103748000FEC1FF0286E2850366E376ADBEC1FF03E
:10375800F28E2A0E266E000E276E1200000E346EB0
:103768008E0E336E2EAE11D02E1E2D1E2C1E2B6CDF
:10377800000E2C222D222E22010E346E06D0D89057
:103788002E322D322C322B32332A000E2B142F6E70
:10379800000E2C14306E000E2D14316EFF0E2E14F8
:1037A800326E2F50301031103210D8A4E8D72BC009
:1037B80023F02CC024F02DC025F033C026F034C0EF
:1037C80027F016EC19F023C02BF024C02CF025C0EC
:1037D8002DF01200000E286E24AE06D0236C241E95
:1037E800D8B0242A010E286E26AE04D0256C261ED9
:1037F800D8B0262A25502610D8B418D0010E276E26
:1038080004D0D89025362636272A26AEFAD7255052
:10381800235C26502458D8A004D02550235E265077
:10382800245AD89026322532272EF1D72850D8B4DA
:1038380004D0236C241ED8B0242A23C023F024C02B
:1038480024F01200000E066E02AE06D0016C021EB5
:10385800D8B0022A010E066E04AE04D0036C041E12
:10386800D8B0042A03500410D8B418D0010E056E3D
:1038780004D0D89003360436052A04AEFAD703508C
:10388800015C04500258D8A004D00350015E0450D3
:10389800025AD89004320332052EF1D70650D8B414
:1038A80004D0016C021ED8B0022A01C001F002C087
:1038B80002F012003450351036103710D8B424D026
:1038C800010E386E06D0D89034363536363637364F
:1038D800382A37AEF8D73450305C35503158365026
:1038E800325837503358D8A008D03450305E35504D
:1038F800315A3650325A3750335AD89037323632D6
:1039080035323432382EE7D730C030F031C031F09C
:1039180032C032F033C033F01200246E2450F00B62
:10392800236E8C500F0B8C6E23508C108C6E8C96E3
:10393800D60E00D000D0E82EFCD700D08C86D60E4C
:1039480000D000D0E82EFCD700D02438F00B246E2D
:103958002450F00B236E8C500F0B8C6E23508C1060
:103968008C6E8C96D60E00D000D0E82EFCD700D0F6
:103978008C86D60E00D000D0E82EFCD700D01200DE
:10398800D7EC1FF01F0E0001BD6FFF0E0001BE6FC8
:1039980009EC00F0650E0001BD6FFF0E0001BE6F5F
:1039A80009EC00F0FCEC1EF00001EF6F310E000195
:1039B800EF19D8B414D0320E0001EF19D8B40FD0D3
:1039C800330E0001EF19D8B40AD0340E0001EF19F4
:1039D800D8B405D02A0E0001EF19D8A4E3D7000106
:1039E800EF5112000001EF6FD7EC1FF0E70E000156
:1039F800BD6FFE0E0001BE6FEFC0BFF00001C06BCF
:103A080009EC00F0870E0001BD6FFF0E0001BE6FCC
:103A180009EC00F0FCEC1EF00001F06F410E000113
:103A2800F019D8B40AD0420E0001F019D8B405D064
:103A38002A0E0001F019D8A4EDD70001F0511200A8
:103A48008E0E336E06D0D8902E322D322C322B3279
:103A5800332A000E2B142F6E000E2C14306E000E1D
:103A68002D14316EFF0E2E14326E2F50301031107F
:103A78003210D8A4E8D72BC023F02CC024F02DC0D6
:103A880025F033C026F0000E276E16EC19F023C07F
:103A98002BF024C02CF025C02DF01200000EC76EAC
:103AA800280EC66E000EC56E800E236E960E246E0E
:103AB800980E256E000E266E30C034F031C035F0F9
:103AC80032C036F033C037F0020ED890343635366F
:103AD80036363736E82EF9D734C027F035C028F007
:103AE80036C029F037C02AF030EC1BF02304C86E2A
:103AF800948694881200A6B2FED7F2AE04D00001D4
:103B0800866B862B02D00001866B0001865100016E
:103B1800876F886BF29E82C0A9FF00018351030B57
:103B2800AA6E80C0A8FF040EA66E550EA76EAA0E38
:103B3800A76EA682A6B2FED7A198000EA66E0001B7
:103B480087B102D0F29E01D0F28E1200D7EC1FF09E
:103B58000D0E0001BD6FFF0E0001BE6F09EC00F0F5
:103B6800760E0001BD6FFF0E0001BE6F09EC00F07C
:103B7800FCEC1EF00001EF6F420E0001EF19D8B403
:103B88000AD0430E0001EF19D8B405D02A0E00015F
:103B9800EF19D8A4EDD70001EF5112000001B1517F
:103BA8000001B2110001B311D8B409D0000E000110
:103BB800B11B000E0001B21B800E0001B31BAEC08A
:103BC800A2F0AFC0A3F0B0C0A4F0B1C0A5F0B2C0DD
:103BD800A6F0B3C0A7F06BEC0DF0A2C0AEF0A3C086
:103BE800AFF0A4C0B0F0120012D026C0D7FF25C095
:103BF800D6FFD58E120026C0CFFF25C0CEFFCD80C0
:103C0800120026C0B3FF25C0B2FFB180120023C046
:103C180029F024C02AF02A50000AD8A412002950FA
:103C2800000AD8B4E2D7010AD8B4E5D7020AD8A462
:103C38001200E7D712D00AC0D7FF09C0D6FFD58E29
:103C480012000AC0CFFF09C0CEFFCD8012000AC003
:103C5800B3FF09C0B2FFB180120007C00DF008C061
:103C68000EF00E50000AD8A412000D50000AD8B465
:103C7800E2D7010AD8B4E5D7020AD8A41200E7D7D8
:103C88000FD0000ED56ED586F28A1CD0000ECD6EF0
:103C9800300ECD129D8016D0000EB16EA08212D0CB
:103CA80023C025F024C026F02650000AD8A40AD044
:103CB8002550000AD8B4E5D7010AD8B4E7D7020AD4
:103CC800D8B4EAD7F28CF28E1200310E276EB20EFB
:103CD800E82EFED7272EFCD700D0330E58EC1FF065
:103CE800320E58EC1FF0280E58EC1FF00F0E58EC4F
:103CF8001FF0060E58EC1FF0010E58EC1FF0310EA5
:103D0800276EB20EE82EFED7272EFCD700D0120061
:103D180092689368C00E946E000E956E000E966EB3
:103D2800000E896E000E8A6E000E8B6E000E8C6E71
:103D3800000E8D6E000EC26E0B0EC112000EC06E0C
:103D4800C082300EC012C08EF086F288F28E120049
:103D58002344E846FC0BC26EC280C282C2B2FED7C0
:103D6800C350C4CF27F0286A27C028F0276A27261F
:103D7800000E282227C023F028C024F0000E24BEFD
:103D8800FF0E256E266E1200000E2E6E2CAE06D08B
:103D98002B6C2C1ED8B02C2A010E2E6E2BC023F0B3
:103DA8002CC024F0256A8E0E266E2EC027F016EC45
:103DB80019F023C02BF024C02CF025C02DF01200E0
:103DC800D7EC1FF0B90E0001BD6FFF0E0001BE6FEA
:103DD80009EC00F0980E0001BD6FFF0E0001BE6FE8
:103DE80009EC00F0FCEC1EF02A0AD8B41200FAD74D
:103DF80081A2FED781380F0B0F0B236E81B2FED73D
:103E08002350010D750EF324F66EFE0EF420F76EA6
:103E18000800F5501200246EBBEC1FF0C586BBEC01
:103E28001FF0C9CF25F0BBEC1FF02450D8A402D056
:103E3800C58A01D0C59AC588255012003150330271
:103E4800F3CF35F0F4CF36F031503402F350362644
:103E580032503302F350362635C031F036C032F0D6
:103E68001200235024102510D8B406D0000E231AAF
:103E7800000E241A800E251A23C023F024C024F033
:103E880025C025F01200276E0A0E2718D8A403D0E3
:103E9800CFEC1FF012008C84740EE82EFED700D0F1
:103EA800275091EC1CF01200266E8C94740EE82EAC
:103EB800FED700D0265091EC1CF0040E256E3E0E65
:103EC800E82EFED7252EFCD7120081380F0B0F0BDA
:103ED800016E0150010D750EF324F66EFE0EF420EE
:103EE800F76E0800F5CF5CF01200030001008200B5
:103EF8008A001027020002000200000002000700EA
:103F08000200010003000000256E000E246E3A0E28
:103F1800256005D02F0E256402D0010E246E24C022
:103F280023F02330120037C0A9FF3850030BAA6EC4
:103F3800000EA66E010EA66EA8CF37F0386A1200E2
:103F480077EE3FC14A3EA7A93F5A00B40076000267
:073F58000005000200060055
:103F6000100E306E270E316E000E326E000E336E64
:103F700052EC1DF01200C7B4FED7C5CF23F01F0EC0
:103F80002316D8B41200F7D75CC023F0000E5C6E85
:103F900023501200BBEC1FF024C0C9FF1200C00E5A
:103FA00058EC1FF01200C00E58EC1FF01200010E6A
:103FB00058EC1FF01200BBEC1FF0C5841200BBECE4
:0C3FC0001FF0C58012004600A60099000A
:10FDDE0000010000000A00000064000000E80300BB
:10FDEE000010270000A086010040420F0080969868
:10FDFE000000E1F50500CA9A3B00803FCDCC3DD70F
:10FE0E00233C12833AB7D138C62737388635C0D649
:10FE1E0033CC2B32708930E7DB2EE53C1E42A20D2F
:10FE2E0000803F00204100C842007A44401C4650EA
:10FE3E00C34724744997184BBCBE4C6B6E4E0315CA
:10FE4E005079AD60F3497101000000100000000010
:10FE5E000100000010000000000100000010000072
:10FE6E000000010000001031323341343536423784
:10FE7E003839432A30234400000000010804177467
:10FE8E00696D65202530326C643A2530326C642EF3
:10FE9E002530316C640A00202020253032783A2536
:10FEAE003032783A25303278202020413E00746975
:10FEBE006D65202530326C643A2530326C642E2507
:10FECE0030316C640020203230253032782F2530CE
:10FEDE0032782F253032780A002563292074696D17
:10FEEE006520203C4120202020200A005B25642C28
:10FEFE0025642C25642C25645D2020202A3E007369
:10FF0E00746172742020203C422020202020200A80
:10FF1E000073656C6563742072756E3A2020202024
:10FF2E00200A005B41412C39562C432C6F746865B6
:10FF3E00725D200A0030313233343536373839614C
:10FF4E00626364656600202020202020202020206F
:10FF5E00202020202A3E005B312C322C332C345DA5
:10FF6E0020202020202A3E00686973746F72792049
:10FF7E003C43202020202A3E0020202073746174F0
:10FF8E0073203C422020202A3E00202061766169A9
:10FF9E006C61626C652020202A3E00563A20252E88
:10FFAE0033662C204E3A2025640A002072756E208E
:10FFBE006E6F74200A004320206C696D3A2025660E
:10FFCE00004141206C696D3A202566003956206C3F
:10FFDE00696D3A2025660025642C20253032780084
:10FFEE0074313A202578200072756E6E696E670046
:01FFFE000002
:020000040020DA
:08000000FFFFFFFFFFFFFFFF00
:020000040030CA
:0E000000FF021F1EFF8381FF0FC00FE00F40A5
:00000001FF
