:0400000007EF00F016
:100008005E8260ED18F053EF17F0B90E0001CF6F64
:10001800000E0001D06FF5EF06F0250E0001E4197F
:10002800D8B406D00001E451AFEC1BF0F5EF06F0B0
:10003800000E0001DF6F000EDE6F000E0001E16FA1
:10004800000EE06F05D00001E0850001B74BB82B2A
:10005800B7C0F6FFB8C0F7FF0800F550300AD8B4AB
:10006800F2D7B7C0F6FFB8C0F7FF0800F550D1ECDB
:100078001BF0D8A03FD0000E0001DF6F000EDE6F2E
:10008800DEC030F0DFC031F0000E336E0A0E326E83
:1000980079EC1BF030C0DEF031C0DFF0D00E00018B
:1000A800C16FFF0E0001C26FB7C0F6FFB8C0F7FFFF
:1000B8000800F5500001C36FC46B0001C151000175
:1000C800C3270001C2510001C4230001C35100012C
:1000D800DE270001C4510001DF230001B74BB82B14
:1000E800B7C0F6FFB8C0F7FF0800F550D1EC1BF019
:1000F800D8B0C6D7B7C0F6FFB8C0F7FF0800F550AC
:100108002E0AD8A434D00001E18D0001B74BB82BDA
:10011800000E0001E36F000EE26F1ED0E2C030F067
:10012800E3C031F0000E336E0A0E326E79EC1BF02C
:10013800B7C0F6FFB8C0F7FF0800F5503026000E2C
:100148003122D00E30240001E26FFF0E3120000171
:10015800E36F0001B74BB82BB7C0F6FFB8C0F7FF85
:100168000800F550D1EC1BF0D8A07DD0D7D7000EF1
:100178000001E36F000EE26F0001E18974D0000115
:10018800E08971D00001E18590D00001E08F8DD029
:100198000001E2510001E311D8B40ED00001CD51A5
:1001A8000001E25D0001CE510001E359D8B004D04E
:1001B800E2C0CDF0E3C0CEF00001DE510001CD5D1C
:1001C8000001DF510001CE59D8B009D00001CD514E
:1001D8000001DE5F0001CE510001DF5B09D0000E97
:1001E8000001DF6F000EDE6F03D0200EAFEC1BF0B6
:1001F8000001DE07D8A0DF070001DE29F6E10001D3
:10020800DF29D8B40BD0F1D7CBC0D9FFCCC0DAFFE7
:10021800DF50AFEC1BF00001CB4BCC2B0001CD071E
:10022800D8A0CE070001CD29EFE10001CE29D8B42E
:10023800F5EF06F0E9D7CFC0D9FFD0C0DAFFDF501D
:100248000001E46F020E0001CF27000ED023E40E58
:100258000001CB6F000E0001CC6F000E0001CE6FC5
:10026800010ECD6F95D7B7C0F6FFB8C0F7FF0001F4
:10027800B74BB82B0800F5CFE4F00001E451000AB1
:10028800D8B41200630AD8B4D6D7070AD8B40DD0A8
:10029800020AD8B477D70F0AD8B407D0050AD8B459
:1002A8006ED7140AD8B471D7D2D7070E0001E1155A
:1002B800D8B46DD30001E1A905D0000E0001E36FA9
:1002C800060EE26FCFC0D9FFD0C0DAFFDECFD7F07D
:1002D800DECFD8F0DDCFD9F0030E0001CF27000E16
:1002E800D0230001D9AF11D0D7C022F0D8C023F055
:1002F800D9C024F08CEC1BF022C0D7F023C0D8F072
:1003080024C0D9F0030E0001E013000E0001D66FDF
:10031800000ED56F0001D7510001D8110001D91185
:10032800D8B491D0820E0001C16FFF0E0001C26FD8
:10033800D7C0C3F0D8C0C4F0D9C0C5F0DAC0C6F081
:10034800100E06D00001D890C633C533C433C3336A
:10035800E82EF8D70001C3510001C1250001D56F6F
:10036800000E0001C2210001D66F0001D507D8A0F8
:10037800D607D5C030F0D6C031F0000E336E030E6C
:10038800326E79EC1BF030C0D5F031C0D6F0D5C054
:1003980028F0D6C029F0000E2B6E0A0E2A6EDDEC6E
:1003A80017F028C0D5F029C0D6F00001D6AF04D088
:1003B8000001D507D8A0D6070001D55100087AEC6E
:1003C80009F092C0D1F093C0D2F094C0D3F0D1C05C
:1003D80086F0D2C087F0D3C088F0D7C089F0D8C0E3
:1003E8008AF0D9C08BF052EC10F086C0D1F087C0EB
:1003F800D2F088C0D3F0D1C02EF0D2C02FF0D3C035
:1004080030F0000E316E800E326E3F0E336E0BEC04
:1004180017F0D8B005D00001D507D8A0D60713D05B
:10042800D1C02EF0D2C02FF0D3C030F0000E316E04
:10043800200E326E410E336E0BEC17F0D8A003D0AD
:100448000001D54BD62B0001E3BF08D00001E351D2
:100458001DE10D0E0001E25DD8B018D0D7C09CF0A8
:10046800D8C09DF0D9C09EF00001E25176EC0EF0A4
:1004780092C09FF093C0A0F094C0A1F042EC0DF0A0
:100488009CC0D7F09DC0D8F09EC0D9F00001D6BF5F
:1004980008D00001D6512AE10A0E0001D55DD8B076
:1004A80025D00001D7510001D8110001D911D8B4C5
:1004B8005FD0D7C0A8F0D8C0A9F0D9C0AAF0FBEC8B
:1004C80010F00001A8510001A9110001AA110001B2
:1004D800AB11D8A44DD00001D6BF4AD00001D651E7
:1004E80005E1020E0001D55DD8A042D0D1C02EF0A2
:1004F800D2C02FF0D3C030F0700E316E890E326E3C
:10050800400E336E0BEC17F0D8B003D00001F70E95
:1005180002D00001F80ED527FF0ED6230001D551D1
:100528007AEC09F092C0D1F093C0D2F094C0D3F025
:10053800D7C022F0D8C023F0D9C024F0D1C025F00C
:10054800D2C026F0D3C027F09DEC11F022C0DAF01B
:1005580023C0DBF024C0DCF025C0DDF0000E000174
:10056800D76F000E0001D86F000E0001D96F33D08D
:10057800D7C0A8F0D8C0A9F0D9C0AAF0FBEC10F0F9
:10058800A8C0DAF0A9C0DBF0AAC0DCF0ABC0DDF08F
:10059800D7C0A8F0D8C0A9F0D9C0AAF0DAC02AF00C
:1005A800DBC02BF0DCC02CF0DDC02DF0AFEC19F077
:1005B8002AC0ABF02BC0ACF02CC0ADF0DDEC19F0CC
:1005C800A8C0D7F0A9C0D8F0AAC0D9F0000E000181
:1005D800D66F000ED56F010E0001E46F0A0E000100
:1005E800E419D8B41ED00001E451040D1D0EF32403
:1005F800F66EFE0EF420F76E0900F5500001DA5D84
:100608000900F5500001DB590900F5500001DC59DB
:100618000900F5500001DD59D8A003D00001E42BF2
:10062800DDD7E4C0C1F00001C26BC1BFC207000141
:10063800E2510001C1270001E3510001C22300017A
:10064800D5510001C1270001D6510001C223000184
:10065800C1510001DE5F0001C2510001DF5B0001F2
:10066800E2510001E311D8B404D00001DE07D8A09C
:10067800DF07030E0001E0150001C16F000E000145
:10068800E1150001C26F0001C1510001C211D8B4C7
:1006980004D00001DE07D8A0DF070001E0A52DD0B7
:1006A800030E0001E0150001C16F000E0001E11505
:1006B8000001C26F0001C1510001C211D8B40BD0B2
:1006C8002D0EAFEC1BF007D0300EAFEC1BF0000185
:1006D800DE07D8A0DF070001DFBF73D00001DF51BC
:1006E800F3E10001DE05D8A06CD0EED7200EAFEC08
:1006F8001BF00001DE07D8A0DF070001DFBF07D02D
:100708000001DF51F3E10001DE05D8B0EFD7030E99
:100718000001E0150001C16F000E0001E1150001A4
:10072800C26F0001C1510001C211D8B44AD02D0EC8
:10073800AFEC1BF046D0DAC022F0DBC023F0DCC0FF
:1007480024F0DDC025F00001E451040D1D0EF32452
:10075800F66EFE0EF420F76E0900F5CF26F00900BC
:10076800F5CF27F00900F5CF28F00A00F5CF29F0DA
:100778001FEC18F022C0D1F023C0D2F024C0D3F06F
:1007880025C0D4F0D1C02FF0D2C030F0D3C031F0A2
:10079800D4C032F00A0E336E000E346E000E356E81
:1007A800000E366E49EC19F02FC0D1F030C0D2F0EF
:1007B80031C0D3F032C0D4F00001D151300FAFECCA
:1007C8001BF00001E4070001E429D8B408D0B3D72E
:1007D800300EAFEC1BF00001D507D8A0D6070001FA
:1007E800D6BF07D00001D651F3E10001D505D8B036
:1007F800EFD70001E3BF0CD00001E35105E1090E7A
:100808000001E25DD8A004D0080E0001E46F02D018
:10081800E2C0E4F00001E4510001E25F000E0001D3
:10082800E4BFFF0E0001E35B0001E4510001D8B40E
:1008380003D02E0EAFEC1BF00001E4517AEC09F066
:1008480092C0C7F093C0C8F094C0C9F0D7C089F06F
:10085800D8C08AF0D9C08BF0C7C086F0C8C087F06E
:10086800C9C088F052EC10F086C0A8F087C0A9F083
:1008780088C0AAF0FBEC10F0A8C0DAF0A9C0DBF041
:10088800AAC0DCF0ABC0DDF06DD0DAC022F0DBC06E
:1008980023F0DCC024F0DDC025F00001E451040D94
:1008A8001D0EF324F66EFE0EF420F76E0900F5CF48
:1008B80026F00900F5CF27F00900F5CF28F00A0047
:1008C800F5CF29F01FEC18F022C0D1F023C0D2F0E8
:1008D80024C0D3F025C0D4F0D1C02FF0D2C030F05E
:1008E800D3C031F0D4C032F00A0E336E000E346E2D
:1008F800000E356E000E366E49EC19F02FC0D1F09F
:1009080030C0D2F031C0D3F032C0D4F00001D151A0
:10091800300FAFEC1BF0DAC02FF0DBC030F0DCC0DA
:1009280031F0DDC032F00001E451040D1D0EF32456
:10093800F66EFE0EF420F76E0900F5CF33F00900CD
:10094800F5CF34F00900F5CF35F00A00F5CF36F0D1
:1009580049EC19F02FC0DAF030C0DBF031C0DCF020
:1009680032C0DDF00001E4070001E429D8B408D062
:100978008CD7300EAFEC1BF00001E207D8A0E307DC
:100988000001E2510001E311D8B42BD2F2D70001E3
:10099800E0BF34D00001E0A90ED0CFC0D9FFD0C04D
:1009A800DAFFDECFDAF0DECFDBF0DECFDCF0DECF51
:1009B800DDF0040E0FD0CFC0D9FFD0C0DAFFDECFF4
:1009C800DAF0DDCFDBF00001000EDBBFFF0EDC6FDD
:1009D800DD6F020E0001CF27000ED0230001DDAF2E
:1009E80032D0030E0001E0130001DD1FDC1FDB1F06
:1009F800DA6D000EDB23DC23DD2325D00001E0A91E
:100A08000ED0CFC0D9FFD0C0DAFFDECFDAF0DECF0C
:100A1800DBF0DECFDCF0DECFDDF0040E10D0CFC08F
:100A2800D9FFD0C0DAFFDECFC1F0DDCFC2F0C1C040
:100A3800DAF0C2C0DBF00001DC6BDD6B020E0001F6
:100A4800CF27000ED0230001E2510001E311D8A402
:100A58005AD00001DA510001DB110001DC1100015C
:100A6800DD11D8A450D00001E24BE32B4CD0010E8D
:100A78000001E46F0A0E0001E419D8B44DD000015A
:100A8800E451040D1D0EF324F66EFE0EF420F76EED
:100A98000900F5500001DA5D0900F5500001DB5945
:100AA8000900F5500001DC590900F5500001DD5935
:100AB800D8A032D00001E42BDDD7010E0001E46F8D
:100AC800080E0001E419D8B427D00001E451040D40
:100AD800930EF324F66EFE0EF420F76E0900F5501F
:100AE8000001DA5D0900F5500001DB590900F550F5
:100AF8000001DC590900F5500001DD59D8A00CD0DF
:100B08000001E42BDDD70001E051800B000AD8B4C6
:100B1800AED7800AD8B4D1D7800E0001E4BF7F0ECB
:100B28000001C16F0001E2510001E45D0001E351E1
:100B3800800A0001C159D8B003D0E2C0E4F018D04F
:100B48000001E351800A0001C16F0001E451000176
:100B5800E25D800E0001E4BF7F0E0001C159D8B0EC
:100B680007D00001E4510001E26FE36BE2BFE30745
:100B78000001DE510001DF11D8B414D0030E0001CA
:100B8800E0150001C16F000E0001E1150001C26F00
:100B98000001C1510001C211D8B404D00001DE0720
:100BA800D8A0DF070001E1AD1ED00001DE51000131
:100BB800E25D0001E351800A0001C16F0001DF51CD
:100BC800800A0001C159D8B009D00001E2510001E2
:100BD800DE5F0001E3510001DF5B05D0000E00017C
:100BE800DF6F000EDE6F800E0001E4BF7F0E000194
:100BF800C16F0001DE510001E45D0001DF51800A90
:100C08000001C159D8B00BD00001E4510001DE5FEA
:100C1800000E0001E4BFFF0E0001DF5B05D0000EEF
:100C28000001DF6F000EDE6F0001E0A521D0030E8A
:100C38000001E0150001C16F000E0001E11500017F
:100C4800C26F0001C1510001C211D8B403D02D0EEA
:100C5800AFEC1BF00001DE510001DF11D8B4B6D0B3
:100C6800300EAFEC1BF00001DE07D8A0DF07F2D78B
:100C78000001DE510001DF11D8B40DD0200EAFEC19
:100C88001BF00001DE07D8A0DF070001DE510001DC
:100C9800DF11D8A4F3D7030E0001E0150001C16FDE
:100CA800000E0001E1150001C26F0001C1510001F1
:100CB800C211D8B48BD02D0EAFEC1BF087D0E2C098
:100CC800C1F0E3C0C2F00001D890C137C2370001BB
:100CD800D890C137C2371D0E0001C125F66EFE0E31
:100CE800C221F76E0900F5CF26F00900F5CF27F0ED
:100CF8000900F5CF28F00A00F5CF29F0DAC022F074
:100D0800DBC023F0DCC024F0DDC025F01FEC18F0B8
:100D180022C02FF023C030F024C031F025C032F0BB
:100D28000A0E336E000E346E000E356E000E366EEF
:100D380049EC19F02F50300F0001E46F43D0DAC0AE
:100D480022F0DBC023F0DCC024F0DDC025F0E2C0D7
:100D5800C1F0E3C0C2F00001D890C137C23700012A
:100D6800D890C137C237930E0001C125F66EFE0E2A
:100D7800C221F76E0900F5CF26F00900F5CF27F05C
:100D88000900F5CF28F00A00F5CF29F01FEC18F07C
:100D980022500F0B0001CA6F0001CA51010D380E15
:100DA800F324F66EFF0EF420F76E0800F5CFE4F09A
:100DB80009D00001E051800B000AD8B480D7800A1E
:100DC800D8B4BDD70001E451AFEC1BF00001E20735
:100DD800D8A0E3070001E229ECE10001E329D8A447
:100DE800E8D7B7C0F6FFB8C0F7FF0001B74BB82B7C
:100DF8000800F5CFE4F00001E451D8B4120011EF77
:100E080000F0300E0001CE6F010E0001CF6F000E12
:100E18000001D16F5A0ED06FC6EC14F0380E226E56
:100E2800010E236E000E256E000E246E96EC15F052
:100E38000D0E0001E66FAF0E0001E56FB60EE82E4D
:100E4800FED7E52FFCD7E62FFAD700F0000E0101F8
:100E5800096FA00E01010A6F400E01010B6FC00E51
:100E680001010C6F7F0E01010D6F440E01010E6F21
:100E7800000E0101126F000E0101136F000E010137
:100E8800146F000E0101046F000E0101056F000EC2
:100E98000101066F000E0101016F010E006F000EC7
:100EA8000101086F000E076F2AC12AF02BC12BF031
:100EB800D2EC1AF02AC019F12BC01AF12CC01BF180
:100EC800E3D019C1A8F01AC1A9F01BC1AAF0FBEC24
:100ED80010F0A8C002F1A9C003F1440E0001CE6FC2
:100EE800010E0001CF6F02C1D0F003C1D1F0C6ECF2
:100EF80014F0530EE82EFED700F04F0E226E000EAF
:100F0800236E000E256E010E246E96EC15F00CC1B2
:100F180037F00DC138F00EC139F055C022F056C077
:100F280023F0B6EC1AF022C02AF023C02BF024C01C
:100F38002CF025C02DF09DEC18F02AC034F02BC001
:100F480035F02CC036F0CFEC13F034C086F035C045
:100F580087F036C088F009C189F00AC18AF00BC150
:100F68008BF052EC10F086C00FF187C010F188C0EA
:100F780011F112C12EF013C12FF014C130F00FC1BE
:100F880031F010C132F011C133F00BEC17F0D8B0CA
:100F980064D03C0E226E010E236E51EC14F0D890F2
:100FA80022340101076F23340101086F400E226EBD
:100FB800010E236E51EC14F0225001010713235047
:100FC800010108130FC112F110C113F111C114F17D
:100FD8004F0E226E000E236E000E256E000E246E3C
:100FE80096EC15F0040E0001E56F3D0EE82EFED7D5
:100FF800E52FFCD700D00CC137F00DC138F00EC179
:1010080039F055C022F056C023F0B6EC1AF022C0D1
:101018002AF023C02BF024C02CF025C02DF09DEC25
:1010280018F02AC034F02BC035F02CC036F0CFECC5
:1010380013F034C086F035C087F036C088F009C197
:1010480089F00AC18AF00BC18BF052EC10F086C00F
:1010580004F187C005F188C006F119C1A8F01AC1CA
:10106800A9F01BC1AAF0CD0E0001AB6FCC0E000198
:10107800AC6F3D0E0001AD6FDDEC19F0A8C019F1A1
:10108800A9C01AF1AAC01BF1F4C02AF0F5C02BF0D0
:10109800D2EC1AF02AC02EF02BC02FF02CC030F062
:1010A80019C131F01AC132F01BC133F00BEC17F043
:1010B800D8A007D712C1A8F013C1A9F014C1AAF08B
:1010C800FBEC10F0A8C01CF1A9C01DF1D10E000165
:1010D800B76FFF0E0001B86F00C1B9F001C1BAF0D7
:1010E8001CC1BBF01DC1BCF009EC00F040EC1BF0CA
:1010F80072D004C12EF005C12FF006C130F0CD0E1C
:10110800316ECC0E326E3D0E336E0BEC17F0D8B04C
:101118001ED043C02EF044C02FF045C030F01CC193
:101128002AF01DC12BF0D2EC1AF02AC031F02BC0E6
:1011380032F02CC033F00BEC17F0D8B044D02CC1EF
:1011480017F12DC118F10101644B652B58D040C02F
:101158002EF041C02FF042C030F01CC12AF01DC152
:101168002BF0D2EC1AF02AC031F02BC032F02CC090
:1011780033F00BEC17F0D8B026D0F6C017F1F7C053
:1011880018F10101624B632B3AD046C02EF047C0DC
:101198002FF048C030F01CC12AF01DC12BF0D2EC52
:1011A8001AF02AC031F02BC032F02CC033F00BEC0F
:1011B80017F0D8B008D0F8C017F1F9C018F101013C
:1011C800664B672B1CD0FAC017F1FBC018F1010160
:1011D800684B692B14D007C1E5F008C1E6F000019F
:1011E800E651000AD8A40BD00001E551000AD8B492
:1011F80080D7010AD8B4C9D7030AD8B4A8D7480EEB
:101208000001CE6F010E0001CF6F17C1D0F018C1D9
:10121800D1F0C6EC14F0070E0001E66F580E00017D
:10122800E56F590EE82EFED7E52FFCD7E62FFAD743
:1012380000D0F4C015F1F5C016F118D0440E000125
:10124800CE6F010E0001CF6F15C1D0F016C1D1F0DD
:10125800C6EC14F00A0E0001E56FBC0EE82EFED7AE
:10126800E52FFCD700F00101154B162B4B5001015F
:10127800155D01011651800A0001E56F4C50800A86
:101288000001E559D8A0DAD70D0E0001E66FAF0EC0
:101298000001E56FB60EE82EFED7E52FFCD7E62F46
:1012A800FAD700F0440E0001CE6F010E0001CF6F97
:1012B8002AC1D0F02BC1D1F0C6EC14F0300E0001D9
:1012C800CE6F010E0001CF6F000E0001D16F820EAC
:1012D800D06FC6EC14F0380E226E010E236E000E8D
:1012E800256E010E246E96EC15F012000001986F21
:1012F800000198AF04D10001986D00019851800A4F
:10130800120FD8A094D0000E336E030E326E000E6A
:101318002B6E0A0E2A6E000E256E640E246E0001D6
:101328009851226E236A22BE2306D9EC18F022C0F7
:1013380028F023C029F0DDEC17F0090E2824306EC0
:10134800000E2920316E79EC1BF0450E3024F66E24
:10135800FE0E3120F76E0900F5CF89F00900F5CFB0
:101368008AF00A00F5CF8BF0000E2B6E640E2A6E01
:1013780000019851286E296A28BE2906DDEC17F06D
:10138800120E2824306E000E2920316E000E336EA6
:10139800030E326E79EC1BF0450E3024F66EFE0E0D
:1013A8003120F76E0900F5CF86F00900F5CF87F0F8
:1013B8000A00F5CF88F052EC10F086C095F087C08F
:1013C80096F088C097F095C086F096C087F097C0D1
:1013D80088F0000E336E030E326E000E256E0A0E74
:1013E800246E00019851226E236A22BE2306D9EC8E
:1013F80018F022C030F023C031F079EC1BF0450E14
:101408003024F66EFE0E3120F76E0900F5CF89F014
:101418000900F5CF8AF00A00F5CF8BF052EC10F0F6
:1014280086C092F087C093F088C094F01200000143
:101438009851800A750FD8A04FD0000E2B6E0A0E57
:101448002A6E00019851286E296A28BE2906DDEC0B
:1014580017F0090E2824306E000E2920316E000E78
:10146800336E030E326E79EC1BF0450E3024F66EA7
:10147800FE0E3120F76E0900F5CF86F00900F5CF92
:1014880087F00A00F5CF88F0000E336E030E326E37
:10149800000E256E0A0E246E00019851226E236AF2
:1014A80022BE2306D9EC18F022C030F023C031F058
:1014B80079EC1BF0450E3024F66EFE0E3120F76EE7
:1014C8000900F5CF89F00900F5CF8AF00A00F5CFB9
:1014D8008BF052EC10F0A4D700019851030D450E83
:1014E800F324F66EFE0EF420F76E0900F5CF92F0A5
:1014F8000900F5CF93F00A00F5CF94F0120000012F
:101508009851800A120FD8A094D0000E336E030EA3
:10151800326E000E2B6E0A0E2A6E000E256E640EB9
:10152800246E00019851226E236A22BE2306D9EC4C
:1015380018F022C028F023C029F0DDEC17F0090EBE
:101548002824306E000E2920316E79EC1BF06C0EC9
:101558003024F66EFE0E3120F76E0900F5CF89F0C3
:101568000900F5CF8AF00A00F5CF8BF0000E2B6E3C
:10157800640E2A6E00019851286E296A28BE290631
:10158800DDEC17F0120E2824306E000E2920316E83
:10159800000E336E030E326E79EC1BF06C0E3024A5
:1015A800F66EFE0E3120F76E0900F5CF86F00900C1
:1015B800F5CF87F00A00F5CF88F052EC10F086C01E
:1015C80095F087C096F088C097F095C086F096C0D1
:1015D80087F097C088F0000E336E030E326E000E4F
:1015E800256E0A0E246E00019851226E236A22BECF
:1015F8002306D9EC18F022C030F023C031F079EC82
:101608001BF06C0E3024F66EFE0E3120F76E0900CA
:10161800F5CF89F00900F5CF8AF00A00F5CF8BF0F5
:1016280052EC10F086C092F087C093F088C094F016
:10163800120000019851800A750FD8A04FD0000EF3
:101648002B6E0A0E2A6E00019851286E296A28BE50
:101658002906DDEC17F0090E2824306E000E29202B
:10166800316E000E336E030E326E79EC1BF06C0E89
:101678003024F66EFE0E3120F76E0900F5CF86F0A5
:101688000900F5CF87F00A00F5CF88F0000E336E19
:10169800030E326E000E256E0A0E246E000198515C
:1016A800226E236A22BE2306D9EC18F022C030F03D
:1016B80023C031F079EC1BF06C0E3024F66EFE0E70
:1016C8003120F76E0900F5CF89F00900F5CF8AF0CF
:1016D8000A00F5CF8BF052EC10F0A4D70001985116
:1016E800030D6C0EF324F66EFE0EF420F76E09005F
:1016F800F5CF92F00900F5CF93F00A00F5CF94F0FA
:10170800120097EC1AF074EC1AF04DEC13F0000E7E
:1017180001015C6F000E5D6F000E5E6F000E5F6F63
:10172800380E226E010E236E000E256E010E246EF9
:1017380096EC15F0300E0001D86F010E0001D96F3C
:10174800000E0001DB6F820EDA6F99EC17F0440E81
:101758000001D86F010E0001D96F2AC1DAF02BC140
:10176800DBF099EC17F0480E0001D86F010E00016C
:10177800D96F2CC1DAF02DC1DBF099EC17F0F2EC3F
:101788001BF0F60E0001B76FFF0E0001B86F09ECF1
:1017980000F05CC122F15DC123F15CC124F15DC19F
:1017A80025F1000E0101276F000E266F000E0101C2
:1017B8001F6F0A0E1E6F000E0101216F0A0E206FA7
:1017C80021D1F6EC1BF0C00E0001B76FFF0E00012F
:1017D800B86F5CC122F05DC123F05EC124F05FC127
:1017E80025F0580E266E020E276E000E286E000E8B
:1017F800296E30EC15F022C0B9F023C0BAF024C02D
:10180800BBF025C0BCF00A0E266E000E276E000E37
:10181800286E000E296E5CC122F05DC123F05EC106
:1018280024F05FC125F030EC15F022C030F023C061
:1018380031F024C032F025C033F03C0E346E000E77
:10184800356E000E366E000E376EB5EC16F030C0F1
:10185800BDF031C0BEF032C0BFF033C0C0F009ECFB
:1018680000F0FA0E0001E76FFF0EE82EFED7E72F13
:10187800FCD726C1E7F027C1E8F0000E0001E8BF59
:10188800FF0EE96FEA6F24C1EBF025C1ECF0000E02
:101898000001ECBFFF0EED6FEE6F0001EB1FEC1FB8
:1018A800ED1FEE1FEB2B000EEC23ED23EE230101C1
:1018B8005C510001EB250001EF6F01015D51000152
:1018C800EC210001F06F01015E510001ED210001E2
:1018D800F16F01015F510001EE210001F26F00017B
:1018E800E7510001EF5D0001E8510001F0590001E6
:1018F800E9510001F1590001F251800A0001F36F2A
:101908000001EA51800A0001F359D8A02ED0340E04
:10191800226E010E236E51EC14F022C028F123C070
:1019280029F1340E226E010E236E010128510101A6
:101938002911D8A402D0010E01D0000E246E256A08
:1019480096EC15F00101285101012911D8B405D0F0
:1019580020C126F121C127F104D01EC126F11FC1E3
:1019680027F15CC124F15DC125F122C1E7F023C153
:10197800E8F0000E0001E8BFFF0EE96FEA6F000112
:10198800E71FE81FE91FEA1FE72B000EE823E923FA
:10199800EA2301015C510001E7250001EB6F010119
:1019A8005D510001E8210001EC6F01015E51000169
:1019B800E9210001ED6F01015F510001EA210001F9
:1019C800EE6F000E01012FBFFF0E0001F06F800ABD
:1019D800EF6F0001EB5101012E5D0001EC51010197
:1019E8002F590001ED510001F0590001EE51800A14
:1019F8000001EF59D8B006D0000E01016B6F010E3F
:101A08006A6F06D00101605101016111D8B4D9D6BD
:101A180001016A5101016B11D8A40CD005EC07F043
:101A28005CC122F15DC123F1000E0101616F000E5E
:101A3800606FA5D6AF0E0001B76FFF0E0001B86F3B
:101A480009EC00F0E00E0001B76FFF0E0001B86F5F
:101A580064C1B9F065C1BAF066C1BBF067C1BCF03A
:101A680062C1BDF063C1BEF068C1BFF069C1C0F01A
:101A780009EC00F040EC1BF048D6FFD79EC0A2F05E
:101A88000001A36BA46B00019D350001A23701E39F
:101A9800A3810001A2510001A76FA1C0A2F000011B
:101AA800A36BA46B0001A0350001A23701E3A38159
:101AB8000001A2510001A66F0001A7510001D8B48E
:101AC80011D00001A6510001A75DD8B012D00001C5
:101AD800A75100080001A6250001A26F180E0001F9
:101AE800A26507D09FC09CF0A0C09DF0A1C09EF049
:101AF80012000001A6510001D8B411D00001A7516D
:101B08000001A65DD8B012D00001A651000800015E
:101B1800A7250001A26F180E0001A26507D09CC07E
:101B28009CF09DC09DF09EC09EF01200060E000124
:101B3800A56F00019EAF02D00001A58F0001A1AFE3
:101B480002D00001A58D00019D8FFF0E00019C179A
:101B5800FF0E00019D17000E00019E170001A08FC7
:101B6800FF0E00019F17FF0E0001A017000E0001D5
:101B7800A1170001A6510001A75DD8B025D000012A
:101B8800D8909F37A037A1370001A6070001A751B9
:101B98000001A619D8B411D00001A507A5C0A2F06C
:101BA800070E0001A217D8B408D0E9D70001D890D1
:101BB8009E339D339C330001A72B0001A6510001E1
:101BC800A719D8B42BD0F2D70001A7510001A65D00
:101BD800D8B024D00001D8909C379D379E3700019B
:101BE800A7070001A7510001A619D8B411D0000118
:101BF800A507A5C0A2F0070E0001A217D8B408D007
:101C0800E9D70001D890A133A0339F330001A62B58
:101C18000001A6510001A719D8A4F3D70001A5AF68
:101C280012D0FF0E00019C1BFF0E00019D1BFF0E32
:101C380000019E1B010E00019C27000E00019D2340
:101C4800000E00019E230001A5AD12D0FF0E000179
:101C58009F1BFF0E0001A01BFF0E0001A11B010E20
:101C680000019F27000E0001A023000E0001A12300
:101C7800000E0001A56F00019C5100019F27000183
:101C88009D510001A02300019E510001A1230001E4
:101C9800A1AF15D0FF0E00019F1BFF0E0001A01B76
:101CA800FF0E0001A11B010E00019F27000E00017D
:101CB800A023000E0001A123010E0001A56F9FC003
:101CC80022F0A0C023F0A1C024F0A7C025F0A5C031
:101CD80026F05EEC16F022C09CF023C09DF024C0D4
:101CE8009EF0120000019B6F6D0E00019B65A2D053
:101CF800000E336E030E326E000E2B6E0A0E2A6E25
:101D0800000E256E640E246E9BC022F0236AD9EC67
:101D180018F022C028F023C029F0DDEC17F0090ED6
:101D28002824306E000E2920316E79EC1BF0450E08
:101D38003024F66EFE0E3120F76E0900F5CF89F0DB
:101D48000900F5CF8AF00A00F5CF8BF0000E2B6E54
:101D5800640E2A6E9BC028F0296ADDEC17F0120E7B
:101D68002824306E000E2920316E000E336E030ECB
:101D7800326E79EC1BF0450E3024F66EFE0E3120E3
:101D8800F76E0900F5CF86F00900F5CF87F00A0055
:101D9800F5CF88F052EC10F086C098F087C099F023
:101DA80088C09AF0000E336E030E326E000E256E58
:101DB8000A0E246E9BC022F0236AD9EC18F022C0C8
:101DC80030F023C031F079EC1BF0450E3024F66E6C
:101DD800FE0E3120F76E0900F5CF89F00900F5CF26
:101DE8008AF00A00F5CF8BF098C086F099C087F08A
:101DF8009AC088F052EC10F086C095F087C096F033
:101E080088C097F095C086F096C087F097C088F094
:101E1800000E0001896F000E00018A6F3F0E00015D
:101E28008B6F52EC10F086C092F087C093F088C098
:101E380094F012000A0E00019B6560D0000E336E0C
:101E4800030E326E000E256E0A0E246E9BC022F021
:101E5800236AD9EC18F022C030F023C031F079ECB5
:101E68001BF0450E3024F66EFE0E3120F76E090089
:101E7800F5CF89F00900F5CF8AF00A00F5CF8BF08D
:101E8800000E2B6E0A0E2A6E9BC028F0296ADDEC24
:101E980017F0090E2824306E000E2920316E000E2E
:101EA800336E030E326E79EC1BF0450E3024F66E5D
:101EB800FE0E3120F76E0900F5CF86F00900F5CF48
:101EC80087F00A00F5CF88F052EC10F086C098F041
:101ED80087C099F088C09AF098C086F099C087F0BA
:101EE8009AC088F0000E0001896F000E00018A6F09
:101EF8003F0E00018B6F52EC10F095D700019B51FB
:101F0800030D450EF324F66EFE0EF420F76E09005D
:101F1800F5CF86F00900F5CF87F00A00F5CF88F0F5
:101F2800000E0001896F000E00018A6F3F0E00014C
:101F38008B6F52EC10F086C092F087C093F088C087
:101F480094F01200A80E0001BF6FFD0EC06FFF0EC7
:101F5800C16FFF0EC26FE20E0001CA6F040ECB6F95
:101F6800000ECC6F000ECD6F6A0E0001C36F180E05
:101F7800C46F000EC56F000EC66FCAC0BBF0CBC0E1
:101F8800BCF0CCC0BDF0CDC0BEF00001BB1FBC1F73
:101F9800BD1FBE1FBB2B000EBC23BD23BE230001EB
:101FA800C3510001BB252A6E0001C4510001BC21A8
:101FB8002B6E0001C5510001BD212C6E0001C651D8
:101FC8000001BE212D6E9DEC18F02AC089F02BC0AF
:101FD8008AF02CC08BF0000E376E340E386E430E2C
:101FE800396EB7C02AF0B8C02BF0D2EC1AF02AC06C
:101FF80034F02BC035F02CC036F0CFEC13F034C0E1
:1020080086F035C087F036C088F052EC10F086C0F4
:102018009FF087C0A0F088C0A1F0CAC02AF0CBC04A
:102028002BF0CCC02CF0CDC02DF09DEC18F02AC0C0
:102038009CF02BC09DF02CC09EF042EC0DF09CC093
:10204800C7F09DC0C8F09EC0C9F0BFC02AF0C0C08C
:102058002BF0C1C02CF0C2C02DF09DEC18F02AC0A6
:102068009FF02BC0A0F02CC0A1F0C7C09CF0C8C046
:102078009DF0C9C09EF042EC0DF09CC0A8F09DC038
:10208800A9F09EC0AAF0FBEC10F0A8C0B7F0A9C058
:10209800B8F0AAC0B9F0ABC0BAF0120088C03DF0E1
:1020A8003E6A3F6A000187353D3601E33E803D5078
:1020B80000018C6F00018C51D8A40AD0000E0001D9
:1020C800866F000E0001876F000E0001886F1200F6
:1020D8008BC03DF03E6A3F6A00018A353D3601E318
:1020E8003E803D500001916F00019151D8A40AD063
:1020F800000E0001866F000E0001876F000E0001C0
:10210800886F1200000191517B0F00018C2788C055
:1021180091F000018B510001911B800E0001911775
:102128000001878F00018A8FFF0E00018917FF0EBB
:1021380000018A17000E00018B17000E00018D6F39
:10214800000E00018E6F000E00018F6F070E000158
:10215800906F000186A10CD00001895100018D27E4
:1021680000018A5100018E2300018B5100018F2349
:102178000001D8908833873386330001D890893797
:102188008A378B370001902FE4D7090E0001906F32
:10219800000186A10CD00001895100018D270001A2
:1021A8008A5100018E2300018B5100018F23000109
:1021B800D8908833873386330001D8908F338E3395
:1021C8008D330001902FE4D78DC022F08EC023F00C
:1021D8008FC024F08CC025F091C026F05EEC16F07C
:1021E80022C086F023C087F024C088F01200AAC05D
:1021F800ACF00001AD6BAE6B0001A9350001AC3746
:1022080001E3AD810001AC510001B66F0001B65188
:10221800D8A40AD0000E0001A86F000EA96F000E06
:10222800AA6F000EAB6F1200170E0001AC6FA8C0AA
:10223800ADF0A9C0AEF0AAC0AFF00001AC29000112
:10224800B06F05D00001D890AF33AE33AD33000185
:10225800B02FF8D70001AD510001B16F0001A98F6F
:10226800FF0E0001A817FF0E0001A917000E0001BC
:10227800AA170001A8510001B26F0001A95100017D
:10228800B36F0001AA510001B46F0001B56B8E0E47
:102298000001B65F0001B6AF1AD00001B651800A3E
:1022A8008F0FD8B00AD0000E0001A86F000EA96FDA
:1022B800000EAA6F000EAB6F12000001D890B53364
:1022C800B433B333B2330001B63FF7D71BD0170E80
:1022D8000001B66512D0000E0001A86F000EA96FAC
:1022E800000EAA6F000EAB6F12000001D890B23733
:1022F800B337B437B5370001B6070001B65100014E
:10230800D8A4F3D70001B1510001D8B409D0000115
:10231800B51FB41FB31FB26D000EB323B423B5238A
:10232800B2C0A8F0B3C0A9F0B4C0AAF0B5C0ABF071
:10233800120024C028F0296A2A6A2334283601E3C7
:1023480029802850306E3050D8A409D0000E226E53
:10235800000E236E000E246E000E256E120027C09C
:1023680028F0296A2A6A2634283601E32980285069
:102378002F6E2F50D8A409D0000E226E000E236EA7
:10238800000E246E000E256E1200238EFF0E2216FC
:10239800FF0E2316000E2416268EFF0E2516FF0E9E
:1023A8002616000E2716000E2B6E000E2C6E000E41
:1023B8002D6E000E2E6E7F0E305E2F50980F305E01
:1023C800180E2F6ED8902B362C362D362E362550DB
:1023D800225C2650235827502458D8A007D02550CF
:1023E800225E2650235A2750245A2B80D890223612
:1023F800233624362F2EE6D730AE16D03050800A3A
:10240800970FD8B009D0000E226E000E236E000E72
:10241800246E000E256E1200D8902E322D322C32EA
:102428002B32303EF9D715D0170E30640FD0000E7E
:10243800226E000E236E000E246E000E256E120012
:10244800D8902B362C362D362E3630063050D8A460
:10245800F7D72BC022F02CC023F02DC024F02EC0BB
:1024680025F01200243425342D6E2D50D8A409D01F
:10247800000E226E000E236E000E246E000E256ED6
:102488001200273428342C6E2C50D8A409D0000E02
:10249800226E000E236E000E246E000E256E1200B2
:1024A800248EFF0E2216FF0E2316FF0E2416000E92
:1024B8002516278EFF0E2516FF0E2616FF0E271649
:1024C800000E2816000E286E000E296E000E2A6EC9
:1024D800000E2B6E7F0E2D5E2C50A00F2D5E200E51
:1024E8002C6ED890283629362A362B362550225C71
:1024F800265023582750245828502558D8A009D0AA
:102508002550225E2650235A2750245A2850255AEF
:102518002880D89022362336243625362C2EE1D72B
:102528002DAE16D02D50800A9F0FD8B009D0000EBE
:10253800226E000E236E000E246E000E256E120011
:10254800D8902B322A32293228322D3EF9D715D08D
:102558001F0E2D640FD0000E226E000E236E000E8B
:10256800246E000E256E1200D890283629362A3699
:102578002B362D062D50D8A4F7D728C022F029C015
:1025880023F02AC024F02BC025F01200F2A4120078
:10259800F294D8905934D96E5A34DA6E540ED9263A
:1025A800010EDA22DECF07F0DDCF08F0000E0A6E4A
:1025B800000E096EFAEC15F0010E5924016E000E9A
:1025C8005A20026E010E0001FC25036E000E000168
:1025D800FD21046E11EC19F0D89001360236540E24
:1025E8000124D96E010E0220DA6EDECF07F0DDCFAE
:1025F80008F0000E0A6E010E096EFAEC15F0000ED6
:10260800086E000E076EFF0E106EFF0E116E010EA3
:102618005924016E000E5A20026E010E0001FC259D
:10262800036E000E0001FD21046E11EC19F0D89024
:10263800013602364C0E0124D96E010E0220DA6EE4
:10264800DECF12F0DDCF13F0121E131E124A132A2A
:10265800105012261150132212C009F013C00AF0AC
:102668000B6A0C6A29EC1AF0010E5924016E000E4F
:102678005A20026E010E0001FC25036E000E0001B7
:10268800FD21046E11EC19F001C059F002C05AF096
:10269800120066EC1BF040EC1BF0410AD8A4FBD7F3
:1026A80053EC1BF040EC1BF00001E66F420E0001FA
:1026B800E619D8B40AD0430E0001E619D8B405D0FB
:1026C8002A0E0001E619D8A4EDD7430E0001E61939
:1026D800D8A456D02DEC1BF040EC1BF00001E66F9F
:1026E800310E0001E619D8B414D0320E0001E619F3
:1026F800D8B40FD0330E0001E619D8B40AD0340E7E
:102708000001E619D8B405D02A0E0001E619D8A4AC
:10271800E3D72A0E0001E619D8B4C2D70001E65162
:10272800EEEC1AF040EC1BF00001E66F410E0001E0
:10273800E619D8B40AD0420E0001E619D8B405D07B
:102748002A0E0001E619D8A4EDD7410E0001E619BA
:10275800D8A403D007EC1BF00DD0420E0001E619F7
:10276800D8A403D01AEC1BF005D02A0E0001E619F4
:10277800D8B496D740EC1BF02A0AD8B4CFD7FAD7EA
:10278800420E0001E619D8B412002A0E0001E6191B
:10279800D8B47FD785D736C03AF03B6A3C6A35341F
:1027A8003A3601E33B803A500001846F00018451BE
:1027B800D8A407D0000E346E000E356E000E366EAB
:1027C800120039C03AF03B6A3C6A38343A3601E3C1
:1027D8003B803A500001856F00018551D8A407D08D
:1027E800000E346E000E356E000E366E1200000EAE
:1027F8000001816F000E0001826F000E0001836FDF
:1028080000018551890F0001845F36C085F0395079
:102818000001851B800E00018517358EFF0E3416CA
:10282800FF0E3516000E3616388EFF0E3716FF0EC1
:102838003816000E3916180E0001806F0001D89066
:102848008137823783373750345C385035583950A0
:102858003658D8A008D03750345E3850355A3950D9
:10286800365A00018181D890343635363636000123
:10287800802FE4D781C022F082C023F083C024F0E7
:1028880084C025F085C026F05EEC16F022C034F036
:1028980023C035F024C036F0120058D020EE02F0E4
:1028A8002250D9262350DA22DF50246E80CF25F01B
:1028B800242A02D0D8902532242EFCD7010E2516C2
:1028C8002550226E236A120020EE02F02250D926EB
:1028D8002350DA22DF50246E81CF25F0242A02D03B
:1028E800D8902532242EFCD7010E25162550226EAD
:1028F800236A120020EE02F02250D9262350DA2251
:10290800DF50246E82CF25F0242A02D0D8902532B9
:10291800242EFCD7010E25162550226E236A12009C
:1029280020EE02F02250D9262350DA22DF50246EFE
:1029380083CF25F0242A02D0D8902532242EFCD724
:10294800010E25162550226E236A120022C0D9FFD7
:1029580023C0DAFFDECF24F0DDCF25F02550000AB2
:10296800D8A40DD02450000AD8B498D7010AD8B4F6
:10297800ABD7030AD8B4BED7010AD8B4D1D72268D6
:1029880023681200C30E0001D56F500ED46F000EDD
:102998000001D76F000ED66F3FD0D8900001D63512
:1029A800D96E0001D735DA6E540ED926010EDA2217
:1029B8000001CE51DE181CE10001CF51DE18D8A469
:1029C80017D0D0C0B7F0D1C0B8F0A6EC0FF0D890AF
:1029D8000001D635D96E0001D735DA6E4C0ED926EE
:1029E800010EDA220001B7C0DEFF0001B8C0DDFF2A
:1029F800D8900001D635D96E0001D735DA6E4C0E65
:102A0800D926010EDA22DE500001D45FDD50000124
:102A1800D55B0001D64BD72B0001FC510001D65DD8
:102A28000001D751800A0001D26F0001FD51800AD0
:102A38000001D259D8A0B1D7D8900001FC35D96E81
:102A48000001FD35DA6E4C0ED926010EDA22D4C00B
:102A5800DEFFD5C0DDFF1200000E2B6E29AE0AD0B6
:102A6800291E281E271E266C000E2722282229220E
:102A7800010E2B6E25AE0AD0251E241E231E226CA5
:102A8800000E232224222522010E2B1A000E2C6E62
:102A9800000E2D6E000E2E6E000E2F6E2650271083
:102AA80028102910D8B42AD0010E2A6E06D0D89042
:102AB80026362736283629362A2A29AEF8D7D89036
:102AC8002C362D362E362F362650225C275023588A
:102AD8002850245829502558D8A009D02650225EBD
:102AE8002750235A2850245A2950255A2C80D890E8
:102AF80029322832273226322A2EE1D72B50D8B451
:102B080008D02F1E2E1E2D1E2C6C000E2D222E22BC
:102B18002F222CC022F02DC023F02EC024F02FC06D
:102B280025F0120022502310D8B4120020EE02F033
:102B38002250D9262350DA22DF50266E010E276E46
:102B4800000E286E262A03D0D89027362836262E3F
:102B5800FBD727C029F028C02AF024502510D8A474
:102B68002BD0FF0E291A28D024042510D8A403D06E
:102B780029508912120029508916120024042510A0
:102B8800D8A403D029508A12120029508A1612009C
:102B980024042510D8A403D029508B1212002950E0
:102BA8008B16120024042510D8A403D029508C12A7
:102BB800120029508C16120022C0D9FF23C0DAFF58
:102BC800DECF26F0DDCF27F02750000AD8A4120068
:102BD8002650000AD8B4C8D7010AD8B4CFD7030AF8
:102BE800D8B4D6D7010AD8A41200DCD707500810E9
:102BF800D8B4120020EE02F00750D9260850DA2285
:102C0800DF500B6E010E0C6E000E0D6E0B2A03D0FA
:102C1800D8900C360D360B2EFBD70CC00EF00DC01D
:102C28000FF009500A10D8A42BD0FF0E0E1A28D086
:102C380009040A10D8A403D00E50891212000E50AD
:102C48008916120009040A10D8A403D00E508A125B
:102C580012000E508A16120009040A10D8A403D0D4
:102C68000E508B1212000E508B16120009040A1017
:102C7800D8A403D00E508C1212000E508C161200DD
:102C880007C0D9FF08C0DAFFDECF0BF0DDCF0CF0AC
:102C98000C50000AD8A412000B50000AD8B4C8D7A8
:102CA800010AD8B4CFD7030AD8B4D6D7010AD8A412
:102CB8001200DCD72550D8B405D022502310241098
:102CC800D8A40CD0000E226E000E236E000E246EC7
:102CD8001200252AD890243223322232000E2214E0
:102CE800276E000E2314286EFE0E2414296E27501A
:102CF80028102910D8B40CD0ECD7252A010E22268A
:102D0800000E2322000E2422D890243223322232AD
:102D1800000E2214276E000E2314286EFF0E2414B2
:102D2800296E275028102910D8B406D0E6D72506D2
:102D3800D89022362336243623BE03D0020E2560CF
:102D4800F6D725A0239ED890253225502412265048
:102D5800D8A4248E22C022F023C023F024C024F05B
:102D68001200000E396E33AE0AD0331E321E311EE9
:102D7800306C000E312232223322010E396E37AE0A
:102D880008D0371E361E351E346C000E352236220A
:102D980037223450351036103710D8B424D0010EED
:102DA800386E06D0D8903436353636363736382A27
:102DB80037AEF8D73450305C355031583650325829
:102DC80037503358D8A008D03450305E3550315A77
:102DD8003650325A3750335AD89037323632353225
:102DE8003432382EE7D73950D8B408D0331E321EC3
:102DF800311E306C000E31223222332230C030F0C6
:102E080031C031F032C032F033C033F0120030AE8E
:102E180016D02EC034F02FC035F030C036F0341E36
:102E2800351E361E342A000E35223622000E342472
:102E38002E6E000E35202F6E800E3620306E33AE8B
:102E480016D031C034F032C035F033C036F0341EFD
:102E5800351E361E342A000E35223622000E342442
:102E6800316E000E3520326E800E3620336E000E25
:102E78002E1A000E2F1A800E301A000E311A000E6C
:102E8800321A800E331A31502E5C32502F5833507C
:102E98003058D8B002D0D8901200D88012003C0E1A
:102EA800F66E370EF76E000EF86E01EE2AF010EE91
:102EB80022F00900F5CFEEFFE550E150FAE1D30E1C
:102EC800F66E370EF76E000EF86E00EEF4F010EEA8
:102ED80008F00900F5CFEEFFE550E150FAE1C00E29
:102EE800F66E370EF76E000EF86E00EE40F010EE3C
:102EF80013F00900F5CFEEFFE550E150FAE101EEDD
:102F08004CF0200EEE6AE806FDE10001FD6BFC6B5B
:102F180000EE53F00B0EEE6AE806FDE15E905E925D
:102F2800000EF86E000185EF0BF00001FC4BFD2B45
:102F3800FE0E0001DC6FFF0E0001DD6FFCC0DEF04D
:102F4800FDC0DFF0D8900001DE37DF370001DC512B
:102F58000001DE270001DD510001DF23540E0001CE
:102F6800DE25D96E010E0001DF21DA6ED8C0DEFF42
:102F7800D9C0DDFFD8C0CEF0D9C0CFF0DAC0D0F0CC
:102F8800DBC0D1F0C6EC14F0000E236E000E226EEA
:102F98004FEC1AF0000E236E000E226E000E246E07
:102FA800000E256E000E266E000E276E03EC1AF03A
:102FB8001200000E2D6E2BAE06D02A6C2B1ED8B038
:102FC8002B2A010E2D6E29AE06D0286C291ED8B0EA
:102FD800292A010E2D1A000E2F6E000E2E6E2A5071
:102FE8002B10D8B41CD0010E2C6E04D0D8902A36E1
:102FF8002B362C2A2BAEFAD7D8902E362F362A50BD
:10300800285C2B502958D8A005D02A50285E2B5070
:10301800295A2E80D8902B322A322C2EEDD72D50BB
:10302800D8B404D02E6C2F1ED8B02F2A2EC028F06A
:103038002FC029F01200000E2A6E000E2B6E000E13
:103048002C6E000E2D6E2650271028102910D8B48B
:103058002AD0010E2E6E06D0D8902636273628366E
:1030680029362E2A29AEF8D7D8902A362B362C3670
:103078002D362650225C2750235828502458295092
:103088002558D8A009D02650225E2750235A285008
:10309800245A2950255A2A80D89029322832273292
:1030A80026322E2EE1D72AC022F02BC023F02CC0C6
:1030B80024F02DC025F012000600FACF14F0FBCF43
:1030C80015F0E9CF16F0EACF17F0E1CF18F0E2CF0C
:1030D80019F0D9CF1AF0DACF1BF0F3CF1CF0F4CFE8
:1030E8001DF0F6CF1EF0F7CF1FF0F8CF20F0F5CF88
:1030F80021F0CAEC12F021C0F5FF20C0F8FF1FC074
:10310800F7FF1EC0F6FF1DC0F4FF1CC0F3FF1BC075
:10311800DAFF1AC0D9FF19C0E2FF18C0E1FF17C0D3
:10312800EAFF16C0E9FF15C0FBFF14C0FAFF5E9264
:103138001100000E336E8E0E326E2DAE11D02D1E84
:103148002C1E2B1E2A6C000E2B222C222D22010E47
:10315800336E06D0D8902D322C322B322A32322AB6
:10316800000E2A142E6E000E2B142F6E000E2C1437
:10317800306EFF0E2D14316E2E502F10301031107E
:10318800D8A4E8D72AC022F02BC023F02CC024F002
:1031980032C025F033C026F05EEC16F022C02AF0CB
:1031A80023C02BF024C02CF01200000E276E23AE93
:1031B80006D0226C231ED8B0232A010E276E25AE16
:1031C80004D0246C251ED8B0252A24502510D8B444
:1031D80018D0010E266E04D0D89024362536262A1B
:1031E80025AEFAD72450225C25502358D8A004D005
:1031F8002450225E2550235AD89025322432262E78
:10320800F1D72750D8B404D0226C231ED8B0232A73
:1032180022C022F023C023F01200000E066E02AE78
:1032280006D0016C021ED8B0022A010E066E04AE4A
:1032380004D0036C041ED8B0042A03500410D8B478
:1032480018D0010E056E04D0D89003360436052A2E
:1032580004AEFAD70350015C04500258D8A004D039
:103268000350015E0450025AD89004320332052EEE
:10327800F1D70650D8B404D0016C021ED8B0022A87
:1032880001C001F002C002F01200335034103510B2
:103298003610D8B424D0010E376E06D0D890333605
:1032A800343635363636372A36AEF8D733502F5CB3
:1032B800345030583550315836503258D8A008D08C
:1032C80033502F5E3450305A3550315A3650325AB6
:1032D800D8903632353234323332372EE7D72FC0D2
:1032E8002FF030C030F031C031F032C032F012006F
:1032F800236E2350F00B226E8C500F0B8C6E2250D5
:103308008C108C6E8C96D60E00D000D0E82EFCD790
:1033180000D08C86D60E00D000D0E82EFCD700D086
:103328002338F00B236E2350F00B226E8C500F0BBA
:103338008C6E22508C108C6E8C96D60E00D000D0DD
:10334800E82EFCD700D08C86D60E00D000D0E82E10
:10335800FCD700D012008E0E326E06D0D8902D32D7
:103368002C322B322A32322A000E2A142E6E000EEC
:103378002B142F6E000E2C14306EFF0E2D14316E90
:103388002E502F1030103110D8A4E8D72AC022F0C0
:103398002BC023F02CC024F032C025F0000E266E7E
:1033A8005EEC16F022C02AF023C02BF024C02CF0CB
:1033B80012000001AB510001AC110001AD11D8B4ED
:1033C80009D0000E0001AB1B000E0001AC1B800EE3
:1033D8000001AD1BA8C09CF0A9C09DF0AAC09EF03A
:1033E800ABC09FF0ACC0A0F0ADC0A1F042EC0DF0B6
:1033F8009CC0A8F09DC0A9F09EC0AAF0120012D0EF
:1034080025C0D7FF24C0D6FFD58E120025C0CFFF18
:1034180024C0CEFFCD80120025C0B3FF24C0B2FF68
:10342800B180120022C028F023C029F02950000AD8
:10343800D8A412002850000AD8B4E2D7010AD8B498
:10344800E5D7020AD8A41200E7D712D00AC0D7FFDE
:1034580009C0D6FFD58E12000AC0CFFF09C0CEFF23
:10346800CD8012000AC0B3FF09C0B2FFB1801200BC
:1034780007C00DF008C00EF00E50000AD8A41200C4
:103488000D50000AD8B4E2D7010AD8B4E5D7020A29
:10349800D8A41200E7D70FD0000ED56ED586F28AD1
:1034A8001CD0000ECD6E300ECD129D8016D0000EB1
:1034B800B16EA08212D022C024F023C025F025507E
:1034C800000AD8A40AD02450000AD8B4E5D7010AC3
:1034D800D8B4E7D7020AD8B4EAD7F28CF28E120031
:1034E800310E266EB20EE82EFED7262EFCD700D05F
:1034F800330EC0EC1BF0320EC0EC1BF0280EC0ECF3
:103508001BF00F0EC0EC1BF0060EC0EC1BF0010EFA
:10351800C0EC1BF0310E266EB20EE82EFED7262E1A
:10352800FCD700D0120092689368C00E946E000E0B
:10353800956E000E966E000E896E000E8A6E000E55
:103548008B6E000E8C6E000E8D6E000EC26E0B0E12
:10355800C112000EC06EC082300EC012C08EF2883A
:10356800F28E12002244E846FC0BC26EC280C28270
:10357800C2B2FED7C350C4CF26F0276A26C027F0B0
:10358800266A2626000E272226C022F027C023F00E
:10359800000E23BEFF0E246E256E1200000E2D6E47
:1035A8002BAE06D02A6C2B1ED8B02B2A010E2D6EFE
:1035B8002AC022F02BC023F0246A8E0E256E2DC05F
:1035C80026F05EEC16F022C02AF023C02BF024C0AF
:1035D8002CF012000001E56FF2EC1BF0CB0E00019D
:1035E800B76FFE0E0001B86FE5C0B9F00001BA6B05
:1035F80009EC00F07C0E0001B76FFF0E0001B86FF8
:1036080009EC00F01200F2EC1BF0140E0001B76F89
:10361800FF0E0001B86F09EC00F0490E0001B76F0A
:10362800FF0E0001B86F09EC00F01200F2EC1BF07D
:10363800260E0001B76FFF0E0001B86F09EC00F00D
:103648008D0E0001B76FFF0E0001B86F09EC00F096
:103658001200F2EC1BF0020E0001B76FFF0E000122
:10366800B86F09EC00F05A0E0001B76FFF0E0001A9
:10367800B86F09EC00F0120081A2FED781380F0B59
:103688000F0B226E81B2FED72250010DB30EF32428
:10369800F66EFE0EF420F76E0800F5501200F2ECFC
:1036A8001BF0DE0E0001B76FFE0E0001B86F09ECCB
:1036B80000F06B0E0001B76FFF0E0001B86F09EC48
:1036C80000F01200F2EC1BF0F00E0001B76FFE0ED6
:1036D8000001B86F09EC00F09E0E0001B76FFF0EF5
:1036E8000001B86F09EC00F0120030503202F3CF3D
:1036F80034F0F4CF35F030503302F35035263150E2
:103708003202F350352634C030F035C031F01200A3
:10371800225023102410D8B406D0000E221A000E0E
:10372800231A800E241A22C022F023C023F024C0BA
:1037380024F012004C008A0064000200020003001A
:10374800010002000000020006000200070002005B
:10375800010003000000266E0A0E2618D8A403D024
:10376800EEEC1BF012008C84740EE82EFED700D00D
:1037780026507CEC19F01200256E8C94740EE82EFD
:10378800FED700D025507CEC19F0040E246E3E0EB6
:10379800E82EFED7242EFCD71200246E000E236ECE
:1037A8003A0E246005D02F0E246402D0010E236E39
:1037B80023C022F02230120077EE3FC14A3EA7A96B
:1037C8003F5A00B4007C79020005001E007600A66E
:0337D80000990055
:1037DC00C00EC0EC1BF01200010EC0EC1BF012006E
:0837EC00C00EC0EC1BF012003E
:10FE1C0000010000000A00000064000000E803007C
:10FE2C000010270000A086010040420F0080969829
:10FE3C000000E1F50500CA9A3B00803FCDCC3DD7D0
:10FE4C00233C12833AB7D138C62737388635C0D60B
:10FE5C0033CC2B32708930E7DB2EE53C1E42A20DF1
:10FE6C0000803F00204100C842007A44401C4650AC
:10FE7C00C34724744997184BBCBE4C6B6E4E03158C
:10FE8C005079AD60F34971010000001000000000D2
:10FE9C000100000010000000000100000010000034
:10FEAC000000010000001031323341343536423746
:10FEBC003839432A30234400005903011304172511
:10FECC0063292074696D6520203C4120202020206E
:10FEDC000A0073746172742020203C422020202080
:10FEEC0020200A00202068683A6D6D3A7373202038
:10FEFC00202020200A0073656C6563742072756E77
:10FF0C003A20202020200A0074696D653A206E6E1C
:10FF1C006E207365632020200A005B41412C39560A
:10FF2C002C432C6F746865725D200A0030313233BB
:10FF3C0034353637383961626364656600202020B9
:10FF4C0020202020202020202020202A3E005B3151
:10FF5C002C322C332C345D20202020202A3E0068AB
:10FF6C006973746F7279203C43202020202A3E0054
:10FF7C002020207374617473203C422020202A3E80
:10FF8C00005B6E6E2C6E2C6E2C6E6E5D2020202A0B
:10FF9C003E0020206D6D3A64643A7979202020204F
:10FFAC00413E005B41412C432C39562C4F54484563
:10FFBC00525D0A0074696D65202530326C643A25F7
:10FFCC0030326C64004E3A2025642C0A563A2025B7
:10FFDC002E3366005B25642C25642C25642C25644B
:10FFEC005D0074313A202578200072756E6E696E52
:03FFFC006700009B
:020000040020DA
:08000000FFFFFFFFFFFFFFFF00
:020000040030CA
:0E000000FF021F1EFF8381FF0FC00FE00F40A5
:00000001FF
