:0400000007EF00F016
:100008007C82F1ED1CF036EF23F0E50E01013D6F27
:10001800000E01013E6FA2EF04F0250E01015019F8
:10002800D8B406D001015051D2EC25F0A2EF04F06B
:10003800000E0101406F000E3F6F18D0010140858E
:1000480034D001013F8F31D03DC1D9FF3EC1DAFF25
:10005800DF500101506F020E01013D27000E3E23C3
:1000680001015051D2EC25F0A2EF04F0E3C0F6FFF5
:10007800E4C0F7FF0001E34BE42B0800F5CF50F193
:1000880001015051000AD8B41200630AD8B4DCD771
:10009800070AD8B40AD0020AD8B4D0D70F0AD8B4FD
:1000A80004D0110AD8B4CDD7DBD7070E010140150B
:1000B800D8B404D3000E0101426F060E416F3DC152
:1000C800D9FF3EC1DAFFDECF4DF1DECF4EF1DDCFF5
:1000D8004FF1030E01013D27000E3E2301014FAFF2
:1000E80011D04DC18EF04EC18FF04FC190F090EC01
:1000F80025F08EC04DF18FC04EF190C04FF1030E28
:1001080001013F13000E0101446F000E436F01010E
:100118004D5101014E1101014F11D8B49BD0820EEF
:100128000101336FFF0E0101346F4DC135F14EC12E
:1001380036F14FC137F150C138F1100E06D0010128
:10014800D8903833373336333533E82EF8D70101B2
:100158003551010133250101436F000E010134219E
:100168000101446F01014307D8A0440743C19CF033
:1001780044C19DF0000E00019F6F030E9E6F5BEC63
:1001880025F09CC043F19DC044F143C194F044C1A3
:1001980095F0000E0001976F0A0E966F91EC1EF015
:1001A80094C043F195C044F1010144AF04D001016A
:1001B8004307D8A04407010143510008AEEC08F0FA
:1001C800BEC045F1BFC046F1C0C047F145C1AFF060
:1001D80046C1B0F047C1B1F04DC1B2F04EC1B3F065
:1001E8004FC1B4F0A3EC15F0AFC045F1B0C046F173
:1001F800B1C047F145C18EF046C18FF047C190F0BC
:10020800000E0001916F800E0001926F3F0E0001F9
:10021800936FC9EC1DF00001D8B005D00101430768
:10022800D8A0440717D045C18EF046C18FF047C10A
:1002380090F0000E0001916F200E0001926F410EA8
:100248000001936FC9EC1DF00001D8A003D0010193
:10025800434B442B010142BF08D0010142511DE12B
:100268000D0E0101415DD8B018D04DC1C8F04EC186
:10027800C9F04FC1CAF001014151DAEC0EF0BEC01D
:10028800CBF0BFC0CCF0C0C0CDF030EC10F0C8C08F
:100298004DF1C9C04EF1CAC04FF1010144BF08D0A9
:1002A800010144512AE10A0E0101435DD8B025D06D
:1002B80001014D5101014E1101014F11D8B463D014
:1002C8004DC1D4F04EC1D5F04FC1D6F0F8EC16F0C0
:1002D8000001D4510001D5110001D6110001D71138
:1002E800D8A451D0010144BF4ED00101445105E1C9
:1002F800020E0101435DD8A046D045C18EF046C12B
:100308008FF047C190F0700E0001916F890E0001C7
:10031800926F400E0001936FC9EC1DF00001D8B038
:1003280003D00101F70E02D00101F80E4327FF0E9A
:10033800442301014351AEEC08F0BEC045F1BFC0F3
:1003480046F1C0C047F14DC18EF04EC18FF04FC18C
:1003580090F045C191F046C192F047C193F05DEC31
:1003680013F08EC049F18FC04AF190C04BF191C093
:100378004CF1000E01014D6F000E01014E6F000E91
:1003880001014F6F33D04DC1D4F04EC1D5F04FC1EC
:10039800D6F0F8EC16F0D4C049F1D5C04AF1D6C071
:1003A8004BF1D7C04CF14DC1D4F04EC1D5F04FC17F
:1003B800D6F049C196F04AC197F04BC198F04CC1AC
:1003C80099F048EC22F096C0D7F097C0D8F098C0C2
:1003D800D9F027EC24F0D4C04DF1D5C04EF1D6C0E9
:1003E8004FF1000E0101446F000E436F010E010131
:1003F800506F0A0E01015019D8B41ED00101505196
:10040800040D310EF324F66EFE0EF420F76E09008B
:10041800F5500101495D0900F55001014A590900EB
:10042800F55001014B590900F55001014C59D8A06C
:1004380003D00101502BDDD7030E01013F15010147
:10044800336F000E010140150101346F0101335172
:1004580001013411D8B44BD02D0ED2EC25F047D081
:1004680049C18EF04AC18FF04BC190F04CC191F058
:1004780001015051040D310EF324F66EFE0EF420E6
:10048800F76E0900F5CF92F00900F5CF93F0090057
:10049800F5CF94F00A00F5CF95F0F0EC1EF08EC081
:1004A80045F18FC046F190C047F191C048F145C170
:1004B8009BF046C19CF047C19DF048C19EF00A0ED2
:1004C80000019F6F000EA06F000EA16F000EA26FBB
:1004D800E9EC20F09BC045F19CC046F19DC047F176
:1004E8009EC048F101014551300FD2EC25F00101C1
:1004F800500701015029D8B408D0B2D7300ED2EC39
:1005080025F001014307D8A04407010144BF07D0E3
:1005180001014451F3E101014305D8B0EFD70101CE
:1005280042BF0CD00101425105E1090E0101415DB4
:10053800D8A004D0080E0101506F02D041C150F17B
:10054800010150510101415F000E010150BFFF0E32
:100558000101425B010150510101D8B403D02E0EB4
:10056800D2EC25F001015051AEEC08F0BEC039F1D3
:10057800BFC03AF1C0C03BF14DC1B2F04EC1B3F0BB
:100588004FC1B4F039C1AFF03AC1B0F03BC1B1F0DE
:10059800A3EC15F0AFC0D4F0B0C0D5F0B1C0D6F020
:1005A800F8EC16F0D4C049F1D5C04AF1D6C04BF1E9
:1005B800D7C04CF16ED049C18EF04AC18FF04BC103
:1005C80090F04CC191F001015051040D310EF3240B
:1005D800F66EFE0EF420F76E0900F5CF92F00900D2
:1005E800F5CF93F00900F5CF94F00A00F5CF95F018
:1005F800F0EC1EF08EC045F18FC046F190C047F177
:1006080091C048F145C19BF046C19CF047C19DF09F
:1006180048C19EF00A0E00019F6F000EA06F000EE9
:10062800A16F000EA26FE9EC20F09BC045F19CC0C1
:1006380046F19DC047F19EC048F101014551300F78
:10064800D2EC25F049C19BF04AC19CF04BC19DF00A
:100658004CC19EF001015051040D310EF324F66E89
:10066800FE0EF420F76E0900F5CF9FF00900F5CFD4
:10067800A0F00900F5CFA1F00A00F5CFA2F0E9EC4F
:1006880020F09BC049F19CC04AF19DC04BF19EC02F
:100698004CF10101500701015029D8B408D08BD77B
:1006A800300ED2EC25F001014107D8A04207010124
:1006B800415101014211D8B441D1F2D701013FBFE4
:1006C80023D03DC1D9FF3EC1DAFFDECF49F1DDCFEE
:1006D8004AF10101000E4ABFFF0E4B6F4C6F020E2C
:1006E80001013D27000E3E2301014CAF6ED0030EE1
:1006F80001013F1301014C1F4B1F4A1F496D000E9A
:100708004A234B234C2361D03DC1D9FF3EC1DAFFB8
:10071800DECF33F1DDCF34F133C149F134C14AF1D1
:1007280001014B6B4C6B020E01013D27000E3E236D
:100738004CD0010E0101506F0A0E01015019D8B4B6
:100748004DD001015051040D310EF324F66EFE0E0A
:10075800F420F76E0900F5500101495D0900F550D4
:1007680001014A590900F55001014B590900F5509A
:1007780001014C59D8A032D00101502BDDD7010E10
:100788000101506F080E01015019D8B427D001019A
:100798005051040DA70EF324F66EFE0EF420F76EEA
:1007A8000900F5500101495D0900F55001014A5958
:1007B8000900F55001014B590900F55001014C5948
:1007C800D8A00CD00101502BDDD701013F51800B7F
:1007D800000AD8B4AED7800AD8B4D1D7030E010125
:1007E8003F150101336F000E010140150101346FFF
:1007F8000101335101013411D8B403D02D0ED2ECCC
:1008080025F0010150510101416F426B41BF420780
:100818008AD041C133F142C134F10101D890333754
:1008280034370101D89033373437310E010133257D
:10083800F66EFE0E3421F76E0900F5CF92F009002E
:10084800F5CF93F00900F5CF94F00A00F5CF95F0B5
:1008580049C18EF04AC18FF04BC190F04CC191F064
:10086800F0EC1EF08EC09BF08FC09CF090C09DF005
:1008780091C09EF00A0E00019F6F000EA06F000E3F
:10088800A16F000EA26FE9EC20F000019B51300F20
:100898000101506F44D049C18EF04AC18FF04BC15D
:1008A80090F04CC191F041C133F142C134F10101E2
:1008B800D890333734370101D89033373437A70EFF
:1008C80001013325F66EFE0E3421F76E0900F5CFCF
:1008D80092F00900F5CF93F00900F5CF94F00A00E3
:1008E800F5CF95F0F0EC1EF000018E510F0B0101D1
:1008F8003C6F01013C51010D640EF324F66EFF0EAE
:10090800F420F76E0800F5CF50F109D001013F51EE
:10091800800B000AD8B47DD7800AD8B4BCD70101AF
:100928005051D2EC25F001014107D8A0420701013E
:100938004129ECE101014229D8A4E8D7E3C0F6FF38
:10094800E4C0F7FF0001E34BE42B0800F5CF50F1BA
:1009580001015051D8B4120011EF00F0520E5E6E32
:10096800000E5F6EEAD3250E7118D8B404D071500A
:100978000BEC26F0E2D3000E616E000E606E12D012
:1009880061842DD0608E2BD05EC0D9FF5FC0DAFFA6
:10099800DF50716E020E5E26000E5F2271500BEC66
:1009A80026F0CBD350C0F6FF51C0F7FF504A512A6A
:1009B8000800F5CF71F07150000AD8B41200630A2C
:1009C800D8B4E2D7070AD8B40AD0020AD8B4D8D71C
:1009D8000F0AD8B404D0110AD8B4D4D7DFD7070E79
:1009E8006114D8B49CD2000E636E060E626E5EC0AF
:1009F800D9FF5FC0DAFFDECF6EF0DECF6FF0DDCF5C
:100A080070F0030E5E26000E5F2270AE10D06EC02E
:100A180001F06FC002F070C003F0F9EC25F001C0DE
:100A28006EF002C06FF003C070F0030E6012000E8B
:100A3800656E000E646E6E506F107010D8B483D05F
:100A4800820E546EFF0E556E6EC056F06FC057F092
:100A580070C058F071C059F0100E05D0D8905932B6
:100A6800583257325632E82EF9D756505424646E0D
:100A7800000E5520656E6406D8A0650664C00FF0A8
:100A880065C010F0000E126E030E116EE6EC25F034
:100A98000FC064F010C065F064C007F065C008F0CE
:100AA800000E0A6E0A0E096EC5EC21F007C064F04C
:100AB80008C065F065AE03D06406D8A0650664502A
:100AC800000805EC0BF02BC066F02CC067F02DC0B9
:100AD80068F066C01CF067C01DF068C01EF06EC0EC
:100AE8001FF06FC020F070C021F08AEC1BF01CC012
:100AF80066F01DC067F01EC068F066C001F067C0F0
:100B080002F068C003F0000E046E800E056E3F0E02
:100B1800066E36EC21F0D8B004D06406D8A065067D
:100B280012D066C001F067C002F068C003F0000E82
:100B3800046E200E056E410E066E36EC21F0D8A02C
:100B480002D0644A652A63BE06D063501BE10D0ECD
:100B5800625CD8B017D06EC035F06FC036F070C088
:100B680037F0625064EC11F02BC038F02CC039F02B
:100B78002DC03AF087EC12F035C06EF036C06FF039
:100B880037C070F065BE06D065501EE10A0E645C81
:100B9800D8B01AD06E506F107010D8B451D06EC043
:100BA80041F06FC042F070C043F004EC1CF04150BB
:100BB800421043104410D8B465BE42D0655004E1D9
:100BC800020E645CD8A03CD066C001F067C002F099
:100BD80068C003F0700E046E890E056E400E066E36
:100BE80036EC21F0D8B002D0F70E01D0F80E64260A
:100BF800FF0E6522645005EC0BF02BC066F02CC08C
:100C080067F02DC068F06EC001F06FC002F070C0D0
:100C180003F066C004F067C005F068C006F03AEC5F
:100C280018F001C06AF002C06BF003C06CF004C099
:100C38006DF0000E6E6E000E6F6E000E706E32D08C
:100C48006EC041F06FC042F070C043F004EC1CF07D
:100C580041C06AF042C06BF043C06CF044C06DF014
:100C68006EC041F06FC042F070C043F06AC009F036
:100C78006BC00AF06CC00BF06DC00CF0D1EC23F027
:100C880009C044F00AC045F00BC046F000EC25F05E
:100C980041C06EF042C06FF043C070F0000E656E48
:100CA800000E646E010E716E0A0E7118D8B418D059
:100CB8007150040D310EF324F66EFE0EF420F76E1B
:100CC8000900F5506A5C0900F5506B580900F550A9
:100CD8006C580900F5506D58D8A002D0712AE4D795
:100CE800030E6014546E000E6114556E5450551066
:100CF800D8B448D02D0E0BEC26F044D06AC001F0D1
:100D08006BC002F06CC003F06DC004F07150040DAC
:100D1800310EF324F66EFE0EF420F76E0900F5CFBF
:100D280005F00900F5CF06F00900F5CF07F00A0035
:100D3800F5CF08F007EC22F001C066F002C067F0BA
:100D480003C068F004C069F066C00EF067C00FF019
:100D580068C010F069C011F00A0E126E000E136E12
:100D6800000E146E000E156E6BEC23F00EC066F0CC
:100D78000FC067F010C068F011C069F06650300FFE
:100D88000BEC26F071067128D8B407D0B7D7300E0F
:100D98000BEC26F06406D8A0650665BE05D0655044
:100DA800F6E16404D8B0F3D763BE09D0635004E118
:100DB800090E625CD8A003D0080E716E02D062C022
:100DC80071F07150625E000E71BEFF0E635A715071
:100DD800D8B403D02E0E0BEC26F0715005EC0BF0B6
:100DE8002BC05AF02CC05BF02DC05CF06EC01FF019
:100DF8006FC020F070C021F05AC01CF05BC01DF01D
:100E08005CC01EF08AEC1BF01CC041F01DC042F013
:100E18001EC043F004EC1CF041C06AF042C06BF005
:100E280043C06CF044C06DF06AD06AC001F06BC07A
:100E380002F06CC003F06DC004F07150040D310E67
:100E4800F324F66EFE0EF420F76E0900F5CF05F0D8
:100E58000900F5CF06F00900F5CF07F00A00F5CF35
:100E680008F007EC22F001C066F002C067F003C08A
:100E780068F004C069F066C00EF067C00FF068C083
:100E880010F069C011F00A0E126E000E136E000EFB
:100E9800146E000E156E6BEC23F00EC066F00FC0DA
:100EA80067F010C068F011C069F06650300F0BECA5
:100EB80026F06AC00EF06BC00FF06CC010F06DC069
:100EC80011F07150040D310EF324F66EFE0EF4206D
:100ED800F76E0900F5CF12F00900F5CF13F00900FD
:100EE800F5CF14F00A00F5CF15F06BEC23F00EC027
:100EF8006AF00FC06BF010C06CF011C06DF0710695
:100F08007128D8B407D091D7300E0BEC26F06206C2
:100F1800D8A0630662506310D8B40FD1F5D760BE6D
:100F28001ED05EC0D9FF5FC0DAFFDECF6AF0DDCF2A
:100F38006BF0000E6BBEFF0E6C6E6D6E020E5E26C1
:100F4800000E5F226DAE5AD0030E60126D1E6C1E2D
:100F58006B1E6A6C000E6B226C226D224FD05EC035
:100F6800D9FF5FC0DAFFDECF54F0DDCF55F054C0B3
:100F78006AF055C06BF06C6A6D6A020E5E26000E50
:100F88005F223CD0010E716E0A0E7118D8B43ED0A3
:100F98007150040D310EF324F66EFE0EF420F76E38
:100FA8000900F5506A5C0900F5506B580900F550C6
:100FB8006C580900F5506D58D8A028D0712AE4D78C
:100FC800010E716E080E7118D8B420D07150040D3E
:100FD800A70EF324F66EFE0EF420F76E0900F55006
:100FE8006A5C0900F5506B580900F5506C58090007
:100FF800F5506D58D8A00AD0712AE4D76050800BFC
:10100800000AD8B4BFD7800AD8B4DAD7030E601460
:10101800546E000E6114556E54505510D8B403D058
:101028002D0E0BEC26F07150626E636A62BE630689
:101038007CD062C054F063C055F0D8905436553611
:10104800D89054365536310E5424F66EFE0E55207F
:10105800F76E0900F5CF05F00900F5CF06F0090095
:10106800F5CF07F00A00F5CF08F06AC001F06BC0B1
:1010780002F06CC003F06DC004F007EC22F001C070
:101088000EF002C00FF003C010F004C011F00A0EF9
:10109800126E000E136E000E146E000E156E6BECC1
:1010A80023F00E50300F716E3DD06AC001F06BC056
:1010B80002F06CC003F06DC004F062C054F063C06D
:1010C80055F0D89054365536D89054365536A70E24
:1010D8005424F66EFE0E5520F76E0900F5CF05F084
:1010E8000900F5CF06F00900F5CF07F00A00F5CFA3
:1010F80008F007EC22F001500F0B5D6E5D50010DFA
:10110800640EF324F66EFF0EF420F76E0800F5CF98
:1011180071F008D06050800B000AD8B48AD7800AD2
:10112800D8B4C3D771500BEC26F06206D8A063067A
:101138006228F0E16328D8A4EDD750C0F6FF51C06B
:10114800F7FF504A512A0800F5CF71F07150D8B412
:10115800120009D40001C46F0001C4AF2AD10001F4
:10116800C46D0001C451800A120FD8A0ACD0000E83
:1011780000019F6F030E9E6F000E0001976F0A0E0D
:10118800966F000E0001916F640E906F0001C451BC
:1011980000018E6F8F6B8EBF8F07FCEC1FF08EC027
:1011A80094F08FC095F091EC1EF0090E0001942583
:1011B80000019C6F000E0001952100019D6F5BEC02
:1011C80025F0590E00019C25F66EFE0E00019D21AA
:1011D800F76E0900F5CFB2F00900F5CFB3F00A00B9
:1011E800F5CFB4F0000E0001976F640E966F000102
:1011F800C4510001946F956B94BF950791EC1EF054
:10120800120E0001942500019C6F000E000195212B
:1012180000019D6F000E00019F6F030E9E6F5BEC37
:1012280025F0590E00019C25F66EFE0E00019D2149
:10123800F76E0900F5CFAFF00900F5CFB0F00A005E
:10124800F5CFB1F0A3EC15F0AFC0C1F0B0C0C2F05B
:10125800B1C0C3F0C1C0AFF0C2C0B0F0C3C0B1F0FC
:10126800000E00019F6F030E9E6F000E0001916F2C
:101278000A0E906F0001C45100018E6F8F6B8EBFF4
:101288008F07FCEC1FF08EC09CF08FC09DF05BECCC
:1012980025F0590E00019C25F66EFE0E00019D21D9
:1012A800F76E0900F5CFB2F00900F5CFB3F00A00E8
:1012B800F5CFB4F0A3EC15F0AFC0BEF0B0C0BFF0EE
:1012C800B1C0C0F012000001C451800A750FD8A047
:1012D8005DD0000E0001976F0A0E966F0001C45191
:1012E8000001946F956B94BF950791EC1EF0090E61
:1012F8000001942500019C6F000E0001952100015A
:101308009D6F000E00019F6F030E9E6F5BEC25F032
:10131800590E00019C25F66EFE0E00019D21F76E08
:101328000900F5CFAFF00900F5CFB0F00A00F5CF0E
:10133800B1F0000E00019F6F030E9E6F000E0001BA
:10134800916F0A0E906F0001C45100018E6F8F6B70
:101358008EBF8F07FCEC1FF08EC09CF08FC09DF0F5
:101368005BEC25F0590E00019C25F66EFE0E00017F
:101378009D21F76E0900F5CFB2F00900F5CFB3F063
:101388000A00F5CFB4F0A3EC15F096D70001C451CC
:10139800030D590EF324F66EFE0EF420F76E0900C5
:1013A800F5CFBEF00900F5CFBFF00A00F5CFC0F0C9
:1013B80012000001C451800A120FD8A0ACD0000E50
:1013C80000019F6F030E9E6F000E0001976F0A0EBB
:1013D800966F000E0001916F640E906F0001C4516A
:1013E80000018E6F8F6B8EBF8F07FCEC1FF08EC0D5
:1013F80094F08FC095F091EC1EF0090E0001942531
:1014080000019C6F000E0001952100019D6F5BECAF
:1014180025F0800E00019C25F66EFE0E00019D2130
:10142800F76E0900F5CFB2F00900F5CFB3F00A0066
:10143800F5CFB4F0000E0001976F640E966F0001AF
:10144800C4510001946F956B94BF950791EC1EF001
:10145800120E0001942500019C6F000E00019521D9
:1014680000019D6F000E00019F6F030E9E6F5BECE5
:1014780025F0800E00019C25F66EFE0E00019D21D0
:10148800F76E0900F5CFAFF00900F5CFB0F00A000C
:10149800F5CFB1F0A3EC15F0AFC0C1F0B0C0C2F009
:1014A800B1C0C3F0C1C0AFF0C2C0B0F0C3C0B1F0AA
:1014B800000E00019F6F030E9E6F000E0001916FDA
:1014C8000A0E906F0001C45100018E6F8F6B8EBFA2
:1014D8008F07FCEC1FF08EC09CF08FC09DF05BEC7A
:1014E80025F0800E00019C25F66EFE0E00019D2160
:1014F800F76E0900F5CFB2F00900F5CFB3F00A0096
:10150800F5CFB4F0A3EC15F0AFC0BEF0B0C0BFF09B
:10151800B1C0C0F012000001C451800A750FD8A0F4
:101528005DD0000E0001976F0A0E966F0001C4513E
:101538000001946F956B94BF950791EC1EF0090E0E
:101548000001942500019C6F000E00019521000107
:101558009D6F000E00019F6F030E9E6F5BEC25F0E0
:10156800800E00019C25F66EFE0E00019D21F76E8F
:101578000900F5CFAFF00900F5CFB0F00A00F5CFBC
:10158800B1F0000E00019F6F030E9E6F000E000168
:10159800916F0A0E906F0001C45100018E6F8F6B1E
:1015A8008EBF8F07FCEC1FF08EC09CF08FC09DF0A3
:1015B8005BEC25F0800E00019C25F66EFE0E000106
:1015C8009D21F76E0900F5CFB2F00900F5CFB3F011
:1015D8000A00F5CFB4F0A3EC15F096D70001C4517A
:1015E800030D800EF324F66EFE0EF420F76E09004C
:1015F800F5CFBEF00900F5CFBFF00A00F5CFC0F077
:101608001200316E31AEFBD0316C3150800A120FAE
:10161800D8A091D0000E126E030E116E000E0A6E45
:101628000A0E096E000E046E640E036E3150016ED0
:10163800026A01BE0206FEEC22F001C007F002C0F9
:1016480008F0C5EC21F0090E07240F6E000E0820E3
:10165800106EE6EC25F0590E0F24F66EFE0E1020E3
:10166800F76E0900F5CF1FF00900F5CF20F00A004A
:10167800F5CF21F0000E0A6E640E096E3150076E28
:10168800086A07BE0806C5EC21F0120E07240F6E83
:10169800000E0820106E000E126E030E116EE6EC9E
:1016A80025F0590E0F24F66EFE0E1020F76E090075
:1016B800F5CF1CF00900F5CF1DF00A00F5CF1EF09C
:1016C8008AEC1BF01CC02EF01DC02FF01EC030F09D
:1016D8002EC01CF02FC01DF030C01EF0000E126E80
:1016E800030E116E000E046E0A0E036E3150016E69
:1016F800026A01BE0206FEEC22F001C00FF002C031
:1017080010F0E6EC25F0590E0F24F66EFE0E1020B0
:10171800F76E0900F5CF1FF00900F5CF20F00A0099
:10172800F5CF21F08AEC1BF01CC02BF01DC02CF06B
:101738001EC02DF012003150800A750FD8A04DD070
:10174800000E0A6E0A0E096E3150076E086A07BE4F
:101758000806C5EC21F0090E07240F6E000E0820BC
:10176800106E000E126E030E116EE6EC25F0590E87
:101778000F24F66EFE0E1020F76E0900F5CF1CF050
:101788000900F5CF1DF00A00F5CF1EF0000E126E0D
:10179800030E116E000E046E0A0E036E3150016EB8
:1017A800026A01BE0206FEEC22F001C00FF002C080
:1017B80010F0E6EC25F0590E0F24F66EFE0E102000
:1017C800F76E0900F5CF1FF00900F5CF20F00A00E9
:1017D800F5CF21F08AEC1BF0A7D73150030D590E35
:1017E800F324F66EFE0EF420F76E0900F5CF2BF009
:1017F8000900F5CF2CF00A00F5CF2DF0120031507A
:10180800800A120FD8A091D0000E126E030E116E2E
:10181800000E0A6E0A0E096E000E046E640E036E48
:101828003150016E026A01BE0206FEEC22F001C0D0
:1018380007F002C008F0C5EC21F0090E07240F6E6E
:10184800000E0820106EE6EC25F0800E0F24F66ED0
:10185800FE0E1020F76E0900F5CF1FF00900F5CF36
:1018680020F00A00F5CF21F0000E0A6E640E096E12
:101878003150076E086A07BE0806C5EC21F0120E43
:1018880007240F6E000E0820106E000E126E030E55
:10189800116EE6EC25F0800E0F24F66EFE0E102079
:1018A800F76E0900F5CF1CF00900F5CF1DF00A000E
:1018B800F5CF1EF08AEC1BF01CC02EF01DC02FF0D7
:1018C8001EC030F02EC01CF02FC01DF030C01EF01E
:1018D800000E126E030E116E000E046E0A0E036ED9
:1018E8003150016E026A01BE0206FEEC22F001C010
:1018F8000FF002C010F0E6EC25F0800E0F24F66E13
:10190800FE0E1020F76E0900F5CF1FF00900F5CF85
:1019180020F00A00F5CF21F08AEC1BF01CC02BF058
:101928001DC02CF01EC02DF012003150800A750F1A
:10193800D8A04DD0000E0A6E0A0E096E3150076EFF
:10194800086A07BE0806C5EC21F0090E07240F6EC9
:10195800000E0820106E000E126E030E116EE6ECDB
:1019680025F0800E0F24F66EFE0E1020F76E09008B
:10197800F5CF1CF00900F5CF1DF00A00F5CF1EF0D9
:10198800000E126E030E116E000E046E0A0E036E28
:101998003150016E026A01BE0206FEEC22F001C05F
:1019A8000FF002C010F0E6EC25F0800E0F24F66E62
:1019B800FE0E1020F76E0900F5CF1FF00900F5CFD5
:1019C80020F00A00F5CF21F08AEC1BF0A7D73150A0
:1019D800030D800EF324F66EFE0EF420F76E090058
:1019E800F5CF2BF00900F5CF2CF00A00F5CF2DF03C
:1019F80012001B0E0101466F010E0101476F000E18
:101A08000101496F5A0E486F5FEC1DF01F0E00016F
:101A18008E6F010E00018F6F000E0001916F000E96
:101A2800906F08EC1BF00D0E0101526FAF0E010113
:101A3800516FB60EE82EFED7512FFCD7522FFAD78A
:101A480000F02B0E0101466F010E0101476F09C11D
:101A580048F10AC149F15FEC1DF0070E0101526F10
:101A6800580E0101516F590EE82EFED7512FFCD7A1
:101A7800522FFAD700D0850E0101566F930E01013F
:101A8800576F400E0101586FC00E0101596F7F0E4C
:101A980001015A6F440E01015B6F230E00018E6F26
:101AA800010E00018F6FD3EC18F0D89000018E352D
:101AB80001015C6F00018F3501015D6F270E000188
:101AC8008E6F010E00018F6FD3EC18F000018E515C
:101AD80001015C1300018F5101015D13170E000114
:101AE8008E6F010E00018F6F000E0001916F010EC5
:101AF800906F08EC1BF059C1A3F05AC1A4F05BC168
:101B0800A5F06DC18EF06EC18FF0DFEC24F08EC0B1
:101B180096F08FC097F090C098F091C099F04DEC76
:101B280020F096C0A0F097C0A1F098C0A2F052ECA7
:101B380016F0A0C0AFF0A1C0B0F0A2C0B1F056C17D
:101B4800B2F057C1B3F058C1B4F0A3EC15F0AFC070
:101B580060F1B0C061F1B1C062F131EC26F0DF0E86
:101B68000001E36FFE0E0001E46F5CC1E5F05DC1AA
:101B7800E6F060C1E7F061C1E8F062C1E9F009ECA4
:101B880000F0A8EC25F0A3D0170E00018E6F010E0F
:101B980000018F6F000E0001916F000E906F08EC2E
:101BA8001BF0040E0101516F3D0EE82EFED7512F98
:101BB800FCD700D059C1A3F05AC1A4F05BC1A5F06D
:101BC8006DC18EF06EC18FF0DFEC24F08EC096F000
:101BD8008FC097F090C098F091C099F04DEC20F02C
:101BE80096C0A0F097C0A1F098C0A2F052EC16F0F1
:101BF800A0C0AFF0A1C0B0F0A2C0B1F056C1B2F021
:101C080057C1B3F058C1B4F0A3EC15F0AFC053F10D
:101C1800B0C054F1B1C055F153C18EF054C18FF02A
:101C280055C190F0CD0E0001916FCC0E0001926F5E
:101C38003D0E0001936FC9EC1DF00001D8B016D01D
:101C480003C18EF004C18FF005C190F060C191F01E
:101C580061C192F062C193F0C9EC1DF00001D8B0E7
:101C680031D011C15EF112C15FF145D000C18EF0D3
:101C780001C18FF002C190F060C191F061C192F092
:101C880062C193F0C9EC1DF00001D8B01BD00FC1A0
:101C98005EF110C15FF12FD006C18EF007C18FF041
:101CA80008C190F060C191F061C192F062C193F0F7
:101CB800C9EC1DF00001D8B005D013C15EF114C104
:101CC8005FF119D015C15EF116C15FF114D05CC186
:101CD80051F15DC152F101015251000AD8A40BD053
:101CE80001015151000AD8B44FD7010AD8B4D4D74A
:101CF800030AD8B4BBD72F0E0101466F010E0101AC
:101D0800476F5EC148F15FC149F15FEC1DF0070EF6
:101D18000101526F580E0101516F590EE82EFED77E
:101D2800512FFCD7522FFAD700D02B0E0101466F46
:101D3800010E0101476F0DC148F10EC149F15FEC79
:101D48001DF00D0E0101526FAF0E0101516FB60E5D
:101D5800E82EFED7512FFCD7522FFAD700F02B0EC2
:101D68000101466F010E0101476F0BC148F10CC11B
:101D780049F15FEC1DF01B0E0101466F010E0101D8
:101D8800476F000E0101496F000E486F5FEC1DF0B0
:101D98001F0E00018E6F010E00018F6F000E0001F3
:101DA800916F010E906F08EC1BF012000001C76FD5
:101DB8006D0E0001C765BAD0000E00019F6F030EBB
:101DC8009E6F000E0001976F0A0E966F000E0001BD
:101DD800916F640E906FC7C08EF000018F6BFCECA2
:101DE8001FF08EC094F08FC095F091EC1EF0090E94
:101DF8000001942500019C6F000E0001952100014F
:101E08009D6F5BEC25F0590E00019C25F66EFE0EC9
:101E180000019D21F76E0900F5CFB2F00900F5CF5A
:101E2800B3F00A00F5CFB4F0000E0001976F640E0E
:101E3800966FC7C094F00001956B91EC1EF0120EDE
:101E48000001942500019C6F000E000195210001FE
:101E58009D6F000E00019F6F030E9E6F5BEC25F0D7
:101E6800590E00019C25F66EFE0E00019D21F76EAD
:101E78000900F5CFAFF00900F5CFB0F00A00F5CFB3
:101E8800B1F0A3EC15F0AFC0C4F0B0C0C5F0B1C05C
:101E9800C6F0000E00019F6F030E9E6F000E00013A
:101EA800916F0A0E906FC7C08EF000018F6BFCEC2B
:101EB8001FF08EC09CF08FC09DF05BEC25F0590E92
:101EC80000019C25F66EFE0E00019D21F76E0900AB
:101ED800F5CFB2F00900F5CFB3F00A00F5CFB4F0B2
:101EE800C4C0AFF0C5C0B0F0C6C0B1F0A3EC15F0E7
:101EF800AFC0C1F0B0C0C2F0B1C0C3F0C1C0AFF054
:101F0800C2C0B0F0C3C0B1F0000E0001B26F000E45
:101F18000001B36F3F0E0001B46FA3EC15F0AFC022
:101F2800BEF0B0C0BFF0B1C0C0F012000A0E000190
:101F3800C7656ED0000E00019F6F030E9E6F000EE6
:101F48000001916F0A0E906FC7C08EF000018F6B71
:101F5800FCEC1FF08EC09CF08FC09DF05BEC25F070
:101F6800590E00019C25F66EFE0E00019D21F76EAC
:101F78000900F5CFB2F00900F5CFB3F00A00F5CFAC
:101F8800B4F0000E0001976F0A0E966FC7C094F068
:101F98000001956B91EC1EF0090E000194250001DB
:101FA8009C6F000E0001952100019D6F000E00013D
:101FB8009F6F030E9E6F5BEC25F0590E00019C2568
:101FC800F66EFE0E00019D21F76E0900F5CFAFF009
:101FD8000900F5CFB0F00A00F5CFB1F0A3EC15F089
:101FE800AFC0C4F0B0C0C5F0B1C0C6F0C4C0AFF057
:101FF800C5C0B0F0C6C0B1F0000E0001B26F000E4F
:102008000001B36F3F0E0001B46FA3EC15F087D742
:102018000001C751030D590EF324F66EFE0EF4208D
:10202800F76E0900F5CFAFF00900F5CFB0F00A0060
:10203800F5CFB1F0000E0001B26F000E0001B36FD2
:102048003F0E0001B46FA3EC15F0AFC0BEF0B0C0F6
:10205800BFF0B1C0C0F01200CAC0CEF00001CF6B13
:10206800D06B0001C9350001CE3701E3CF810001F3
:10207800CE510001D36FCDC0CEF00001CF6BD06B35
:102088000001CC350001CE3701E3CF810001CE51EC
:102098000001D26F0001D3510001D8B411D0000162
:1020A800D2510001D35DD8B012D00001D35100083D
:1020B8000001D2250001CE6F180E0001CE6507D0B1
:1020C800CBC0C8F0CCC0C9F0CDC0CAF01200000126
:1020D800D2510001D8B411D00001D3510001D25D12
:1020E800D8B012D00001D25100080001D325000158
:1020F800CE6F180E0001CE6507D0C8C0C8F0C9C0A1
:10210800C9F0CAC0CAF01200060E0001D16F000162
:10211800CAAF02D00001D18F0001CDAF02D00001BB
:10212800D18D0001C98FFF0E0001C817FF0E0001F5
:10213800C917000E0001CA170001CC8FFF0E00015D
:10214800CB17FF0E0001CC17000E0001CD170001C0
:10215800D2510001D35DD8B025D00001D890CB373B
:10216800CC37CD370001D2070001D3510001D21975
:10217800D8B411D00001D107D1C0CEF0070E0001AC
:10218800CE17D8B408D0E9D70001D890CA33C933DC
:10219800C8330001D32B0001D2510001D319D8B4A0
:1021A8002BD0F2D70001D3510001D25DD8B024D092
:1021B8000001D890C837C937CA370001D3070001D2
:1021C800D3510001D219D8B411D00001D107D1C020
:1021D800CEF0070E0001CE17D8B408D0E9D7000119
:1021E800D890CD33CC33CB330001D22B0001D25160
:1021F8000001D319D8A4F3D70001D1AF12D0FF0E34
:102208000001C81BFF0E0001C91BFF0E0001CA1BFD
:10221800010E0001C827000E0001C923000E0001AD
:10222800CA230001D1AD12D0FF0E0001CB1BFF0E57
:102238000001CC1BFF0E0001CD1B010E0001CB27B6
:10224800000E0001CC23000E0001CD23000E00017A
:10225800D16F0001C8510001CB270001C95100010D
:10226800CC230001CA510001CD230001CDAF15D008
:10227800FF0E0001CB1BFF0E0001CC1BFF0E00015F
:10228800CD1B010E0001CB27000E0001CC23000E50
:102298000001CD23010E0001D16FCBC08EF0CCC060
:1022A8008FF0CDC090F0D3C091F0D1C092F0FFEC88
:1022B80019F08EC0C8F08FC0C9F090C0CAF01200E3
:1022C800346E6D0E34649FD0000E126E030E116EC4
:1022D800000E0A6E0A0E096E000E046E640E036E7E
:1022E80034C001F0026AFEEC22F001C007F002C01F
:1022F80008F0C5EC21F0090E07240F6E000E082027
:10230800106EE6EC25F0590E0F24F66EFE0E102026
:10231800F76E0900F5CF1FF00900F5CF20F00A008D
:10232800F5CF21F0000E0A6E640E096E34C007F076
:10233800086AC5EC21F0120E07240F6E000E082063
:10234800106E000E126E030E116EE6EC25F0590E9B
:102358000F24F66EFE0E1020F76E0900F5CF1CF064
:102368000900F5CF1DF00A00F5CF1EF08AEC1BF02E
:102378001CC031F01DC032F01EC033F0000E126ECA
:10238800030E116E000E046E0A0E036E34C001F0C7
:10239800026AFEEC22F001C00FF002C010F0E6EC79
:1023A80025F0590E0F24F66EFE0E1020F76E090068
:1023B800F5CF1FF00900F5CF20F00A00F5CF21F086
:1023C80031C01CF032C01DF033C01EF08AEC1BF087
:1023D8001CC02EF01DC02FF01EC030F02EC01CF007
:1023E8002FC01DF030C01EF0000E1F6E000E206EB4
:1023F8003F0E216E8AEC1BF01CC02BF01DC02CF088
:102408001EC02DF012000A0E34645DD0000E126E4C
:10241800030E116E000E046E0A0E036E34C001F036
:10242800026AFEEC22F001C00FF002C010F0E6ECE8
:1024380025F0590E0F24F66EFE0E1020F76E0900D7
:10244800F5CF1FF00900F5CF20F00A00F5CF21F0F5
:10245800000E0A6E0A0E096E34C007F0086AC5EC51
:1024680021F0090E07240F6E000E0820106E000ED2
:10247800126E030E116EE6EC25F0590E0F24F66E5F
:10248800FE0E1020F76E0900F5CF1CF00900F5CFFD
:102498001DF00A00F5CF1EF08AEC1BF01CC031F0CD
:1024A8001DC032F01EC033F031C01CF032C01DF028
:1024B80033C01EF0000E1F6E000E206E3F0E216E00
:1024C8008AEC1BF099D73450030D590EF324F66E9D
:1024D800FE0EF420F76E0900F5CF1CF00900F5CFC9
:1024E8001DF00A00F5CF1EF0000E1F6E000E206EC4
:1024F8003F0E216E8AEC1BF01CC02BF01DC02CF087
:102508001EC02DF0120037C03BF03C6A3D6A3634DD
:102518003B3601E33C803B50406E3AC03BF03C6A9E
:102528003D6A39343B3601E33C803B503F6E4050B6
:10253800D8B40BD03F50405CD8B00ED04050000803
:102548003F243B6E180E3B6407D038C035F039C0C5
:1025580036F03AC037F012003F50D8B40BD0405094
:102568003F5CD8B00ED03F50000840243B6E180E98
:102578003B6407D035C035F036C036F037C037F089
:102588001200060E3E6E37BE3E8E3ABE3E8C368E2A
:10259800FF0E3516FF0E3616000E3716398EFF0E53
:1025A8003816FF0E3916000E3A163F50405CD8B068
:1025B8001BD0D890383639363A363F0640503F1847
:1025C800D8B40DD03E063EC03BF0070E3B16D8B43B
:1025D80006D0EFD7D890373236323532402A3F50BE
:1025E8004018D8B41FD0F6D740503F5CD8B01AD0A6
:1025F800D890353636363736400640503F18D8B46E
:102608000DD03E063EC03BF0070E3B16D8B406D0B0
:10261800EFD7D8903A32393238323F2A3F504018F3
:10262800D8A4F7D73EAE0CD0FF0E351AFF0E361AD7
:10263800FF0E371A010E3526000E3622000E3722FD
:102648003EAC0CD0FF0E381AFF0E391AFF0E3A1A9C
:10265800010E3826000E3922000E3A22000E3E6E78
:10266800355038263650392237503A223AAE0ED0F5
:10267800FF0E381AFF0E391AFF0E3A1A010E3826C5
:10268800000E3922000E3A22010E3E6E38C001F0CB
:1026980039C002F03AC003F040C004F03EC005F073
:1026A800A5EC1FF001C035F002C036F003C037F0CA
:1026B800120090C094F00001956B966B00018F3565
:1026C8000001943701E395810001945100019C6F4A
:1026D80000019C51D8A40AD0000E00018E6F000E94
:1026E8008F6F000E906F000E916F120093C094F0E0
:1026F8000001956B966B000192350001943701E358
:1027080095810001945100019B6F00019B51D8A451
:102718000AD0000E00018E6F000E8F6F000E906FB2
:10272800000E916F120000018F8FFF0E00018E17AF
:10273800FF0E00018F17000E000190170001928F05
:10274800FF0E00019117FF0E00019217000E000105
:102758009317000E0001976F000E986F000E996F87
:10276800000E9A6F7F0E00019C5F00019B51980F2D
:1027780000019C5F180E00019B6F0001D8909737ED
:10278800983799379A370001915100018E5D000101
:10279800925100018F590001935100019059D8A01E
:1027A8000ED00001915100018E5F0001925100018D
:1027B8008F5B000193510001905B0001978100013C
:1027C800D8908E378F37903700019B2FD6D70001CE
:1027D8009CAF1AD000019C51800A970FD8B00AD03C
:1027E800000E00018E6F000E8F6F000E906F000EAE
:1027F800916F12000001D8909A3399339833973328
:1028080000019C3FF7D71BD0170E00019C6512D022
:10281800000E00018E6F000E8F6F000E906F000E7D
:10282800916F12000001D8909737983799379A37E7
:1028380000019C0700019C510001D8A4F3D797C060
:102848008EF098C08FF099C090F09AC091F0120065
:102858000001903591350001996F00019951D8A474
:102868000AD0000E00018E6F000E8F6F000E906F61
:10287800000E916F12000001933594350001986F96
:1028880000019851D8A40AD0000E00018E6F000EE6
:102898008F6F000E906F000E916F12000001908FE5
:1028A800FF0E00018E17FF0E8F17FF0E9017000EF8
:1028B80091170001938FFF0E00019117FF0E9217D9
:1028C800FF0E9317000E9417000E0001946F000E70
:1028D800956F000E966F000E976F7F0E0001995F3F
:1028E80000019851A00F0001995F200E0001986F18
:1028F8000001D89094379537963797370001915152
:1029080000018E5D0001925100018F590001935121
:10291800000190590001945100019159D8A012D09A
:102928000001915100018E5F0001925100018F5BFF
:10293800000193510001905B000194510001915BEB
:10294800000194810001D8908E378F3790379137E6
:102958000001982FCDD7000199AF1AD000019951E5
:10296800800A9F0FD8B00AD0000E00018E6F000EAB
:102978008F6F000E906F000E916F12000001D890BB
:1029880097339633953394330001993FF7D71BD08B
:102998001F0E0001996512D0000E00018E6F000E07
:1029A8008F6F000E906F000E916F12000001D8908B
:1029B8009437953796379737000199070001995151
:1029C8000001D8A4F3D794C08EF095C08FF096C0BC
:1029D80090F097C091F01200A80E0101376FFD0E1C
:1029E800386FFF0E396FFF0E3A6FE20E0101426F2A
:1029F800040E436F000E446F000E456F6A0E01010E
:102A08003B6F180E3C6F000E3D6F000E3E6F42C1CB
:102A180033F143C134F144C135F145C136F1010107
:102A2800331F341F351F361F332B000E3423352335
:102A3800362301013B51010133250001966F010145
:102A48003C51010134210001976F01013D51010101
:102A580035210001986F01013E5101013621000125
:102A6800996F4DEC20F096C0B2F097C0B3F098C0C3
:102A7800B4F0000E0001A36F340E0001A46F430EE2
:102A88000001A56FE3C096F0E4C097F0BDEC24F018
:102A980096C0A0F097C0A1F098C0A2F052EC16F032
:102AA800A0C0AFF0A1C0B0F0A2C0B1F0A3EC15F087
:102AB800AFC0CBF0B0C0CCF0B1C0CDF042C196F001
:102AC80043C197F044C198F045C199F04DEC20F00E
:102AD80096C0C8F097C0C9F098C0CAF030EC10F0A2
:102AE800C8C03FF1C9C040F1CAC041F137C196F032
:102AF80038C197F039C198F03AC199F04DEC20F0FF
:102B080096C0CBF097C0CCF098C0CDF03FC1C8F0CC
:102B180040C1C9F041C1CAF030EC10F0C8C0D4F0CF
:102B2800C9C0D5F0CAC0D6F0F8EC16F0D4C0E3F0AE
:102B3800D5C0E4F0D6C0E5F0D7C0E6F01200B1C0C9
:102B4800B5F00001B66BB76B0001B0350001B537C1
:102B580001E3B6810001B5510001B86F0001B85119
:102B6800D8A40AD0000E0001AF6F000E0001B06FAC
:102B7800000E0001B16F1200B4C0B5F00001B66BD1
:102B8800B76B0001B3350001B53701E3B681000129
:102B9800B5510001BD6F0001BD51D8A40AD0000E87
:102BA8000001AF6F000E0001B06F000E0001B16FA1
:102BB80012000001BD517B0F0001B827B1C0BDF064
:102BC8000001B4510001BD1B800E0001BD170001BA
:102BD800B08F0001B38FFF0E0001B217FF0E000186
:102BE800B317000E0001B417000E0001B96F000EF4
:102BF8000001BA6F000E0001BB6F070E0001BC6F29
:102C08000001AFA10CD00001B2510001B9270001A9
:102C1800B3510001BA230001B4510001BB230001E4
:102C2800D890B133B033AF330001D890B237B3374F
:102C3800B4370001BC2FE4D7090E0001BC6F0001B6
:102C4800AFA10CD00001B2510001B9270001B35166
:102C58000001BA230001B4510001BB230001D89040
:102C6800B133B033AF330001D890BB33BA33B93383
:102C78000001BC2FE4D7B9C08EF0BAC08FF0BBC03A
:102C880090F0B8C091F0BDC092F0FFEC19F08EC082
:102C9800AFF08FC0B0F090C0B1F01200A2C0A6F0A3
:102CA8000001A76BA86B0001A1350001A63701E35D
:102CB800A7810001A6510001AD6F0001AD51D8A454
:102CC8000AD0000E0001A06F000E0001A16F000ED7
:102CD8000001A26F1200A5C0A6F00001A76BA86BA7
:102CE8000001A4350001A63701E3A7810001A65120
:102CF8000001AE6F0001AE51D8A40AD0000E000149
:102D0800A06F000E0001A16F000E0001A26F12005B
:102D1800000E0001AA6F000E0001AB6F000E00014B
:102D2800AC6F0001AE51890F0001AD5FA2C0AEF0DB
:102D38000001A5510001AE1B800E0001AE17000175
:102D4800A18FFF0E0001A017FF0E0001A117000EB2
:102D58000001A2170001A48FFF0E0001A317FF0EA8
:102D68000001A417000E0001A517180E0001A96F95
:102D78000001D890AA37AB37AC370001A351000146
:102D8800A05D0001A4510001A1590001A551000155
:102D9800A259D8A00ED00001A3510001A05F0001E4
:102DA800A4510001A15B0001A5510001A25B000133
:102DB800AA810001D890A037A137A2370001A92F16
:102DC800D7D7AAC08EF0ABC08FF0ACC090F0ADC022
:102DD80091F0AEC092F0FFEC19F08EC0A0F08FC059
:102DE800A1F090C0A2F01200D6C0D8F00001D96BB3
:102DF800DA6B0001D5350001D83701E3D98100012C
:102E0800D8510001E26F0001E251D8A40AD0000EA7
:102E18000001D46F000ED56F000ED66F000ED76F6D
:102E28001200170E0001D86FD4C0D9F0D5C0DAF05F
:102E3800D6C0DBF00001D8290001DC6F05D0000105
:102E4800D890DB33DA33D9330001DC2FF8D700010F
:102E5800D9510001DD6F0001D58FFF0E0001D41795
:102E6800FF0E0001D517000E0001D6170001D4513E
:102E78000001DE6F0001D5510001DF6F0001D6515E
:102E88000001E06F0001E16B8E0E0001E25F0001BE
:102E9800E2AF1AD00001E251800A8F0FD8B00AD0F1
:102EA800000E0001D46F000ED56F000ED66F000E15
:102EB800D76F12000001D890E133E033DF33DE33FF
:102EC8000001E23FF7D71BD0170E0001E26512D0D0
:102ED800000E0001D46F000ED56F000ED66F000EE5
:102EE800D76F12000001D890DE37DF37E037E137BF
:102EF8000001E2070001E2510001D8A4F3D7000164
:102F0800DD510001D8B409D00001E11FE01FDF1F27
:102F1800DE6D000EDF23E023E123DEC0D4F0DFC046
:102F2800D5F0E0C0D6F0E1C0D7F01200A80E586E78
:102F3800FD0E596EFF0E5A6EFF0E5B6EE20E636E4B
:102F4800040E646E000E656E000E666E6A0E5C6E90
:102F5800180E5D6E000E5E6E000E5F6E63C054F05C
:102F680064C055F065C056F066C057F0541E551E33
:102F7800561E571E542A000E5522562257225C50C0
:102F88005424096E5D5055200A6E5E5056200B6E13
:102F98005F5057200C6EC2EC22F009C01FF00AC027
:102FA80020F00BC021F0000E106E340E116E430E8F
:102FB800126E50C009F051C00AF03FEC25F009C06C
:102FC8000DF00AC00EF00BC00FF07EEC1CF00DC027
:102FD8001CF00EC01DF00FC01EF08AEC1BF01CC0C8
:102FE80038F01DC039F01EC03AF063C009F064C063
:102FF8000AF065C00BF066C00CF0C2EC22F009C004
:1030080035F00AC036F00BC037F087EC12F035C047
:1030180060F036C061F037C062F058C009F059C09E
:103028000AF05AC00BF05BC00CF0C2EC22F009C0E9
:1030380038F00AC039F00BC03AF060C035F061C012
:1030480036F062C037F087EC12F035C041F036C078
:1030580042F037C043F004EC1CF041C050F042C0CD
:1030680051F043C052F044C053F0120003C007F0BF
:10307800086A096A0234073601E3088007500F6EB0
:103088000F50D8A409D0000E016E000E026E000E7B
:10309800036E000E046E120006C007F0086A096A83
:1030A8000534073601E3088007500E6E0E50D8A489
:1030B80009D0000E016E000E026E000E036E000EA7
:1030C800046E1200028EFF0E0116FF0E0216000E8D
:1030D8000316058EFF0E0416FF0E0516000E0616C3
:1030E800000E0A6E000E0B6E000E0C6E000E0D6EBA
:1030F8007F0E0F5E0E50980F0F5E180E0E6ED89052
:103108000A360B360C360D360450015C0550025851
:1031180006500358D8A007D00450015E0550025A43
:103128000650035A0A80D8900136023603360E2E0E
:10313800E6D70FAE16D00F50800A970FD8B009D037
:10314800000E016E000E026E000E036E000E046E7D
:103158001200D8900D320C320B320A320F3EF9D7DA
:1031680015D0170E0F640FD0000E016E000E026E00
:10317800000E036E000E046E1200D8900A360B364D
:103188000C360D360F060F50D8A4F7D70AC001F039
:103198000BC002F00CC003F00DC004F0120078D090
:1031A800000120EE02F08E51D9268F51DA22DF502D
:1031B8000001906F80CF91F00001902B03D00001A7
:1031C800D89091330001902FFAD7010E0001911782
:1031D8000001915100018E6F8F6B1200000120EEEB
:1031E80002F08E51D9268F51DA22DF500001906FFC
:1031F80081CF91F00001902B03D00001D89091333A
:103208000001902FFAD7010E00019117000191518A
:1032180000018E6F8F6B1200000120EE02F08E51BC
:10322800D9268F51DA22DF500001906F82CF91F0BA
:103238000001902B03D00001D89091330001902F0A
:10324800FAD7010E000191170001915100018E6F0C
:103258008F6B1200000120EE02F08E51D9268F519B
:10326800DA22DF500001906F83CF91F00001902B9C
:1032780003D00001D89091330001902FFAD7010EA6
:10328800000191170001915100018E6F8F6B1200A0
:103298008EC0D9FF8FC0DAFFDECF90F0DDCF91F07E
:1032A80000019151000AD8A40ED000019051000AE3
:1032B800D8B476D7010AD8B491D7030AD8B4ACD712
:1032C800010AD8B4C7D700018E698F691200033488
:1032D80004340C6E0C50D8A409D0000E016E000EF8
:1032E800026E000E036E000E046E120006340734E0
:1032F8000B6E0B50D8A409D0000E016E000E026EA2
:10330800000E036E000E046E1200038EFF0E0116EF
:10331800FF0E0216FF0E0316000E0416068EFF0E91
:103328000416FF0E0516FF0E0616000E0716000EF1
:10333800076E000E086E000E096E000E0A6E7F0EF4
:103348000C5E0B50A00F0C5E200E0B6ED89007364B
:10335800083609360A360450015C055002580650F2
:10336800035807500458D8A009D00450015E0550EE
:10337800025A0650035A0750045A0780D89001365B
:103388000236033604360B2EE1D70CAE16D00C509D
:10339800800A9F0FD8B009D0000E016E000E026E91
:1033A800000E036E000E046E1200D8900A32093225
:1033B800083207320C3EF9D715D01F0E0C640FD017
:1033C800000E016E000E026E000E036E000E046EFB
:1033D8001200D8900736083609360A360C060C5003
:1033E800D8A4F7D707C001F008C002F009C003F05D
:1033F8000AC004F01200000191510001D8B408D0AD
:1034080000018E5100018F1100019011D8A411D034
:10341800000E00018E6F000E00018F6F000E00017C
:10342800906F12000001912B0001D89090338F33D8
:103438008E33000E00018E150001936F000E0001FF
:103448008F150001946FFE0E000190150001956F15
:10345800000193510001941100019511D8B411D0C5
:10346800E1D70001912B010E00018E27000E00010B
:103478008F23000E000190230001D89090338F33E2
:103488008E33000E00018E150001936F000E0001AF
:103498008F150001946FFF0E000190150001956FC4
:1034A800000193510001941100019511D8B408D07E
:1034B800D8D7000191070001D8908E378F37903701
:1034C80000018FBF04D0020E00019161F2D7000104
:1034D80091B102D000018F9F0001D8909133000173
:1034E800915100019013000192510001D8B402D00B
:1034F8000001908F8EC08EF08FC08FF090C090F03A
:103508001200F2A41200F294D8907534D96E763471
:10351800DA6E630ED926010EDA22DECF07F0DDCF90
:1035280008F0000E0A6E000E096E2DEC1EF0010E5A
:103538007524016E000E7620026E010E01017125C0
:10354800036E000E01017221046EFEEC22F0D89089
:1035580001360236630E0124D96E010E0220DA6E9E
:10356800DECF07F0DDCF08F0000E0A6E010E096EFF
:103578002DEC1EF0000E086E000E076EFF0E106E8A
:10358800FF0E116E010E7524016E000E7620026E7C
:10359800010E01017125036E000E01017221046EF6
:1035A800FEEC22F0D89001360236EA0E0124D96EDC
:1035B800000E0220DA6EDECF12F0DDCF13F0121EFD
:1035C800131E124A132A105012261150132212C029
:1035D80009F013C00AF00B6A0C6A4DEC24F0010ED6
:1035E8007524016E000E7620026E010E0101712510
:1035F800036E000E01017221046EFEEC22F001C080
:1036080075F002C076F0120000018E5100018F1192
:10361800D8B41200000120EE02F08E51D9268F5145
:10362800DA22DF500001926F010E0001936F000E45
:103638000001946F0001922B04D0D89000019337B9
:1036480094370001922FF9D793C095F094C096F063
:103658000001905100019111D8A43CD0FF0E000147
:10366800951B38D00001900500019111D8A404D011
:103678000001955189121200000195518916120016
:103688000001900500019111D8A404D000019551C2
:103698008A121200000195518A1612000001900545
:1036A80000019111D8A404D0000195518B12120089
:1036B800000195518B16120000019005000191112F
:1036C800D8A404D0000195518C1212000001955124
:1036D8008C1612008EC0D9FF8FC0DAFFDECF92F0B1
:1036E800DDCF93F000019351000AD8A41200000125
:1036F8009251000AD8B4B6D7010AD8B4C1D7030A80
:10370800D8B4CCD7010AD8A41200D6D71EC022F04C
:10371800236A246A1D34223601E323802250256E51
:103728002550D8A407D0000E1C6E000E1D6E000E8A
:103738001E6E120021C022F0236A246A2034223629
:1037480001E3238022502A6E2A50D8A407D0000E05
:103758001C6E000E1D6E000E1E6E12002A507B0F8E
:1037680025261EC02AF021502A1A800E2A161D8EE0
:10377800208EFF0E1F16FF0E2016000E2116000EBB
:10378800266E000E276E000E286E070E296E1CA0EE
:1037980006D01F5026262050272221502822D890B4
:1037A8001E321D321C32D8901F3620362136292E63
:1037B800EED7090E296E1CA006D01F5026262050D1
:1037C800272221502822D8901E321D321C32D89030
:1037D800283227322632292EEED726C001F027C0FC
:1037E80002F028C003F025C004F02AC005F0A5ECBB
:1037F8001FF001C01CF002C01DF003C01EF0120033
:1038080043C045F0466A476A4234453601E346807C
:1038180045504F6E4F50D8A409D0000E416E000E8F
:10382800426E000E436E000E446E1200170E456E77
:1038380041C046F042C047F043C048F04528496EB1
:1038480004D0D890483247324632492EFAD74650EB
:103858004A6E428EFF0E4116FF0E4216000E4316A8
:1038680041504B6E42504C6E43504D6E4E6A8E0E18
:103878004F5E4FAE16D04F50800A8F0FD8B009D088
:10388800000E416E000E426E000E436E000E446E36
:103898001200D8904E324D324C324B324F3EF9D74F
:1038A80015D0170E4F640FD0000E416E000E426EF9
:1038B800000E436E000E446E1200D8904B364C3604
:1038C8004D364E364F064F50D8A4F7D74A50D8B485
:1038D80008D04E1E4D1E4C1E4B6C000E4C224D2225
:1038E8004E224BC041F04CC042F04DC043F04EC098
:1038F80044F012000FC013F0146A156A0E34133620
:1039080001E3148013501A6E1A50D8A407D0000E81
:103918000D6E000E0E6E000E0F6E120012C013F028
:10392800146A156A1134133601E3148013501B6EA0
:103938001B50D8A407D0000E0D6E000E0E6E000EA0
:103948000F6E1200000E176E000E186E000E196E24
:103958001B50890F1A5E0FC01BF012501B1A800EE5
:103968001B160E8EFF0E0D16FF0E0E16000E0F16EE
:10397800118EFF0E1016FF0E1116000E1216180EDD
:10398800166ED89017361836193610500D5C11502F
:103998000E5812500F58D8A007D010500D5E115075
:1039A8000E5A12500F5A1780D8900D360E360F3611
:1039B800162EE7D717C001F018C002F019C003F09F
:1039C8001AC004F01BC005F0A5EC1FF001C00DF0F3
:1039D80002C00EF003C00FF012000600FACF80F00C
:1039E800FBCF81F0E9CF82F0EACF83F0E1CF84F01A
:1039F800E2CF85F0D9CF86F0DACF87F0F3CF88F021
:103A0800F4CF89F0F6CF8AF0F7CF8BF0F8CF8CF0AF
:103A1800F5CF8DF085EC1AF0F2A206D0F292000EE6
:103A28000101706F010E6F6FF0B0F0A626D0F09014
:103A380081380F0B0F0B726E7250D8A402D07A4ADD
:103A48007B2A7204D8A403D07A06D8A07B0639EC66
:103A580026F0DB0E506EFF0E516E7AC052F07BC01E
:103A680053F0B2EC04F02F0E676E010E686E7AC048
:103A780069F07BC06AF04EEC1FF08DC0F5FF8CC07A
:103A8800F8FF8BC0F7FF8AC0F6FF89C0F4FF88C033
:103A9800F3FF87C0DAFF86C0D9FF85C0E2FF84C084
:103AA800E1FF83C0EAFF82C0E9FF81C0FBFF80C05D
:103AB800FAFF7C921100C30E01014B6F500E4A6F42
:103AC800000E01014D6F000E4C6F3FD0D8900101E0
:103AD8004C35D96E01014D35DA6E630ED926010ECB
:103AE800DA2201014651DE181CE101014751DE18B6
:103AF800D8A417D048C1E3F049C1E4F0F0EC14F0C1
:103B0800D89001014C35D96E01014D35DA6EEA0EB7
:103B1800D926000EDA220001E3C0DEFF0001E4C06E
:103B2800DDFFD89001014C35D96E01014D35DA6EB3
:103B3800EA0ED926000EDA22DE5001014A5FDD5076
:103B480001014B5B01014C4B4D2B010171510101EE
:103B58004C5D01014D51800A0001E76F010172516E
:103B6800800A0001E759D8A0B1D7D8900101713572
:103B7800D96E01017235DA6EEA0ED926000EDA2204
:103B88004AC1DEFF4BC1DDFF1200000190AF1DD01E
:103B98008EC094F08FC095F090C096F00001941FED
:103BA800951F961F942B000E95239623000E000157
:103BB800942500018E6F000E0001952100018F6F82
:103BC800800E000196210001906F000193AF1DD077
:103BD80091C094F092C095F093C096F00001941FA4
:103BE800951F961F942B000E95239623000E000117
:103BF80094250001916F000E000195210001926F3C
:103C0800800E000196210001936F000E00018E1BAB
:103C1800000E00018F1B800E0001901B000E00019A
:103C2800911B000E0001921B800E0001931B0001E6
:103C3800915100018E5D0001925100018F590001E0
:103C4800935100019059D8B002D0D8901200D88072
:103C5800120007500810D8B4120020EE02F00750E6
:103C6800D9260850DA22DF500B6E010E0C6E000EBA
:103C78000D6E0B2A03D0D8900C360D360B2EFBD7C1
:103C88000CC00EF00DC00FF009500A10D8A42BD0AC
:103C9800FF0E0E1A28D009040A10D8A403D00E501B
:103CA800891212000E508916120009040A10D8A4AD
:103CB80003D00E508A1212000E508A161200090400
:103CC8000A10D8A403D00E508B1212000E508B1677
:103CD800120009040A10D8A403D00E508C12120046
:103CE8000E508C16120007C0D9FF08C0DAFFDECFCD
:103CF8000BF0DDCF0CF00C50000AD8A412000B50CA
:103D0800000AD8B4C8D7010AD8B4CFD7030AD8B4A0
:103D1800D6D7010AD8A41200DCD7000E0001996F8B
:103D2800000197AF08D00001966D971FD8B0972B68
:103D3800010E0001996F000195AF08D00001946D44
:103D4800951FD8B0952B010E0001991B000E00019C
:103D58009B6F000E9A6F0001965100019711D8B41D
:103D68002CD0010E0001986F06D00001D89096372C
:103D780097370001982B000197AFF7D70001D8902B
:103D88009A379B37000196510001945D00019751C5
:103D980000019559D8A00AD0000196510001945FFE
:103DA800000197510001955B00019A810001D890AC
:103DB800973396330001982FE1D7000199510001FC
:103DC800D8B405D000019A6D9B1FD8B09B2B9AC020
:103DD80094F09BC095F01200000E0001966F000E43
:103DE800976F000E986F000E996F000192510001B5
:103DF80093110001941100019511D8B442D0010E1D
:103E080000019A6F08D00001D89092379337943701
:103E1800953700019A2B000195AFF5D70001D8908E
:103E280096379737983799370001925100018E5D80
:103E38000001935100018F590001945100019059DC
:103E48000001955100019159D8A012D0000192515A
:103E580000018E5F0001935100018F5B00019451B6
:103E68000001905B000195510001915B0001968172
:103E78000001D890953394339333923300019A2FED
:103E8800CDD796C08EF097C08FF098C090F099C0AB
:103E980091F01200C30E6E6E500E6D6E000E706EB5
:103EA800000E6F6E32D0D8906F34D96E7034DA6EDF
:103EB800630ED926010EDA226750DE1817E1685022
:103EC800DE18D8A413D069C050F06AC051F09AEC3B
:103ED80017F0D8906F34D96E7034DA6EEA0ED9269E
:103EE800000EDA2250C0DEFF51C0DDFFD8906F34DB
:103EF800D96E7034DA6EEA0ED926000EDA22DE5058
:103F08006D5EDD506E5A6F4A702A010171516F5C07
:103F18007050800A6B6E01017251800A6B58D8A0EC
:103F2800C2D7D89001017135D96E01017235DA6EA8
:103F3800EA0ED926000EDA226DC0DEFF6EC0DDFF64
:103F480012000450D8B405D0015002100310D8A4B0
:103F58000CD0000E016E000E026E000E036E1200F1
:103F6800042AD890033202320132000E0114066E80
:103F7800000E0214076EFE0E0314086E065007109A
:103F88000810D8B40CD0ECD7042A010E0126000E74
:103F98000222000E0322D890033202320132000EB0
:103FA8000114066E000E0214076EFF0E0314086E4D
:103FB800065007100810D8B406D0E6D70406D890E3
:103FC80001360236033602BE03D0020E0460F6D76D
:103FD80004A0029ED8900432045003120550D8A4BD
:103FE800038E01C001F002C002F003C003F012000A
:103FF800000E0001936F00018FAF08D000018E6D95
:104008008F1FD8B08F2B010E0001936F000191AF65
:1040180005D00001906D911FD8B0912B00019051EF
:1040280000019111D8B426D0010E0001926F06D07C
:104038000001D890903791370001922B000191AF81
:10404800F7D70001905100018E5D000191510001E8
:104058008F59D8A008D00001905100018E5F00014F
:10406800915100018F5B0001D8909133903300018A
:10407800922FE7D7000193510001D8B405D0000171
:104088008E6D8F1FD8B08F2B8EC08EF08FC08FF0A3
:104098001200000E00019F6F8E0E00019E6F00013E
:1040A80099AF15D00001991F981F971F966D000EA4
:1040B800972398239923010E00019F6F08D00001D0
:1040C800D890993398339733963300019E2B000E7E
:1040D8000001961500019A6F000E00019715000166
:1040E8009B6F000E0001981500019C6FFF0E0001E8
:1040F800991500019D6F00019A5100019B11000163
:104108009C1100019D11D8A4DAD796C08EF097C0F3
:104118008FF098C090F09EC091F09FC092F0FFEC95
:1041280019F08EC096F08FC097F090C098F01200EA
:1041380020EC25F098EC24F01F0E00018E6F010E84
:1041480000018F6F000E0001916F010E906F08EC57
:104158001BF01B0E01014E6F010E01014F6F000E87
:104168000101516F000E506F7EEC21F02B0E010102
:104178004E6F010E01014F6F0BC150F10CC151F18F
:104188007EEC21F02F0E01014E6F010E01014F6FE1
:1041980011C150F112C151F17EEC21F0F60E00016F
:1041A800E36FFF0E0001E46F09EC00F001016F51AD
:1041B80001017011D8B4FAD7FDEC0CF0000E010122
:1041C800706F000E6F6FEAD7FFD700019F51000193
:1041D800A0110001A1110001A211D8B43AD0010E1A
:1041E8000001A36F08D00001D8909F37A037A137EE
:1041F800A2370001A32B0001A2AFF5D700019F5100
:1042080000019B5D0001A05100019C590001A151D2
:1042180000019D590001A25100019E59D8A010D05B
:1042280000019F5100019B5F0001A05100019C5BB0
:104238000001A15100019D5B0001A25100019E5B9C
:104248000001D890A233A133A0339F330001A32FDC
:10425800D5D79BC09BF09CC09CF09DC09DF09EC094
:104268009EF0120003AE16D001C007F002C008F09D
:1042780003C009F0071E081E091E072A000E08229F
:104288000922000E0724016E000E0820026E800E1F
:104298000920036E06AE16D004C007F005C008F06A
:1042A80006C009F0071E081E091E072A000E08226C
:1042B8000922000E0724046E000E0820056E800EE9
:1042C8000920066E000E011A000E021A800E031A4B
:1042D800000E041A000E051A800E061A0450015C1E
:1042E8000550025806500358D8B002D0D890120092
:1042F800D88012000101714B722BFE0E0101526F22
:10430800FF0E0101536F71C154F172C155F1D8907C
:104318000101543755370101525101015427010158
:10432800535101015523630E01015425D96E010E25
:1043380001015521DA6E4EC1DEFF4FC1DDFF4EC1CE
:1043480046F14FC147F150C148F151C149F15FEC05
:104358001DF0000E00018F6F000E8E6F73EC24F0BD
:10436800000E00018F6F000E8E6F000E0001906F1F
:10437800000E916F000E926F000E936FFFEC23F00A
:104388001200000E0C6E0AAE06D0096C0A1ED8B0D8
:104398000A2A010E0C6E08AE06D0076C081ED8B0AB
:1043A800082A010E0C1A000E0E6E000E0D6E095032
:1043B8000A10D8B41CD0010E0B6E04D0D890093660
:1043C8000A360B2A0AAEFAD7D8900D360E3609509F
:1043D800075C0A500858D8A005D00950075E0A5053
:1043E800085A0D80D8900A3209320B2EEDD70C509E
:1043F800D8B404D00D6C0E1ED8B00E2A0DC007F02C
:104408000EC008F01200000E096E000E0A6E000EB3
:104418000B6E000E0C6E0550061007100810D8B46D
:104428002AD0010E0D6E06D0D8900536063607360E
:1044380008360D2A08AEF8D7D89009360A360B3652
:104448000C360550015C06500258075003580850B6
:104458000458D8A009D00550015E0650025A0750EA
:10446800035A0850045A0980D89008320732063295
:1044780005320D2EE1D709C001F00AC002F00BC0C9
:1044880003F00CC004F012008E0E00019E6F08D0DD
:104498000001D890993398339733963300019E2BB7
:1044A800000E0001961500019A6F000E0001971585
:1044B80000019B6F000E0001981500019C6FFF0E14
:1044C8000001991500019D6F00019A5100019B118F
:1044D80000019C1100019D11D8A4DAD796C08EF076
:1044E80097C08FF098C090F09EC091F0000E000128
:1044F800926FFFEC19F08EC096F08FC097F090C0C5
:1045080098F0120000018F6F00018F51F00B00012D
:104518008E6F8C500F0B8C6E00018E518C108C6E30
:104528008C96D60E00D000D0E82EFCD700D08C8612
:10453800D60E00D000D0E82EFCD700D000018F396D
:10454800F00B00018F6F00018F51F00B00018E6F8F
:104558008C500F0B8C6E00018E518C108C6E8C96CB
:10456800D60E00D000D0E82EFCD700D08C86D60E10
:1045780000D000D0E82EFCD700D01200000E126E3A
:104588008E0E116E0CAE11D00C1E0B1E0A1E096C7D
:10459800000E0A220B220C22010E126E06D0D890B1
:1045A8000C320B320A320932112A000E09140D6E30
:1045B800000E0A140E6E000E0B140F6EFF0E0C1474
:1045C800106E0D500E100F101010D8A4E8D709C0A7
:1045D80001F00AC002F00BC003F011C004F012C0D1
:1045E80005F0A5EC1FF001C009F002C00AF003C0F5
:1045F8000BF01200000E066E02AE06D0016C021E11
:10460800D8B0022A010E066E04AE04D0036C041E54
:10461800D8B0042A03500410D8B418D0010E056E7F
:1046280004D0D89003360436052A04AEFAD70350CE
:10463800015C04500258D8A004D00350015E045015
:10464800025AD89004320332052EF1D70650D8B456
:1046580004D0016C021ED8B0022A01C001F002C0C9
:1046680002F01200EC0EF66E4A0EF76E000EF86EAF
:1046780001EE00F010EE33F00900F5CFEEFFE55043
:10468800E150FAE17A0EF66E4C0EF76E000EF86EF7
:104698000900F5CF7AF00900F5CF7BF001EE63F061
:1046A800100EEE6AE806FDE100EEEAF0080EEE6A8A
:1046B800E806FDE100EE73F0070EEE6AE806FDE19C
:1046C8007C907C92000EF86E00019CEF20F0125056
:1046D800131014101510D8B424D0010E166E06D07D
:1046E800D8901236133614361536162A15AEF8D762
:1046F80012500E5C13500F58145010581550115882
:10470800D8A008D012500E5E13500F5A1450105AE9
:104718001550115AD8901532143213321232162EFF
:10472800E7D70EC00EF00FC00FF010C010F011C088
:1047380011F01200026E0250F00B016E8C500F0B3C
:104748008C6E01508C108C6E8C96D60E00D000D0DA
:10475800E82EFCD700D08C86D60E00D000D0E82EEC
:10476800FCD700D00238F00B026E0250F00B016E3D
:104778008C500F0B8C6E01508C108C6E8C96D60E54
:1047880000D000D0E82EFCD700D08C86D60E00D002
:1047980000D0E82EFCD700D012008E0E116E06D085
:1047A800D8900C320B320A320932112A000E091441
:1047B8000D6E000E0A140E6E000E0B140F6EFF0E17
:1047C8000C14106E0D500E100F101010D8A4E8D74E
:1047D80009C001F00AC002F00BC003F011C004F0D8
:1047E800000E056EA5EC1FF001C009F002C00AF02A
:1047F80003C00BF0120012D091C0D7FF90C0D6FFB3
:10480800D58E120091C0CFFF90C0CEFFCD80120090
:1048180091C0B3FF90C0B2FFB18012008EC094F077
:104828008FC095F000019551000AD8A4120000012C
:104838009451000AD8B4E0D7010AD8B4E3D7020AE1
:10484800D8A41200E5D70001D7510001D811000102
:10485800D911D8B409D0000E0001D71B000E0001F1
:10486800D81B800E0001D91BD4C0C8F0D5C0C9F030
:10487800D6C0CAF0D7C0CBF0D8C0CCF0D9C0CDF0E4
:1048880030EC10F0C8C0D4F0C9C0D5F0CAC0D6F01A
:10489800120012D00AC0D7FF09C0D6FFD58E120069
:1048A8000AC0CFFF09C0CEFFCD8012000AC0B3FFF7
:1048B80009C0B2FFB180120007C00DF008C00EF0A9
:1048C8000E50000AD8A412000D50000AD8B4E2D73E
:1048D800010AD8B4E5D7020AD8A41200E7D70DD048
:1048E800000ED56ED586F28A1CD0000ECD6E9D8046
:1048F80018D0000EB16EA08214D08EC090F08FC078
:1049080091F000019151000AD8A40BD000019051F8
:10491800000AD8B4E5D7010AD8B4E7D7020AD8B450
:10492800E8D7F28CF28E1200310E0001926FB20EAF
:10493800E82EFED7922FFCD700F0330EBDEC25F001
:10494800320EBDEC25F0280EBDEC25F00F0EBDECA7
:1049580025F0060EBDEC25F0010EBDEC25F0310E5C
:104968000001926FB20EE82EFED7922FFCD700F00E
:104978001200000E0001996F000197AF08D00001E6
:10498800966D971FD8B0972B010E0001996F96C0AE
:104998008EF097C08FF00001906B8E0E0001916F22
:1049A80099C092F0FFEC19F08EC096F08FC097F086
:1049B80090C098F0120000018E45E846FC0BC26ECC
:1049C800C280C282C2B2FED7C350C4CF92F00001E7
:1049D800936B92C093F00001926B00019227000E36
:1049E800932392C08EF093C08FF00001000E8FBF0A
:1049F800FF0E906F916F1200445045104610D8B4C6
:104A080006D0000E441A000E451A800E461A41C000
:104A180035F042C036F043C037F044C038F045C0E6
:104A280039F046C03AF087EC12F035C041F036C094
:104A380042F037C043F0120092689368C00E946E3B
:104A4800000E956E000E966E000E896E000E8A6E30
:104A5800000E8B6E000E8C6E000E8D6E000EC26EF8
:104A68000B0EC112000EC06EC082300EC012C08E76
:104A7800F288F28E1200000E0C6E0AAE06D0096C97
:104A88000A1ED8B00A2A010E0C6E09C001F00AC02D
:104A980002F0036A8E0E046E0CC005F0A5EC1FF040
:104AA80001C009F002C00AF003C00BF012000001B7
:104AB8009C5100019E03F3CFA0F0F4CFA1F00001B8
:104AC8009C5100019F03F3500001A12700019D5153
:104AD80000019E03F3500001A127A0C09CF0A1C0D3
:104AE8009DF01200E1FA3FE9A63E33A33F1E003CC9
:104AF80000B40076008A00A60099000200050002B2
:104B08000002000200000002000600020007000286
:074B18000001000300000092
:104B200000018E5100018F1100019011D8B409D0FD
:104B3000000E00018E1B000E00018F1B800E000175
:104B4000901B8EC08EF08FC08FF090C090F012003E
:104B500081A2FED781380F0B0F0B00018E6F81B23F
:104B6000FED700018E51010DC70EF324F66EFE0E26
:104B7000F420F76E0800F55012000001916F8C943C
:104B8000740EE82EFED700D00001915186EC22F081
:104B9000040E0001906F3D0EE82EFED7902FFCD73B
:104BA00000D012000001926F0A0E00019219D8A4E1
:104BB00003D02DEC26F012008C84740EE82EFED764
:104BC00000D00001925186EC22F012000F50110229
:104BD000F3CF13F0F4CF14F00F501202F350142659
:104BE00010501102F350142613C00FF014C010F02F
:104BF0001200015002100310D8B406D0000E011AA2
:104C0000000E021A800E031A01C001F002C002F069
:104C100003C003F01200056E0A0E0518D8A403D0D5
:104C200035EC26F012008C84740EE82EFED700D0EE
:104C300005509EEC23F01200046E8C94740EE82E46
:104C4000FED700D004509EEC23F0040E036E3E0EFF
:104C5000E82EFED7032EFCD71200C00EBDEC25F0C7
:104C60001200010EBDEC25F01200C00E1CEC26F067
:0C4C70001200010E1CEC26F012005A008D
:10FE300000010000000A00000064000000E8030068
:10FE40000010270000A086010040420F0080969815
:10FE50000000E1F50500CA9A3B00803FCDCC3DD7BC
:10FE6000233C12833AB7D138C62737388635C0D6F7
:10FE700033CC2B32708930E7DB2EE53C1E42A20DDD
:10FE800000803F00204100C842007A44401C465098
:10FE9000C34724744997184BBCBE4C6B6E4E031578
:10FEA0005079AD60F34971010000001000000000BE
:10FEB0000100000010000000000100000010000020
:10FEC0000000010000001031323341343536423732
:10FED0003839432A302344000059030113041773AF
:10FEE00069676E616C3A202564200A566F6C7461F4
:10FEF00067653A202566002563292074696D6520B1
:10FF0000203C4120202020200A007374617274205C
:10FF100020203C422020202020200A002020686849
:10FF20003A6D6D3A73732020202020200A007365FB
:10FF30006C6563742072756E3A20202020200A00C0
:10FF400074696D653A206E6E6E20736563202020A3
:10FF50000A005B41412C39562C432C6F7468657242
:10FF60005D200A003031323334353637383961623A
:10FF7000636465660020202020202020202020208F
:10FF80002020202A3E005B312C322C332C345D2083
:10FF9000202020202A3E00686973746F7279203C0B
:10FFA00043202020202A3E00202020737461747397
:10FFB000203C422020202A3E005B6E6E2C6E2C6E70
:10FFC0002C6E6E5D2020202A3E0020206D6D3A644C
:10FFD000643A797920202020413E00616E676C658B
:10FFE0003A202564005B25782025785D0A0074316D
:0FFFF0003A202578200072756E6E696E670000EA
:020000040020DA
:08000000FFFFFFFFFFFFFFFF00
:020000040030CA
:0E000000FF021F1EFF8381FF0FC00FE00F40A5
:00000001FF
