:0400000007EF00F016
:0A0008003A82A5ED08F03EEF0AF081
:10100000003132334134353642373839432A3023C0
:10101000440001000A006400E803102774696D654C
:0B1020003A2025640A00300031000077
:10102C000F0E126E000E136E7DD0250E1818D8B44C
:10103C0004D018501CEC0AF075D0000E146E0DC0C4
:10104C00F6FF0EC0F7FF0D4A0E2A0800F5CF18F078
:10105C001850000AD8B41200640AD8B403D00D0A90
:10106C00D8A460D012C0D9FF13C0DAFFDECF16F0BF
:10107C00DDCF17F0020E1226000E132217AE06D08B
:10108C00030E1412166C171ED8B0172A010E186E08
:10109C00050E1818D8B412D01850020D120EF324E5
:1010AC00F66E100EF420F76E0900F550165C090070
:1010BC00F5501758D8A002D0182AEAD714C011F04E
:1010CC00030E1116D8B403D02D0E1CEC0AF018C068
:1010DC0015F024D01550020D120EF324F66E100EDE
:1010EC00F420F76E0900F5CF03F00A00F5CF04F0F9
:1010FC0016C001F017C002F09EEC09F001C008F018
:10110C0002C009F0000E0B6E0A0E0A6EEAEC09F032
:10111C000850300F186E18501CEC0AF015061528E4
:10112C00D8A4D8D70DC0F6FF0EC0F7FF0D4A0E2A73
:10113C000800F5CF18F01850D8B4120076D7060076
:10114C00FACF19F0FBCF1AF0E9CF1BF0EACF1CF065
:10115C00E1CF1DF0E2CF1EF0D9CF1FF0DACF20F097
:10116C00F3CF21F0F4CF22F0F6CF23F0F7CF24F019
:10117C00F8CF25F0F5CF26F0F2A433D0F294010E7F
:10118C003426000E352236223722E80E34181CE1A4
:10119C00030E351836103710D8A416D04FEC0AF0C1
:1011AC001C0E0D6E100E0E6E384A392A38C00FF018
:1011BC0039C010F016EC08F0000E346E000E356ECF
:1011CC00000E366E000E376E350E276EF70E286E3B
:1011DC00000E296E000E2A6E28C0D7FF27C0D6FF3E
:1011EC00D58E26C0F5FF25C0F8FF24C0F7FF23C01D
:1011FC00F6FF22C0F4FF21C0F3FF20C0DAFF1FC0AE
:10120C00D9FF1EC0E2FF1DC0E1FF1CC0EAFF1BC0DE
:10121C00E9FF1AC0FBFF19C0FAFF3A92110092685D
:10122C0093689468000E956E000E966E000E896E93
:10123C00000E8A6E000E8B6E000E8C6E000E8D6E84
:10124C00000EC26E0A0EC112300EC112000EC06E1C
:10125C00C080300EC012C08EC7EC09F0F28AF28C3E
:10126C00F28E100ED56ED5866D0E306EF60E316E7A
:10127C00000E326E000E336E31C0D7FF30C0D6FF79
:10128C00D58EFFD72C6E2C50F00B2B6E8C500F0B79
:10129C008C6E2B508C108C6E8C96F00E00D0E82E31
:1012AC00FDD78C86F00E00D0E82EFDD72C38F00B35
:1012BC002C6E2C50F00B2B6E8C500F0B8C6E2B500D
:1012CC008C108C6E8C96F00E00D0E82EFDD78C8690
:1012DC00F00E00D0E82EFDD71200026E0250F00B7B
:1012EC00016E8C500F0B8C6E01508C108C6E8C968A
:1012FC00F00E00D0E82EFDD78C86F00E00D0E82E34
:10130C00FDD70238F00B026E0250F00B016E8C50C0
:10131C000F0B8C6E01508C108C6E8C96F00E00D0D6
:10132C00E82EFDD78C86F00E00D0E82EFDD71200EB
:10133C00000E066E000E056E03500410D8B41CD0BF
:10134C00010E076E04D0D89003360436072A04AE7B
:10135C00FAD7D890053606360350015C0450025873
:10136C00D8A005D00350015E0450025A0580D890D5
:10137C0004320332072EEDD705C001F006C002F08F
:10138C001200270E2F6EF50EE82EFED72F2EFCD74F
:10139C0000F0330E0BEC0AF0320E0BEC0AF0280EB8
:1013AC000BEC0AF00F0E0BEC0AF0060E0BEC0AF02D
:1013BC00010E0BEC0AF0270E2F6EF50EE82EFED761
:1013CC002F2EFCD700F012000A500B10D8B418D0F6
:1013DC00010E0C6E04D0D8900A360B360C2A0BAECC
:1013EC00FAD70A50085C0B500958D8A004D00A5000
:1013FC00085E0B50095AD8900B320A320C2EF1D7DA
:10140C0008C008F009C009F012002E6E8C945D0E15
:10141C00E82EFED700F02E5048EC09F0030E2D6E8E
:10142C00980EE82EFED72D2EFCD71200056E0A0E54
:10143C000518D8A403D04BEC0AF012008C845D0E76
:10144C00E82EFED700F0055073EC09F01200046E84
:10145C008C945D0EE82EFED700F0045073EC09F06E
:10146C00030E036E980EE82EFED7032EFCD7120047
:10147C00396A386A376A366A356A346A3A903A9207
:10148C00000EF86E000115EF09F0C00E2DEC0AF0FD
:0A149C001200010E2DEC0AF0120000
:020000040020DA
:08000000FFFFFFFFFFFFFFFF00
:020000040030CA
:0E000000FF021F1EFF8381FF0FC00FE00F40A5
:00000001FF
